{
  "_format": "hh-sol-artifact-1",
  "contractName": "FlashLiquidateAndSwap",
  "sourceName": "contracts/FlashLiquidateAndSwap/FlashLiquidateAndSwap.sol",
  "abi": [
    {
      "anonymous": false,
      "inputs": [
        {
          "indexed": false,
          "internalType": "address",
          "name": "nTokenBorrow",
          "type": "address"
        },
        {
          "indexed": false,
          "internalType": "uint256",
          "name": "repayAmount",
          "type": "uint256"
        },
        {
          "indexed": false,
          "internalType": "address",
          "name": "nTokenCollateral",
          "type": "address"
        }
      ],
      "name": "LiquidateInfo",
      "type": "event"
    },
    {
      "anonymous": false,
      "inputs": [
        {
          "indexed": true,
          "internalType": "address",
          "name": "previousOwner",
          "type": "address"
        },
        {
          "indexed": true,
          "internalType": "address",
          "name": "newOwner",
          "type": "address"
        }
      ],
      "name": "OwnershipTransferred",
      "type": "event"
    },
    {
      "payable": true,
      "stateMutability": "payable",
      "type": "fallback"
    },
    {
      "constant": true,
      "inputs": [],
      "name": "NAIController_ADDRESS",
      "outputs": [
        {
          "internalType": "address",
          "name": "",
          "type": "address"
        }
      ],
      "payable": false,
      "stateMutability": "view",
      "type": "function"
    },
    {
      "constant": true,
      "inputs": [],
      "name": "NBNB_ADDRESS",
      "outputs": [
        {
          "internalType": "address",
          "name": "",
          "type": "address"
        }
      ],
      "payable": false,
      "stateMutability": "view",
      "type": "function"
    },
    {
      "constant": true,
      "inputs": [],
      "name": "PancakeRouter",
      "outputs": [
        {
          "internalType": "contract IUniswapV2Router02",
          "name": "",
          "type": "address"
        }
      ],
      "payable": false,
      "stateMutability": "view",
      "type": "function"
    },
    {
      "constant": true,
      "inputs": [],
      "name": "WETH",
      "outputs": [
        {
          "internalType": "contract IWETH",
          "name": "",
          "type": "address"
        }
      ],
      "payable": false,
      "stateMutability": "view",
      "type": "function"
    },
    {
      "constant": true,
      "inputs": [],
      "name": "WETH_ADDRESS",
      "outputs": [
        {
          "internalType": "address payable",
          "name": "",
          "type": "address"
        }
      ],
      "payable": false,
      "stateMutability": "view",
      "type": "function"
    },
    {
      "constant": true,
      "inputs": [
        {
          "internalType": "contract IBEP20",
          "name": "token",
          "type": "address"
        },
        {
          "internalType": "address",
          "name": "account",
          "type": "address"
        }
      ],
      "name": "getERC20Balance",
      "outputs": [
        {
          "internalType": "uint256",
          "name": "",
          "type": "uint256"
        }
      ],
      "payable": false,
      "stateMutability": "view",
      "type": "function"
    },
    {
      "constant": true,
      "inputs": [],
      "name": "getETHBalance",
      "outputs": [
        {
          "internalType": "uint256",
          "name": "",
          "type": "uint256"
        }
      ],
      "payable": false,
      "stateMutability": "view",
      "type": "function"
    },
    {
      "constant": false,
      "inputs": [
        {
          "internalType": "contract IBEP20",
          "name": "token",
          "type": "address"
        }
      ],
      "name": "leave",
      "outputs": [],
      "payable": false,
      "stateMutability": "nonpayable",
      "type": "function"
    },
    {
      "constant": true,
      "inputs": [],
      "name": "owner",
      "outputs": [
        {
          "internalType": "address",
          "name": "",
          "type": "address"
        }
      ],
      "payable": false,
      "stateMutability": "view",
      "type": "function"
    },
    {
      "constant": false,
      "inputs": [
        {
          "internalType": "address",
          "name": "sender",
          "type": "address"
        },
        {
          "internalType": "uint256",
          "name": "amount0",
          "type": "uint256"
        },
        {
          "internalType": "uint256",
          "name": "amount1",
          "type": "uint256"
        },
        {
          "internalType": "bytes",
          "name": "data",
          "type": "bytes"
        }
      ],
      "name": "pancakeCall",
      "outputs": [],
      "payable": false,
      "stateMutability": "nonpayable",
      "type": "function"
    },
    {
      "constant": true,
      "inputs": [],
      "name": "receiver",
      "outputs": [
        {
          "internalType": "address payable",
          "name": "",
          "type": "address"
        }
      ],
      "payable": false,
      "stateMutability": "view",
      "type": "function"
    },
    {
      "constant": false,
      "inputs": [],
      "name": "renounceOwnership",
      "outputs": [],
      "payable": false,
      "stateMutability": "nonpayable",
      "type": "function"
    },
    {
      "constant": false,
      "inputs": [
        {
          "internalType": "address",
          "name": "borrower",
          "type": "address"
        },
        {
          "internalType": "uint256",
          "name": "repayAmount",
          "type": "uint256"
        },
        {
          "internalType": "contract INBNB",
          "name": "nTokenBorrow",
          "type": "address"
        },
        {
          "internalType": "contract INToken",
          "name": "nTokenCollateral",
          "type": "address"
        },
        {
          "internalType": "uint256",
          "name": "minProfitAmount",
          "type": "uint256"
        },
        {
          "internalType": "address",
          "name": "exchangeProfitTo",
          "type": "address"
        }
      ],
      "name": "safeLiquidateToEthWithFlashLoan",
      "outputs": [],
      "payable": false,
      "stateMutability": "nonpayable",
      "type": "function"
    },
    {
      "constant": false,
      "inputs": [
        {
          "internalType": "address",
          "name": "borrower",
          "type": "address"
        },
        {
          "internalType": "uint256",
          "name": "repayAmount",
          "type": "uint256"
        },
        {
          "internalType": "contract INToken",
          "name": "nTokenBorrow",
          "type": "address"
        },
        {
          "internalType": "contract INToken",
          "name": "nTokenCollateral",
          "type": "address"
        },
        {
          "internalType": "uint256",
          "name": "minProfitAmount",
          "type": "uint256"
        },
        {
          "internalType": "address",
          "name": "exchangeProfitTo",
          "type": "address"
        }
      ],
      "name": "safeLiquidateToTokensWithFlashLoan",
      "outputs": [],
      "payable": false,
      "stateMutability": "nonpayable",
      "type": "function"
    },
    {
      "constant": false,
      "inputs": [
        {
          "internalType": "contract IBEP20",
          "name": "token",
          "type": "address"
        },
        {
          "internalType": "address",
          "name": "to",
          "type": "address"
        },
        {
          "internalType": "uint256",
          "name": "value",
          "type": "uint256"
        }
      ],
      "name": "safeTransfer",
      "outputs": [],
      "payable": false,
      "stateMutability": "nonpayable",
      "type": "function"
    },
    {
      "constant": false,
      "inputs": [
        {
          "internalType": "address",
          "name": "newOwner",
          "type": "address"
        }
      ],
      "name": "transferOwnership",
      "outputs": [],
      "payable": false,
      "stateMutability": "nonpayable",
      "type": "function"
    },
    {
      "constant": false,
      "inputs": [
        {
          "internalType": "uint256",
          "name": "_amount",
          "type": "uint256"
        }
      ],
      "name": "withdrawETH",
      "outputs": [],
      "payable": false,
      "stateMutability": "nonpayable",
      "type": "function"
    }
  ],
  "bytecode": "0x6080604052600180546001600160a01b031990811673d6694acddee7bec26bd3cd40ae396db594540062179091556002805482167321c7f8958677140e721c969128d2dc4e2b580fcc17905560038054821673e17281c17443b90a145d1a103d57189ffb2d912f1790556004805490911673ae13d989dac2f0debff460ac112a837c89baa7cd179055600061009b6001600160e01b036100ea16565b600080546001600160a01b0319166001600160a01b0383169081178255604051929350917f8be0079c531659141344cd1fd0a4f28419497f9722a3daafe3b4186f6b6457e0908290a3506100ee565b3390565b613dad80620000fe6000396000f3fe6080604052600436106100fe5760003560e01c8063bedf77a611610095578063ebb0c2c911610064578063ebb0c2c914610360578063eda0228f146103b7578063f14210a6146103cc578063f2fde38b146103f6578063f7260d3e14610429576100fe565b8063bedf77a61461029a578063c3a8962c146102cd578063d1660f9914610308578063e709923d1461034b576100fe565b806384800812116100d157806384800812146101c45780638da5cb5b1461025b5780639983b3e814610270578063ad5c464814610285576100fe565b8063040141e5146101005780636e94729814610131578063715018a61461015857806375bddbfb1461016d575b005b34801561010c57600080fd5b5061011561043e565b604080516001600160a01b039092168252519081900360200190f35b34801561013d57600080fd5b50610146610450565b60408051918252519081900360200190f35b34801561016457600080fd5b506100fe610454565b34801561017957600080fd5b506100fe600480360360c081101561019057600080fd5b506001600160a01b0381358116916020810135916040820135811691606081013582169160808201359160a00135166104f6565b3480156101d057600080fd5b506100fe600480360360808110156101e757600080fd5b6001600160a01b038235169160208101359160408201359190810190608081016060820135600160201b81111561021d57600080fd5b82018360208201111561022f57600080fd5b803590602001918460018302840111600160201b8311171561025057600080fd5b50909250905061093a565b34801561026757600080fd5b50610115610ac4565b34801561027c57600080fd5b50610115610ad3565b34801561029157600080fd5b50610115610ae2565b3480156102a657600080fd5b506100fe600480360360208110156102bd57600080fd5b50356001600160a01b0316610af1565b3480156102d957600080fd5b50610146600480360360408110156102f057600080fd5b506001600160a01b0381358116916020013516610b80565b34801561031457600080fd5b506100fe6004803603606081101561032b57600080fd5b506001600160a01b03813581169160208101359091169060400135610c0d565b34801561035757600080fd5b50610115610c84565b34801561036c57600080fd5b506100fe600480360360c081101561038357600080fd5b506001600160a01b0381358116916020810135916040820135811691606081013582169160808201359160a0013516610c93565b3480156103c357600080fd5b506101156110b9565b3480156103d857600080fd5b506100fe600480360360208110156103ef57600080fd5b50356110d1565b34801561040257600080fd5b506100fe6004803603602081101561041957600080fd5b50356001600160a01b031661115a565b34801561043557600080fd5b506101156111bb565b600080516020613ad883398151915281565b4790565b61045c6111ca565b6000546001600160a01b039081169116146104ac576040805162461bcd60e51b81526020600482018190526024820152600080516020613c5c833981519152604482015290519081900360640190fd5b600080546040516001600160a01b03909116907f8be0079c531659141344cd1fd0a4f28419497f9722a3daafe3b4186f6b6457e0908390a3600080546001600160a01b0319169055565b6104fe6111ca565b6000546001600160a01b0390811691161461054e576040805162461bcd60e51b81526020600482018190526024820152600080516020613c5c833981519152604482015290519081900360640190fd5b6000851161058d5760405162461bcd60e51b8152600401808060200182810382526024815260200180613b7f6024913960400191505060405180910390fd5b604080516001600160a01b038089166020808401919091528284018990528188166060840152818716608084015260a0830186905290841660c0808401919091528351808403909101815260e0830180855263c45a015560e01b90529251600092739ac64cc6e4415144c455bd8e4837fea55603e5c39263c45a01559260e480840193829003018186803b15801561062457600080fd5b505afa158015610638573d6000803e3d6000fd5b505050506040513d602081101561064e57600080fd5b505160408051636f307dc360e01b815290516001600160a01b039283169263e6a439059290891691636f307dc391600480820192602092909190829003018186803b15801561069c57600080fd5b505afa1580156106b0573d6000803e3d6000fd5b505050506040513d60208110156106c657600080fd5b5051604080516001600160e01b031960e085901b1681526001600160a01b039092166004830152600080516020613ad88339815191526024830152516044808301926020929190829003018186803b15801561072157600080fd5b505afa158015610735573d6000803e3d6000fd5b505050506040513d602081101561074b57600080fd5b505190506001600160a01b0381166107945760405162461bcd60e51b815260040180806020018281038252602f815260200180613c7c602f913960400191505060405180910390fd5b6000816001600160a01b0316630dfe16816040518163ffffffff1660e01b815260040160206040518083038186803b1580156107cf57600080fd5b505afa1580156107e3573d6000803e3d6000fd5b505050506040513d60208110156107f957600080fd5b505190506001600160a01b038083169063022c0d9f908316600080516020613ad88339815191521461082c57600061082e565b895b6001600160a01b038416600080516020613ad88339815191521415610854576000610856565b8a5b30876040518563ffffffff1660e01b815260040180858152602001848152602001836001600160a01b03166001600160a01b0316815260200180602001828103825283818151815260200191508051906020019080838360005b838110156108c85781810151838201526020016108b0565b50505050905090810190601f1680156108f55780820380516001836020036101000a031916815260200191505b5095505050505050600060405180830381600087803b15801561091757600080fd5b505af115801561092b573d6000803e3d6000fd5b50505050505050505050505050565b600080600080600080878760c081101561095357600080fd5b506001546001600160a01b03823581169850602083013597506040830135811696506060830135811695506080830135945060a0909201358216925016841415610a035760006109bd6103e56109b1886103e863ffffffff6111ce16565b9063ffffffff61122e16565b905060006109e56103e56109d9896103e863ffffffff6111ce16565b9063ffffffff61127016565b11156109ef576001015b6109fd8787878785876112b2565b50610ab7565b6002546001600160a01b0385811691161415610a67576000610a336126f76109b18861271063ffffffff6111ce16565b90506000610a4f6126f76109d98961271063ffffffff6111ce16565b1115610a59576001015b6109fd878787878587611552565b6000610a816103e56109b1886103e863ffffffff6111ce16565b90506000610a9d6103e56109d9896103e863ffffffff6111ce16565b1115610aa7576001015b610ab5878787878587611871565b505b5050505050505050505050565b6000546001600160a01b031690565b6002546001600160a01b031681565b6004546001600160a01b031681565b610b7d8133836001600160a01b03166370a08231306040518263ffffffff1660e01b815260040180826001600160a01b03166001600160a01b0316815260200191505060206040518083038186803b158015610b4c57600080fd5b505afa158015610b60573d6000803e3d6000fd5b505050506040513d6020811015610b7657600080fd5b5051610c0d565b50565b6000826001600160a01b03166370a08231836040518263ffffffff1660e01b815260040180826001600160a01b03166001600160a01b0316815260200191505060206040518083038186803b158015610bd857600080fd5b505afa158015610bec573d6000803e3d6000fd5b505050506040513d6020811015610c0257600080fd5b505190505b92915050565b610c156111ca565b6000546001600160a01b03908116911614610c65576040805162461bcd60e51b81526020600482018190526024820152600080516020613c5c833981519152604482015290519081900360640190fd5b610c7f6001600160a01b038416838363ffffffff611b8e16565b505050565b6001546001600160a01b031681565b610c9b6111ca565b6000546001600160a01b03908116911614610ceb576040805162461bcd60e51b81526020600482018190526024820152600080516020613c5c833981519152604482015290519081900360640190fd5b60008511610d2a5760405162461bcd60e51b8152600401808060200182810382526024815260200180613b7f6024913960400191505060405180910390fd5b600254600090819081906001600160a01b0388811691161415610db357866001600160a01b031663534bbcb96040518163ffffffff1660e01b815260040160206040518083038186803b158015610d8057600080fd5b505afa158015610d94573d6000803e3d6000fd5b505050506040513d6020811015610daa57600080fd5b50519050610e1b565b866001600160a01b0316636f307dc36040518163ffffffff1660e01b815260040160206040518083038186803b158015610dec57600080fd5b505afa158015610e00573d6000803e3d6000fd5b505050506040513d6020811015610e1657600080fd5b505190505b739ac64cc6e4415144c455bd8e4837fea55603e5c36001600160a01b031663c45a01556040518163ffffffff1660e01b815260040160206040518083038186803b158015610e6857600080fd5b505afa158015610e7c573d6000803e3d6000fd5b505050506040513d6020811015610e9257600080fd5b50516040805163e6a4390560e01b81526001600160a01b038481166004830152600080516020613ad883398151915260248301529151919092169163e6a43905916044808301926020929190829003018186803b158015610ef257600080fd5b505afa158015610f06573d6000803e3d6000fd5b505050506040513d6020811015610f1c57600080fd5b505192506001600160a01b038316610f655760405162461bcd60e51b815260040180806020018281038252602f815260200180613c7c602f913960400191505060405180910390fd5b806001600160a01b0316836001600160a01b0316630dfe16816040518163ffffffff1660e01b815260040160206040518083038186803b158015610fa857600080fd5b505afa158015610fbc573d6000803e3d6000fd5b505050506040513d6020811015610fd257600080fd5b5051604080516001600160a01b038d811660208301528183018d90528b811660608301528a8116608083015260a082018a905288811660c0808401919091528351808403909101815260e09092019092529181169290921493509150831663022c0d9f83611041576000611043565b895b8415611050576000611052565b8a5b6040516001600160e01b031960e085901b16815260048101838152602482018390523060448301819052608060648401908152885160848501528851919389939260a4909101906020850190808383600083156108c85781810151838201526020016108b0565b739ac64cc6e4415144c455bd8e4837fea55603e5c381565b6110d96111ca565b6000546001600160a01b03908116911614611129576040805162461bcd60e51b81526020600482018190526024820152600080516020613c5c833981519152604482015290519081900360640190fd5b604051339082156108fc029083906000818181858888f19350505050158015611156573d6000803e3d6000fd5b5050565b6111626111ca565b6000546001600160a01b039081169116146111b2576040805162461bcd60e51b81526020600482018190526024820152600080516020613c5c833981519152604482015290519081900360640190fd5b610b7d81611be0565b6003546001600160a01b031681565b3390565b6000826111dd57506000610c07565b828202828482816111ea57fe5b04146112275760405162461bcd60e51b8152600401808060200182810382526021815260200180613bce6021913960400191505060405180910390fd5b9392505050565b600061122783836040518060400160405280601a81526020017f536166654d6174683a206469766973696f6e206279207a65726f000000000000815250611c80565b600061122783836040518060400160405280601881526020017f536166654d6174683a206d6f64756c6f206279207a65726f0000000000000000815250611d22565b6004805460408051632e1a7d4d60e01b8152928301889052516001600160a01b0390911691632e1a7d4d91602480830192600092919082900301818387803b1580156112fd57600080fd5b505af1158015611311573d6000803e3d6000fd5b505060408051635572051560e11b81526001600160a01b038a8116600483015287811660248301529151918816935063aae40a2a92508891604480830192600092919082900301818588803b15801561136957600080fd5b505af115801561137d573d6000803e3d6000fd5b5050604080516370a0823160e01b81523060048201529051600094506001600160a01b03881693506370a0823192506024808301926020929190829003018186803b1580156113cb57600080fd5b505afa1580156113df573d6000803e3d6000fd5b505050506040513d60208110156113f557600080fd5b505190508061143f576040805162461bcd60e51b8152602060048201526011602482015270139bc81b951bdad95b9cc81cd95a5e9959607a1b604482015290519081900360640190fd5b6000846001600160a01b031663db006a75836040518263ffffffff1660e01b815260040180828152602001915050602060405180830381600087803b15801561148757600080fd5b505af115801561149b573d6000803e3d6000fd5b505050506040513d60208110156114b157600080fd5b5051905080156114f25760405162461bcd60e51b8152600401808060200182810382526040815260200180613cef6040913960400191505060405180910390fd5b6114fe87868686611d84565b604080516001600160a01b038089168252602082018a905287168183015290517f255b02bc6cd50c0b39ea53c0f79ffbd40ffc3c01318469ef2b2f602cfb8657a49181900360600190a15050505050505050565b6000846001600160a01b031663534bbcb96040518163ffffffff1660e01b815260040160206040518083038186803b15801561158d57600080fd5b505afa1580156115a1573d6000803e3d6000fd5b505050506040513d60208110156115b757600080fd5b505190506115c6818688612557565b60408051635ec6392560e01b81526001600160a01b038981166004830152602482018990528681166044830152825160009391891692635ec6392592606480830193919282900301818787803b15801561161f57600080fd5b505af1158015611633573d6000803e3d6000fd5b505050506040513d604081101561164957600080fd5b50519050801561169c576040805162461bcd60e51b8152602060048201526019602482015278131a5c5d5a59185d1a5bdb88189bdc9c9bddc819985a5b1959603a1b604482015290519081900360640190fd5b604080516370a0823160e01b815230600482015290516000916001600160a01b038816916370a0823191602480820192602092909190829003018186803b1580156116e657600080fd5b505afa1580156116fa573d6000803e3d6000fd5b505050506040513d602081101561171057600080fd5b505190508061175b576040805162461bcd60e51b8152602060048201526012602482015271273790372a37b5b2b7399039b2b4bd32b21760711b604482015290519081900360640190fd5b6000866001600160a01b031663db006a75836040518263ffffffff1660e01b815260040180828152602001915050602060405180830381600087803b1580156117a357600080fd5b505af11580156117b7573d6000803e3d6000fd5b505050506040513d60208110156117cd57600080fd5b50519050801561180e5760405162461bcd60e51b8152600401808060200182810382526040815260200180613cef6040913960400191505060405180910390fd5b61181b898886898961261b565b604080516001600160a01b038087168252602082018c905289168183015290517f255b02bc6cd50c0b39ea53c0f79ffbd40ffc3c01318469ef2b2f602cfb8657a49181900360600190a150505050505050505050565b6000846001600160a01b0316636f307dc36040518163ffffffff1660e01b815260040160206040518083038186803b1580156118ac57600080fd5b505afa1580156118c0573d6000803e3d6000fd5b505050506040513d60208110156118d657600080fd5b505190506118e5818688612557565b60408051637af1e23160e11b81526001600160a01b03898116600483015260248201899052868116604483015291519187169163f5e3c462916064808201926020929091908290030181600087803b15801561194057600080fd5b505af1158015611954573d6000803e3d6000fd5b505050506040513d602081101561196a57600080fd5b5051156119ba576040805162461bcd60e51b8152602060048201526019602482015278131a5c5d5a59185d1a5bdb88189bdc9c9bddc819985a5b1959603a1b604482015290519081900360640190fd5b604080516370a0823160e01b815230600482015290516000916001600160a01b038716916370a0823191602480820192602092909190829003018186803b158015611a0457600080fd5b505afa158015611a18573d6000803e3d6000fd5b505050506040513d6020811015611a2e57600080fd5b5051905080611a79576040805162461bcd60e51b8152602060048201526012602482015271273790372a37b5b2b7399039b2b4bd32b21760711b604482015290519081900360640190fd5b6000856001600160a01b031663db006a75836040518263ffffffff1660e01b815260040180828152602001915050602060405180830381600087803b158015611ac157600080fd5b505af1158015611ad5573d6000803e3d6000fd5b505050506040513d6020811015611aeb57600080fd5b505190508015611b2c5760405162461bcd60e51b8152600401808060200182810382526040815260200180613cef6040913960400191505060405180910390fd5b611b39888785888861261b565b604080516001600160a01b038086168252602082018b905288168183015290517f255b02bc6cd50c0b39ea53c0f79ffbd40ffc3c01318469ef2b2f602cfb8657a49181900360600190a1505050505050505050565b604080516001600160a01b038416602482015260448082018490528251808303909101815260649091019091526020810180516001600160e01b031663a9059cbb60e01b179052610c7f908490613621565b6001600160a01b038116611c255760405162461bcd60e51b81526004018080602001828103825260268152602001806139d36026913960400191505060405180910390fd5b600080546040516001600160a01b03808516939216917f8be0079c531659141344cd1fd0a4f28419497f9722a3daafe3b4186f6b6457e091a3600080546001600160a01b0319166001600160a01b0392909216919091179055565b60008183611d0c5760405162461bcd60e51b81526004018080602001828103825283818151815260200191508051906020019080838360005b83811015611cd1578181015183820152602001611cb9565b50505050905090810190601f168015611cfe5780820380516001836020036101000a031916815260200191505b509250505060405180910390fd5b506000838581611d1857fe5b0495945050505050565b60008183611d715760405162461bcd60e51b8152602060048201818152835160248401528351909283926044909101919085019080838360008315611cd1578181015183820152602001611cb9565b50828481611d7b57fe5b06949350505050565b6001546001600160a01b03848116911614156120b0576004805460408051630d0e30db60e41b815290516001600160a01b039092169263d0e30db0928692808301926000929182900301818588803b158015611ddf57600080fd5b505af1158015611df3573d6000803e3d6000fd5b5050604080516370a0823160e01b81523060048201529051600080516020613ad883398151915294506370a08231935060248083019350602092829003018186803b158015611e4157600080fd5b505afa158015611e55573d6000803e3d6000fd5b505050506040513d6020811015611e6b57600080fd5b5051821115611eab5760405162461bcd60e51b815260040180806020018281038252604a815260200180613d2f604a913960600191505060405180910390fd5b600480546040805163a9059cbb60e01b8152339381019390935260248301859052516001600160a01b039091169163a9059cbb9160448083019260209291908290030181600087803b158015611f0057600080fd5b505af1158015611f14573d6000803e3d6000fd5b505050506040513d6020811015611f2a57600080fd5b5051611f675760405162461bcd60e51b815260040180806020018281038252602b815260200180613ba3602b913960400191505060405180910390fd5b604080516370a0823160e01b81523060048201529051600091600080516020613ad8833981519152916370a0823191602480820192602092909190829003018186803b158015611fb657600080fd5b505afa158015611fca573d6000803e3d6000fd5b505050506040513d6020811015611fe057600080fd5b5051905080156120aa57600480546003546040805163a9059cbb60e01b81526001600160a01b0392831694810194909452602484018590525191169163a9059cbb9160448083019260209291908290030181600087803b15801561204357600080fd5b505af1158015612057573d6000803e3d6000fd5b505050506040513d602081101561206d57600080fd5b50516120aa5760405162461bcd60e51b81526004018080602001828103825260218152602001806139f96021913960400191505060405180910390fd5b50612551565b6000836001600160a01b0316636f307dc36040518163ffffffff1660e01b815260040160206040518083038186803b1580156120eb57600080fd5b505afa1580156120ff573d6000803e3d6000fd5b505050506040513d602081101561211557600080fd5b5051604080516370a0823160e01b815230600482015290519192506000916001600160a01b038416916370a08231916024808301926020929190829003018186803b15801561216357600080fd5b505afa158015612177573d6000803e3d6000fd5b505050506040513d602081101561218d57600080fd5b505190506000739ac64cc6e4415144c455bd8e4837fea55603e5c3631f00ca74886121c686600080516020613ad88339815191526137d9565b6040518363ffffffff1660e01b81526004018083815260200180602001828103825283818151815260200191508051906020019060200280838360005b8381101561221b578181015183820152602001612203565b50505050905001935050505060006040518083038186803b15801561223f57600080fd5b505afa158015612253573d6000803e3d6000fd5b505050506040513d6000823e601f3d908101601f19168201604052602081101561227c57600080fd5b8101908080516040519392919084600160201b82111561229b57600080fd5b9083019060208201858111156122b057600080fd5b82518660208202830111600160201b821117156122cc57600080fd5b82525081516020918201928201910280838360005b838110156122f95781810151838201526020016122e1565b5050505090500160405250505060008151811061231257fe5b602002602001015190508181111561235b5760405162461bcd60e51b8152600401808060200182810382526037815260200180613aa16037913960400191505060405180910390fd5b6040805163a9059cbb60e01b81523360048201526024810183905290516001600160a01b0385169163a9059cbb9160448083019260209291908290030181600087803b1580156123aa57600080fd5b505af11580156123be573d6000803e3d6000fd5b505050506040513d60208110156123d457600080fd5b50516124115760405162461bcd60e51b8152600401808060200182810382526037815260200180613c256037913960400191505060405180910390fd5b604080516370a0823160e01b815230600482015290516000916001600160a01b038616916370a0823191602480820192602092909190829003018186803b15801561245b57600080fd5b505afa15801561246f573d6000803e3d6000fd5b505050506040513d602081101561248557600080fd5b50519050801561254c576003546040805163a9059cbb60e01b81526001600160a01b0392831660048201526024810184905290519186169163a9059cbb916044808201926020929091908290030181600087803b1580156124e557600080fd5b505af11580156124f9573d6000803e3d6000fd5b505050506040513d602081101561250f57600080fd5b505161254c5760405162461bcd60e51b81526004018080602001828103825260218152602001806139f96021913960400191505060405180910390fd5b505050505b50505050565b60408051636eb1769f60e11b81523060048201526001600160a01b038481166024830152915160009286169163dd62ed3e916044808301926020929190829003018186803b1580156125a857600080fd5b505afa1580156125bc573d6000803e3d6000fd5b505050506040513d60208110156125d257600080fd5b50519050818110156125515780156125ff576125ff6001600160a01b03851684600063ffffffff61385916565b6125516001600160a01b0385168460001963ffffffff61385916565b6001546001600160a01b038581169116141561295f57476000739ac64cc6e4415144c455bd8e4837fea55603e5c3631f00ca7488612667600080516020613ad8833981519152896137d9565b6040518363ffffffff1660e01b81526004018083815260200180602001828103825283818151815260200191508051906020019060200280838360005b838110156126bc5781810151838201526020016126a4565b50505050905001935050505060006040518083038186803b1580156126e057600080fd5b505afa1580156126f4573d6000803e3d6000fd5b505050506040513d6000823e601f3d908101601f19168201604052602081101561271d57600080fd5b8101908080516040519392919084600160201b82111561273c57600080fd5b90830190602082018581111561275157600080fd5b82518660208202830111600160201b8211171561276d57600080fd5b82525081516020918201928201910280838360005b8381101561279a578181015183820152602001612782565b505050509050016040525050506000815181106127b357fe5b60200260200101519050818111156127fc5760405162461bcd60e51b8152600401808060200182810382526034815260200180613a6d6034913960400191505060405180910390fd5b6004805460408051630d0e30db60e41b815290516001600160a01b039092169263d0e30db0928592808301926000929182900301818588803b15801561284157600080fd5b505af1158015612855573d6000803e3d6000fd5b5050600480546040805163a9059cbb60e01b8152339381019390935260248301879052516001600160a01b03909116945063a9059cbb9350604480830193506020928290030181600087803b1580156128ad57600080fd5b505af11580156128c1573d6000803e3d6000fd5b505050506040513d60208110156128d757600080fd5b50516129145760405162461bcd60e51b815260040180806020018281038252604d815260200180613b32604d913960600191505060405180910390fd5b478015612957576003546040516001600160a01b039091169082156108fc029083906000818181858888f19350505050158015612955573d6000803e3d6000fd5b505b50505061361a565b6000846001600160a01b0316636f307dc36040518163ffffffff1660e01b815260040160206040518083038186803b15801561299a57600080fd5b505afa1580156129ae573d6000803e3d6000fd5b505050506040513d60208110156129c457600080fd5b5051604080516370a0823160e01b815230600482015290519192506000916001600160a01b038416916370a08231916024808301926020929190829003018186803b158015612a1257600080fd5b505afa158015612a26573d6000803e3d6000fd5b505050506040513d6020811015612a3c57600080fd5b505190506001600160a01b038281169086161415612cfb57604080516370a0823160e01b815230600482015290516001600160a01b038716916370a08231916024808301926020929190829003018186803b158015612a9a57600080fd5b505afa158015612aae573d6000803e3d6000fd5b505050506040513d6020811015612ac457600080fd5b5051841115612b045760405162461bcd60e51b8152600401808060200182810382526053815260200180613a1a6053913960600191505060405180910390fd5b6040805163a9059cbb60e01b81523360048201526024810186905290516001600160a01b0387169163a9059cbb9160448083019260209291908290030181600087803b158015612b5357600080fd5b505af1158015612b67573d6000803e3d6000fd5b505050506040513d6020811015612b7d57600080fd5b5051612bba5760405162461bcd60e51b815260040180806020018281038252603a815260200180613af8603a913960400191505060405180910390fd5b604080516370a0823160e01b815230600482015290516000916001600160a01b038816916370a0823191602480820192602092909190829003018186803b158015612c0457600080fd5b505afa158015612c18573d6000803e3d6000fd5b505050506040513d6020811015612c2e57600080fd5b505190508015612cf5576003546040805163a9059cbb60e01b81526001600160a01b0392831660048201526024810184905290519188169163a9059cbb916044808201926020929091908290030181600087803b158015612c8e57600080fd5b505af1158015612ca2573d6000803e3d6000fd5b505050506040513d6020811015612cb857600080fd5b5051612cf55760405162461bcd60e51b81526004018080602001828103825260218152602001806139f96021913960400191505060405180910390fd5b50613617565b6000739ac64cc6e4415144c455bd8e4837fea55603e5c3631f00ca7489612d30600080516020613ad88339815191528a6137d9565b6040518363ffffffff1660e01b81526004018083815260200180602001828103825283818151815260200191508051906020019060200280838360005b83811015612d85578181015183820152602001612d6d565b50505050905001935050505060006040518083038186803b158015612da957600080fd5b505afa158015612dbd573d6000803e3d6000fd5b505050506040513d6000823e601f3d908101601f191682016040526020811015612de657600080fd5b8101908080516040519392919084600160201b821115612e0557600080fd5b908301906020820185811115612e1a57600080fd5b82518660208202830111600160201b82111715612e3657600080fd5b82525081516020918201928201910280838360005b83811015612e63578181015183820152602001612e4b565b50505050905001604052505050600081518110612e7c57fe5b60200260200101519050612ea583739ac64cc6e4415144c455bd8e4837fea55603e5c384612557565b826001600160a01b0316846001600160a01b0316141561306457739ac64cc6e4415144c455bd8e4837fea55603e5c3638803dbee8284612ef387600080516020613ad88339815191526137d9565b30426040518663ffffffff1660e01b81526004018086815260200185815260200180602001846001600160a01b03166001600160a01b03168152602001838152602001828103825285818151815260200191508051906020019060200280838360005b83811015612f6e578181015183820152602001612f56565b505050509050019650505050505050600060405180830381600087803b158015612f9757600080fd5b505af1158015612fab573d6000803e3d6000fd5b505050506040513d6000823e601f3d908101601f191682016040526020811015612fd457600080fd5b8101908080516040519392919084600160201b821115612ff357600080fd5b90830190602082018581111561300857600080fd5b82518660208202830111600160201b8211171561302457600080fd5b82525081516020918201928201910280838360005b83811015613051578181015183820152602001613039565b5050505090500160405250505050613205565b739ac64cc6e4415144c455bd8e4837fea55603e5c36338ed1739838361309887600080516020613ad88339815191526137d9565b30426040518663ffffffff1660e01b81526004018086815260200185815260200180602001846001600160a01b03166001600160a01b03168152602001838152602001828103825285818151815260200191508051906020019060200280838360005b838110156131135781810151838201526020016130fb565b505050509050019650505050505050600060405180830381600087803b15801561313c57600080fd5b505af1158015613150573d6000803e3d6000fd5b505050506040513d6000823e601f3d908101601f19168201604052602081101561317957600080fd5b8101908080516040519392919084600160201b82111561319857600080fd5b9083019060208201858111156131ad57600080fd5b82518660208202830111600160201b821117156131c957600080fd5b82525081516020918201928201910280838360005b838110156131f65781810151838201526020016131de565b50505050905001604052505050505b604080516370a0823160e01b81523060048201529051600080516020613ad8833981519152916370a08231916024808301926020929190829003018186803b15801561325057600080fd5b505afa158015613264573d6000803e3d6000fd5b505050506040513d602081101561327a57600080fd5b50518111156132ba5760405162461bcd60e51b8152600401808060200182810382526044815260200180613cab6044913960600191505060405180910390fd5b600480546040805163a9059cbb60e01b8152339381019390935260248301849052516001600160a01b039091169163a9059cbb9160448083019260209291908290030181600087803b15801561330f57600080fd5b505af1158015613323573d6000803e3d6000fd5b505050506040513d602081101561333957600080fd5b50516133765760405162461bcd60e51b815260040180806020018281038252604d815260200180613b32604d913960600191505060405180910390fd5b826001600160a01b0316846001600160a01b031614156134d157604080516370a0823160e01b815230600482015290516000916001600160a01b038616916370a0823191602480820192602092909190829003018186803b1580156133da57600080fd5b505afa1580156133ee573d6000803e3d6000fd5b505050506040513d602081101561340457600080fd5b5051905080156134cb576003546040805163a9059cbb60e01b81526001600160a01b0392831660048201526024810184905290519186169163a9059cbb916044808201926020929091908290030181600087803b15801561346457600080fd5b505af1158015613478573d6000803e3d6000fd5b505050506040513d602081101561348e57600080fd5b50516134cb5760405162461bcd60e51b81526004018080602001828103825260218152602001806139f96021913960400191505060405180910390fd5b5061254c565b604080516370a0823160e01b81523060048201529051600091600080516020613ad8833981519152916370a0823191602480820192602092909190829003018186803b15801561352057600080fd5b505afa158015613534573d6000803e3d6000fd5b505050506040513d602081101561354a57600080fd5b50519050801561361457600480546003546040805163a9059cbb60e01b81526001600160a01b0392831694810194909452602484018590525191169163a9059cbb9160448083019260209291908290030181600087803b1580156135ad57600080fd5b505af11580156135c1573d6000803e3d6000fd5b505050506040513d60208110156135d757600080fd5b50516136145760405162461bcd60e51b81526004018080602001828103825260218152602001806139f96021913960400191505060405180910390fd5b50505b50505b5050505050565b613633826001600160a01b031661396c565b613684576040805162461bcd60e51b815260206004820152601f60248201527f5361666542455032303a2063616c6c20746f206e6f6e2d636f6e747261637400604482015290519081900360640190fd5b60006060836001600160a01b0316836040518082805190602001908083835b602083106136c25780518252601f1990920191602091820191016136a3565b6001836020036101000a0380198251168184511680821785525050505050509050019150506000604051808303816000865af19150503d8060008114613724576040519150601f19603f3d011682016040523d82523d6000602084013e613729565b606091505b509150915081613780576040805162461bcd60e51b815260206004820181905260248201527f5361666542455032303a206c6f772d6c6576656c2063616c6c206661696c6564604482015290519081900360640190fd5b8051156125515780806020019051602081101561379c57600080fd5b50516125515760405162461bcd60e51b815260040180806020018281038252602a8152602001806139a9602a913960400191505060405180910390fd5b604080516002808252606080830184529283929190602083019080388339019050509050838160008151811061380b57fe5b60200260200101906001600160a01b031690816001600160a01b031681525050828160018151811061383957fe5b6001600160a01b0390921660209283029190910190910152905092915050565b8015806138df575060408051636eb1769f60e11b81523060048201526001600160a01b03848116602483015291519185169163dd62ed3e91604480820192602092909190829003018186803b1580156138b157600080fd5b505afa1580156138c5573d6000803e3d6000fd5b505050506040513d60208110156138db57600080fd5b5051155b61391a5760405162461bcd60e51b8152600401808060200182810382526036815260200180613bef6036913960400191505060405180910390fd5b604080516001600160a01b038416602482015260448082018490528251808303909101815260649091019091526020810180516001600160e01b031663095ea7b360e01b179052610c7f908490613621565b6000813f7fc5d2460186f7233c927e7db2dcc703c0e500b653ca82273b7bfad8045d85a4708181148015906139a057508115155b94935050505056fe5361666542455032303a204245503230206f7065726174696f6e20646964206e6f7420737563636565644f776e61626c653a206e6577206f776e657220697320746865207a65726f20616464726573734661696c656420746f2073656e6420746f6b656e20746f2072656365697665722e546f6b656e20666c6173686c6f616e2072657475726e20616d6f756e742067726561746572207468616e20746f6b656e732065786368616e6765642066726f6d207365697a656420636f6c6c61746572616c2e5365697a65642045544820636f6c6c61746572616c206e6f7420656e6f75676820746f20726570617920666c6173686c6f616e2e466c6173686c6f616e2072657475726e20616d6f756e742067726561746572207468616e207365697a656420636f6c6c61746572616c2e000000000000000000000000ae13d989dac2f0debff460ac112a837c89baa7cd4661696c656420746f20726570617920746f6b656e20666c6173686c6f616e206f6e20626f72726f7720286e6f6e2d574554482920736964652e4661696c656420746f20726570617920556e697377617020666c6173686c6f616e207769746820574554482065786368616e6765642066726f6d207365697a656420636f6c6c61746572616c2e526570617920616d6f756e74206d7573742062652067726561746572207468616e20302e4661696c656420746f207472616e736665722057455448206261636b20746f20666c6173686c656e646572536166654d6174683a206d756c7469706c69636174696f6e206f766572666c6f775361666542455032303a20617070726f76652066726f6d206e6f6e2d7a65726f20746f206e6f6e2d7a65726f20616c6c6f77616e63654661696c656420746f207472616e73666572206e6f6e2d5745544820746f6b656e73206261636b20746f20666c6173686c656e6465722e4f776e61626c653a2063616c6c6572206973206e6f7420746865206f776e6572466c6173684c6971756964617465416e64537761703a2070616972206e6f74206973207a65726f20616464726573734e6f7420656e6f75676820574554482065786368616e6765642066726f6d207365697a656420636f6c6c61746572616c20746f20726570617920666c6173686c6f616e2e4572726f722063616c6c696e672072656465656d696e67207365697a6564206e546f6b656e3a206572726f7220636f6465206e6f7420657175616c20746f2030466c6173686c6f616e2072657475726e20616d6f756e742067726561746572207468616e20574554482065786368616e6765642066726f6d207365697a656420636f6c6c61746572616ca265627a7a72315820afd378fe0ed5341f269b64249d8c4919b0ec63a3312e2f3e4ae1926ccd268ebf64736f6c63430005100032",
  "linkReferences": {},
  "deployedLinkReferences": {}
}