{"contracts/Governance/GovernorAlpha2.sol":{"GovernorAlpha2":{"abi":[{"inputs":[{"internalType":"address","name":"timelock_","type":"address"},{"internalType":"address","name":"nwl_","type":"address"},{"internalType":"address","name":"guardian_","type":"address"},{"internalType":"uint256","name":"lastProposalId_","type":"uint256"}],"payable":false,"stateMutability":"nonpayable","type":"constructor"},{"anonymous":false,"inputs":[{"indexed":false,"internalType":"uint256","name":"id","type":"uint256"}],"name":"ProposalCanceled","type":"event"},{"anonymous":false,"inputs":[{"indexed":false,"internalType":"uint256","name":"id","type":"uint256"},{"indexed":false,"internalType":"address","name":"proposer","type":"address"},{"indexed":false,"internalType":"address[]","name":"targets","type":"address[]"},{"indexed":false,"internalType":"uint256[]","name":"values","type":"uint256[]"},{"indexed":false,"internalType":"string[]","name":"signatures","type":"string[]"},{"indexed":false,"internalType":"bytes[]","name":"calldatas","type":"bytes[]"},{"indexed":false,"internalType":"uint256","name":"startBlock","type":"uint256"},{"indexed":false,"internalType":"uint256","name":"endBlock","type":"uint256"},{"indexed":false,"internalType":"string","name":"description","type":"string"}],"name":"ProposalCreated","type":"event"},{"anonymous":false,"inputs":[{"indexed":false,"internalType":"uint256","name":"id","type":"uint256"}],"name":"ProposalExecuted","type":"event"},{"anonymous":false,"inputs":[{"indexed":false,"internalType":"uint256","name":"id","type":"uint256"},{"indexed":false,"internalType":"uint256","name":"eta","type":"uint256"}],"name":"ProposalQueued","type":"event"},{"anonymous":false,"inputs":[{"indexed":false,"internalType":"address","name":"voter","type":"address"},{"indexed":false,"internalType":"uint256","name":"proposalId","type":"uint256"},{"indexed":false,"internalType":"bool","name":"support","type":"bool"},{"indexed":false,"internalType":"uint256","name":"votes","type":"uint256"}],"name":"VoteCast","type":"event"},{"constant":true,"inputs":[],"name":"BALLOT_TYPEHASH","outputs":[{"internalType":"bytes32","name":"","type":"bytes32"}],"payable":false,"stateMutability":"view","type":"function"},{"constant":true,"inputs":[],"name":"DOMAIN_TYPEHASH","outputs":[{"internalType":"bytes32","name":"","type":"bytes32"}],"payable":false,"stateMutability":"view","type":"function"},{"constant":false,"inputs":[],"name":"__abdicate","outputs":[],"payable":false,"stateMutability":"nonpayable","type":"function"},{"constant":false,"inputs":[],"name":"__acceptAdmin","outputs":[],"payable":false,"stateMutability":"nonpayable","type":"function"},{"constant":false,"inputs":[{"internalType":"address","name":"newPendingAdmin","type":"address"},{"internalType":"uint256","name":"eta","type":"uint256"}],"name":"__executeSetTimelockPendingAdmin","outputs":[],"payable":false,"stateMutability":"nonpayable","type":"function"},{"constant":false,"inputs":[{"internalType":"address","name":"newPendingAdmin","type":"address"},{"internalType":"uint256","name":"eta","type":"uint256"}],"name":"__queueSetTimelockPendingAdmin","outputs":[],"payable":false,"stateMutability":"nonpayable","type":"function"},{"constant":false,"inputs":[{"internalType":"uint256","name":"proposalId","type":"uint256"}],"name":"cancel","outputs":[],"payable":false,"stateMutability":"nonpayable","type":"function"},{"constant":false,"inputs":[{"internalType":"uint256","name":"proposalId","type":"uint256"},{"internalType":"bool","name":"support","type":"bool"}],"name":"castVote","outputs":[],"payable":false,"stateMutability":"nonpayable","type":"function"},{"constant":false,"inputs":[{"internalType":"uint256","name":"proposalId","type":"uint256"},{"internalType":"bool","name":"support","type":"bool"},{"internalType":"uint8","name":"v","type":"uint8"},{"internalType":"bytes32","name":"r","type":"bytes32"},{"internalType":"bytes32","name":"s","type":"bytes32"}],"name":"castVoteBySig","outputs":[],"payable":false,"stateMutability":"nonpayable","type":"function"},{"constant":false,"inputs":[{"internalType":"uint256","name":"proposalId","type":"uint256"}],"name":"execute","outputs":[],"payable":true,"stateMutability":"payable","type":"function"},{"constant":true,"inputs":[{"internalType":"uint256","name":"proposalId","type":"uint256"}],"name":"getActions","outputs":[{"internalType":"address[]","name":"targets","type":"address[]"},{"internalType":"uint256[]","name":"values","type":"uint256[]"},{"internalType":"string[]","name":"signatures","type":"string[]"},{"internalType":"bytes[]","name":"calldatas","type":"bytes[]"}],"payable":false,"stateMutability":"view","type":"function"},{"constant":true,"inputs":[{"internalType":"uint256","name":"proposalId","type":"uint256"},{"internalType":"address","name":"voter","type":"address"}],"name":"getReceipt","outputs":[{"components":[{"internalType":"bool","name":"hasVoted","type":"bool"},{"internalType":"bool","name":"support","type":"bool"},{"internalType":"uint96","name":"votes","type":"uint96"}],"internalType":"struct GovernorAlpha2.Receipt","name":"","type":"tuple"}],"payable":false,"stateMutability":"view","type":"function"},{"constant":true,"inputs":[],"name":"guardian","outputs":[{"internalType":"address","name":"","type":"address"}],"payable":false,"stateMutability":"view","type":"function"},{"constant":true,"inputs":[{"internalType":"address","name":"","type":"address"}],"name":"latestProposalIds","outputs":[{"internalType":"uint256","name":"","type":"uint256"}],"payable":false,"stateMutability":"view","type":"function"},{"constant":true,"inputs":[],"name":"name","outputs":[{"internalType":"string","name":"","type":"string"}],"payable":false,"stateMutability":"view","type":"function"},{"constant":true,"inputs":[],"name":"nwl","outputs":[{"internalType":"contract NWLInterface","name":"","type":"address"}],"payable":false,"stateMutability":"view","type":"function"},{"constant":true,"inputs":[],"name":"proposalCount","outputs":[{"internalType":"uint256","name":"","type":"uint256"}],"payable":false,"stateMutability":"view","type":"function"},{"constant":true,"inputs":[],"name":"proposalMaxOperations","outputs":[{"internalType":"uint256","name":"","type":"uint256"}],"payable":false,"stateMutability":"pure","type":"function"},{"constant":true,"inputs":[],"name":"proposalThreshold","outputs":[{"internalType":"uint256","name":"","type":"uint256"}],"payable":false,"stateMutability":"pure","type":"function"},{"constant":true,"inputs":[{"internalType":"uint256","name":"","type":"uint256"}],"name":"proposals","outputs":[{"internalType":"uint256","name":"id","type":"uint256"},{"internalType":"address","name":"proposer","type":"address"},{"internalType":"uint256","name":"eta","type":"uint256"},{"internalType":"uint256","name":"startBlock","type":"uint256"},{"internalType":"uint256","name":"endBlock","type":"uint256"},{"internalType":"uint256","name":"forVotes","type":"uint256"},{"internalType":"uint256","name":"againstVotes","type":"uint256"},{"internalType":"bool","name":"canceled","type":"bool"},{"internalType":"bool","name":"executed","type":"bool"}],"payable":false,"stateMutability":"view","type":"function"},{"constant":false,"inputs":[{"internalType":"address[]","name":"targets","type":"address[]"},{"internalType":"uint256[]","name":"values","type":"uint256[]"},{"internalType":"string[]","name":"signatures","type":"string[]"},{"internalType":"bytes[]","name":"calldatas","type":"bytes[]"},{"internalType":"string","name":"description","type":"string"}],"name":"propose","outputs":[{"internalType":"uint256","name":"","type":"uint256"}],"payable":false,"stateMutability":"nonpayable","type":"function"},{"constant":false,"inputs":[{"internalType":"uint256","name":"proposalId","type":"uint256"}],"name":"queue","outputs":[],"payable":false,"stateMutability":"nonpayable","type":"function"},{"constant":true,"inputs":[],"name":"quorumVotes","outputs":[{"internalType":"uint256","name":"","type":"uint256"}],"payable":false,"stateMutability":"pure","type":"function"},{"constant":true,"inputs":[{"internalType":"uint256","name":"proposalId","type":"uint256"}],"name":"state","outputs":[{"internalType":"enum GovernorAlpha2.ProposalState","name":"","type":"uint8"}],"payable":false,"stateMutability":"view","type":"function"},{"constant":true,"inputs":[],"name":"timelock","outputs":[{"internalType":"contract TimelockInterface","name":"","type":"address"}],"payable":false,"stateMutability":"view","type":"function"},{"constant":true,"inputs":[],"name":"votingDelay","outputs":[{"internalType":"uint256","name":"","type":"uint256"}],"payable":false,"stateMutability":"pure","type":"function"},{"constant":true,"inputs":[],"name":"votingPeriod","outputs":[{"internalType":"uint256","name":"","type":"uint256"}],"payable":false,"stateMutability":"pure","type":"function"}],"devdoc":{"methods":{}},"evm":{"bytecode":{"linkReferences":{},"object":"60806040523480156200001157600080fd5b50604051620039043803806200390483398101604081905262000034916200009a565b600080546001600160a01b03199081166001600160a01b03968716179091556001805482169486169490941790935560028054909316919093161790556003556200013e565b8051620000878162000119565b92915050565b8051620000878162000133565b60008060008060808587031215620000b157600080fd5b6000620000bf87876200007a565b9450506020620000d2878288016200007a565b9350506040620000e5878288016200007a565b9250506060620000f8878288016200008d565b91505092959194509250565b60006001600160a01b03821662000087565b90565b620001248162000104565b81146200013057600080fd5b50565b620001248162000116565b6137b6806200014e6000396000f3fe60806040526004361061019c5760003560e01c80634634c61f116100ec578063da35c6641161008a578063deaaa7cc11610064578063deaaa7cc1461046e578063e23a9a5214610483578063f30f7c05146104b0578063fe0d94c1146104c55761019c565b8063da35c66414610419578063da95691a1461042e578063ddf0b0091461044e5761019c565b806391500671116100c657806391500671146103ad578063b58131b0146103cd578063b9a61961146103e2578063d33219b4146103f75761019c565b80634634c61f14610363578063760fbc13146103835780637bdbe4d0146103985761019c565b806321f43e42116101595780633932abb1116101335780633932abb1146102df5780633e4f49e6146102f457806340e58ee514610321578063452a9320146103415761019c565b806321f43e421461027a57806324bc1a641461029a578063328dd982146102af5761019c565b8063013cf08b146101a157806302a251a3146101df57806306fdde031461020157806315373e3d1461022357806317977c611461024557806320606b7014610265575b600080fd5b3480156101ad57600080fd5b506101c16101bc366004612448565b6104d8565b6040516101d699989796959493929190613561565b60405180910390f35b3480156101eb57600080fd5b506101f4610531565b6040516101d6919061328e565b34801561020d57600080fd5b50610216610539565b6040516101d6919061334a565b34801561022f57600080fd5b5061024361023e366004612496565b61056b565b005b34801561025157600080fd5b506101f461026036600461228b565b61057a565b34801561027157600080fd5b506101f461058c565b34801561028657600080fd5b506102436102953660046122b1565b6105a3565b3480156102a657600080fd5b506101f461068a565b3480156102bb57600080fd5b506102cf6102ca366004612448565b610698565b6040516101d69493929190613241565b3480156102eb57600080fd5b506101f4610927565b34801561030057600080fd5b5061031461030f366004612448565b61092c565b6040516101d6919061333c565b34801561032d57600080fd5b5061024361033c366004612448565b610aae565b34801561034d57600080fd5b50610356610d17565b6040516101d691906130eb565b34801561036f57600080fd5b5061024361037e3660046124c6565b610d26565b34801561038f57600080fd5b50610243610ebc565b3480156103a457600080fd5b506101f4610ef8565b3480156103b957600080fd5b506102436103c83660046122b1565b610efd565b3480156103d957600080fd5b506101f4610fd2565b3480156103ee57600080fd5b50610243610fe0565b34801561040357600080fd5b5061040c611065565b6040516101d6919061332e565b34801561042557600080fd5b506101f4611074565b34801561043a57600080fd5b506101f46104493660046122eb565b61107a565b34801561045a57600080fd5b50610243610469366004612448565b61149c565b34801561047a57600080fd5b506101f4611706565b34801561048f57600080fd5b506104a361049e366004612466565b611712565b6040516101d691906134ab565b3480156104bc57600080fd5b5061040c611781565b6102436104d3366004612448565b611790565b6004602052600090815260409020805460018201546002830154600784015460088501546009860154600a870154600b9097015495966001600160a01b0390951695939492939192909160ff8082169161010090041689565b620151805b90565b604051806040016040528060168152602001754e61727768616c20476f7665726e6f7220416c70686160501b81525081565b610576338383611955565b5050565b60056020526000908152604090205481565b604051610598906130d5565b604051809103902081565b6002546001600160a01b031633146105d65760405162461bcd60e51b81526004016105cd9061338b565b60405180910390fd5b600080546040516001600160a01b0390911691630825f38f918391906106009087906020016130eb565b604051602081830303815290604052856040518563ffffffff1660e01b815260040161062f9493929190613114565b600060405180830381600087803b15801561064957600080fd5b505af115801561065d573d6000803e3d6000fd5b505050506040513d6000823e601f3d908101601f191682016040526106859190810190612413565b505050565b697f0e10af47c1c700000090565b6060806060806000600460008781526020019081526020016000209050806003018160040182600501836006018380548060200260200160405190810160405280929190818152602001828054801561071a57602002820191906000526020600020905b81546001600160a01b031681526001909101906020018083116106fc575b505050505093508280548060200260200160405190810160405280929190818152602001828054801561076c57602002820191906000526020600020905b815481526020019060010190808311610758575b5050505050925081805480602002602001604051908101604052809291908181526020016000905b8282101561083f5760008481526020908190208301805460408051601f600260001961010060018716150201909416939093049283018590048502810185019091528181529283018282801561082b5780601f106108005761010080835404028352916020019161082b565b820191906000526020600020905b81548152906001019060200180831161080e57829003601f168201915b505050505081526020019060010190610794565b50505050915080805480602002602001604051908101604052809291908181526020016000905b828210156109115760008481526020908190208301805460408051601f60026000196101006001871615020190941693909304928301859004850281018501909152818152928301828280156108fd5780601f106108d2576101008083540402835291602001916108fd565b820191906000526020600020905b8154815290600101906020018083116108e057829003601f168201915b505050505081526020019060010190610866565b5050505090509450945094509450509193509193565b600190565b600081600354101580156109405750600082115b61095c5760405162461bcd60e51b81526004016105cd9061339b565b6000828152600460205260409020600b81015460ff1615610981576002915050610aa9565b80600701544311610996576000915050610aa9565b806008015443116109ab576001915050610aa9565b80600a015481600901541115806109cc57506109c561068a565b8160090154105b156109db576003915050610aa9565b60028101546109ee576004915050610aa9565b600b810154610100900460ff1615610a0a576007915050610aa9565b6002810154600054604080516360d143f160e11b81529051610a9393926001600160a01b03169163c1a287e2916004808301926020929190829003018186803b158015610a5657600080fd5b505afa158015610a6a573d6000803e3d6000fd5b505050506040513d601f19601f82011682018060405250610a8e91908101906123f5565b611b1e565b4210610aa3576006915050610aa9565b60059150505b919050565b6000610ab98261092c565b90506007816007811115610ac957fe5b1415610ae75760405162461bcd60e51b81526004016105cd9061346b565b60008281526004602052604090206002546001600160a01b0316331480610bb25750610b11610fd2565b60018054838201546001600160a01b039182169263782d6fe19290911690610b3a904390611b4a565b6040518363ffffffff1660e01b8152600401610b57929190613163565b60206040518083038186803b158015610b6f57600080fd5b505afa158015610b83573d6000803e3d6000fd5b505050506040513d601f19601f82011682018060405250610ba7919081019061252e565b6001600160601b0316105b610bce5760405162461bcd60e51b81526004016105cd906133fb565b600b8101805460ff1916600117905560005b6003820154811015610cda576000546003830180546001600160a01b039092169163591fcdfe919084908110610c1257fe5b6000918252602090912001546004850180546001600160a01b039092169185908110610c3a57fe5b9060005260206000200154856005018581548110610c5457fe5b90600052602060002001866006018681548110610c6d57fe5b9060005260206000200187600201546040518663ffffffff1660e01b8152600401610c9c959493929190613200565b600060405180830381600087803b158015610cb657600080fd5b505af1158015610cca573d6000803e3d6000fd5b505060019092019150610be09050565b507f789cf55be980739dad1d0699b93b58e806b51c9d96619bfa8fe0a28abaa7b30c83604051610d0a919061328e565b60405180910390a1505050565b6002546001600160a01b031681565b6000604051610d34906130d5565b6040805191829003822082820190915260168252754e61727768616c20476f7665726e6f7220416c70686160501b6020909201919091527fc35ed69ce4874e56af00d10e549144b16d8248d4c2aab86f0dd59c5375b3c120610d94611b72565b30604051602001610da8949392919061329c565b6040516020818303038152906040528051906020012090506000604051610dce906130e0565b604051908190038120610de791899089906020016132d1565b60405160208183030381529060405280519060200120905060008282604051602001610e149291906130a4565b604051602081830303815290604052805190602001209050600060018288888860405160008152602001604052604051610e5194939291906132f9565b6020604051602081039080840390855afa158015610e73573d6000803e3d6000fd5b5050604051601f1901519150506001600160a01b038116610ea65760405162461bcd60e51b81526004016105cd9061345b565b610eb1818a8a611955565b505050505050505050565b6002546001600160a01b03163314610ee65760405162461bcd60e51b81526004016105cd9061349b565b600280546001600160a01b0319169055565b601e90565b6002546001600160a01b03163314610f275760405162461bcd60e51b81526004016105cd906133bb565b600080546040516001600160a01b0390911691633a66f90191839190610f519087906020016130eb565b604051602081830303815290604052856040518563ffffffff1660e01b8152600401610f809493929190613114565b602060405180830381600087803b158015610f9a57600080fd5b505af1158015610fae573d6000803e3d6000fd5b505050506040513d601f19601f8201168201806040525061068591908101906123f5565b693f870857a3e0e380000090565b6002546001600160a01b0316331461100a5760405162461bcd60e51b81526004016105cd9061335b565b6000805460408051630e18b68160e01b815290516001600160a01b0390921692630e18b6819260048084019382900301818387803b15801561104b57600080fd5b505af115801561105f573d6000803e3d6000fd5b50505050565b6000546001600160a01b031681565b60035481565b6000611084610fd2565b600180546001600160a01b03169063782d6fe19033906110a5904390611b4a565b6040518363ffffffff1660e01b81526004016110c29291906130f9565b60206040518083038186803b1580156110da57600080fd5b505afa1580156110ee573d6000803e3d6000fd5b505050506040513d601f19601f82011682018060405250611112919081019061252e565b6001600160601b0316116111385760405162461bcd60e51b81526004016105cd9061344b565b8451865114801561114a575083518651145b8015611157575082518651145b6111735760405162461bcd60e51b81526004016105cd906133eb565b85516111915760405162461bcd60e51b81526004016105cd9061343b565b611199610ef8565b865111156111b95760405162461bcd60e51b81526004016105cd906133cb565b3360009081526005602052604090205480156112365760006111da8261092c565b905060018160078111156111ea57fe5b14156112085760405162461bcd60e51b81526004016105cd9061340b565b600081600781111561121657fe5b14156112345760405162461bcd60e51b81526004016105cd9061342b565b505b600061124443610a8e610927565b9050600061125482610a8e610531565b6003805460010190559050611267611cd5565b604051806101a001604052806003548152602001336001600160a01b03168152602001600081526020018b81526020018a815260200189815260200188815260200184815260200183815260200160008152602001600081526020016000151581526020016000151581525090508060046000836000015181526020019081526020016000206000820151816000015560208201518160010160006101000a8154816001600160a01b0302191690836001600160a01b0316021790555060408201518160020155606082015181600301908051906020019061134a929190611d4a565b5060808201518051611366916004840191602090910190611daf565b5060a08201518051611382916005840191602090910190611df6565b5060c0820151805161139e916006840191602090910190611e4f565b5060e082015181600701556101008201518160080155610120820151816009015561014082015181600a015561016082015181600b0160006101000a81548160ff02191690831515021790555061018082015181600b0160016101000a81548160ff02191690831515021790555090505080600001516005600083602001516001600160a01b03166001600160a01b03168152602001908152602001600020819055507f7d84a6263ae0d98d3329bd7b46bb4e8d6f98cd35a7adb45c274c8b7fd5ebd5e08160000151338c8c8c8c89898e604051611484999897969594939291906134b9565b60405180910390a15193505050505b95945050505050565b60046114a78261092c565b60078111156114b257fe5b146114cf5760405162461bcd60e51b81526004016105cd9061336b565b600081815260046020818152604080842084548251630d48571f60e31b815292519195946115249442946001600160a01b0390931693636a42b8f8938084019390829003018186803b158015610a5657600080fd5b905060005b60038301548110156116cc576116c483600301828154811061154757fe5b6000918252602090912001546004850180546001600160a01b03909216918490811061156f57fe5b906000526020600020015485600501848154811061158957fe5b600091825260209182902001805460408051601f60026000196101006001871615020190941693909304928301859004850281018501909152818152928301828280156116175780601f106115ec57610100808354040283529160200191611617565b820191906000526020600020905b8154815290600101906020018083116115fa57829003601f168201915b505050505086600601858154811061162b57fe5b600091825260209182902001805460408051601f60026000196101006001871615020190941693909304928301859004850281018501909152818152928301828280156116b95780601f1061168e576101008083540402835291602001916116b9565b820191906000526020600020905b81548152906001019060200180831161169c57829003601f168201915b505050505086611b76565b600101611529565b50600282018190556040517f9a2e42fd6722813d69113e7d0079d3d940171428df7373df9c7f7617cfda289290610d0a90859084906135e7565b604051610598906130e0565b61171a611ea8565b5060008281526004602090815260408083206001600160a01b0385168452600c018252918290208251606081018452905460ff80821615158352610100820416151592820192909252620100009091046001600160601b0316918101919091525b92915050565b6001546001600160a01b031681565b600561179b8261092c565b60078111156117a657fe5b146117c35760405162461bcd60e51b81526004016105cd9061337b565b6000818152600460205260408120600b8101805461ff001916610100179055905b6003820154811015611919576000546004830180546001600160a01b0390921691630825f38f91908490811061181657fe5b906000526020600020015484600301848154811061183057fe5b6000918252602090912001546004860180546001600160a01b03909216918690811061185857fe5b906000526020600020015486600501868154811061187257fe5b9060005260206000200187600601878154811061188b57fe5b9060005260206000200188600201546040518763ffffffff1660e01b81526004016118ba959493929190613200565b6000604051808303818588803b1580156118d357600080fd5b505af11580156118e7573d6000803e3d6000fd5b50505050506040513d6000823e601f3d908101601f191682016040526119109190810190612413565b506001016117e4565b507f712ae1383f79ac853f8d882153778e0260ef8f03b504e2866e0593e04d2b291f82604051611949919061328e565b60405180910390a15050565b60016119608361092c565b600781111561196b57fe5b146119885760405162461bcd60e51b81526004016105cd9061347b565b60008281526004602090815260408083206001600160a01b0387168452600c8101909252909120805460ff16156119d15760405162461bcd60e51b81526004016105cd906133ab565b600154600783015460405163782d6fe160e01b81526000926001600160a01b03169163782d6fe191611a07918a91600401613163565b60206040518083038186803b158015611a1f57600080fd5b505afa158015611a33573d6000803e3d6000fd5b505050506040513d601f19601f82011682018060405250611a57919081019061252e565b90508315611a8057611a768360090154826001600160601b0316611b1e565b6009840155611a9d565b611a9783600a0154826001600160601b0316611b1e565b600a8401555b8154600160ff199091161761ff00191661010085151502176dffffffffffffffffffffffff00001916620100006001600160601b038316021782556040517f877856338e13f63d0c36822ff0ef736b80934cd90574a3a5bc9262c39d217c4690611b0e908890889088908690613171565b60405180910390a1505050505050565b600082820183811015611b435760405162461bcd60e51b81526004016105cd906133db565b9392505050565b600082821115611b6c5760405162461bcd60e51b81526004016105cd9061348b565b50900390565b4690565b6000546040516001600160a01b039091169063f2b0653790611ba490889088908890889088906020016131a6565b604051602081830303815290604052805190602001206040518263ffffffff1660e01b8152600401611bd6919061328e565b60206040518083038186803b158015611bee57600080fd5b505afa158015611c02573d6000803e3d6000fd5b505050506040513d601f19601f82011682018060405250611c2691908101906123d7565b15611c435760405162461bcd60e51b81526004016105cd9061341b565b600054604051633a66f90160e01b81526001600160a01b0390911690633a66f90190611c7b90889088908890889088906004016131a6565b602060405180830381600087803b158015611c9557600080fd5b505af1158015611ca9573d6000803e3d6000fd5b505050506040513d601f19601f82011682018060405250611ccd91908101906123f5565b505050505050565b604051806101a001604052806000815260200160006001600160a01b031681526020016000815260200160608152602001606081526020016060815260200160608152602001600081526020016000815260200160008152602001600081526020016000151581526020016000151581525090565b828054828255906000526020600020908101928215611d9f579160200282015b82811115611d9f57825182546001600160a01b0319166001600160a01b03909116178255602090920191600190910190611d6a565b50611dab929150611ec8565b5090565b828054828255906000526020600020908101928215611dea579160200282015b82811115611dea578251825591602001919060010190611dcf565b50611dab929150611eec565b828054828255906000526020600020908101928215611e43579160200282015b82811115611e435782518051611e33918491602090910190611f06565b5091602001919060010190611e16565b50611dab929150611f73565b828054828255906000526020600020908101928215611e9c579160200282015b82811115611e9c5782518051611e8c918491602090910190611f06565b5091602001919060010190611e6f565b50611dab929150611f96565b604080516060810182526000808252602082018190529181019190915290565b61053691905b80821115611dab5780546001600160a01b0319168155600101611ece565b61053691905b80821115611dab5760008155600101611ef2565b828054600181600116156101000203166002900490600052602060002090601f016020900481019282601f10611f4757805160ff1916838001178555611dea565b82800160010185558215611dea5791820182811115611dea578251825591602001919060010190611dcf565b61053691905b80821115611dab576000611f8d8282611fb9565b50600101611f79565b61053691905b80821115611dab576000611fb08282611fb9565b50600101611f9c565b50805460018160011615610100020316600290046000825580601f10611fdf5750611ffd565b601f016020900490600052602060002090810190611ffd9190611eec565b50565b803561177b8161373b565b600082601f83011261201c57600080fd5b813561202f61202a8261361c565b6135f5565b9150818183526020840193506020810190508385602084028201111561205457600080fd5b60005b83811015612080578161206a8882612000565b8452506020928301929190910190600101612057565b5050505092915050565b600082601f83011261209b57600080fd5b81356120a961202a8261361c565b81815260209384019390925082018360005b8381101561208057813586016120d188826121e0565b84525060209283019291909101906001016120bb565b600082601f8301126120f857600080fd5b813561210661202a8261361c565b81815260209384019390925082018360005b83811015612080578135860161212e88826121e0565b8452506020928301929190910190600101612118565b600082601f83011261215557600080fd5b813561216361202a8261361c565b9150818183526020840193506020810190508385602084028201111561218857600080fd5b60005b83811015612080578161219e88826121ca565b845250602092830192919091019060010161218b565b803561177b8161374f565b805161177b8161374f565b803561177b81613758565b805161177b81613758565b600082601f8301126121f157600080fd5b81356121ff61202a8261363d565b9150808252602083016020830185838301111561221b57600080fd5b6122268382846136ef565b50505092915050565b600082601f83011261224057600080fd5b815161224e61202a8261363d565b9150808252602083016020830185838301111561226a57600080fd5b6122268382846136fb565b803561177b81613761565b805161177b8161376a565b60006020828403121561229d57600080fd5b60006122a98484612000565b949350505050565b600080604083850312156122c457600080fd5b60006122d08585612000565b92505060206122e1858286016121ca565b9150509250929050565b600080600080600060a0868803121561230357600080fd5b853567ffffffffffffffff81111561231a57600080fd5b6123268882890161200b565b955050602086013567ffffffffffffffff81111561234357600080fd5b61234f88828901612144565b945050604086013567ffffffffffffffff81111561236c57600080fd5b612378888289016120e7565b935050606086013567ffffffffffffffff81111561239557600080fd5b6123a18882890161208a565b925050608086013567ffffffffffffffff8111156123be57600080fd5b6123ca888289016121e0565b9150509295509295909350565b6000602082840312156123e957600080fd5b60006122a984846121bf565b60006020828403121561240757600080fd5b60006122a984846121d5565b60006020828403121561242557600080fd5b815167ffffffffffffffff81111561243c57600080fd5b6122a98482850161222f565b60006020828403121561245a57600080fd5b60006122a984846121ca565b6000806040838503121561247957600080fd5b600061248585856121ca565b92505060206122e185828601612000565b600080604083850312156124a957600080fd5b60006124b585856121ca565b92505060206122e1858286016121b4565b600080600080600060a086880312156124de57600080fd5b60006124ea88886121ca565b95505060206124fb888289016121b4565b945050604061250c88828901612275565b935050606061251d888289016121ca565b92505060806123ca888289016121ca565b60006020828403121561254057600080fd5b60006122a98484612280565b60006125588383612587565b505060200190565b6000611b438383612729565b6000612558838361270f565b612581816136bc565b82525050565b61258181613684565b600061259b82613677565b6125a5818561367b565b93506125b083613665565b8060005b838110156125de5781516125c8888261254c565b97506125d383613665565b9250506001016125b4565b509495945050505050565b60006125f482613677565b6125fe818561367b565b93508360208202850161261085613665565b8060005b8581101561264a578484038952815161262d8582612560565b945061263883613665565b60209a909a0199925050600101612614565b5091979650505050505050565b600061266282613677565b61266c818561367b565b93508360208202850161267e85613665565b8060005b8581101561264a578484038952815161269b8582612560565b94506126a683613665565b60209a909a0199925050600101612682565b60006126c382613677565b6126cd818561367b565b93506126d883613665565b8060005b838110156125de5781516126f0888261256c565b97506126fb83613665565b9250506001016126dc565b6125818161368f565b61258181610536565b61258161272482610536565b610536565b600061273482613677565b61273e818561367b565b935061274e8185602086016136fb565b61275781613727565b9093019392505050565b60008154600181166000811461277e57600181146127a4576127e3565b607f600283041661278f818761367b565b60ff19841681529550506020850192506127e3565b600282046127b2818761367b565b95506127bd8561366b565b60005b828110156127dc578154888201526001909101906020016127c0565b8701945050505b505092915050565b612581816136c3565b612581816136ce565b612581816136d9565b600061281360398361367b565b7f476f7665726e6f72416c7068613a3a5f5f61636365707441646d696e3a20736581527f6e646572206d75737420626520676f7620677561726469616e00000000000000602082015260400192915050565b600061287260448361367b565b7f476f7665726e6f72416c7068613a3a71756575653a2070726f706f73616c206381527f616e206f6e6c79206265207175657565642069662069742069732073756363656020820152631959195960e21b604082015260600192915050565b60006128de60458361367b565b7f476f7665726e6f72416c7068613a3a657865637574653a2070726f706f73616c81527f2063616e206f6e6c7920626520657865637574656420696620697420697320716020820152641d595d595960da1b604082015260600192915050565b600061294b600283610aa9565b61190160f01b815260020192915050565b6000612969604c8361367b565b7f476f7665726e6f72416c7068613a3a5f5f6578656375746553657454696d656c81527f6f636b50656e64696e6741646d696e3a2073656e646572206d7573742062652060208201526b33b7bb1033bab0b93234b0b760a11b604082015260600192915050565b60006129dd60188361367b565b7f73657450656e64696e6741646d696e2861646472657373290000000000000000815260200192915050565b6000612a1660298361367b565b7f476f7665726e6f72416c7068613a3a73746174653a20696e76616c69642070728152681bdc1bdcd85b081a5960ba1b602082015260400192915050565b6000612a61602d8361367b565b7f476f7665726e6f72416c7068613a3a5f63617374566f74653a20766f7465722081526c185b1c9958591e481d9bdd1959609a1b602082015260400192915050565b6000612ab0604a8361367b565b7f476f7665726e6f72416c7068613a3a5f5f717565756553657454696d656c6f6381527f6b50656e64696e6741646d696e3a2073656e646572206d75737420626520676f6020820152693b1033bab0b93234b0b760b11b604082015260600192915050565b6000612b2260288361367b565b7f476f7665726e6f72416c7068613a3a70726f706f73653a20746f6f206d616e7981526720616374696f6e7360c01b602082015260400192915050565b6000612b6c60118361367b565b706164646974696f6e206f766572666c6f7760781b815260200192915050565b6000612b99604383610aa9565b7f454950373132446f6d61696e28737472696e67206e616d652c75696e7432353681527f20636861696e49642c6164647265737320766572696679696e67436f6e74726160208201526263742960e81b604082015260430192915050565b6000612c04602783610aa9565b7f42616c6c6f742875696e743235362070726f706f73616c49642c626f6f6c20738152667570706f72742960c81b602082015260270192915050565b6000612c4d60448361367b565b7f476f7665726e6f72416c7068613a3a70726f706f73653a2070726f706f73616c81527f2066756e6374696f6e20696e666f726d6174696f6e206172697479206d69736d6020820152630c2e8c6d60e31b604082015260600192915050565b6000612cb9602f8361367b565b7f476f7665726e6f72416c7068613a3a63616e63656c3a2070726f706f7365722081526e18589bdd99481d1a1c995cda1bdb19608a1b602082015260400192915050565b6000612d0a60388361367b565b7f476f7665726e6f72416c7068613a3a70726f706f73653a20666f756e6420616e81527f20616c7265616479206163746976652070726f706f73616c0000000000000000602082015260400192915050565b6000612d6960448361367b565b7f476f7665726e6f72416c7068613a3a5f71756575654f725265766572743a207081527f726f706f73616c20616374696f6e20616c7265616479207175657565642061746020820152632065746160e01b604082015260600192915050565b6000612dd560398361367b565b7f476f7665726e6f72416c7068613a3a70726f706f73653a20666f756e6420616e81527f20616c72656164792070656e64696e672070726f706f73616c00000000000000602082015260400192915050565b6000612e34602c8361367b565b7f476f7665726e6f72416c7068613a3a70726f706f73653a206d7573742070726f81526b7669646520616374696f6e7360a01b602082015260400192915050565b6000612e82603f8361367b565b7f476f7665726e6f72416c7068613a3a70726f706f73653a2070726f706f73657281527f20766f7465732062656c6f772070726f706f73616c207468726573686f6c6400602082015260400192915050565b6000612ee1602f8361367b565b7f476f7665726e6f72416c7068613a3a63617374566f746542795369673a20696e81526e76616c6964207369676e617475726560881b602082015260400192915050565b6000612f3260368361367b565b7f476f7665726e6f72416c7068613a3a63616e63656c3a2063616e6e6f742063618152751b98d95b08195e1958dd5d1959081c1c9bdc1bdcd85b60521b602082015260400192915050565b6000612f8a602a8361367b565b7f476f7665726e6f72416c7068613a3a5f63617374566f74653a20766f74696e67815269081a5cc818db1bdcd95960b21b602082015260400192915050565b6000612fd660158361367b565b747375627472616374696f6e20756e646572666c6f7760581b815260200192915050565b600061300760368361367b565b7f476f7665726e6f72416c7068613a3a5f5f61626469636174653a2073656e6465815275391036bab9ba1031329033b7bb1033bab0b93234b0b760511b602082015260400192915050565b805160608301906130638482612706565b5060208201516130766020850182612706565b50604082015161105f604085018261309b565b612581816136aa565b612581816136e4565b612581816136b0565b60006130af8261293e565b91506130bb8285612718565b6020820191506130cb8284612718565b5060200192915050565b600061177b82612b8c565b600061177b82612bf7565b6020810161177b8284612587565b604081016131078285612578565b611b43602083018461270f565b60a081016131228287612587565b61312f60208301866127fd565b8181036040830152613140816129d0565b905081810360608301526131548185612729565b9050611493608083018461270f565b604081016131078285612587565b6080810161317f8287612587565b61318c602083018661270f565b6131996040830185612706565b6114936060830184613092565b60a081016131b48288612587565b6131c1602083018761270f565b81810360408301526131d38186612729565b905081810360608301526131e78185612729565b90506131f6608083018461270f565b9695505050505050565b60a0810161320e8288612587565b61321b602083018761270f565b818103604083015261322d8186612761565b905081810360608301526131e78185612761565b608080825281016132528187612590565b9050818103602083015261326681866126b8565b9050818103604083015261327a8185612657565b905081810360608301526131f681846125e9565b6020810161177b828461270f565b608081016132aa828761270f565b6132b7602083018661270f565b6132c4604083018561270f565b6114936060830184612587565b606081016132df828661270f565b6132ec602083018561270f565b6122a96040830184612706565b60808101613307828761270f565b6133146020830186613089565b613321604083018561270f565b611493606083018461270f565b6020810161177b82846127eb565b6020810161177b82846127f4565b60208082528101611b438184612729565b6020808252810161177b81612806565b6020808252810161177b81612865565b6020808252810161177b816128d1565b6020808252810161177b8161295c565b6020808252810161177b81612a09565b6020808252810161177b81612a54565b6020808252810161177b81612aa3565b6020808252810161177b81612b15565b6020808252810161177b81612b5f565b6020808252810161177b81612c40565b6020808252810161177b81612cac565b6020808252810161177b81612cfd565b6020808252810161177b81612d5c565b6020808252810161177b81612dc8565b6020808252810161177b81612e27565b6020808252810161177b81612e75565b6020808252810161177b81612ed4565b6020808252810161177b81612f25565b6020808252810161177b81612f7d565b6020808252810161177b81612fc9565b6020808252810161177b81612ffa565b6060810161177b8284613052565b61012081016134c8828c61270f565b6134d5602083018b612578565b81810360408301526134e7818a612590565b905081810360608301526134fb81896126b8565b9050818103608083015261350f8188612657565b905081810360a083015261352381876125e9565b905061353260c083018661270f565b61353f60e083018561270f565b8181036101008301526135528184612729565b9b9a5050505050505050505050565b6101208101613570828c61270f565b61357d602083018b612587565b61358a604083018a61270f565b613597606083018961270f565b6135a4608083018861270f565b6135b160a083018761270f565b6135be60c083018661270f565b6135cb60e0830185612706565b6135d9610100830184612706565b9a9950505050505050505050565b60408101613107828561270f565b60405181810167ffffffffffffffff8111828210171561361457600080fd5b604052919050565b600067ffffffffffffffff82111561363357600080fd5b5060209081020190565b600067ffffffffffffffff82111561365457600080fd5b506020601f91909101601f19160190565b60200190565b60009081526020902090565b5190565b90815260200190565b600061177b8261369e565b151590565b80610aa981613731565b6001600160a01b031690565b60ff1690565b6001600160601b031690565b600061177b825b600061177b82613684565b600061177b82613694565b600061177b82610536565b600061177b826136b0565b82818337506000910152565b60005b838110156137165781810151838201526020016136fe565b8381111561105f5750506000910152565b601f01601f191690565b60088110611ffd57fe5b61374481613684565b8114611ffd57600080fd5b6137448161368f565b61374481610536565b613744816136aa565b613744816136b056fea365627a7a7231582083cb8d43eca0a7085c6b4350b732adf020c26ff98d7357645a7e8fb36cc0fa056c6578706572696d656e74616cf564736f6c63430005100040","opcodes":"PUSH1 0x80 PUSH1 0x40 MSTORE CALLVALUE DUP1 ISZERO PUSH3 0x11 JUMPI PUSH1 0x0 DUP1 REVERT JUMPDEST POP PUSH1 0x40 MLOAD PUSH3 0x3904 CODESIZE SUB DUP1 PUSH3 0x3904 DUP4 CODECOPY DUP2 ADD PUSH1 0x40 DUP2 SWAP1 MSTORE PUSH3 0x34 SWAP2 PUSH3 0x9A JUMP JUMPDEST PUSH1 0x0 DUP1 SLOAD PUSH1 0x1 PUSH1 0x1 PUSH1 0xA0 SHL SUB NOT SWAP1 DUP2 AND PUSH1 0x1 PUSH1 0x1 PUSH1 0xA0 SHL SUB SWAP7 DUP8 AND OR SWAP1 SWAP2 SSTORE PUSH1 0x1 DUP1 SLOAD DUP3 AND SWAP5 DUP7 AND SWAP5 SWAP1 SWAP5 OR SWAP1 SWAP4 SSTORE PUSH1 0x2 DUP1 SLOAD SWAP1 SWAP4 AND SWAP2 SWAP1 SWAP4 AND OR SWAP1 SSTORE PUSH1 0x3 SSTORE PUSH3 0x13E JUMP JUMPDEST DUP1 MLOAD PUSH3 0x87 DUP2 PUSH3 0x119 JUMP JUMPDEST SWAP3 SWAP2 POP POP JUMP JUMPDEST DUP1 MLOAD PUSH3 0x87 DUP2 PUSH3 0x133 JUMP JUMPDEST PUSH1 0x0 DUP1 PUSH1 0x0 DUP1 PUSH1 0x80 DUP6 DUP8 SUB SLT ISZERO PUSH3 0xB1 JUMPI PUSH1 0x0 DUP1 REVERT JUMPDEST PUSH1 0x0 PUSH3 0xBF DUP8 DUP8 PUSH3 0x7A JUMP JUMPDEST SWAP5 POP POP PUSH1 0x20 PUSH3 0xD2 DUP8 DUP3 DUP9 ADD PUSH3 0x7A JUMP JUMPDEST SWAP4 POP POP PUSH1 0x40 PUSH3 0xE5 DUP8 DUP3 DUP9 ADD PUSH3 0x7A JUMP JUMPDEST SWAP3 POP POP PUSH1 0x60 PUSH3 0xF8 DUP8 DUP3 DUP9 ADD PUSH3 0x8D JUMP JUMPDEST SWAP2 POP POP SWAP3 SWAP6 SWAP2 SWAP5 POP SWAP3 POP JUMP JUMPDEST PUSH1 0x0 PUSH1 0x1 PUSH1 0x1 PUSH1 0xA0 SHL SUB DUP3 AND PUSH3 0x87 JUMP JUMPDEST SWAP1 JUMP JUMPDEST PUSH3 0x124 DUP2 PUSH3 0x104 JUMP JUMPDEST DUP2 EQ PUSH3 0x130 JUMPI PUSH1 0x0 DUP1 REVERT JUMPDEST POP JUMP JUMPDEST PUSH3 0x124 DUP2 PUSH3 0x116 JUMP JUMPDEST PUSH2 0x37B6 DUP1 PUSH3 0x14E PUSH1 0x0 CODECOPY PUSH1 0x0 RETURN INVALID PUSH1 0x80 PUSH1 0x40 MSTORE PUSH1 0x4 CALLDATASIZE LT PUSH2 0x19C JUMPI PUSH1 0x0 CALLDATALOAD PUSH1 0xE0 SHR DUP1 PUSH4 0x4634C61F GT PUSH2 0xEC JUMPI DUP1 PUSH4 0xDA35C664 GT PUSH2 0x8A JUMPI DUP1 PUSH4 0xDEAAA7CC GT PUSH2 0x64 JUMPI DUP1 PUSH4 0xDEAAA7CC EQ PUSH2 0x46E JUMPI DUP1 PUSH4 0xE23A9A52 EQ PUSH2 0x483 JUMPI DUP1 PUSH4 0xF30F7C05 EQ PUSH2 0x4B0 JUMPI DUP1 PUSH4 0xFE0D94C1 EQ PUSH2 0x4C5 JUMPI PUSH2 0x19C JUMP JUMPDEST DUP1 PUSH4 0xDA35C664 EQ PUSH2 0x419 JUMPI DUP1 PUSH4 0xDA95691A EQ PUSH2 0x42E JUMPI DUP1 PUSH4 0xDDF0B009 EQ PUSH2 0x44E JUMPI PUSH2 0x19C JUMP JUMPDEST DUP1 PUSH4 0x91500671 GT PUSH2 0xC6 JUMPI DUP1 PUSH4 0x91500671 EQ PUSH2 0x3AD JUMPI DUP1 PUSH4 0xB58131B0 EQ PUSH2 0x3CD JUMPI DUP1 PUSH4 0xB9A61961 EQ PUSH2 0x3E2 JUMPI DUP1 PUSH4 0xD33219B4 EQ PUSH2 0x3F7 JUMPI PUSH2 0x19C JUMP JUMPDEST DUP1 PUSH4 0x4634C61F EQ PUSH2 0x363 JUMPI DUP1 PUSH4 0x760FBC13 EQ PUSH2 0x383 JUMPI DUP1 PUSH4 0x7BDBE4D0 EQ PUSH2 0x398 JUMPI PUSH2 0x19C JUMP JUMPDEST DUP1 PUSH4 0x21F43E42 GT PUSH2 0x159 JUMPI DUP1 PUSH4 0x3932ABB1 GT PUSH2 0x133 JUMPI DUP1 PUSH4 0x3932ABB1 EQ PUSH2 0x2DF JUMPI DUP1 PUSH4 0x3E4F49E6 EQ PUSH2 0x2F4 JUMPI DUP1 PUSH4 0x40E58EE5 EQ PUSH2 0x321 JUMPI DUP1 PUSH4 0x452A9320 EQ PUSH2 0x341 JUMPI PUSH2 0x19C JUMP JUMPDEST DUP1 PUSH4 0x21F43E42 EQ PUSH2 0x27A JUMPI DUP1 PUSH4 0x24BC1A64 EQ PUSH2 0x29A JUMPI DUP1 PUSH4 0x328DD982 EQ PUSH2 0x2AF JUMPI PUSH2 0x19C JUMP JUMPDEST DUP1 PUSH4 0x13CF08B EQ PUSH2 0x1A1 JUMPI DUP1 PUSH4 0x2A251A3 EQ PUSH2 0x1DF JUMPI DUP1 PUSH4 0x6FDDE03 EQ PUSH2 0x201 JUMPI DUP1 PUSH4 0x15373E3D EQ PUSH2 0x223 JUMPI DUP1 PUSH4 0x17977C61 EQ PUSH2 0x245 JUMPI DUP1 PUSH4 0x20606B70 EQ PUSH2 0x265 JUMPI JUMPDEST PUSH1 0x0 DUP1 REVERT JUMPDEST CALLVALUE DUP1 ISZERO PUSH2 0x1AD JUMPI PUSH1 0x0 DUP1 REVERT JUMPDEST POP PUSH2 0x1C1 PUSH2 0x1BC CALLDATASIZE PUSH1 0x4 PUSH2 0x2448 JUMP JUMPDEST PUSH2 0x4D8 JUMP JUMPDEST PUSH1 0x40 MLOAD PUSH2 0x1D6 SWAP10 SWAP9 SWAP8 SWAP7 SWAP6 SWAP5 SWAP4 SWAP3 SWAP2 SWAP1 PUSH2 0x3561 JUMP JUMPDEST PUSH1 0x40 MLOAD DUP1 SWAP2 SUB SWAP1 RETURN JUMPDEST CALLVALUE DUP1 ISZERO PUSH2 0x1EB JUMPI PUSH1 0x0 DUP1 REVERT JUMPDEST POP PUSH2 0x1F4 PUSH2 0x531 JUMP JUMPDEST PUSH1 0x40 MLOAD PUSH2 0x1D6 SWAP2 SWAP1 PUSH2 0x328E JUMP JUMPDEST CALLVALUE DUP1 ISZERO PUSH2 0x20D JUMPI PUSH1 0x0 DUP1 REVERT JUMPDEST POP PUSH2 0x216 PUSH2 0x539 JUMP JUMPDEST PUSH1 0x40 MLOAD PUSH2 0x1D6 SWAP2 SWAP1 PUSH2 0x334A JUMP JUMPDEST CALLVALUE DUP1 ISZERO PUSH2 0x22F JUMPI PUSH1 0x0 DUP1 REVERT JUMPDEST POP PUSH2 0x243 PUSH2 0x23E CALLDATASIZE PUSH1 0x4 PUSH2 0x2496 JUMP JUMPDEST PUSH2 0x56B JUMP JUMPDEST STOP JUMPDEST CALLVALUE DUP1 ISZERO PUSH2 0x251 JUMPI PUSH1 0x0 DUP1 REVERT JUMPDEST POP PUSH2 0x1F4 PUSH2 0x260 CALLDATASIZE PUSH1 0x4 PUSH2 0x228B JUMP JUMPDEST PUSH2 0x57A JUMP JUMPDEST CALLVALUE DUP1 ISZERO PUSH2 0x271 JUMPI PUSH1 0x0 DUP1 REVERT JUMPDEST POP PUSH2 0x1F4 PUSH2 0x58C JUMP JUMPDEST CALLVALUE DUP1 ISZERO PUSH2 0x286 JUMPI PUSH1 0x0 DUP1 REVERT JUMPDEST POP PUSH2 0x243 PUSH2 0x295 CALLDATASIZE PUSH1 0x4 PUSH2 0x22B1 JUMP JUMPDEST PUSH2 0x5A3 JUMP JUMPDEST CALLVALUE DUP1 ISZERO PUSH2 0x2A6 JUMPI PUSH1 0x0 DUP1 REVERT JUMPDEST POP PUSH2 0x1F4 PUSH2 0x68A JUMP JUMPDEST CALLVALUE DUP1 ISZERO PUSH2 0x2BB JUMPI PUSH1 0x0 DUP1 REVERT JUMPDEST POP PUSH2 0x2CF PUSH2 0x2CA CALLDATASIZE PUSH1 0x4 PUSH2 0x2448 JUMP JUMPDEST PUSH2 0x698 JUMP JUMPDEST PUSH1 0x40 MLOAD PUSH2 0x1D6 SWAP5 SWAP4 SWAP3 SWAP2 SWAP1 PUSH2 0x3241 JUMP JUMPDEST CALLVALUE DUP1 ISZERO PUSH2 0x2EB JUMPI PUSH1 0x0 DUP1 REVERT JUMPDEST POP PUSH2 0x1F4 PUSH2 0x927 JUMP JUMPDEST CALLVALUE DUP1 ISZERO PUSH2 0x300 JUMPI PUSH1 0x0 DUP1 REVERT JUMPDEST POP PUSH2 0x314 PUSH2 0x30F CALLDATASIZE PUSH1 0x4 PUSH2 0x2448 JUMP JUMPDEST PUSH2 0x92C JUMP JUMPDEST PUSH1 0x40 MLOAD PUSH2 0x1D6 SWAP2 SWAP1 PUSH2 0x333C JUMP JUMPDEST CALLVALUE DUP1 ISZERO PUSH2 0x32D JUMPI PUSH1 0x0 DUP1 REVERT JUMPDEST POP PUSH2 0x243 PUSH2 0x33C CALLDATASIZE PUSH1 0x4 PUSH2 0x2448 JUMP JUMPDEST PUSH2 0xAAE JUMP JUMPDEST CALLVALUE DUP1 ISZERO PUSH2 0x34D JUMPI PUSH1 0x0 DUP1 REVERT JUMPDEST POP PUSH2 0x356 PUSH2 0xD17 JUMP JUMPDEST PUSH1 0x40 MLOAD PUSH2 0x1D6 SWAP2 SWAP1 PUSH2 0x30EB JUMP JUMPDEST CALLVALUE DUP1 ISZERO PUSH2 0x36F JUMPI PUSH1 0x0 DUP1 REVERT JUMPDEST POP PUSH2 0x243 PUSH2 0x37E CALLDATASIZE PUSH1 0x4 PUSH2 0x24C6 JUMP JUMPDEST PUSH2 0xD26 JUMP JUMPDEST CALLVALUE DUP1 ISZERO PUSH2 0x38F JUMPI PUSH1 0x0 DUP1 REVERT JUMPDEST POP PUSH2 0x243 PUSH2 0xEBC JUMP JUMPDEST CALLVALUE DUP1 ISZERO PUSH2 0x3A4 JUMPI PUSH1 0x0 DUP1 REVERT JUMPDEST POP PUSH2 0x1F4 PUSH2 0xEF8 JUMP JUMPDEST CALLVALUE DUP1 ISZERO PUSH2 0x3B9 JUMPI PUSH1 0x0 DUP1 REVERT JUMPDEST POP PUSH2 0x243 PUSH2 0x3C8 CALLDATASIZE PUSH1 0x4 PUSH2 0x22B1 JUMP JUMPDEST PUSH2 0xEFD JUMP JUMPDEST CALLVALUE DUP1 ISZERO PUSH2 0x3D9 JUMPI PUSH1 0x0 DUP1 REVERT JUMPDEST POP PUSH2 0x1F4 PUSH2 0xFD2 JUMP JUMPDEST CALLVALUE DUP1 ISZERO PUSH2 0x3EE JUMPI PUSH1 0x0 DUP1 REVERT JUMPDEST POP PUSH2 0x243 PUSH2 0xFE0 JUMP JUMPDEST CALLVALUE DUP1 ISZERO PUSH2 0x403 JUMPI PUSH1 0x0 DUP1 REVERT JUMPDEST POP PUSH2 0x40C PUSH2 0x1065 JUMP JUMPDEST PUSH1 0x40 MLOAD PUSH2 0x1D6 SWAP2 SWAP1 PUSH2 0x332E JUMP JUMPDEST CALLVALUE DUP1 ISZERO PUSH2 0x425 JUMPI PUSH1 0x0 DUP1 REVERT JUMPDEST POP PUSH2 0x1F4 PUSH2 0x1074 JUMP JUMPDEST CALLVALUE DUP1 ISZERO PUSH2 0x43A JUMPI PUSH1 0x0 DUP1 REVERT JUMPDEST POP PUSH2 0x1F4 PUSH2 0x449 CALLDATASIZE PUSH1 0x4 PUSH2 0x22EB JUMP JUMPDEST PUSH2 0x107A JUMP JUMPDEST CALLVALUE DUP1 ISZERO PUSH2 0x45A JUMPI PUSH1 0x0 DUP1 REVERT JUMPDEST POP PUSH2 0x243 PUSH2 0x469 CALLDATASIZE PUSH1 0x4 PUSH2 0x2448 JUMP JUMPDEST PUSH2 0x149C JUMP JUMPDEST CALLVALUE DUP1 ISZERO PUSH2 0x47A JUMPI PUSH1 0x0 DUP1 REVERT JUMPDEST POP PUSH2 0x1F4 PUSH2 0x1706 JUMP JUMPDEST CALLVALUE DUP1 ISZERO PUSH2 0x48F JUMPI PUSH1 0x0 DUP1 REVERT JUMPDEST POP PUSH2 0x4A3 PUSH2 0x49E CALLDATASIZE PUSH1 0x4 PUSH2 0x2466 JUMP JUMPDEST PUSH2 0x1712 JUMP JUMPDEST PUSH1 0x40 MLOAD PUSH2 0x1D6 SWAP2 SWAP1 PUSH2 0x34AB JUMP JUMPDEST CALLVALUE DUP1 ISZERO PUSH2 0x4BC JUMPI PUSH1 0x0 DUP1 REVERT JUMPDEST POP PUSH2 0x40C PUSH2 0x1781 JUMP JUMPDEST PUSH2 0x243 PUSH2 0x4D3 CALLDATASIZE PUSH1 0x4 PUSH2 0x2448 JUMP JUMPDEST PUSH2 0x1790 JUMP JUMPDEST PUSH1 0x4 PUSH1 0x20 MSTORE PUSH1 0x0 SWAP1 DUP2 MSTORE PUSH1 0x40 SWAP1 KECCAK256 DUP1 SLOAD PUSH1 0x1 DUP3 ADD SLOAD PUSH1 0x2 DUP4 ADD SLOAD PUSH1 0x7 DUP5 ADD SLOAD PUSH1 0x8 DUP6 ADD SLOAD PUSH1 0x9 DUP7 ADD SLOAD PUSH1 0xA DUP8 ADD SLOAD PUSH1 0xB SWAP1 SWAP8 ADD SLOAD SWAP6 SWAP7 PUSH1 0x1 PUSH1 0x1 PUSH1 0xA0 SHL SUB SWAP1 SWAP6 AND SWAP6 SWAP4 SWAP5 SWAP3 SWAP4 SWAP2 SWAP3 SWAP1 SWAP2 PUSH1 0xFF DUP1 DUP3 AND SWAP2 PUSH2 0x100 SWAP1 DIV AND DUP10 JUMP JUMPDEST PUSH3 0x15180 JUMPDEST SWAP1 JUMP JUMPDEST PUSH1 0x40 MLOAD DUP1 PUSH1 0x40 ADD PUSH1 0x40 MSTORE DUP1 PUSH1 0x16 DUP2 MSTORE PUSH1 0x20 ADD PUSH22 0x4E61727768616C20476F7665726E6F7220416C706861 PUSH1 0x50 SHL DUP2 MSTORE POP DUP2 JUMP JUMPDEST PUSH2 0x576 CALLER DUP4 DUP4 PUSH2 0x1955 JUMP JUMPDEST POP POP JUMP JUMPDEST PUSH1 0x5 PUSH1 0x20 MSTORE PUSH1 0x0 SWAP1 DUP2 MSTORE PUSH1 0x40 SWAP1 KECCAK256 SLOAD DUP2 JUMP JUMPDEST PUSH1 0x40 MLOAD PUSH2 0x598 SWAP1 PUSH2 0x30D5 JUMP JUMPDEST PUSH1 0x40 MLOAD DUP1 SWAP2 SUB SWAP1 KECCAK256 DUP2 JUMP JUMPDEST PUSH1 0x2 SLOAD PUSH1 0x1 PUSH1 0x1 PUSH1 0xA0 SHL SUB AND CALLER EQ PUSH2 0x5D6 JUMPI PUSH1 0x40 MLOAD PUSH3 0x461BCD PUSH1 0xE5 SHL DUP2 MSTORE PUSH1 0x4 ADD PUSH2 0x5CD SWAP1 PUSH2 0x338B JUMP JUMPDEST PUSH1 0x40 MLOAD DUP1 SWAP2 SUB SWAP1 REVERT JUMPDEST PUSH1 0x0 DUP1 SLOAD PUSH1 0x40 MLOAD PUSH1 0x1 PUSH1 0x1 PUSH1 0xA0 SHL SUB SWAP1 SWAP2 AND SWAP2 PUSH4 0x825F38F SWAP2 DUP4 SWAP2 SWAP1 PUSH2 0x600 SWAP1 DUP8 SWAP1 PUSH1 0x20 ADD PUSH2 0x30EB JUMP JUMPDEST PUSH1 0x40 MLOAD PUSH1 0x20 DUP2 DUP4 SUB SUB DUP2 MSTORE SWAP1 PUSH1 0x40 MSTORE DUP6 PUSH1 0x40 MLOAD DUP6 PUSH4 0xFFFFFFFF AND PUSH1 0xE0 SHL DUP2 MSTORE PUSH1 0x4 ADD PUSH2 0x62F SWAP5 SWAP4 SWAP3 SWAP2 SWAP1 PUSH2 0x3114 JUMP JUMPDEST PUSH1 0x0 PUSH1 0x40 MLOAD DUP1 DUP4 SUB DUP2 PUSH1 0x0 DUP8 DUP1 EXTCODESIZE ISZERO DUP1 ISZERO PUSH2 0x649 JUMPI PUSH1 0x0 DUP1 REVERT JUMPDEST POP GAS CALL ISZERO DUP1 ISZERO PUSH2 0x65D JUMPI RETURNDATASIZE PUSH1 0x0 DUP1 RETURNDATACOPY RETURNDATASIZE PUSH1 0x0 REVERT JUMPDEST POP POP POP POP PUSH1 0x40 MLOAD RETURNDATASIZE PUSH1 0x0 DUP3 RETURNDATACOPY PUSH1 0x1F RETURNDATASIZE SWAP1 DUP2 ADD PUSH1 0x1F NOT AND DUP3 ADD PUSH1 0x40 MSTORE PUSH2 0x685 SWAP2 SWAP1 DUP2 ADD SWAP1 PUSH2 0x2413 JUMP JUMPDEST POP POP POP JUMP JUMPDEST PUSH10 0x7F0E10AF47C1C7000000 SWAP1 JUMP JUMPDEST PUSH1 0x60 DUP1 PUSH1 0x60 DUP1 PUSH1 0x0 PUSH1 0x4 PUSH1 0x0 DUP8 DUP2 MSTORE PUSH1 0x20 ADD SWAP1 DUP2 MSTORE PUSH1 0x20 ADD PUSH1 0x0 KECCAK256 SWAP1 POP DUP1 PUSH1 0x3 ADD DUP2 PUSH1 0x4 ADD DUP3 PUSH1 0x5 ADD DUP4 PUSH1 0x6 ADD DUP4 DUP1 SLOAD DUP1 PUSH1 0x20 MUL PUSH1 0x20 ADD PUSH1 0x40 MLOAD SWAP1 DUP2 ADD PUSH1 0x40 MSTORE DUP1 SWAP3 SWAP2 SWAP1 DUP2 DUP2 MSTORE PUSH1 0x20 ADD DUP3 DUP1 SLOAD DUP1 ISZERO PUSH2 0x71A JUMPI PUSH1 0x20 MUL DUP3 ADD SWAP2 SWAP1 PUSH1 0x0 MSTORE PUSH1 0x20 PUSH1 0x0 KECCAK256 SWAP1 JUMPDEST DUP2 SLOAD PUSH1 0x1 PUSH1 0x1 PUSH1 0xA0 SHL SUB AND DUP2 MSTORE PUSH1 0x1 SWAP1 SWAP2 ADD SWAP1 PUSH1 0x20 ADD DUP1 DUP4 GT PUSH2 0x6FC JUMPI JUMPDEST POP POP POP POP POP SWAP4 POP DUP3 DUP1 SLOAD DUP1 PUSH1 0x20 MUL PUSH1 0x20 ADD PUSH1 0x40 MLOAD SWAP1 DUP2 ADD PUSH1 0x40 MSTORE DUP1 SWAP3 SWAP2 SWAP1 DUP2 DUP2 MSTORE PUSH1 0x20 ADD DUP3 DUP1 SLOAD DUP1 ISZERO PUSH2 0x76C JUMPI PUSH1 0x20 MUL DUP3 ADD SWAP2 SWAP1 PUSH1 0x0 MSTORE PUSH1 0x20 PUSH1 0x0 KECCAK256 SWAP1 JUMPDEST DUP2 SLOAD DUP2 MSTORE PUSH1 0x20 ADD SWAP1 PUSH1 0x1 ADD SWAP1 DUP1 DUP4 GT PUSH2 0x758 JUMPI JUMPDEST POP POP POP POP POP SWAP3 POP DUP2 DUP1 SLOAD DUP1 PUSH1 0x20 MUL PUSH1 0x20 ADD PUSH1 0x40 MLOAD SWAP1 DUP2 ADD PUSH1 0x40 MSTORE DUP1 SWAP3 SWAP2 SWAP1 DUP2 DUP2 MSTORE PUSH1 0x20 ADD PUSH1 0x0 SWAP1 JUMPDEST DUP3 DUP3 LT ISZERO PUSH2 0x83F JUMPI PUSH1 0x0 DUP5 DUP2 MSTORE PUSH1 0x20 SWAP1 DUP2 SWAP1 KECCAK256 DUP4 ADD DUP1 SLOAD PUSH1 0x40 DUP1 MLOAD PUSH1 0x1F PUSH1 0x2 PUSH1 0x0 NOT PUSH2 0x100 PUSH1 0x1 DUP8 AND ISZERO MUL ADD SWAP1 SWAP5 AND SWAP4 SWAP1 SWAP4 DIV SWAP3 DUP4 ADD DUP6 SWAP1 DIV DUP6 MUL DUP2 ADD DUP6 ADD SWAP1 SWAP2 MSTORE DUP2 DUP2 MSTORE SWAP3 DUP4 ADD DUP3 DUP3 DUP1 ISZERO PUSH2 0x82B JUMPI DUP1 PUSH1 0x1F LT PUSH2 0x800 JUMPI PUSH2 0x100 DUP1 DUP4 SLOAD DIV MUL DUP4 MSTORE SWAP2 PUSH1 0x20 ADD SWAP2 PUSH2 0x82B JUMP JUMPDEST DUP3 ADD SWAP2 SWAP1 PUSH1 0x0 MSTORE PUSH1 0x20 PUSH1 0x0 KECCAK256 SWAP1 JUMPDEST DUP2 SLOAD DUP2 MSTORE SWAP1 PUSH1 0x1 ADD SWAP1 PUSH1 0x20 ADD DUP1 DUP4 GT PUSH2 0x80E JUMPI DUP3 SWAP1 SUB PUSH1 0x1F AND DUP3 ADD SWAP2 JUMPDEST POP POP POP POP POP DUP2 MSTORE PUSH1 0x20 ADD SWAP1 PUSH1 0x1 ADD SWAP1 PUSH2 0x794 JUMP JUMPDEST POP POP POP POP SWAP2 POP DUP1 DUP1 SLOAD DUP1 PUSH1 0x20 MUL PUSH1 0x20 ADD PUSH1 0x40 MLOAD SWAP1 DUP2 ADD PUSH1 0x40 MSTORE DUP1 SWAP3 SWAP2 SWAP1 DUP2 DUP2 MSTORE PUSH1 0x20 ADD PUSH1 0x0 SWAP1 JUMPDEST DUP3 DUP3 LT ISZERO PUSH2 0x911 JUMPI PUSH1 0x0 DUP5 DUP2 MSTORE PUSH1 0x20 SWAP1 DUP2 SWAP1 KECCAK256 DUP4 ADD DUP1 SLOAD PUSH1 0x40 DUP1 MLOAD PUSH1 0x1F PUSH1 0x2 PUSH1 0x0 NOT PUSH2 0x100 PUSH1 0x1 DUP8 AND ISZERO MUL ADD SWAP1 SWAP5 AND SWAP4 SWAP1 SWAP4 DIV SWAP3 DUP4 ADD DUP6 SWAP1 DIV DUP6 MUL DUP2 ADD DUP6 ADD SWAP1 SWAP2 MSTORE DUP2 DUP2 MSTORE SWAP3 DUP4 ADD DUP3 DUP3 DUP1 ISZERO PUSH2 0x8FD JUMPI DUP1 PUSH1 0x1F LT PUSH2 0x8D2 JUMPI PUSH2 0x100 DUP1 DUP4 SLOAD DIV MUL DUP4 MSTORE SWAP2 PUSH1 0x20 ADD SWAP2 PUSH2 0x8FD JUMP JUMPDEST DUP3 ADD SWAP2 SWAP1 PUSH1 0x0 MSTORE PUSH1 0x20 PUSH1 0x0 KECCAK256 SWAP1 JUMPDEST DUP2 SLOAD DUP2 MSTORE SWAP1 PUSH1 0x1 ADD SWAP1 PUSH1 0x20 ADD DUP1 DUP4 GT PUSH2 0x8E0 JUMPI DUP3 SWAP1 SUB PUSH1 0x1F AND DUP3 ADD SWAP2 JUMPDEST POP POP POP POP POP DUP2 MSTORE PUSH1 0x20 ADD SWAP1 PUSH1 0x1 ADD SWAP1 PUSH2 0x866 JUMP JUMPDEST POP POP POP POP SWAP1 POP SWAP5 POP SWAP5 POP SWAP5 POP SWAP5 POP POP SWAP2 SWAP4 POP SWAP2 SWAP4 JUMP JUMPDEST PUSH1 0x1 SWAP1 JUMP JUMPDEST PUSH1 0x0 DUP2 PUSH1 0x3 SLOAD LT ISZERO DUP1 ISZERO PUSH2 0x940 JUMPI POP PUSH1 0x0 DUP3 GT JUMPDEST PUSH2 0x95C JUMPI PUSH1 0x40 MLOAD PUSH3 0x461BCD PUSH1 0xE5 SHL DUP2 MSTORE PUSH1 0x4 ADD PUSH2 0x5CD SWAP1 PUSH2 0x339B JUMP JUMPDEST PUSH1 0x0 DUP3 DUP2 MSTORE PUSH1 0x4 PUSH1 0x20 MSTORE PUSH1 0x40 SWAP1 KECCAK256 PUSH1 0xB DUP2 ADD SLOAD PUSH1 0xFF AND ISZERO PUSH2 0x981 JUMPI PUSH1 0x2 SWAP2 POP POP PUSH2 0xAA9 JUMP JUMPDEST DUP1 PUSH1 0x7 ADD SLOAD NUMBER GT PUSH2 0x996 JUMPI PUSH1 0x0 SWAP2 POP POP PUSH2 0xAA9 JUMP JUMPDEST DUP1 PUSH1 0x8 ADD SLOAD NUMBER GT PUSH2 0x9AB JUMPI PUSH1 0x1 SWAP2 POP POP PUSH2 0xAA9 JUMP JUMPDEST DUP1 PUSH1 0xA ADD SLOAD DUP2 PUSH1 0x9 ADD SLOAD GT ISZERO DUP1 PUSH2 0x9CC JUMPI POP PUSH2 0x9C5 PUSH2 0x68A JUMP JUMPDEST DUP2 PUSH1 0x9 ADD SLOAD LT JUMPDEST ISZERO PUSH2 0x9DB JUMPI PUSH1 0x3 SWAP2 POP POP PUSH2 0xAA9 JUMP JUMPDEST PUSH1 0x2 DUP2 ADD SLOAD PUSH2 0x9EE JUMPI PUSH1 0x4 SWAP2 POP POP PUSH2 0xAA9 JUMP JUMPDEST PUSH1 0xB DUP2 ADD SLOAD PUSH2 0x100 SWAP1 DIV PUSH1 0xFF AND ISZERO PUSH2 0xA0A JUMPI PUSH1 0x7 SWAP2 POP POP PUSH2 0xAA9 JUMP JUMPDEST PUSH1 0x2 DUP2 ADD SLOAD PUSH1 0x0 SLOAD PUSH1 0x40 DUP1 MLOAD PUSH4 0x60D143F1 PUSH1 0xE1 SHL DUP2 MSTORE SWAP1 MLOAD PUSH2 0xA93 SWAP4 SWAP3 PUSH1 0x1 PUSH1 0x1 PUSH1 0xA0 SHL SUB AND SWAP2 PUSH4 0xC1A287E2 SWAP2 PUSH1 0x4 DUP1 DUP4 ADD SWAP3 PUSH1 0x20 SWAP3 SWAP2 SWAP1 DUP3 SWAP1 SUB ADD DUP2 DUP7 DUP1 EXTCODESIZE ISZERO DUP1 ISZERO PUSH2 0xA56 JUMPI PUSH1 0x0 DUP1 REVERT JUMPDEST POP GAS STATICCALL ISZERO DUP1 ISZERO PUSH2 0xA6A JUMPI RETURNDATASIZE PUSH1 0x0 DUP1 RETURNDATACOPY RETURNDATASIZE PUSH1 0x0 REVERT JUMPDEST POP POP POP POP PUSH1 0x40 MLOAD RETURNDATASIZE PUSH1 0x1F NOT PUSH1 0x1F DUP3 ADD AND DUP3 ADD DUP1 PUSH1 0x40 MSTORE POP PUSH2 0xA8E SWAP2 SWAP1 DUP2 ADD SWAP1 PUSH2 0x23F5 JUMP JUMPDEST PUSH2 0x1B1E JUMP JUMPDEST TIMESTAMP LT PUSH2 0xAA3 JUMPI PUSH1 0x6 SWAP2 POP POP PUSH2 0xAA9 JUMP JUMPDEST PUSH1 0x5 SWAP2 POP POP JUMPDEST SWAP2 SWAP1 POP JUMP JUMPDEST PUSH1 0x0 PUSH2 0xAB9 DUP3 PUSH2 0x92C JUMP JUMPDEST SWAP1 POP PUSH1 0x7 DUP2 PUSH1 0x7 DUP2 GT ISZERO PUSH2 0xAC9 JUMPI INVALID JUMPDEST EQ ISZERO PUSH2 0xAE7 JUMPI PUSH1 0x40 MLOAD PUSH3 0x461BCD PUSH1 0xE5 SHL DUP2 MSTORE PUSH1 0x4 ADD PUSH2 0x5CD SWAP1 PUSH2 0x346B JUMP JUMPDEST PUSH1 0x0 DUP3 DUP2 MSTORE PUSH1 0x4 PUSH1 0x20 MSTORE PUSH1 0x40 SWAP1 KECCAK256 PUSH1 0x2 SLOAD PUSH1 0x1 PUSH1 0x1 PUSH1 0xA0 SHL SUB AND CALLER EQ DUP1 PUSH2 0xBB2 JUMPI POP PUSH2 0xB11 PUSH2 0xFD2 JUMP JUMPDEST PUSH1 0x1 DUP1 SLOAD DUP4 DUP3 ADD SLOAD PUSH1 0x1 PUSH1 0x1 PUSH1 0xA0 SHL SUB SWAP2 DUP3 AND SWAP3 PUSH4 0x782D6FE1 SWAP3 SWAP1 SWAP2 AND SWAP1 PUSH2 0xB3A SWAP1 NUMBER SWAP1 PUSH2 0x1B4A JUMP JUMPDEST PUSH1 0x40 MLOAD DUP4 PUSH4 0xFFFFFFFF AND PUSH1 0xE0 SHL DUP2 MSTORE PUSH1 0x4 ADD PUSH2 0xB57 SWAP3 SWAP2 SWAP1 PUSH2 0x3163 JUMP JUMPDEST PUSH1 0x20 PUSH1 0x40 MLOAD DUP1 DUP4 SUB DUP2 DUP7 DUP1 EXTCODESIZE ISZERO DUP1 ISZERO PUSH2 0xB6F JUMPI PUSH1 0x0 DUP1 REVERT JUMPDEST POP GAS STATICCALL ISZERO DUP1 ISZERO PUSH2 0xB83 JUMPI RETURNDATASIZE PUSH1 0x0 DUP1 RETURNDATACOPY RETURNDATASIZE PUSH1 0x0 REVERT JUMPDEST POP POP POP POP PUSH1 0x40 MLOAD RETURNDATASIZE PUSH1 0x1F NOT PUSH1 0x1F DUP3 ADD AND DUP3 ADD DUP1 PUSH1 0x40 MSTORE POP PUSH2 0xBA7 SWAP2 SWAP1 DUP2 ADD SWAP1 PUSH2 0x252E JUMP JUMPDEST PUSH1 0x1 PUSH1 0x1 PUSH1 0x60 SHL SUB AND LT JUMPDEST PUSH2 0xBCE JUMPI PUSH1 0x40 MLOAD PUSH3 0x461BCD PUSH1 0xE5 SHL DUP2 MSTORE PUSH1 0x4 ADD PUSH2 0x5CD SWAP1 PUSH2 0x33FB JUMP JUMPDEST PUSH1 0xB DUP2 ADD DUP1 SLOAD PUSH1 0xFF NOT AND PUSH1 0x1 OR SWAP1 SSTORE PUSH1 0x0 JUMPDEST PUSH1 0x3 DUP3 ADD SLOAD DUP2 LT ISZERO PUSH2 0xCDA JUMPI PUSH1 0x0 SLOAD PUSH1 0x3 DUP4 ADD DUP1 SLOAD PUSH1 0x1 PUSH1 0x1 PUSH1 0xA0 SHL SUB SWAP1 SWAP3 AND SWAP2 PUSH4 0x591FCDFE SWAP2 SWAP1 DUP5 SWAP1 DUP2 LT PUSH2 0xC12 JUMPI INVALID JUMPDEST PUSH1 0x0 SWAP2 DUP3 MSTORE PUSH1 0x20 SWAP1 SWAP2 KECCAK256 ADD SLOAD PUSH1 0x4 DUP6 ADD DUP1 SLOAD PUSH1 0x1 PUSH1 0x1 PUSH1 0xA0 SHL SUB SWAP1 SWAP3 AND SWAP2 DUP6 SWAP1 DUP2 LT PUSH2 0xC3A JUMPI INVALID JUMPDEST SWAP1 PUSH1 0x0 MSTORE PUSH1 0x20 PUSH1 0x0 KECCAK256 ADD SLOAD DUP6 PUSH1 0x5 ADD DUP6 DUP2 SLOAD DUP2 LT PUSH2 0xC54 JUMPI INVALID JUMPDEST SWAP1 PUSH1 0x0 MSTORE PUSH1 0x20 PUSH1 0x0 KECCAK256 ADD DUP7 PUSH1 0x6 ADD DUP7 DUP2 SLOAD DUP2 LT PUSH2 0xC6D JUMPI INVALID JUMPDEST SWAP1 PUSH1 0x0 MSTORE PUSH1 0x20 PUSH1 0x0 KECCAK256 ADD DUP8 PUSH1 0x2 ADD SLOAD PUSH1 0x40 MLOAD DUP7 PUSH4 0xFFFFFFFF AND PUSH1 0xE0 SHL DUP2 MSTORE PUSH1 0x4 ADD PUSH2 0xC9C SWAP6 SWAP5 SWAP4 SWAP3 SWAP2 SWAP1 PUSH2 0x3200 JUMP JUMPDEST PUSH1 0x0 PUSH1 0x40 MLOAD DUP1 DUP4 SUB DUP2 PUSH1 0x0 DUP8 DUP1 EXTCODESIZE ISZERO DUP1 ISZERO PUSH2 0xCB6 JUMPI PUSH1 0x0 DUP1 REVERT JUMPDEST POP GAS CALL ISZERO DUP1 ISZERO PUSH2 0xCCA JUMPI RETURNDATASIZE PUSH1 0x0 DUP1 RETURNDATACOPY RETURNDATASIZE PUSH1 0x0 REVERT JUMPDEST POP POP PUSH1 0x1 SWAP1 SWAP3 ADD SWAP2 POP PUSH2 0xBE0 SWAP1 POP JUMP JUMPDEST POP PUSH32 0x789CF55BE980739DAD1D0699B93B58E806B51C9D96619BFA8FE0A28ABAA7B30C DUP4 PUSH1 0x40 MLOAD PUSH2 0xD0A SWAP2 SWAP1 PUSH2 0x328E JUMP JUMPDEST PUSH1 0x40 MLOAD DUP1 SWAP2 SUB SWAP1 LOG1 POP POP POP JUMP JUMPDEST PUSH1 0x2 SLOAD PUSH1 0x1 PUSH1 0x1 PUSH1 0xA0 SHL SUB AND DUP2 JUMP JUMPDEST PUSH1 0x0 PUSH1 0x40 MLOAD PUSH2 0xD34 SWAP1 PUSH2 0x30D5 JUMP JUMPDEST PUSH1 0x40 DUP1 MLOAD SWAP2 DUP3 SWAP1 SUB DUP3 KECCAK256 DUP3 DUP3 ADD SWAP1 SWAP2 MSTORE PUSH1 0x16 DUP3 MSTORE PUSH22 0x4E61727768616C20476F7665726E6F7220416C706861 PUSH1 0x50 SHL PUSH1 0x20 SWAP1 SWAP3 ADD SWAP2 SWAP1 SWAP2 MSTORE PUSH32 0xC35ED69CE4874E56AF00D10E549144B16D8248D4C2AAB86F0DD59C5375B3C120 PUSH2 0xD94 PUSH2 0x1B72 JUMP JUMPDEST ADDRESS PUSH1 0x40 MLOAD PUSH1 0x20 ADD PUSH2 0xDA8 SWAP5 SWAP4 SWAP3 SWAP2 SWAP1 PUSH2 0x329C JUMP JUMPDEST PUSH1 0x40 MLOAD PUSH1 0x20 DUP2 DUP4 SUB SUB DUP2 MSTORE SWAP1 PUSH1 0x40 MSTORE DUP1 MLOAD SWAP1 PUSH1 0x20 ADD KECCAK256 SWAP1 POP PUSH1 0x0 PUSH1 0x40 MLOAD PUSH2 0xDCE SWAP1 PUSH2 0x30E0 JUMP JUMPDEST PUSH1 0x40 MLOAD SWAP1 DUP2 SWAP1 SUB DUP2 KECCAK256 PUSH2 0xDE7 SWAP2 DUP10 SWAP1 DUP10 SWAP1 PUSH1 0x20 ADD PUSH2 0x32D1 JUMP JUMPDEST PUSH1 0x40 MLOAD PUSH1 0x20 DUP2 DUP4 SUB SUB DUP2 MSTORE SWAP1 PUSH1 0x40 MSTORE DUP1 MLOAD SWAP1 PUSH1 0x20 ADD KECCAK256 SWAP1 POP PUSH1 0x0 DUP3 DUP3 PUSH1 0x40 MLOAD PUSH1 0x20 ADD PUSH2 0xE14 SWAP3 SWAP2 SWAP1 PUSH2 0x30A4 JUMP JUMPDEST PUSH1 0x40 MLOAD PUSH1 0x20 DUP2 DUP4 SUB SUB DUP2 MSTORE SWAP1 PUSH1 0x40 MSTORE DUP1 MLOAD SWAP1 PUSH1 0x20 ADD KECCAK256 SWAP1 POP PUSH1 0x0 PUSH1 0x1 DUP3 DUP9 DUP9 DUP9 PUSH1 0x40 MLOAD PUSH1 0x0 DUP2 MSTORE PUSH1 0x20 ADD PUSH1 0x40 MSTORE PUSH1 0x40 MLOAD PUSH2 0xE51 SWAP5 SWAP4 SWAP3 SWAP2 SWAP1 PUSH2 0x32F9 JUMP JUMPDEST PUSH1 0x20 PUSH1 0x40 MLOAD PUSH1 0x20 DUP2 SUB SWAP1 DUP1 DUP5 SUB SWAP1 DUP6 GAS STATICCALL ISZERO DUP1 ISZERO PUSH2 0xE73 JUMPI RETURNDATASIZE PUSH1 0x0 DUP1 RETURNDATACOPY RETURNDATASIZE PUSH1 0x0 REVERT JUMPDEST POP POP PUSH1 0x40 MLOAD PUSH1 0x1F NOT ADD MLOAD SWAP2 POP POP PUSH1 0x1 PUSH1 0x1 PUSH1 0xA0 SHL SUB DUP2 AND PUSH2 0xEA6 JUMPI PUSH1 0x40 MLOAD PUSH3 0x461BCD PUSH1 0xE5 SHL DUP2 MSTORE PUSH1 0x4 ADD PUSH2 0x5CD SWAP1 PUSH2 0x345B JUMP JUMPDEST PUSH2 0xEB1 DUP2 DUP11 DUP11 PUSH2 0x1955 JUMP JUMPDEST POP POP POP POP POP POP POP POP POP JUMP JUMPDEST PUSH1 0x2 SLOAD PUSH1 0x1 PUSH1 0x1 PUSH1 0xA0 SHL SUB AND CALLER EQ PUSH2 0xEE6 JUMPI PUSH1 0x40 MLOAD PUSH3 0x461BCD PUSH1 0xE5 SHL DUP2 MSTORE PUSH1 0x4 ADD PUSH2 0x5CD SWAP1 PUSH2 0x349B JUMP JUMPDEST PUSH1 0x2 DUP1 SLOAD PUSH1 0x1 PUSH1 0x1 PUSH1 0xA0 SHL SUB NOT AND SWAP1 SSTORE JUMP JUMPDEST PUSH1 0x1E SWAP1 JUMP JUMPDEST PUSH1 0x2 SLOAD PUSH1 0x1 PUSH1 0x1 PUSH1 0xA0 SHL SUB AND CALLER EQ PUSH2 0xF27 JUMPI PUSH1 0x40 MLOAD PUSH3 0x461BCD PUSH1 0xE5 SHL DUP2 MSTORE PUSH1 0x4 ADD PUSH2 0x5CD SWAP1 PUSH2 0x33BB JUMP JUMPDEST PUSH1 0x0 DUP1 SLOAD PUSH1 0x40 MLOAD PUSH1 0x1 PUSH1 0x1 PUSH1 0xA0 SHL SUB SWAP1 SWAP2 AND SWAP2 PUSH4 0x3A66F901 SWAP2 DUP4 SWAP2 SWAP1 PUSH2 0xF51 SWAP1 DUP8 SWAP1 PUSH1 0x20 ADD PUSH2 0x30EB JUMP JUMPDEST PUSH1 0x40 MLOAD PUSH1 0x20 DUP2 DUP4 SUB SUB DUP2 MSTORE SWAP1 PUSH1 0x40 MSTORE DUP6 PUSH1 0x40 MLOAD DUP6 PUSH4 0xFFFFFFFF AND PUSH1 0xE0 SHL DUP2 MSTORE PUSH1 0x4 ADD PUSH2 0xF80 SWAP5 SWAP4 SWAP3 SWAP2 SWAP1 PUSH2 0x3114 JUMP JUMPDEST PUSH1 0x20 PUSH1 0x40 MLOAD DUP1 DUP4 SUB DUP2 PUSH1 0x0 DUP8 DUP1 EXTCODESIZE ISZERO DUP1 ISZERO PUSH2 0xF9A JUMPI PUSH1 0x0 DUP1 REVERT JUMPDEST POP GAS CALL ISZERO DUP1 ISZERO PUSH2 0xFAE JUMPI RETURNDATASIZE PUSH1 0x0 DUP1 RETURNDATACOPY RETURNDATASIZE PUSH1 0x0 REVERT JUMPDEST POP POP POP POP PUSH1 0x40 MLOAD RETURNDATASIZE PUSH1 0x1F NOT PUSH1 0x1F DUP3 ADD AND DUP3 ADD DUP1 PUSH1 0x40 MSTORE POP PUSH2 0x685 SWAP2 SWAP1 DUP2 ADD SWAP1 PUSH2 0x23F5 JUMP JUMPDEST PUSH10 0x3F870857A3E0E3800000 SWAP1 JUMP JUMPDEST PUSH1 0x2 SLOAD PUSH1 0x1 PUSH1 0x1 PUSH1 0xA0 SHL SUB AND CALLER EQ PUSH2 0x100A JUMPI PUSH1 0x40 MLOAD PUSH3 0x461BCD PUSH1 0xE5 SHL DUP2 MSTORE PUSH1 0x4 ADD PUSH2 0x5CD SWAP1 PUSH2 0x335B JUMP JUMPDEST PUSH1 0x0 DUP1 SLOAD PUSH1 0x40 DUP1 MLOAD PUSH4 0xE18B681 PUSH1 0xE0 SHL DUP2 MSTORE SWAP1 MLOAD PUSH1 0x1 PUSH1 0x1 PUSH1 0xA0 SHL SUB SWAP1 SWAP3 AND SWAP3 PUSH4 0xE18B681 SWAP3 PUSH1 0x4 DUP1 DUP5 ADD SWAP4 DUP3 SWAP1 SUB ADD DUP2 DUP4 DUP8 DUP1 EXTCODESIZE ISZERO DUP1 ISZERO PUSH2 0x104B JUMPI PUSH1 0x0 DUP1 REVERT JUMPDEST POP GAS CALL ISZERO DUP1 ISZERO PUSH2 0x105F JUMPI RETURNDATASIZE PUSH1 0x0 DUP1 RETURNDATACOPY RETURNDATASIZE PUSH1 0x0 REVERT JUMPDEST POP POP POP POP JUMP JUMPDEST PUSH1 0x0 SLOAD PUSH1 0x1 PUSH1 0x1 PUSH1 0xA0 SHL SUB AND DUP2 JUMP JUMPDEST PUSH1 0x3 SLOAD DUP2 JUMP JUMPDEST PUSH1 0x0 PUSH2 0x1084 PUSH2 0xFD2 JUMP JUMPDEST PUSH1 0x1 DUP1 SLOAD PUSH1 0x1 PUSH1 0x1 PUSH1 0xA0 SHL SUB AND SWAP1 PUSH4 0x782D6FE1 SWAP1 CALLER SWAP1 PUSH2 0x10A5 SWAP1 NUMBER SWAP1 PUSH2 0x1B4A JUMP JUMPDEST PUSH1 0x40 MLOAD DUP4 PUSH4 0xFFFFFFFF AND PUSH1 0xE0 SHL DUP2 MSTORE PUSH1 0x4 ADD PUSH2 0x10C2 SWAP3 SWAP2 SWAP1 PUSH2 0x30F9 JUMP JUMPDEST PUSH1 0x20 PUSH1 0x40 MLOAD DUP1 DUP4 SUB DUP2 DUP7 DUP1 EXTCODESIZE ISZERO DUP1 ISZERO PUSH2 0x10DA JUMPI PUSH1 0x0 DUP1 REVERT JUMPDEST POP GAS STATICCALL ISZERO DUP1 ISZERO PUSH2 0x10EE JUMPI RETURNDATASIZE PUSH1 0x0 DUP1 RETURNDATACOPY RETURNDATASIZE PUSH1 0x0 REVERT JUMPDEST POP POP POP POP PUSH1 0x40 MLOAD RETURNDATASIZE PUSH1 0x1F NOT PUSH1 0x1F DUP3 ADD AND DUP3 ADD DUP1 PUSH1 0x40 MSTORE POP PUSH2 0x1112 SWAP2 SWAP1 DUP2 ADD SWAP1 PUSH2 0x252E JUMP JUMPDEST PUSH1 0x1 PUSH1 0x1 PUSH1 0x60 SHL SUB AND GT PUSH2 0x1138 JUMPI PUSH1 0x40 MLOAD PUSH3 0x461BCD PUSH1 0xE5 SHL DUP2 MSTORE PUSH1 0x4 ADD PUSH2 0x5CD SWAP1 PUSH2 0x344B JUMP JUMPDEST DUP5 MLOAD DUP7 MLOAD EQ DUP1 ISZERO PUSH2 0x114A JUMPI POP DUP4 MLOAD DUP7 MLOAD EQ JUMPDEST DUP1 ISZERO PUSH2 0x1157 JUMPI POP DUP3 MLOAD DUP7 MLOAD EQ JUMPDEST PUSH2 0x1173 JUMPI PUSH1 0x40 MLOAD PUSH3 0x461BCD PUSH1 0xE5 SHL DUP2 MSTORE PUSH1 0x4 ADD PUSH2 0x5CD SWAP1 PUSH2 0x33EB JUMP JUMPDEST DUP6 MLOAD PUSH2 0x1191 JUMPI PUSH1 0x40 MLOAD PUSH3 0x461BCD PUSH1 0xE5 SHL DUP2 MSTORE PUSH1 0x4 ADD PUSH2 0x5CD SWAP1 PUSH2 0x343B JUMP JUMPDEST PUSH2 0x1199 PUSH2 0xEF8 JUMP JUMPDEST DUP7 MLOAD GT ISZERO PUSH2 0x11B9 JUMPI PUSH1 0x40 MLOAD PUSH3 0x461BCD PUSH1 0xE5 SHL DUP2 MSTORE PUSH1 0x4 ADD PUSH2 0x5CD SWAP1 PUSH2 0x33CB JUMP JUMPDEST CALLER PUSH1 0x0 SWAP1 DUP2 MSTORE PUSH1 0x5 PUSH1 0x20 MSTORE PUSH1 0x40 SWAP1 KECCAK256 SLOAD DUP1 ISZERO PUSH2 0x1236 JUMPI PUSH1 0x0 PUSH2 0x11DA DUP3 PUSH2 0x92C JUMP JUMPDEST SWAP1 POP PUSH1 0x1 DUP2 PUSH1 0x7 DUP2 GT ISZERO PUSH2 0x11EA JUMPI INVALID JUMPDEST EQ ISZERO PUSH2 0x1208 JUMPI PUSH1 0x40 MLOAD PUSH3 0x461BCD PUSH1 0xE5 SHL DUP2 MSTORE PUSH1 0x4 ADD PUSH2 0x5CD SWAP1 PUSH2 0x340B JUMP JUMPDEST PUSH1 0x0 DUP2 PUSH1 0x7 DUP2 GT ISZERO PUSH2 0x1216 JUMPI INVALID JUMPDEST EQ ISZERO PUSH2 0x1234 JUMPI PUSH1 0x40 MLOAD PUSH3 0x461BCD PUSH1 0xE5 SHL DUP2 MSTORE PUSH1 0x4 ADD PUSH2 0x5CD SWAP1 PUSH2 0x342B JUMP JUMPDEST POP JUMPDEST PUSH1 0x0 PUSH2 0x1244 NUMBER PUSH2 0xA8E PUSH2 0x927 JUMP JUMPDEST SWAP1 POP PUSH1 0x0 PUSH2 0x1254 DUP3 PUSH2 0xA8E PUSH2 0x531 JUMP JUMPDEST PUSH1 0x3 DUP1 SLOAD PUSH1 0x1 ADD SWAP1 SSTORE SWAP1 POP PUSH2 0x1267 PUSH2 0x1CD5 JUMP JUMPDEST PUSH1 0x40 MLOAD DUP1 PUSH2 0x1A0 ADD PUSH1 0x40 MSTORE DUP1 PUSH1 0x3 SLOAD DUP2 MSTORE PUSH1 0x20 ADD CALLER PUSH1 0x1 PUSH1 0x1 PUSH1 0xA0 SHL SUB AND DUP2 MSTORE PUSH1 0x20 ADD PUSH1 0x0 DUP2 MSTORE PUSH1 0x20 ADD DUP12 DUP2 MSTORE PUSH1 0x20 ADD DUP11 DUP2 MSTORE PUSH1 0x20 ADD DUP10 DUP2 MSTORE PUSH1 0x20 ADD DUP9 DUP2 MSTORE PUSH1 0x20 ADD DUP5 DUP2 MSTORE PUSH1 0x20 ADD DUP4 DUP2 MSTORE PUSH1 0x20 ADD PUSH1 0x0 DUP2 MSTORE PUSH1 0x20 ADD PUSH1 0x0 DUP2 MSTORE PUSH1 0x20 ADD PUSH1 0x0 ISZERO ISZERO DUP2 MSTORE PUSH1 0x20 ADD PUSH1 0x0 ISZERO ISZERO DUP2 MSTORE POP SWAP1 POP DUP1 PUSH1 0x4 PUSH1 0x0 DUP4 PUSH1 0x0 ADD MLOAD DUP2 MSTORE PUSH1 0x20 ADD SWAP1 DUP2 MSTORE PUSH1 0x20 ADD PUSH1 0x0 KECCAK256 PUSH1 0x0 DUP3 ADD MLOAD DUP2 PUSH1 0x0 ADD SSTORE PUSH1 0x20 DUP3 ADD MLOAD DUP2 PUSH1 0x1 ADD PUSH1 0x0 PUSH2 0x100 EXP DUP2 SLOAD DUP2 PUSH1 0x1 PUSH1 0x1 PUSH1 0xA0 SHL SUB MUL NOT AND SWAP1 DUP4 PUSH1 0x1 PUSH1 0x1 PUSH1 0xA0 SHL SUB AND MUL OR SWAP1 SSTORE POP PUSH1 0x40 DUP3 ADD MLOAD DUP2 PUSH1 0x2 ADD SSTORE PUSH1 0x60 DUP3 ADD MLOAD DUP2 PUSH1 0x3 ADD SWAP1 DUP1 MLOAD SWAP1 PUSH1 0x20 ADD SWAP1 PUSH2 0x134A SWAP3 SWAP2 SWAP1 PUSH2 0x1D4A JUMP JUMPDEST POP PUSH1 0x80 DUP3 ADD MLOAD DUP1 MLOAD PUSH2 0x1366 SWAP2 PUSH1 0x4 DUP5 ADD SWAP2 PUSH1 0x20 SWAP1 SWAP2 ADD SWAP1 PUSH2 0x1DAF JUMP JUMPDEST POP PUSH1 0xA0 DUP3 ADD MLOAD DUP1 MLOAD PUSH2 0x1382 SWAP2 PUSH1 0x5 DUP5 ADD SWAP2 PUSH1 0x20 SWAP1 SWAP2 ADD SWAP1 PUSH2 0x1DF6 JUMP JUMPDEST POP PUSH1 0xC0 DUP3 ADD MLOAD DUP1 MLOAD PUSH2 0x139E SWAP2 PUSH1 0x6 DUP5 ADD SWAP2 PUSH1 0x20 SWAP1 SWAP2 ADD SWAP1 PUSH2 0x1E4F JUMP JUMPDEST POP PUSH1 0xE0 DUP3 ADD MLOAD DUP2 PUSH1 0x7 ADD SSTORE PUSH2 0x100 DUP3 ADD MLOAD DUP2 PUSH1 0x8 ADD SSTORE PUSH2 0x120 DUP3 ADD MLOAD DUP2 PUSH1 0x9 ADD SSTORE PUSH2 0x140 DUP3 ADD MLOAD DUP2 PUSH1 0xA ADD SSTORE PUSH2 0x160 DUP3 ADD MLOAD DUP2 PUSH1 0xB ADD PUSH1 0x0 PUSH2 0x100 EXP DUP2 SLOAD DUP2 PUSH1 0xFF MUL NOT AND SWAP1 DUP4 ISZERO ISZERO MUL OR SWAP1 SSTORE POP PUSH2 0x180 DUP3 ADD MLOAD DUP2 PUSH1 0xB ADD PUSH1 0x1 PUSH2 0x100 EXP DUP2 SLOAD DUP2 PUSH1 0xFF MUL NOT AND SWAP1 DUP4 ISZERO ISZERO MUL OR SWAP1 SSTORE POP SWAP1 POP POP DUP1 PUSH1 0x0 ADD MLOAD PUSH1 0x5 PUSH1 0x0 DUP4 PUSH1 0x20 ADD MLOAD PUSH1 0x1 PUSH1 0x1 PUSH1 0xA0 SHL SUB AND PUSH1 0x1 PUSH1 0x1 PUSH1 0xA0 SHL SUB AND DUP2 MSTORE PUSH1 0x20 ADD SWAP1 DUP2 MSTORE PUSH1 0x20 ADD PUSH1 0x0 KECCAK256 DUP2 SWAP1 SSTORE POP PUSH32 0x7D84A6263AE0D98D3329BD7B46BB4E8D6F98CD35A7ADB45C274C8B7FD5EBD5E0 DUP2 PUSH1 0x0 ADD MLOAD CALLER DUP13 DUP13 DUP13 DUP13 DUP10 DUP10 DUP15 PUSH1 0x40 MLOAD PUSH2 0x1484 SWAP10 SWAP9 SWAP8 SWAP7 SWAP6 SWAP5 SWAP4 SWAP3 SWAP2 SWAP1 PUSH2 0x34B9 JUMP JUMPDEST PUSH1 0x40 MLOAD DUP1 SWAP2 SUB SWAP1 LOG1 MLOAD SWAP4 POP POP POP POP JUMPDEST SWAP6 SWAP5 POP POP POP POP POP JUMP JUMPDEST PUSH1 0x4 PUSH2 0x14A7 DUP3 PUSH2 0x92C JUMP JUMPDEST PUSH1 0x7 DUP2 GT ISZERO PUSH2 0x14B2 JUMPI INVALID JUMPDEST EQ PUSH2 0x14CF JUMPI PUSH1 0x40 MLOAD PUSH3 0x461BCD PUSH1 0xE5 SHL DUP2 MSTORE PUSH1 0x4 ADD PUSH2 0x5CD SWAP1 PUSH2 0x336B JUMP JUMPDEST PUSH1 0x0 DUP2 DUP2 MSTORE PUSH1 0x4 PUSH1 0x20 DUP2 DUP2 MSTORE PUSH1 0x40 DUP1 DUP5 KECCAK256 DUP5 SLOAD DUP3 MLOAD PUSH4 0xD48571F PUSH1 0xE3 SHL DUP2 MSTORE SWAP3 MLOAD SWAP2 SWAP6 SWAP5 PUSH2 0x1524 SWAP5 TIMESTAMP SWAP5 PUSH1 0x1 PUSH1 0x1 PUSH1 0xA0 SHL SUB SWAP1 SWAP4 AND SWAP4 PUSH4 0x6A42B8F8 SWAP4 DUP1 DUP5 ADD SWAP4 SWAP1 DUP3 SWAP1 SUB ADD DUP2 DUP7 DUP1 EXTCODESIZE ISZERO DUP1 ISZERO PUSH2 0xA56 JUMPI PUSH1 0x0 DUP1 REVERT JUMPDEST SWAP1 POP PUSH1 0x0 JUMPDEST PUSH1 0x3 DUP4 ADD SLOAD DUP2 LT ISZERO PUSH2 0x16CC JUMPI PUSH2 0x16C4 DUP4 PUSH1 0x3 ADD DUP3 DUP2 SLOAD DUP2 LT PUSH2 0x1547 JUMPI INVALID JUMPDEST PUSH1 0x0 SWAP2 DUP3 MSTORE PUSH1 0x20 SWAP1 SWAP2 KECCAK256 ADD SLOAD PUSH1 0x4 DUP6 ADD DUP1 SLOAD PUSH1 0x1 PUSH1 0x1 PUSH1 0xA0 SHL SUB SWAP1 SWAP3 AND SWAP2 DUP5 SWAP1 DUP2 LT PUSH2 0x156F JUMPI INVALID JUMPDEST SWAP1 PUSH1 0x0 MSTORE PUSH1 0x20 PUSH1 0x0 KECCAK256 ADD SLOAD DUP6 PUSH1 0x5 ADD DUP5 DUP2 SLOAD DUP2 LT PUSH2 0x1589 JUMPI INVALID JUMPDEST PUSH1 0x0 SWAP2 DUP3 MSTORE PUSH1 0x20 SWAP2 DUP3 SWAP1 KECCAK256 ADD DUP1 SLOAD PUSH1 0x40 DUP1 MLOAD PUSH1 0x1F PUSH1 0x2 PUSH1 0x0 NOT PUSH2 0x100 PUSH1 0x1 DUP8 AND ISZERO MUL ADD SWAP1 SWAP5 AND SWAP4 SWAP1 SWAP4 DIV SWAP3 DUP4 ADD DUP6 SWAP1 DIV DUP6 MUL DUP2 ADD DUP6 ADD SWAP1 SWAP2 MSTORE DUP2 DUP2 MSTORE SWAP3 DUP4 ADD DUP3 DUP3 DUP1 ISZERO PUSH2 0x1617 JUMPI DUP1 PUSH1 0x1F LT PUSH2 0x15EC JUMPI PUSH2 0x100 DUP1 DUP4 SLOAD DIV MUL DUP4 MSTORE SWAP2 PUSH1 0x20 ADD SWAP2 PUSH2 0x1617 JUMP JUMPDEST DUP3 ADD SWAP2 SWAP1 PUSH1 0x0 MSTORE PUSH1 0x20 PUSH1 0x0 KECCAK256 SWAP1 JUMPDEST DUP2 SLOAD DUP2 MSTORE SWAP1 PUSH1 0x1 ADD SWAP1 PUSH1 0x20 ADD DUP1 DUP4 GT PUSH2 0x15FA JUMPI DUP3 SWAP1 SUB PUSH1 0x1F AND DUP3 ADD SWAP2 JUMPDEST POP POP POP POP POP DUP7 PUSH1 0x6 ADD DUP6 DUP2 SLOAD DUP2 LT PUSH2 0x162B JUMPI INVALID JUMPDEST PUSH1 0x0 SWAP2 DUP3 MSTORE PUSH1 0x20 SWAP2 DUP3 SWAP1 KECCAK256 ADD DUP1 SLOAD PUSH1 0x40 DUP1 MLOAD PUSH1 0x1F PUSH1 0x2 PUSH1 0x0 NOT PUSH2 0x100 PUSH1 0x1 DUP8 AND ISZERO MUL ADD SWAP1 SWAP5 AND SWAP4 SWAP1 SWAP4 DIV SWAP3 DUP4 ADD DUP6 SWAP1 DIV DUP6 MUL DUP2 ADD DUP6 ADD SWAP1 SWAP2 MSTORE DUP2 DUP2 MSTORE SWAP3 DUP4 ADD DUP3 DUP3 DUP1 ISZERO PUSH2 0x16B9 JUMPI DUP1 PUSH1 0x1F LT PUSH2 0x168E JUMPI PUSH2 0x100 DUP1 DUP4 SLOAD DIV MUL DUP4 MSTORE SWAP2 PUSH1 0x20 ADD SWAP2 PUSH2 0x16B9 JUMP JUMPDEST DUP3 ADD SWAP2 SWAP1 PUSH1 0x0 MSTORE PUSH1 0x20 PUSH1 0x0 KECCAK256 SWAP1 JUMPDEST DUP2 SLOAD DUP2 MSTORE SWAP1 PUSH1 0x1 ADD SWAP1 PUSH1 0x20 ADD DUP1 DUP4 GT PUSH2 0x169C JUMPI DUP3 SWAP1 SUB PUSH1 0x1F AND DUP3 ADD SWAP2 JUMPDEST POP POP POP POP POP DUP7 PUSH2 0x1B76 JUMP JUMPDEST PUSH1 0x1 ADD PUSH2 0x1529 JUMP JUMPDEST POP PUSH1 0x2 DUP3 ADD DUP2 SWAP1 SSTORE PUSH1 0x40 MLOAD PUSH32 0x9A2E42FD6722813D69113E7D0079D3D940171428DF7373DF9C7F7617CFDA2892 SWAP1 PUSH2 0xD0A SWAP1 DUP6 SWAP1 DUP5 SWAP1 PUSH2 0x35E7 JUMP JUMPDEST PUSH1 0x40 MLOAD PUSH2 0x598 SWAP1 PUSH2 0x30E0 JUMP JUMPDEST PUSH2 0x171A PUSH2 0x1EA8 JUMP JUMPDEST POP PUSH1 0x0 DUP3 DUP2 MSTORE PUSH1 0x4 PUSH1 0x20 SWAP1 DUP2 MSTORE PUSH1 0x40 DUP1 DUP4 KECCAK256 PUSH1 0x1 PUSH1 0x1 PUSH1 0xA0 SHL SUB DUP6 AND DUP5 MSTORE PUSH1 0xC ADD DUP3 MSTORE SWAP2 DUP3 SWAP1 KECCAK256 DUP3 MLOAD PUSH1 0x60 DUP2 ADD DUP5 MSTORE SWAP1 SLOAD PUSH1 0xFF DUP1 DUP3 AND ISZERO ISZERO DUP4 MSTORE PUSH2 0x100 DUP3 DIV AND ISZERO ISZERO SWAP3 DUP3 ADD SWAP3 SWAP1 SWAP3 MSTORE PUSH3 0x10000 SWAP1 SWAP2 DIV PUSH1 0x1 PUSH1 0x1 PUSH1 0x60 SHL SUB AND SWAP2 DUP2 ADD SWAP2 SWAP1 SWAP2 MSTORE JUMPDEST SWAP3 SWAP2 POP POP JUMP JUMPDEST PUSH1 0x1 SLOAD PUSH1 0x1 PUSH1 0x1 PUSH1 0xA0 SHL SUB AND DUP2 JUMP JUMPDEST PUSH1 0x5 PUSH2 0x179B DUP3 PUSH2 0x92C JUMP JUMPDEST PUSH1 0x7 DUP2 GT ISZERO PUSH2 0x17A6 JUMPI INVALID JUMPDEST EQ PUSH2 0x17C3 JUMPI PUSH1 0x40 MLOAD PUSH3 0x461BCD PUSH1 0xE5 SHL DUP2 MSTORE PUSH1 0x4 ADD PUSH2 0x5CD SWAP1 PUSH2 0x337B JUMP JUMPDEST PUSH1 0x0 DUP2 DUP2 MSTORE PUSH1 0x4 PUSH1 0x20 MSTORE PUSH1 0x40 DUP2 KECCAK256 PUSH1 0xB DUP2 ADD DUP1 SLOAD PUSH2 0xFF00 NOT AND PUSH2 0x100 OR SWAP1 SSTORE SWAP1 JUMPDEST PUSH1 0x3 DUP3 ADD SLOAD DUP2 LT ISZERO PUSH2 0x1919 JUMPI PUSH1 0x0 SLOAD PUSH1 0x4 DUP4 ADD DUP1 SLOAD PUSH1 0x1 PUSH1 0x1 PUSH1 0xA0 SHL SUB SWAP1 SWAP3 AND SWAP2 PUSH4 0x825F38F SWAP2 SWAP1 DUP5 SWAP1 DUP2 LT PUSH2 0x1816 JUMPI INVALID JUMPDEST SWAP1 PUSH1 0x0 MSTORE PUSH1 0x20 PUSH1 0x0 KECCAK256 ADD SLOAD DUP5 PUSH1 0x3 ADD DUP5 DUP2 SLOAD DUP2 LT PUSH2 0x1830 JUMPI INVALID JUMPDEST PUSH1 0x0 SWAP2 DUP3 MSTORE PUSH1 0x20 SWAP1 SWAP2 KECCAK256 ADD SLOAD PUSH1 0x4 DUP7 ADD DUP1 SLOAD PUSH1 0x1 PUSH1 0x1 PUSH1 0xA0 SHL SUB SWAP1 SWAP3 AND SWAP2 DUP7 SWAP1 DUP2 LT PUSH2 0x1858 JUMPI INVALID JUMPDEST SWAP1 PUSH1 0x0 MSTORE PUSH1 0x20 PUSH1 0x0 KECCAK256 ADD SLOAD DUP7 PUSH1 0x5 ADD DUP7 DUP2 SLOAD DUP2 LT PUSH2 0x1872 JUMPI INVALID JUMPDEST SWAP1 PUSH1 0x0 MSTORE PUSH1 0x20 PUSH1 0x0 KECCAK256 ADD DUP8 PUSH1 0x6 ADD DUP8 DUP2 SLOAD DUP2 LT PUSH2 0x188B JUMPI INVALID JUMPDEST SWAP1 PUSH1 0x0 MSTORE PUSH1 0x20 PUSH1 0x0 KECCAK256 ADD DUP9 PUSH1 0x2 ADD SLOAD PUSH1 0x40 MLOAD DUP8 PUSH4 0xFFFFFFFF AND PUSH1 0xE0 SHL DUP2 MSTORE PUSH1 0x4 ADD PUSH2 0x18BA SWAP6 SWAP5 SWAP4 SWAP3 SWAP2 SWAP1 PUSH2 0x3200 JUMP JUMPDEST PUSH1 0x0 PUSH1 0x40 MLOAD DUP1 DUP4 SUB DUP2 DUP6 DUP9 DUP1 EXTCODESIZE ISZERO DUP1 ISZERO PUSH2 0x18D3 JUMPI PUSH1 0x0 DUP1 REVERT JUMPDEST POP GAS CALL ISZERO DUP1 ISZERO PUSH2 0x18E7 JUMPI RETURNDATASIZE PUSH1 0x0 DUP1 RETURNDATACOPY RETURNDATASIZE PUSH1 0x0 REVERT JUMPDEST POP POP POP POP POP PUSH1 0x40 MLOAD RETURNDATASIZE PUSH1 0x0 DUP3 RETURNDATACOPY PUSH1 0x1F RETURNDATASIZE SWAP1 DUP2 ADD PUSH1 0x1F NOT AND DUP3 ADD PUSH1 0x40 MSTORE PUSH2 0x1910 SWAP2 SWAP1 DUP2 ADD SWAP1 PUSH2 0x2413 JUMP JUMPDEST POP PUSH1 0x1 ADD PUSH2 0x17E4 JUMP JUMPDEST POP PUSH32 0x712AE1383F79AC853F8D882153778E0260EF8F03B504E2866E0593E04D2B291F DUP3 PUSH1 0x40 MLOAD PUSH2 0x1949 SWAP2 SWAP1 PUSH2 0x328E JUMP JUMPDEST PUSH1 0x40 MLOAD DUP1 SWAP2 SUB SWAP1 LOG1 POP POP JUMP JUMPDEST PUSH1 0x1 PUSH2 0x1960 DUP4 PUSH2 0x92C JUMP JUMPDEST PUSH1 0x7 DUP2 GT ISZERO PUSH2 0x196B JUMPI INVALID JUMPDEST EQ PUSH2 0x1988 JUMPI PUSH1 0x40 MLOAD PUSH3 0x461BCD PUSH1 0xE5 SHL DUP2 MSTORE PUSH1 0x4 ADD PUSH2 0x5CD SWAP1 PUSH2 0x347B JUMP JUMPDEST PUSH1 0x0 DUP3 DUP2 MSTORE PUSH1 0x4 PUSH1 0x20 SWAP1 DUP2 MSTORE PUSH1 0x40 DUP1 DUP4 KECCAK256 PUSH1 0x1 PUSH1 0x1 PUSH1 0xA0 SHL SUB DUP8 AND DUP5 MSTORE PUSH1 0xC DUP2 ADD SWAP1 SWAP3 MSTORE SWAP1 SWAP2 KECCAK256 DUP1 SLOAD PUSH1 0xFF AND ISZERO PUSH2 0x19D1 JUMPI PUSH1 0x40 MLOAD PUSH3 0x461BCD PUSH1 0xE5 SHL DUP2 MSTORE PUSH1 0x4 ADD PUSH2 0x5CD SWAP1 PUSH2 0x33AB JUMP JUMPDEST PUSH1 0x1 SLOAD PUSH1 0x7 DUP4 ADD SLOAD PUSH1 0x40 MLOAD PUSH4 0x782D6FE1 PUSH1 0xE0 SHL DUP2 MSTORE PUSH1 0x0 SWAP3 PUSH1 0x1 PUSH1 0x1 PUSH1 0xA0 SHL SUB AND SWAP2 PUSH4 0x782D6FE1 SWAP2 PUSH2 0x1A07 SWAP2 DUP11 SWAP2 PUSH1 0x4 ADD PUSH2 0x3163 JUMP JUMPDEST PUSH1 0x20 PUSH1 0x40 MLOAD DUP1 DUP4 SUB DUP2 DUP7 DUP1 EXTCODESIZE ISZERO DUP1 ISZERO PUSH2 0x1A1F JUMPI PUSH1 0x0 DUP1 REVERT JUMPDEST POP GAS STATICCALL ISZERO DUP1 ISZERO PUSH2 0x1A33 JUMPI RETURNDATASIZE PUSH1 0x0 DUP1 RETURNDATACOPY RETURNDATASIZE PUSH1 0x0 REVERT JUMPDEST POP POP POP POP PUSH1 0x40 MLOAD RETURNDATASIZE PUSH1 0x1F NOT PUSH1 0x1F DUP3 ADD AND DUP3 ADD DUP1 PUSH1 0x40 MSTORE POP PUSH2 0x1A57 SWAP2 SWAP1 DUP2 ADD SWAP1 PUSH2 0x252E JUMP JUMPDEST SWAP1 POP DUP4 ISZERO PUSH2 0x1A80 JUMPI PUSH2 0x1A76 DUP4 PUSH1 0x9 ADD SLOAD DUP3 PUSH1 0x1 PUSH1 0x1 PUSH1 0x60 SHL SUB AND PUSH2 0x1B1E JUMP JUMPDEST PUSH1 0x9 DUP5 ADD SSTORE PUSH2 0x1A9D JUMP JUMPDEST PUSH2 0x1A97 DUP4 PUSH1 0xA ADD SLOAD DUP3 PUSH1 0x1 PUSH1 0x1 PUSH1 0x60 SHL SUB AND PUSH2 0x1B1E JUMP JUMPDEST PUSH1 0xA DUP5 ADD SSTORE JUMPDEST DUP2 SLOAD PUSH1 0x1 PUSH1 0xFF NOT SWAP1 SWAP2 AND OR PUSH2 0xFF00 NOT AND PUSH2 0x100 DUP6 ISZERO ISZERO MUL OR PUSH14 0xFFFFFFFFFFFFFFFFFFFFFFFF0000 NOT AND PUSH3 0x10000 PUSH1 0x1 PUSH1 0x1 PUSH1 0x60 SHL SUB DUP4 AND MUL OR DUP3 SSTORE PUSH1 0x40 MLOAD PUSH32 0x877856338E13F63D0C36822FF0EF736B80934CD90574A3A5BC9262C39D217C46 SWAP1 PUSH2 0x1B0E SWAP1 DUP9 SWAP1 DUP9 SWAP1 DUP9 SWAP1 DUP7 SWAP1 PUSH2 0x3171 JUMP JUMPDEST PUSH1 0x40 MLOAD DUP1 SWAP2 SUB SWAP1 LOG1 POP POP POP POP POP POP JUMP JUMPDEST PUSH1 0x0 DUP3 DUP3 ADD DUP4 DUP2 LT ISZERO PUSH2 0x1B43 JUMPI PUSH1 0x40 MLOAD PUSH3 0x461BCD PUSH1 0xE5 SHL DUP2 MSTORE PUSH1 0x4 ADD PUSH2 0x5CD SWAP1 PUSH2 0x33DB JUMP JUMPDEST SWAP4 SWAP3 POP POP POP JUMP JUMPDEST PUSH1 0x0 DUP3 DUP3 GT ISZERO PUSH2 0x1B6C JUMPI PUSH1 0x40 MLOAD PUSH3 0x461BCD PUSH1 0xE5 SHL DUP2 MSTORE PUSH1 0x4 ADD PUSH2 0x5CD SWAP1 PUSH2 0x348B JUMP JUMPDEST POP SWAP1 SUB SWAP1 JUMP JUMPDEST CHAINID SWAP1 JUMP JUMPDEST PUSH1 0x0 SLOAD PUSH1 0x40 MLOAD PUSH1 0x1 PUSH1 0x1 PUSH1 0xA0 SHL SUB SWAP1 SWAP2 AND SWAP1 PUSH4 0xF2B06537 SWAP1 PUSH2 0x1BA4 SWAP1 DUP9 SWAP1 DUP9 SWAP1 DUP9 SWAP1 DUP9 SWAP1 DUP9 SWAP1 PUSH1 0x20 ADD PUSH2 0x31A6 JUMP JUMPDEST PUSH1 0x40 MLOAD PUSH1 0x20 DUP2 DUP4 SUB SUB DUP2 MSTORE SWAP1 PUSH1 0x40 MSTORE DUP1 MLOAD SWAP1 PUSH1 0x20 ADD KECCAK256 PUSH1 0x40 MLOAD DUP3 PUSH4 0xFFFFFFFF AND PUSH1 0xE0 SHL DUP2 MSTORE PUSH1 0x4 ADD PUSH2 0x1BD6 SWAP2 SWAP1 PUSH2 0x328E JUMP JUMPDEST PUSH1 0x20 PUSH1 0x40 MLOAD DUP1 DUP4 SUB DUP2 DUP7 DUP1 EXTCODESIZE ISZERO DUP1 ISZERO PUSH2 0x1BEE JUMPI PUSH1 0x0 DUP1 REVERT JUMPDEST POP GAS STATICCALL ISZERO DUP1 ISZERO PUSH2 0x1C02 JUMPI RETURNDATASIZE PUSH1 0x0 DUP1 RETURNDATACOPY RETURNDATASIZE PUSH1 0x0 REVERT JUMPDEST POP POP POP POP PUSH1 0x40 MLOAD RETURNDATASIZE PUSH1 0x1F NOT PUSH1 0x1F DUP3 ADD AND DUP3 ADD DUP1 PUSH1 0x40 MSTORE POP PUSH2 0x1C26 SWAP2 SWAP1 DUP2 ADD SWAP1 PUSH2 0x23D7 JUMP JUMPDEST ISZERO PUSH2 0x1C43 JUMPI PUSH1 0x40 MLOAD PUSH3 0x461BCD PUSH1 0xE5 SHL DUP2 MSTORE PUSH1 0x4 ADD PUSH2 0x5CD SWAP1 PUSH2 0x341B JUMP JUMPDEST PUSH1 0x0 SLOAD PUSH1 0x40 MLOAD PUSH4 0x3A66F901 PUSH1 0xE0 SHL DUP2 MSTORE PUSH1 0x1 PUSH1 0x1 PUSH1 0xA0 SHL SUB SWAP1 SWAP2 AND SWAP1 PUSH4 0x3A66F901 SWAP1 PUSH2 0x1C7B SWAP1 DUP9 SWAP1 DUP9 SWAP1 DUP9 SWAP1 DUP9 SWAP1 DUP9 SWAP1 PUSH1 0x4 ADD PUSH2 0x31A6 JUMP JUMPDEST PUSH1 0x20 PUSH1 0x40 MLOAD DUP1 DUP4 SUB DUP2 PUSH1 0x0 DUP8 DUP1 EXTCODESIZE ISZERO DUP1 ISZERO PUSH2 0x1C95 JUMPI PUSH1 0x0 DUP1 REVERT JUMPDEST POP GAS CALL ISZERO DUP1 ISZERO PUSH2 0x1CA9 JUMPI RETURNDATASIZE PUSH1 0x0 DUP1 RETURNDATACOPY RETURNDATASIZE PUSH1 0x0 REVERT JUMPDEST POP POP POP POP PUSH1 0x40 MLOAD RETURNDATASIZE PUSH1 0x1F NOT PUSH1 0x1F DUP3 ADD AND DUP3 ADD DUP1 PUSH1 0x40 MSTORE POP PUSH2 0x1CCD SWAP2 SWAP1 DUP2 ADD SWAP1 PUSH2 0x23F5 JUMP JUMPDEST POP POP POP POP POP POP JUMP JUMPDEST PUSH1 0x40 MLOAD DUP1 PUSH2 0x1A0 ADD PUSH1 0x40 MSTORE DUP1 PUSH1 0x0 DUP2 MSTORE PUSH1 0x20 ADD PUSH1 0x0 PUSH1 0x1 PUSH1 0x1 PUSH1 0xA0 SHL SUB AND DUP2 MSTORE PUSH1 0x20 ADD PUSH1 0x0 DUP2 MSTORE PUSH1 0x20 ADD PUSH1 0x60 DUP2 MSTORE PUSH1 0x20 ADD PUSH1 0x60 DUP2 MSTORE PUSH1 0x20 ADD PUSH1 0x60 DUP2 MSTORE PUSH1 0x20 ADD PUSH1 0x60 DUP2 MSTORE PUSH1 0x20 ADD PUSH1 0x0 DUP2 MSTORE PUSH1 0x20 ADD PUSH1 0x0 DUP2 MSTORE PUSH1 0x20 ADD PUSH1 0x0 DUP2 MSTORE PUSH1 0x20 ADD PUSH1 0x0 DUP2 MSTORE PUSH1 0x20 ADD PUSH1 0x0 ISZERO ISZERO DUP2 MSTORE PUSH1 0x20 ADD PUSH1 0x0 ISZERO ISZERO DUP2 MSTORE POP SWAP1 JUMP JUMPDEST DUP3 DUP1 SLOAD DUP3 DUP3 SSTORE SWAP1 PUSH1 0x0 MSTORE PUSH1 0x20 PUSH1 0x0 KECCAK256 SWAP1 DUP2 ADD SWAP3 DUP3 ISZERO PUSH2 0x1D9F JUMPI SWAP2 PUSH1 0x20 MUL DUP3 ADD JUMPDEST DUP3 DUP2 GT ISZERO PUSH2 0x1D9F JUMPI DUP3 MLOAD DUP3 SLOAD PUSH1 0x1 PUSH1 0x1 PUSH1 0xA0 SHL SUB NOT AND PUSH1 0x1 PUSH1 0x1 PUSH1 0xA0 SHL SUB SWAP1 SWAP2 AND OR DUP3 SSTORE PUSH1 0x20 SWAP1 SWAP3 ADD SWAP2 PUSH1 0x1 SWAP1 SWAP2 ADD SWAP1 PUSH2 0x1D6A JUMP JUMPDEST POP PUSH2 0x1DAB SWAP3 SWAP2 POP PUSH2 0x1EC8 JUMP JUMPDEST POP SWAP1 JUMP JUMPDEST DUP3 DUP1 SLOAD DUP3 DUP3 SSTORE SWAP1 PUSH1 0x0 MSTORE PUSH1 0x20 PUSH1 0x0 KECCAK256 SWAP1 DUP2 ADD SWAP3 DUP3 ISZERO PUSH2 0x1DEA JUMPI SWAP2 PUSH1 0x20 MUL DUP3 ADD JUMPDEST DUP3 DUP2 GT ISZERO PUSH2 0x1DEA JUMPI DUP3 MLOAD DUP3 SSTORE SWAP2 PUSH1 0x20 ADD SWAP2 SWAP1 PUSH1 0x1 ADD SWAP1 PUSH2 0x1DCF JUMP JUMPDEST POP PUSH2 0x1DAB SWAP3 SWAP2 POP PUSH2 0x1EEC JUMP JUMPDEST DUP3 DUP1 SLOAD DUP3 DUP3 SSTORE SWAP1 PUSH1 0x0 MSTORE PUSH1 0x20 PUSH1 0x0 KECCAK256 SWAP1 DUP2 ADD SWAP3 DUP3 ISZERO PUSH2 0x1E43 JUMPI SWAP2 PUSH1 0x20 MUL DUP3 ADD JUMPDEST DUP3 DUP2 GT ISZERO PUSH2 0x1E43 JUMPI DUP3 MLOAD DUP1 MLOAD PUSH2 0x1E33 SWAP2 DUP5 SWAP2 PUSH1 0x20 SWAP1 SWAP2 ADD SWAP1 PUSH2 0x1F06 JUMP JUMPDEST POP SWAP2 PUSH1 0x20 ADD SWAP2 SWAP1 PUSH1 0x1 ADD SWAP1 PUSH2 0x1E16 JUMP JUMPDEST POP PUSH2 0x1DAB SWAP3 SWAP2 POP PUSH2 0x1F73 JUMP JUMPDEST DUP3 DUP1 SLOAD DUP3 DUP3 SSTORE SWAP1 PUSH1 0x0 MSTORE PUSH1 0x20 PUSH1 0x0 KECCAK256 SWAP1 DUP2 ADD SWAP3 DUP3 ISZERO PUSH2 0x1E9C JUMPI SWAP2 PUSH1 0x20 MUL DUP3 ADD JUMPDEST DUP3 DUP2 GT ISZERO PUSH2 0x1E9C JUMPI DUP3 MLOAD DUP1 MLOAD PUSH2 0x1E8C SWAP2 DUP5 SWAP2 PUSH1 0x20 SWAP1 SWAP2 ADD SWAP1 PUSH2 0x1F06 JUMP JUMPDEST POP SWAP2 PUSH1 0x20 ADD SWAP2 SWAP1 PUSH1 0x1 ADD SWAP1 PUSH2 0x1E6F JUMP JUMPDEST POP PUSH2 0x1DAB SWAP3 SWAP2 POP PUSH2 0x1F96 JUMP JUMPDEST PUSH1 0x40 DUP1 MLOAD PUSH1 0x60 DUP2 ADD DUP3 MSTORE PUSH1 0x0 DUP1 DUP3 MSTORE PUSH1 0x20 DUP3 ADD DUP2 SWAP1 MSTORE SWAP2 DUP2 ADD SWAP2 SWAP1 SWAP2 MSTORE SWAP1 JUMP JUMPDEST PUSH2 0x536 SWAP2 SWAP1 JUMPDEST DUP1 DUP3 GT ISZERO PUSH2 0x1DAB JUMPI DUP1 SLOAD PUSH1 0x1 PUSH1 0x1 PUSH1 0xA0 SHL SUB NOT AND DUP2 SSTORE PUSH1 0x1 ADD PUSH2 0x1ECE JUMP JUMPDEST PUSH2 0x536 SWAP2 SWAP1 JUMPDEST DUP1 DUP3 GT ISZERO PUSH2 0x1DAB JUMPI PUSH1 0x0 DUP2 SSTORE PUSH1 0x1 ADD PUSH2 0x1EF2 JUMP JUMPDEST DUP3 DUP1 SLOAD PUSH1 0x1 DUP2 PUSH1 0x1 AND ISZERO PUSH2 0x100 MUL SUB AND PUSH1 0x2 SWAP1 DIV SWAP1 PUSH1 0x0 MSTORE PUSH1 0x20 PUSH1 0x0 KECCAK256 SWAP1 PUSH1 0x1F ADD PUSH1 0x20 SWAP1 DIV DUP2 ADD SWAP3 DUP3 PUSH1 0x1F LT PUSH2 0x1F47 JUMPI DUP1 MLOAD PUSH1 0xFF NOT AND DUP4 DUP1 ADD OR DUP6 SSTORE PUSH2 0x1DEA JUMP JUMPDEST DUP3 DUP1 ADD PUSH1 0x1 ADD DUP6 SSTORE DUP3 ISZERO PUSH2 0x1DEA JUMPI SWAP2 DUP3 ADD DUP3 DUP2 GT ISZERO PUSH2 0x1DEA JUMPI DUP3 MLOAD DUP3 SSTORE SWAP2 PUSH1 0x20 ADD SWAP2 SWAP1 PUSH1 0x1 ADD SWAP1 PUSH2 0x1DCF JUMP JUMPDEST PUSH2 0x536 SWAP2 SWAP1 JUMPDEST DUP1 DUP3 GT ISZERO PUSH2 0x1DAB JUMPI PUSH1 0x0 PUSH2 0x1F8D DUP3 DUP3 PUSH2 0x1FB9 JUMP JUMPDEST POP PUSH1 0x1 ADD PUSH2 0x1F79 JUMP JUMPDEST PUSH2 0x536 SWAP2 SWAP1 JUMPDEST DUP1 DUP3 GT ISZERO PUSH2 0x1DAB JUMPI PUSH1 0x0 PUSH2 0x1FB0 DUP3 DUP3 PUSH2 0x1FB9 JUMP JUMPDEST POP PUSH1 0x1 ADD PUSH2 0x1F9C JUMP JUMPDEST POP DUP1 SLOAD PUSH1 0x1 DUP2 PUSH1 0x1 AND ISZERO PUSH2 0x100 MUL SUB AND PUSH1 0x2 SWAP1 DIV PUSH1 0x0 DUP3 SSTORE DUP1 PUSH1 0x1F LT PUSH2 0x1FDF JUMPI POP PUSH2 0x1FFD JUMP JUMPDEST PUSH1 0x1F ADD PUSH1 0x20 SWAP1 DIV SWAP1 PUSH1 0x0 MSTORE PUSH1 0x20 PUSH1 0x0 KECCAK256 SWAP1 DUP2 ADD SWAP1 PUSH2 0x1FFD SWAP2 SWAP1 PUSH2 0x1EEC JUMP JUMPDEST POP JUMP JUMPDEST DUP1 CALLDATALOAD PUSH2 0x177B DUP2 PUSH2 0x373B JUMP JUMPDEST PUSH1 0x0 DUP3 PUSH1 0x1F DUP4 ADD SLT PUSH2 0x201C JUMPI PUSH1 0x0 DUP1 REVERT JUMPDEST DUP2 CALLDATALOAD PUSH2 0x202F PUSH2 0x202A DUP3 PUSH2 0x361C JUMP JUMPDEST PUSH2 0x35F5 JUMP JUMPDEST SWAP2 POP DUP2 DUP2 DUP4 MSTORE PUSH1 0x20 DUP5 ADD SWAP4 POP PUSH1 0x20 DUP2 ADD SWAP1 POP DUP4 DUP6 PUSH1 0x20 DUP5 MUL DUP3 ADD GT ISZERO PUSH2 0x2054 JUMPI PUSH1 0x0 DUP1 REVERT JUMPDEST PUSH1 0x0 JUMPDEST DUP4 DUP2 LT ISZERO PUSH2 0x2080 JUMPI DUP2 PUSH2 0x206A DUP9 DUP3 PUSH2 0x2000 JUMP JUMPDEST DUP5 MSTORE POP PUSH1 0x20 SWAP3 DUP4 ADD SWAP3 SWAP2 SWAP1 SWAP2 ADD SWAP1 PUSH1 0x1 ADD PUSH2 0x2057 JUMP JUMPDEST POP POP POP POP SWAP3 SWAP2 POP POP JUMP JUMPDEST PUSH1 0x0 DUP3 PUSH1 0x1F DUP4 ADD SLT PUSH2 0x209B JUMPI PUSH1 0x0 DUP1 REVERT JUMPDEST DUP2 CALLDATALOAD PUSH2 0x20A9 PUSH2 0x202A DUP3 PUSH2 0x361C JUMP JUMPDEST DUP2 DUP2 MSTORE PUSH1 0x20 SWAP4 DUP5 ADD SWAP4 SWAP1 SWAP3 POP DUP3 ADD DUP4 PUSH1 0x0 JUMPDEST DUP4 DUP2 LT ISZERO PUSH2 0x2080 JUMPI DUP2 CALLDATALOAD DUP7 ADD PUSH2 0x20D1 DUP9 DUP3 PUSH2 0x21E0 JUMP JUMPDEST DUP5 MSTORE POP PUSH1 0x20 SWAP3 DUP4 ADD SWAP3 SWAP2 SWAP1 SWAP2 ADD SWAP1 PUSH1 0x1 ADD PUSH2 0x20BB JUMP JUMPDEST PUSH1 0x0 DUP3 PUSH1 0x1F DUP4 ADD SLT PUSH2 0x20F8 JUMPI PUSH1 0x0 DUP1 REVERT JUMPDEST DUP2 CALLDATALOAD PUSH2 0x2106 PUSH2 0x202A DUP3 PUSH2 0x361C JUMP JUMPDEST DUP2 DUP2 MSTORE PUSH1 0x20 SWAP4 DUP5 ADD SWAP4 SWAP1 SWAP3 POP DUP3 ADD DUP4 PUSH1 0x0 JUMPDEST DUP4 DUP2 LT ISZERO PUSH2 0x2080 JUMPI DUP2 CALLDATALOAD DUP7 ADD PUSH2 0x212E DUP9 DUP3 PUSH2 0x21E0 JUMP JUMPDEST DUP5 MSTORE POP PUSH1 0x20 SWAP3 DUP4 ADD SWAP3 SWAP2 SWAP1 SWAP2 ADD SWAP1 PUSH1 0x1 ADD PUSH2 0x2118 JUMP JUMPDEST PUSH1 0x0 DUP3 PUSH1 0x1F DUP4 ADD SLT PUSH2 0x2155 JUMPI PUSH1 0x0 DUP1 REVERT JUMPDEST DUP2 CALLDATALOAD PUSH2 0x2163 PUSH2 0x202A DUP3 PUSH2 0x361C JUMP JUMPDEST SWAP2 POP DUP2 DUP2 DUP4 MSTORE PUSH1 0x20 DUP5 ADD SWAP4 POP PUSH1 0x20 DUP2 ADD SWAP1 POP DUP4 DUP6 PUSH1 0x20 DUP5 MUL DUP3 ADD GT ISZERO PUSH2 0x2188 JUMPI PUSH1 0x0 DUP1 REVERT JUMPDEST PUSH1 0x0 JUMPDEST DUP4 DUP2 LT ISZERO PUSH2 0x2080 JUMPI DUP2 PUSH2 0x219E DUP9 DUP3 PUSH2 0x21CA JUMP JUMPDEST DUP5 MSTORE POP PUSH1 0x20 SWAP3 DUP4 ADD SWAP3 SWAP2 SWAP1 SWAP2 ADD SWAP1 PUSH1 0x1 ADD PUSH2 0x218B JUMP JUMPDEST DUP1 CALLDATALOAD PUSH2 0x177B DUP2 PUSH2 0x374F JUMP JUMPDEST DUP1 MLOAD PUSH2 0x177B DUP2 PUSH2 0x374F JUMP JUMPDEST DUP1 CALLDATALOAD PUSH2 0x177B DUP2 PUSH2 0x3758 JUMP JUMPDEST DUP1 MLOAD PUSH2 0x177B DUP2 PUSH2 0x3758 JUMP JUMPDEST PUSH1 0x0 DUP3 PUSH1 0x1F DUP4 ADD SLT PUSH2 0x21F1 JUMPI PUSH1 0x0 DUP1 REVERT JUMPDEST DUP2 CALLDATALOAD PUSH2 0x21FF PUSH2 0x202A DUP3 PUSH2 0x363D JUMP JUMPDEST SWAP2 POP DUP1 DUP3 MSTORE PUSH1 0x20 DUP4 ADD PUSH1 0x20 DUP4 ADD DUP6 DUP4 DUP4 ADD GT ISZERO PUSH2 0x221B JUMPI PUSH1 0x0 DUP1 REVERT JUMPDEST PUSH2 0x2226 DUP4 DUP3 DUP5 PUSH2 0x36EF JUMP JUMPDEST POP POP POP SWAP3 SWAP2 POP POP JUMP JUMPDEST PUSH1 0x0 DUP3 PUSH1 0x1F DUP4 ADD SLT PUSH2 0x2240 JUMPI PUSH1 0x0 DUP1 REVERT JUMPDEST DUP2 MLOAD PUSH2 0x224E PUSH2 0x202A DUP3 PUSH2 0x363D JUMP JUMPDEST SWAP2 POP DUP1 DUP3 MSTORE PUSH1 0x20 DUP4 ADD PUSH1 0x20 DUP4 ADD DUP6 DUP4 DUP4 ADD GT ISZERO PUSH2 0x226A JUMPI PUSH1 0x0 DUP1 REVERT JUMPDEST PUSH2 0x2226 DUP4 DUP3 DUP5 PUSH2 0x36FB JUMP JUMPDEST DUP1 CALLDATALOAD PUSH2 0x177B DUP2 PUSH2 0x3761 JUMP JUMPDEST DUP1 MLOAD PUSH2 0x177B DUP2 PUSH2 0x376A JUMP JUMPDEST PUSH1 0x0 PUSH1 0x20 DUP3 DUP5 SUB SLT ISZERO PUSH2 0x229D JUMPI PUSH1 0x0 DUP1 REVERT JUMPDEST PUSH1 0x0 PUSH2 0x22A9 DUP5 DUP5 PUSH2 0x2000 JUMP JUMPDEST SWAP5 SWAP4 POP POP POP POP JUMP JUMPDEST PUSH1 0x0 DUP1 PUSH1 0x40 DUP4 DUP6 SUB SLT ISZERO PUSH2 0x22C4 JUMPI PUSH1 0x0 DUP1 REVERT JUMPDEST PUSH1 0x0 PUSH2 0x22D0 DUP6 DUP6 PUSH2 0x2000 JUMP JUMPDEST SWAP3 POP POP PUSH1 0x20 PUSH2 0x22E1 DUP6 DUP3 DUP7 ADD PUSH2 0x21CA JUMP JUMPDEST SWAP2 POP POP SWAP3 POP SWAP3 SWAP1 POP JUMP JUMPDEST PUSH1 0x0 DUP1 PUSH1 0x0 DUP1 PUSH1 0x0 PUSH1 0xA0 DUP7 DUP9 SUB SLT ISZERO PUSH2 0x2303 JUMPI PUSH1 0x0 DUP1 REVERT JUMPDEST DUP6 CALLDATALOAD PUSH8 0xFFFFFFFFFFFFFFFF DUP2 GT ISZERO PUSH2 0x231A JUMPI PUSH1 0x0 DUP1 REVERT JUMPDEST PUSH2 0x2326 DUP9 DUP3 DUP10 ADD PUSH2 0x200B JUMP JUMPDEST SWAP6 POP POP PUSH1 0x20 DUP7 ADD CALLDATALOAD PUSH8 0xFFFFFFFFFFFFFFFF DUP2 GT ISZERO PUSH2 0x2343 JUMPI PUSH1 0x0 DUP1 REVERT JUMPDEST PUSH2 0x234F DUP9 DUP3 DUP10 ADD PUSH2 0x2144 JUMP JUMPDEST SWAP5 POP POP PUSH1 0x40 DUP7 ADD CALLDATALOAD PUSH8 0xFFFFFFFFFFFFFFFF DUP2 GT ISZERO PUSH2 0x236C JUMPI PUSH1 0x0 DUP1 REVERT JUMPDEST PUSH2 0x2378 DUP9 DUP3 DUP10 ADD PUSH2 0x20E7 JUMP JUMPDEST SWAP4 POP POP PUSH1 0x60 DUP7 ADD CALLDATALOAD PUSH8 0xFFFFFFFFFFFFFFFF DUP2 GT ISZERO PUSH2 0x2395 JUMPI PUSH1 0x0 DUP1 REVERT JUMPDEST PUSH2 0x23A1 DUP9 DUP3 DUP10 ADD PUSH2 0x208A JUMP JUMPDEST SWAP3 POP POP PUSH1 0x80 DUP7 ADD CALLDATALOAD PUSH8 0xFFFFFFFFFFFFFFFF DUP2 GT ISZERO PUSH2 0x23BE JUMPI PUSH1 0x0 DUP1 REVERT JUMPDEST PUSH2 0x23CA DUP9 DUP3 DUP10 ADD PUSH2 0x21E0 JUMP JUMPDEST SWAP2 POP POP SWAP3 SWAP6 POP SWAP3 SWAP6 SWAP1 SWAP4 POP JUMP JUMPDEST PUSH1 0x0 PUSH1 0x20 DUP3 DUP5 SUB SLT ISZERO PUSH2 0x23E9 JUMPI PUSH1 0x0 DUP1 REVERT JUMPDEST PUSH1 0x0 PUSH2 0x22A9 DUP5 DUP5 PUSH2 0x21BF JUMP JUMPDEST PUSH1 0x0 PUSH1 0x20 DUP3 DUP5 SUB SLT ISZERO PUSH2 0x2407 JUMPI PUSH1 0x0 DUP1 REVERT JUMPDEST PUSH1 0x0 PUSH2 0x22A9 DUP5 DUP5 PUSH2 0x21D5 JUMP JUMPDEST PUSH1 0x0 PUSH1 0x20 DUP3 DUP5 SUB SLT ISZERO PUSH2 0x2425 JUMPI PUSH1 0x0 DUP1 REVERT JUMPDEST DUP2 MLOAD PUSH8 0xFFFFFFFFFFFFFFFF DUP2 GT ISZERO PUSH2 0x243C JUMPI PUSH1 0x0 DUP1 REVERT JUMPDEST PUSH2 0x22A9 DUP5 DUP3 DUP6 ADD PUSH2 0x222F JUMP JUMPDEST PUSH1 0x0 PUSH1 0x20 DUP3 DUP5 SUB SLT ISZERO PUSH2 0x245A JUMPI PUSH1 0x0 DUP1 REVERT JUMPDEST PUSH1 0x0 PUSH2 0x22A9 DUP5 DUP5 PUSH2 0x21CA JUMP JUMPDEST PUSH1 0x0 DUP1 PUSH1 0x40 DUP4 DUP6 SUB SLT ISZERO PUSH2 0x2479 JUMPI PUSH1 0x0 DUP1 REVERT JUMPDEST PUSH1 0x0 PUSH2 0x2485 DUP6 DUP6 PUSH2 0x21CA JUMP JUMPDEST SWAP3 POP POP PUSH1 0x20 PUSH2 0x22E1 DUP6 DUP3 DUP7 ADD PUSH2 0x2000 JUMP JUMPDEST PUSH1 0x0 DUP1 PUSH1 0x40 DUP4 DUP6 SUB SLT ISZERO PUSH2 0x24A9 JUMPI PUSH1 0x0 DUP1 REVERT JUMPDEST PUSH1 0x0 PUSH2 0x24B5 DUP6 DUP6 PUSH2 0x21CA JUMP JUMPDEST SWAP3 POP POP PUSH1 0x20 PUSH2 0x22E1 DUP6 DUP3 DUP7 ADD PUSH2 0x21B4 JUMP JUMPDEST PUSH1 0x0 DUP1 PUSH1 0x0 DUP1 PUSH1 0x0 PUSH1 0xA0 DUP7 DUP9 SUB SLT ISZERO PUSH2 0x24DE JUMPI PUSH1 0x0 DUP1 REVERT JUMPDEST PUSH1 0x0 PUSH2 0x24EA DUP9 DUP9 PUSH2 0x21CA JUMP JUMPDEST SWAP6 POP POP PUSH1 0x20 PUSH2 0x24FB DUP9 DUP3 DUP10 ADD PUSH2 0x21B4 JUMP JUMPDEST SWAP5 POP POP PUSH1 0x40 PUSH2 0x250C DUP9 DUP3 DUP10 ADD PUSH2 0x2275 JUMP JUMPDEST SWAP4 POP POP PUSH1 0x60 PUSH2 0x251D DUP9 DUP3 DUP10 ADD PUSH2 0x21CA JUMP JUMPDEST SWAP3 POP POP PUSH1 0x80 PUSH2 0x23CA DUP9 DUP3 DUP10 ADD PUSH2 0x21CA JUMP JUMPDEST PUSH1 0x0 PUSH1 0x20 DUP3 DUP5 SUB SLT ISZERO PUSH2 0x2540 JUMPI PUSH1 0x0 DUP1 REVERT JUMPDEST PUSH1 0x0 PUSH2 0x22A9 DUP5 DUP5 PUSH2 0x2280 JUMP JUMPDEST PUSH1 0x0 PUSH2 0x2558 DUP4 DUP4 PUSH2 0x2587 JUMP JUMPDEST POP POP PUSH1 0x20 ADD SWAP1 JUMP JUMPDEST PUSH1 0x0 PUSH2 0x1B43 DUP4 DUP4 PUSH2 0x2729 JUMP JUMPDEST PUSH1 0x0 PUSH2 0x2558 DUP4 DUP4 PUSH2 0x270F JUMP JUMPDEST PUSH2 0x2581 DUP2 PUSH2 0x36BC JUMP JUMPDEST DUP3 MSTORE POP POP JUMP JUMPDEST PUSH2 0x2581 DUP2 PUSH2 0x3684 JUMP JUMPDEST PUSH1 0x0 PUSH2 0x259B DUP3 PUSH2 0x3677 JUMP JUMPDEST PUSH2 0x25A5 DUP2 DUP6 PUSH2 0x367B JUMP JUMPDEST SWAP4 POP PUSH2 0x25B0 DUP4 PUSH2 0x3665 JUMP JUMPDEST DUP1 PUSH1 0x0 JUMPDEST DUP4 DUP2 LT ISZERO PUSH2 0x25DE JUMPI DUP2 MLOAD PUSH2 0x25C8 DUP9 DUP3 PUSH2 0x254C JUMP JUMPDEST SWAP8 POP PUSH2 0x25D3 DUP4 PUSH2 0x3665 JUMP JUMPDEST SWAP3 POP POP PUSH1 0x1 ADD PUSH2 0x25B4 JUMP JUMPDEST POP SWAP5 SWAP6 SWAP5 POP POP POP POP POP JUMP JUMPDEST PUSH1 0x0 PUSH2 0x25F4 DUP3 PUSH2 0x3677 JUMP JUMPDEST PUSH2 0x25FE DUP2 DUP6 PUSH2 0x367B JUMP JUMPDEST SWAP4 POP DUP4 PUSH1 0x20 DUP3 MUL DUP6 ADD PUSH2 0x2610 DUP6 PUSH2 0x3665 JUMP JUMPDEST DUP1 PUSH1 0x0 JUMPDEST DUP6 DUP2 LT ISZERO PUSH2 0x264A JUMPI DUP5 DUP5 SUB DUP10 MSTORE DUP2 MLOAD PUSH2 0x262D DUP6 DUP3 PUSH2 0x2560 JUMP JUMPDEST SWAP5 POP PUSH2 0x2638 DUP4 PUSH2 0x3665 JUMP JUMPDEST PUSH1 0x20 SWAP11 SWAP1 SWAP11 ADD SWAP10 SWAP3 POP POP PUSH1 0x1 ADD PUSH2 0x2614 JUMP JUMPDEST POP SWAP2 SWAP8 SWAP7 POP POP POP POP POP POP POP JUMP JUMPDEST PUSH1 0x0 PUSH2 0x2662 DUP3 PUSH2 0x3677 JUMP JUMPDEST PUSH2 0x266C DUP2 DUP6 PUSH2 0x367B JUMP JUMPDEST SWAP4 POP DUP4 PUSH1 0x20 DUP3 MUL DUP6 ADD PUSH2 0x267E DUP6 PUSH2 0x3665 JUMP JUMPDEST DUP1 PUSH1 0x0 JUMPDEST DUP6 DUP2 LT ISZERO PUSH2 0x264A JUMPI DUP5 DUP5 SUB DUP10 MSTORE DUP2 MLOAD PUSH2 0x269B DUP6 DUP3 PUSH2 0x2560 JUMP JUMPDEST SWAP5 POP PUSH2 0x26A6 DUP4 PUSH2 0x3665 JUMP JUMPDEST PUSH1 0x20 SWAP11 SWAP1 SWAP11 ADD SWAP10 SWAP3 POP POP PUSH1 0x1 ADD PUSH2 0x2682 JUMP JUMPDEST PUSH1 0x0 PUSH2 0x26C3 DUP3 PUSH2 0x3677 JUMP JUMPDEST PUSH2 0x26CD DUP2 DUP6 PUSH2 0x367B JUMP JUMPDEST SWAP4 POP PUSH2 0x26D8 DUP4 PUSH2 0x3665 JUMP JUMPDEST DUP1 PUSH1 0x0 JUMPDEST DUP4 DUP2 LT ISZERO PUSH2 0x25DE JUMPI DUP2 MLOAD PUSH2 0x26F0 DUP9 DUP3 PUSH2 0x256C JUMP JUMPDEST SWAP8 POP PUSH2 0x26FB DUP4 PUSH2 0x3665 JUMP JUMPDEST SWAP3 POP POP PUSH1 0x1 ADD PUSH2 0x26DC JUMP JUMPDEST PUSH2 0x2581 DUP2 PUSH2 0x368F JUMP JUMPDEST PUSH2 0x2581 DUP2 PUSH2 0x536 JUMP JUMPDEST PUSH2 0x2581 PUSH2 0x2724 DUP3 PUSH2 0x536 JUMP JUMPDEST PUSH2 0x536 JUMP JUMPDEST PUSH1 0x0 PUSH2 0x2734 DUP3 PUSH2 0x3677 JUMP JUMPDEST PUSH2 0x273E DUP2 DUP6 PUSH2 0x367B JUMP JUMPDEST SWAP4 POP PUSH2 0x274E DUP2 DUP6 PUSH1 0x20 DUP7 ADD PUSH2 0x36FB JUMP JUMPDEST PUSH2 0x2757 DUP2 PUSH2 0x3727 JUMP JUMPDEST SWAP1 SWAP4 ADD SWAP4 SWAP3 POP POP POP JUMP JUMPDEST PUSH1 0x0 DUP2 SLOAD PUSH1 0x1 DUP2 AND PUSH1 0x0 DUP2 EQ PUSH2 0x277E JUMPI PUSH1 0x1 DUP2 EQ PUSH2 0x27A4 JUMPI PUSH2 0x27E3 JUMP JUMPDEST PUSH1 0x7F PUSH1 0x2 DUP4 DIV AND PUSH2 0x278F DUP2 DUP8 PUSH2 0x367B JUMP JUMPDEST PUSH1 0xFF NOT DUP5 AND DUP2 MSTORE SWAP6 POP POP PUSH1 0x20 DUP6 ADD SWAP3 POP PUSH2 0x27E3 JUMP JUMPDEST PUSH1 0x2 DUP3 DIV PUSH2 0x27B2 DUP2 DUP8 PUSH2 0x367B JUMP JUMPDEST SWAP6 POP PUSH2 0x27BD DUP6 PUSH2 0x366B JUMP JUMPDEST PUSH1 0x0 JUMPDEST DUP3 DUP2 LT ISZERO PUSH2 0x27DC JUMPI DUP2 SLOAD DUP9 DUP3 ADD MSTORE PUSH1 0x1 SWAP1 SWAP2 ADD SWAP1 PUSH1 0x20 ADD PUSH2 0x27C0 JUMP JUMPDEST DUP8 ADD SWAP5 POP POP POP JUMPDEST POP POP SWAP3 SWAP2 POP POP JUMP JUMPDEST PUSH2 0x2581 DUP2 PUSH2 0x36C3 JUMP JUMPDEST PUSH2 0x2581 DUP2 PUSH2 0x36CE JUMP JUMPDEST PUSH2 0x2581 DUP2 PUSH2 0x36D9 JUMP JUMPDEST PUSH1 0x0 PUSH2 0x2813 PUSH1 0x39 DUP4 PUSH2 0x367B JUMP JUMPDEST PUSH32 0x476F7665726E6F72416C7068613A3A5F5F61636365707441646D696E3A207365 DUP2 MSTORE PUSH32 0x6E646572206D75737420626520676F7620677561726469616E00000000000000 PUSH1 0x20 DUP3 ADD MSTORE PUSH1 0x40 ADD SWAP3 SWAP2 POP POP JUMP JUMPDEST PUSH1 0x0 PUSH2 0x2872 PUSH1 0x44 DUP4 PUSH2 0x367B JUMP JUMPDEST PUSH32 0x476F7665726E6F72416C7068613A3A71756575653A2070726F706F73616C2063 DUP2 MSTORE PUSH32 0x616E206F6E6C7920626520717565756564206966206974206973207375636365 PUSH1 0x20 DUP3 ADD MSTORE PUSH4 0x19591959 PUSH1 0xE2 SHL PUSH1 0x40 DUP3 ADD MSTORE PUSH1 0x60 ADD SWAP3 SWAP2 POP POP JUMP JUMPDEST PUSH1 0x0 PUSH2 0x28DE PUSH1 0x45 DUP4 PUSH2 0x367B JUMP JUMPDEST PUSH32 0x476F7665726E6F72416C7068613A3A657865637574653A2070726F706F73616C DUP2 MSTORE PUSH32 0x2063616E206F6E6C792062652065786563757465642069662069742069732071 PUSH1 0x20 DUP3 ADD MSTORE PUSH5 0x1D595D5959 PUSH1 0xDA SHL PUSH1 0x40 DUP3 ADD MSTORE PUSH1 0x60 ADD SWAP3 SWAP2 POP POP JUMP JUMPDEST PUSH1 0x0 PUSH2 0x294B PUSH1 0x2 DUP4 PUSH2 0xAA9 JUMP JUMPDEST PUSH2 0x1901 PUSH1 0xF0 SHL DUP2 MSTORE PUSH1 0x2 ADD SWAP3 SWAP2 POP POP JUMP JUMPDEST PUSH1 0x0 PUSH2 0x2969 PUSH1 0x4C DUP4 PUSH2 0x367B JUMP JUMPDEST PUSH32 0x476F7665726E6F72416C7068613A3A5F5F6578656375746553657454696D656C DUP2 MSTORE PUSH32 0x6F636B50656E64696E6741646D696E3A2073656E646572206D75737420626520 PUSH1 0x20 DUP3 ADD MSTORE PUSH12 0x33B7BB1033BAB0B93234B0B7 PUSH1 0xA1 SHL PUSH1 0x40 DUP3 ADD MSTORE PUSH1 0x60 ADD SWAP3 SWAP2 POP POP JUMP JUMPDEST PUSH1 0x0 PUSH2 0x29DD PUSH1 0x18 DUP4 PUSH2 0x367B JUMP JUMPDEST PUSH32 0x73657450656E64696E6741646D696E2861646472657373290000000000000000 DUP2 MSTORE PUSH1 0x20 ADD SWAP3 SWAP2 POP POP JUMP JUMPDEST PUSH1 0x0 PUSH2 0x2A16 PUSH1 0x29 DUP4 PUSH2 0x367B JUMP JUMPDEST PUSH32 0x476F7665726E6F72416C7068613A3A73746174653A20696E76616C6964207072 DUP2 MSTORE PUSH9 0x1BDC1BDCD85B081A59 PUSH1 0xBA SHL PUSH1 0x20 DUP3 ADD MSTORE PUSH1 0x40 ADD SWAP3 SWAP2 POP POP JUMP JUMPDEST PUSH1 0x0 PUSH2 0x2A61 PUSH1 0x2D DUP4 PUSH2 0x367B JUMP JUMPDEST PUSH32 0x476F7665726E6F72416C7068613A3A5F63617374566F74653A20766F74657220 DUP2 MSTORE PUSH13 0x185B1C9958591E481D9BDD1959 PUSH1 0x9A SHL PUSH1 0x20 DUP3 ADD MSTORE PUSH1 0x40 ADD SWAP3 SWAP2 POP POP JUMP JUMPDEST PUSH1 0x0 PUSH2 0x2AB0 PUSH1 0x4A DUP4 PUSH2 0x367B JUMP JUMPDEST PUSH32 0x476F7665726E6F72416C7068613A3A5F5F717565756553657454696D656C6F63 DUP2 MSTORE PUSH32 0x6B50656E64696E6741646D696E3A2073656E646572206D75737420626520676F PUSH1 0x20 DUP3 ADD MSTORE PUSH10 0x3B1033BAB0B93234B0B7 PUSH1 0xB1 SHL PUSH1 0x40 DUP3 ADD MSTORE PUSH1 0x60 ADD SWAP3 SWAP2 POP POP JUMP JUMPDEST PUSH1 0x0 PUSH2 0x2B22 PUSH1 0x28 DUP4 PUSH2 0x367B JUMP JUMPDEST PUSH32 0x476F7665726E6F72416C7068613A3A70726F706F73653A20746F6F206D616E79 DUP2 MSTORE PUSH8 0x20616374696F6E73 PUSH1 0xC0 SHL PUSH1 0x20 DUP3 ADD MSTORE PUSH1 0x40 ADD SWAP3 SWAP2 POP POP JUMP JUMPDEST PUSH1 0x0 PUSH2 0x2B6C PUSH1 0x11 DUP4 PUSH2 0x367B JUMP JUMPDEST PUSH17 0x6164646974696F6E206F766572666C6F77 PUSH1 0x78 SHL DUP2 MSTORE PUSH1 0x20 ADD SWAP3 SWAP2 POP POP JUMP JUMPDEST PUSH1 0x0 PUSH2 0x2B99 PUSH1 0x43 DUP4 PUSH2 0xAA9 JUMP JUMPDEST PUSH32 0x454950373132446F6D61696E28737472696E67206E616D652C75696E74323536 DUP2 MSTORE PUSH32 0x20636861696E49642C6164647265737320766572696679696E67436F6E747261 PUSH1 0x20 DUP3 ADD MSTORE PUSH3 0x637429 PUSH1 0xE8 SHL PUSH1 0x40 DUP3 ADD MSTORE PUSH1 0x43 ADD SWAP3 SWAP2 POP POP JUMP JUMPDEST PUSH1 0x0 PUSH2 0x2C04 PUSH1 0x27 DUP4 PUSH2 0xAA9 JUMP JUMPDEST PUSH32 0x42616C6C6F742875696E743235362070726F706F73616C49642C626F6F6C2073 DUP2 MSTORE PUSH7 0x7570706F727429 PUSH1 0xC8 SHL PUSH1 0x20 DUP3 ADD MSTORE PUSH1 0x27 ADD SWAP3 SWAP2 POP POP JUMP JUMPDEST PUSH1 0x0 PUSH2 0x2C4D PUSH1 0x44 DUP4 PUSH2 0x367B JUMP JUMPDEST PUSH32 0x476F7665726E6F72416C7068613A3A70726F706F73653A2070726F706F73616C DUP2 MSTORE PUSH32 0x2066756E6374696F6E20696E666F726D6174696F6E206172697479206D69736D PUSH1 0x20 DUP3 ADD MSTORE PUSH4 0xC2E8C6D PUSH1 0xE3 SHL PUSH1 0x40 DUP3 ADD MSTORE PUSH1 0x60 ADD SWAP3 SWAP2 POP POP JUMP JUMPDEST PUSH1 0x0 PUSH2 0x2CB9 PUSH1 0x2F DUP4 PUSH2 0x367B JUMP JUMPDEST PUSH32 0x476F7665726E6F72416C7068613A3A63616E63656C3A2070726F706F73657220 DUP2 MSTORE PUSH15 0x18589BDD99481D1A1C995CDA1BDB19 PUSH1 0x8A SHL PUSH1 0x20 DUP3 ADD MSTORE PUSH1 0x40 ADD SWAP3 SWAP2 POP POP JUMP JUMPDEST PUSH1 0x0 PUSH2 0x2D0A PUSH1 0x38 DUP4 PUSH2 0x367B JUMP JUMPDEST PUSH32 0x476F7665726E6F72416C7068613A3A70726F706F73653A20666F756E6420616E DUP2 MSTORE PUSH32 0x20616C7265616479206163746976652070726F706F73616C0000000000000000 PUSH1 0x20 DUP3 ADD MSTORE PUSH1 0x40 ADD SWAP3 SWAP2 POP POP JUMP JUMPDEST PUSH1 0x0 PUSH2 0x2D69 PUSH1 0x44 DUP4 PUSH2 0x367B JUMP JUMPDEST PUSH32 0x476F7665726E6F72416C7068613A3A5F71756575654F725265766572743A2070 DUP2 MSTORE PUSH32 0x726F706F73616C20616374696F6E20616C726561647920717565756564206174 PUSH1 0x20 DUP3 ADD MSTORE PUSH4 0x20657461 PUSH1 0xE0 SHL PUSH1 0x40 DUP3 ADD MSTORE PUSH1 0x60 ADD SWAP3 SWAP2 POP POP JUMP JUMPDEST PUSH1 0x0 PUSH2 0x2DD5 PUSH1 0x39 DUP4 PUSH2 0x367B JUMP JUMPDEST PUSH32 0x476F7665726E6F72416C7068613A3A70726F706F73653A20666F756E6420616E DUP2 MSTORE PUSH32 0x20616C72656164792070656E64696E672070726F706F73616C00000000000000 PUSH1 0x20 DUP3 ADD MSTORE PUSH1 0x40 ADD SWAP3 SWAP2 POP POP JUMP JUMPDEST PUSH1 0x0 PUSH2 0x2E34 PUSH1 0x2C DUP4 PUSH2 0x367B JUMP JUMPDEST PUSH32 0x476F7665726E6F72416C7068613A3A70726F706F73653A206D7573742070726F DUP2 MSTORE PUSH12 0x7669646520616374696F6E73 PUSH1 0xA0 SHL PUSH1 0x20 DUP3 ADD MSTORE PUSH1 0x40 ADD SWAP3 SWAP2 POP POP JUMP JUMPDEST PUSH1 0x0 PUSH2 0x2E82 PUSH1 0x3F DUP4 PUSH2 0x367B JUMP JUMPDEST PUSH32 0x476F7665726E6F72416C7068613A3A70726F706F73653A2070726F706F736572 DUP2 MSTORE PUSH32 0x20766F7465732062656C6F772070726F706F73616C207468726573686F6C6400 PUSH1 0x20 DUP3 ADD MSTORE PUSH1 0x40 ADD SWAP3 SWAP2 POP POP JUMP JUMPDEST PUSH1 0x0 PUSH2 0x2EE1 PUSH1 0x2F DUP4 PUSH2 0x367B JUMP JUMPDEST PUSH32 0x476F7665726E6F72416C7068613A3A63617374566F746542795369673A20696E DUP2 MSTORE PUSH15 0x76616C6964207369676E6174757265 PUSH1 0x88 SHL PUSH1 0x20 DUP3 ADD MSTORE PUSH1 0x40 ADD SWAP3 SWAP2 POP POP JUMP JUMPDEST PUSH1 0x0 PUSH2 0x2F32 PUSH1 0x36 DUP4 PUSH2 0x367B JUMP JUMPDEST PUSH32 0x476F7665726E6F72416C7068613A3A63616E63656C3A2063616E6E6F74206361 DUP2 MSTORE PUSH22 0x1B98D95B08195E1958DD5D1959081C1C9BDC1BDCD85B PUSH1 0x52 SHL PUSH1 0x20 DUP3 ADD MSTORE PUSH1 0x40 ADD SWAP3 SWAP2 POP POP JUMP JUMPDEST PUSH1 0x0 PUSH2 0x2F8A PUSH1 0x2A DUP4 PUSH2 0x367B JUMP JUMPDEST PUSH32 0x476F7665726E6F72416C7068613A3A5F63617374566F74653A20766F74696E67 DUP2 MSTORE PUSH10 0x81A5CC818DB1BDCD959 PUSH1 0xB2 SHL PUSH1 0x20 DUP3 ADD MSTORE PUSH1 0x40 ADD SWAP3 SWAP2 POP POP JUMP JUMPDEST PUSH1 0x0 PUSH2 0x2FD6 PUSH1 0x15 DUP4 PUSH2 0x367B JUMP JUMPDEST PUSH21 0x7375627472616374696F6E20756E646572666C6F77 PUSH1 0x58 SHL DUP2 MSTORE PUSH1 0x20 ADD SWAP3 SWAP2 POP POP JUMP JUMPDEST PUSH1 0x0 PUSH2 0x3007 PUSH1 0x36 DUP4 PUSH2 0x367B JUMP JUMPDEST PUSH32 0x476F7665726E6F72416C7068613A3A5F5F61626469636174653A2073656E6465 DUP2 MSTORE PUSH22 0x391036BAB9BA1031329033B7BB1033BAB0B93234B0B7 PUSH1 0x51 SHL PUSH1 0x20 DUP3 ADD MSTORE PUSH1 0x40 ADD SWAP3 SWAP2 POP POP JUMP JUMPDEST DUP1 MLOAD PUSH1 0x60 DUP4 ADD SWAP1 PUSH2 0x3063 DUP5 DUP3 PUSH2 0x2706 JUMP JUMPDEST POP PUSH1 0x20 DUP3 ADD MLOAD PUSH2 0x3076 PUSH1 0x20 DUP6 ADD DUP3 PUSH2 0x2706 JUMP JUMPDEST POP PUSH1 0x40 DUP3 ADD MLOAD PUSH2 0x105F PUSH1 0x40 DUP6 ADD DUP3 PUSH2 0x309B JUMP JUMPDEST PUSH2 0x2581 DUP2 PUSH2 0x36AA JUMP JUMPDEST PUSH2 0x2581 DUP2 PUSH2 0x36E4 JUMP JUMPDEST PUSH2 0x2581 DUP2 PUSH2 0x36B0 JUMP JUMPDEST PUSH1 0x0 PUSH2 0x30AF DUP3 PUSH2 0x293E JUMP JUMPDEST SWAP2 POP PUSH2 0x30BB DUP3 DUP6 PUSH2 0x2718 JUMP JUMPDEST PUSH1 0x20 DUP3 ADD SWAP2 POP PUSH2 0x30CB DUP3 DUP5 PUSH2 0x2718 JUMP JUMPDEST POP PUSH1 0x20 ADD SWAP3 SWAP2 POP POP JUMP JUMPDEST PUSH1 0x0 PUSH2 0x177B DUP3 PUSH2 0x2B8C JUMP JUMPDEST PUSH1 0x0 PUSH2 0x177B DUP3 PUSH2 0x2BF7 JUMP JUMPDEST PUSH1 0x20 DUP2 ADD PUSH2 0x177B DUP3 DUP5 PUSH2 0x2587 JUMP JUMPDEST PUSH1 0x40 DUP2 ADD PUSH2 0x3107 DUP3 DUP6 PUSH2 0x2578 JUMP JUMPDEST PUSH2 0x1B43 PUSH1 0x20 DUP4 ADD DUP5 PUSH2 0x270F JUMP JUMPDEST PUSH1 0xA0 DUP2 ADD PUSH2 0x3122 DUP3 DUP8 PUSH2 0x2587 JUMP JUMPDEST PUSH2 0x312F PUSH1 0x20 DUP4 ADD DUP7 PUSH2 0x27FD JUMP JUMPDEST DUP2 DUP2 SUB PUSH1 0x40 DUP4 ADD MSTORE PUSH2 0x3140 DUP2 PUSH2 0x29D0 JUMP JUMPDEST SWAP1 POP DUP2 DUP2 SUB PUSH1 0x60 DUP4 ADD MSTORE PUSH2 0x3154 DUP2 DUP6 PUSH2 0x2729 JUMP JUMPDEST SWAP1 POP PUSH2 0x1493 PUSH1 0x80 DUP4 ADD DUP5 PUSH2 0x270F JUMP JUMPDEST PUSH1 0x40 DUP2 ADD PUSH2 0x3107 DUP3 DUP6 PUSH2 0x2587 JUMP JUMPDEST PUSH1 0x80 DUP2 ADD PUSH2 0x317F DUP3 DUP8 PUSH2 0x2587 JUMP JUMPDEST PUSH2 0x318C PUSH1 0x20 DUP4 ADD DUP7 PUSH2 0x270F JUMP JUMPDEST PUSH2 0x3199 PUSH1 0x40 DUP4 ADD DUP6 PUSH2 0x2706 JUMP JUMPDEST PUSH2 0x1493 PUSH1 0x60 DUP4 ADD DUP5 PUSH2 0x3092 JUMP JUMPDEST PUSH1 0xA0 DUP2 ADD PUSH2 0x31B4 DUP3 DUP9 PUSH2 0x2587 JUMP JUMPDEST PUSH2 0x31C1 PUSH1 0x20 DUP4 ADD DUP8 PUSH2 0x270F JUMP JUMPDEST DUP2 DUP2 SUB PUSH1 0x40 DUP4 ADD MSTORE PUSH2 0x31D3 DUP2 DUP7 PUSH2 0x2729 JUMP JUMPDEST SWAP1 POP DUP2 DUP2 SUB PUSH1 0x60 DUP4 ADD MSTORE PUSH2 0x31E7 DUP2 DUP6 PUSH2 0x2729 JUMP JUMPDEST SWAP1 POP PUSH2 0x31F6 PUSH1 0x80 DUP4 ADD DUP5 PUSH2 0x270F JUMP JUMPDEST SWAP7 SWAP6 POP POP POP POP POP POP JUMP JUMPDEST PUSH1 0xA0 DUP2 ADD PUSH2 0x320E DUP3 DUP9 PUSH2 0x2587 JUMP JUMPDEST PUSH2 0x321B PUSH1 0x20 DUP4 ADD DUP8 PUSH2 0x270F JUMP JUMPDEST DUP2 DUP2 SUB PUSH1 0x40 DUP4 ADD MSTORE PUSH2 0x322D DUP2 DUP7 PUSH2 0x2761 JUMP JUMPDEST SWAP1 POP DUP2 DUP2 SUB PUSH1 0x60 DUP4 ADD MSTORE PUSH2 0x31E7 DUP2 DUP6 PUSH2 0x2761 JUMP JUMPDEST PUSH1 0x80 DUP1 DUP3 MSTORE DUP2 ADD PUSH2 0x3252 DUP2 DUP8 PUSH2 0x2590 JUMP JUMPDEST SWAP1 POP DUP2 DUP2 SUB PUSH1 0x20 DUP4 ADD MSTORE PUSH2 0x3266 DUP2 DUP7 PUSH2 0x26B8 JUMP JUMPDEST SWAP1 POP DUP2 DUP2 SUB PUSH1 0x40 DUP4 ADD MSTORE PUSH2 0x327A DUP2 DUP6 PUSH2 0x2657 JUMP JUMPDEST SWAP1 POP DUP2 DUP2 SUB PUSH1 0x60 DUP4 ADD MSTORE PUSH2 0x31F6 DUP2 DUP5 PUSH2 0x25E9 JUMP JUMPDEST PUSH1 0x20 DUP2 ADD PUSH2 0x177B DUP3 DUP5 PUSH2 0x270F JUMP JUMPDEST PUSH1 0x80 DUP2 ADD PUSH2 0x32AA DUP3 DUP8 PUSH2 0x270F JUMP JUMPDEST PUSH2 0x32B7 PUSH1 0x20 DUP4 ADD DUP7 PUSH2 0x270F JUMP JUMPDEST PUSH2 0x32C4 PUSH1 0x40 DUP4 ADD DUP6 PUSH2 0x270F JUMP JUMPDEST PUSH2 0x1493 PUSH1 0x60 DUP4 ADD DUP5 PUSH2 0x2587 JUMP JUMPDEST PUSH1 0x60 DUP2 ADD PUSH2 0x32DF DUP3 DUP7 PUSH2 0x270F JUMP JUMPDEST PUSH2 0x32EC PUSH1 0x20 DUP4 ADD DUP6 PUSH2 0x270F JUMP JUMPDEST PUSH2 0x22A9 PUSH1 0x40 DUP4 ADD DUP5 PUSH2 0x2706 JUMP JUMPDEST PUSH1 0x80 DUP2 ADD PUSH2 0x3307 DUP3 DUP8 PUSH2 0x270F JUMP JUMPDEST PUSH2 0x3314 PUSH1 0x20 DUP4 ADD DUP7 PUSH2 0x3089 JUMP JUMPDEST PUSH2 0x3321 PUSH1 0x40 DUP4 ADD DUP6 PUSH2 0x270F JUMP JUMPDEST PUSH2 0x1493 PUSH1 0x60 DUP4 ADD DUP5 PUSH2 0x270F JUMP JUMPDEST PUSH1 0x20 DUP2 ADD PUSH2 0x177B DUP3 DUP5 PUSH2 0x27EB JUMP JUMPDEST PUSH1 0x20 DUP2 ADD PUSH2 0x177B DUP3 DUP5 PUSH2 0x27F4 JUMP JUMPDEST PUSH1 0x20 DUP1 DUP3 MSTORE DUP2 ADD PUSH2 0x1B43 DUP2 DUP5 PUSH2 0x2729 JUMP JUMPDEST PUSH1 0x20 DUP1 DUP3 MSTORE DUP2 ADD PUSH2 0x177B DUP2 PUSH2 0x2806 JUMP JUMPDEST PUSH1 0x20 DUP1 DUP3 MSTORE DUP2 ADD PUSH2 0x177B DUP2 PUSH2 0x2865 JUMP JUMPDEST PUSH1 0x20 DUP1 DUP3 MSTORE DUP2 ADD PUSH2 0x177B DUP2 PUSH2 0x28D1 JUMP JUMPDEST PUSH1 0x20 DUP1 DUP3 MSTORE DUP2 ADD PUSH2 0x177B DUP2 PUSH2 0x295C JUMP JUMPDEST PUSH1 0x20 DUP1 DUP3 MSTORE DUP2 ADD PUSH2 0x177B DUP2 PUSH2 0x2A09 JUMP JUMPDEST PUSH1 0x20 DUP1 DUP3 MSTORE DUP2 ADD PUSH2 0x177B DUP2 PUSH2 0x2A54 JUMP JUMPDEST PUSH1 0x20 DUP1 DUP3 MSTORE DUP2 ADD PUSH2 0x177B DUP2 PUSH2 0x2AA3 JUMP JUMPDEST PUSH1 0x20 DUP1 DUP3 MSTORE DUP2 ADD PUSH2 0x177B DUP2 PUSH2 0x2B15 JUMP JUMPDEST PUSH1 0x20 DUP1 DUP3 MSTORE DUP2 ADD PUSH2 0x177B DUP2 PUSH2 0x2B5F JUMP JUMPDEST PUSH1 0x20 DUP1 DUP3 MSTORE DUP2 ADD PUSH2 0x177B DUP2 PUSH2 0x2C40 JUMP JUMPDEST PUSH1 0x20 DUP1 DUP3 MSTORE DUP2 ADD PUSH2 0x177B DUP2 PUSH2 0x2CAC JUMP JUMPDEST PUSH1 0x20 DUP1 DUP3 MSTORE DUP2 ADD PUSH2 0x177B DUP2 PUSH2 0x2CFD JUMP JUMPDEST PUSH1 0x20 DUP1 DUP3 MSTORE DUP2 ADD PUSH2 0x177B DUP2 PUSH2 0x2D5C JUMP JUMPDEST PUSH1 0x20 DUP1 DUP3 MSTORE DUP2 ADD PUSH2 0x177B DUP2 PUSH2 0x2DC8 JUMP JUMPDEST PUSH1 0x20 DUP1 DUP3 MSTORE DUP2 ADD PUSH2 0x177B DUP2 PUSH2 0x2E27 JUMP JUMPDEST PUSH1 0x20 DUP1 DUP3 MSTORE DUP2 ADD PUSH2 0x177B DUP2 PUSH2 0x2E75 JUMP JUMPDEST PUSH1 0x20 DUP1 DUP3 MSTORE DUP2 ADD PUSH2 0x177B DUP2 PUSH2 0x2ED4 JUMP JUMPDEST PUSH1 0x20 DUP1 DUP3 MSTORE DUP2 ADD PUSH2 0x177B DUP2 PUSH2 0x2F25 JUMP JUMPDEST PUSH1 0x20 DUP1 DUP3 MSTORE DUP2 ADD PUSH2 0x177B DUP2 PUSH2 0x2F7D JUMP JUMPDEST PUSH1 0x20 DUP1 DUP3 MSTORE DUP2 ADD PUSH2 0x177B DUP2 PUSH2 0x2FC9 JUMP JUMPDEST PUSH1 0x20 DUP1 DUP3 MSTORE DUP2 ADD PUSH2 0x177B DUP2 PUSH2 0x2FFA JUMP JUMPDEST PUSH1 0x60 DUP2 ADD PUSH2 0x177B DUP3 DUP5 PUSH2 0x3052 JUMP JUMPDEST PUSH2 0x120 DUP2 ADD PUSH2 0x34C8 DUP3 DUP13 PUSH2 0x270F JUMP JUMPDEST PUSH2 0x34D5 PUSH1 0x20 DUP4 ADD DUP12 PUSH2 0x2578 JUMP JUMPDEST DUP2 DUP2 SUB PUSH1 0x40 DUP4 ADD MSTORE PUSH2 0x34E7 DUP2 DUP11 PUSH2 0x2590 JUMP JUMPDEST SWAP1 POP DUP2 DUP2 SUB PUSH1 0x60 DUP4 ADD MSTORE PUSH2 0x34FB DUP2 DUP10 PUSH2 0x26B8 JUMP JUMPDEST SWAP1 POP DUP2 DUP2 SUB PUSH1 0x80 DUP4 ADD MSTORE PUSH2 0x350F DUP2 DUP9 PUSH2 0x2657 JUMP JUMPDEST SWAP1 POP DUP2 DUP2 SUB PUSH1 0xA0 DUP4 ADD MSTORE PUSH2 0x3523 DUP2 DUP8 PUSH2 0x25E9 JUMP JUMPDEST SWAP1 POP PUSH2 0x3532 PUSH1 0xC0 DUP4 ADD DUP7 PUSH2 0x270F JUMP JUMPDEST PUSH2 0x353F PUSH1 0xE0 DUP4 ADD DUP6 PUSH2 0x270F JUMP JUMPDEST DUP2 DUP2 SUB PUSH2 0x100 DUP4 ADD MSTORE PUSH2 0x3552 DUP2 DUP5 PUSH2 0x2729 JUMP JUMPDEST SWAP12 SWAP11 POP POP POP POP POP POP POP POP POP POP POP JUMP JUMPDEST PUSH2 0x120 DUP2 ADD PUSH2 0x3570 DUP3 DUP13 PUSH2 0x270F JUMP JUMPDEST PUSH2 0x357D PUSH1 0x20 DUP4 ADD DUP12 PUSH2 0x2587 JUMP JUMPDEST PUSH2 0x358A PUSH1 0x40 DUP4 ADD DUP11 PUSH2 0x270F JUMP JUMPDEST PUSH2 0x3597 PUSH1 0x60 DUP4 ADD DUP10 PUSH2 0x270F JUMP JUMPDEST PUSH2 0x35A4 PUSH1 0x80 DUP4 ADD DUP9 PUSH2 0x270F JUMP JUMPDEST PUSH2 0x35B1 PUSH1 0xA0 DUP4 ADD DUP8 PUSH2 0x270F JUMP JUMPDEST PUSH2 0x35BE PUSH1 0xC0 DUP4 ADD DUP7 PUSH2 0x270F JUMP JUMPDEST PUSH2 0x35CB PUSH1 0xE0 DUP4 ADD DUP6 PUSH2 0x2706 JUMP JUMPDEST PUSH2 0x35D9 PUSH2 0x100 DUP4 ADD DUP5 PUSH2 0x2706 JUMP JUMPDEST SWAP11 SWAP10 POP POP POP POP POP POP POP POP POP POP JUMP JUMPDEST PUSH1 0x40 DUP2 ADD PUSH2 0x3107 DUP3 DUP6 PUSH2 0x270F JUMP JUMPDEST PUSH1 0x40 MLOAD DUP2 DUP2 ADD PUSH8 0xFFFFFFFFFFFFFFFF DUP2 GT DUP3 DUP3 LT OR ISZERO PUSH2 0x3614 JUMPI PUSH1 0x0 DUP1 REVERT JUMPDEST PUSH1 0x40 MSTORE SWAP2 SWAP1 POP JUMP JUMPDEST PUSH1 0x0 PUSH8 0xFFFFFFFFFFFFFFFF DUP3 GT ISZERO PUSH2 0x3633 JUMPI PUSH1 0x0 DUP1 REVERT JUMPDEST POP PUSH1 0x20 SWAP1 DUP2 MUL ADD SWAP1 JUMP JUMPDEST PUSH1 0x0 PUSH8 0xFFFFFFFFFFFFFFFF DUP3 GT ISZERO PUSH2 0x3654 JUMPI PUSH1 0x0 DUP1 REVERT JUMPDEST POP PUSH1 0x20 PUSH1 0x1F SWAP2 SWAP1 SWAP2 ADD PUSH1 0x1F NOT AND ADD SWAP1 JUMP JUMPDEST PUSH1 0x20 ADD SWAP1 JUMP JUMPDEST PUSH1 0x0 SWAP1 DUP2 MSTORE PUSH1 0x20 SWAP1 KECCAK256 SWAP1 JUMP JUMPDEST MLOAD SWAP1 JUMP JUMPDEST SWAP1 DUP2 MSTORE PUSH1 0x20 ADD SWAP1 JUMP JUMPDEST PUSH1 0x0 PUSH2 0x177B DUP3 PUSH2 0x369E JUMP JUMPDEST ISZERO ISZERO SWAP1 JUMP JUMPDEST DUP1 PUSH2 0xAA9 DUP2 PUSH2 0x3731 JUMP JUMPDEST PUSH1 0x1 PUSH1 0x1 PUSH1 0xA0 SHL SUB AND SWAP1 JUMP JUMPDEST PUSH1 0xFF AND SWAP1 JUMP JUMPDEST PUSH1 0x1 PUSH1 0x1 PUSH1 0x60 SHL SUB AND SWAP1 JUMP JUMPDEST PUSH1 0x0 PUSH2 0x177B DUP3 JUMPDEST PUSH1 0x0 PUSH2 0x177B DUP3 PUSH2 0x3684 JUMP JUMPDEST PUSH1 0x0 PUSH2 0x177B DUP3 PUSH2 0x3694 JUMP JUMPDEST PUSH1 0x0 PUSH2 0x177B DUP3 PUSH2 0x536 JUMP JUMPDEST PUSH1 0x0 PUSH2 0x177B DUP3 PUSH2 0x36B0 JUMP JUMPDEST DUP3 DUP2 DUP4 CALLDATACOPY POP PUSH1 0x0 SWAP2 ADD MSTORE JUMP JUMPDEST PUSH1 0x0 JUMPDEST DUP4 DUP2 LT ISZERO PUSH2 0x3716 JUMPI DUP2 DUP2 ADD MLOAD DUP4 DUP3 ADD MSTORE PUSH1 0x20 ADD PUSH2 0x36FE JUMP JUMPDEST DUP4 DUP2 GT ISZERO PUSH2 0x105F JUMPI POP POP PUSH1 0x0 SWAP2 ADD MSTORE JUMP JUMPDEST PUSH1 0x1F ADD PUSH1 0x1F NOT AND SWAP1 JUMP JUMPDEST PUSH1 0x8 DUP2 LT PUSH2 0x1FFD JUMPI INVALID JUMPDEST PUSH2 0x3744 DUP2 PUSH2 0x3684 JUMP JUMPDEST DUP2 EQ PUSH2 0x1FFD JUMPI PUSH1 0x0 DUP1 REVERT JUMPDEST PUSH2 0x3744 DUP2 PUSH2 0x368F JUMP JUMPDEST PUSH2 0x3744 DUP2 PUSH2 0x536 JUMP JUMPDEST PUSH2 0x3744 DUP2 PUSH2 0x36AA JUMP JUMPDEST PUSH2 0x3744 DUP2 PUSH2 0x36B0 JUMP INVALID LOG3 PUSH6 0x627A7A723158 KECCAK256 DUP4 0xCB DUP14 NUMBER 0xEC LOG0 0xA7 ADDMOD 0x5C PUSH12 0x4350B732ADF020C26FF98D73 JUMPI PUSH5 0x5A7E8FB36C 0xC0 STATICCALL SDIV PUSH13 0x6578706572696D656E74616CF5 PUSH5 0x736F6C6343 STOP SDIV LT STOP BLOCKHASH "},"gasEstimates":{"creation":{"codeDepositCost":"2852400","executionCost":"infinite","totalCost":"infinite"},"external":{"BALLOT_TYPEHASH()":"infinite","DOMAIN_TYPEHASH()":"infinite","__abdicate()":"21882","__acceptAdmin()":"infinite","__executeSetTimelockPendingAdmin(address,uint256)":"infinite","__queueSetTimelockPendingAdmin(address,uint256)":"infinite","cancel(uint256)":"infinite","castVote(uint256,bool)":"infinite","castVoteBySig(uint256,bool,uint8,bytes32,bytes32)":"infinite","execute(uint256)":"infinite","getActions(uint256)":"infinite","getReceipt(uint256,address)":"infinite","guardian()":"infinite","latestProposalIds(address)":"infinite","name()":"infinite","nwl()":"infinite","proposalCount()":"1144","proposalMaxOperations()":"389","proposalThreshold()":"366","proposals(uint256)":"infinite","propose(address[],uint256[],string[],bytes[],string)":"infinite","queue(uint256)":"infinite","quorumVotes()":"367","state(uint256)":"infinite","timelock()":"infinite","votingDelay()":"344","votingPeriod()":"infinite"},"internal":{"_castVote(address,uint256,bool)":"infinite","_queueOrRevert(address,uint256,string memory,bytes memory,uint256)":"infinite","add256(uint256,uint256)":"infinite","getChainId()":"14","sub256(uint256,uint256)":"infinite"}},"methodIdentifiers":{"BALLOT_TYPEHASH()":"deaaa7cc","DOMAIN_TYPEHASH()":"20606b70","__abdicate()":"760fbc13","__acceptAdmin()":"b9a61961","__executeSetTimelockPendingAdmin(address,uint256)":"21f43e42","__queueSetTimelockPendingAdmin(address,uint256)":"91500671","cancel(uint256)":"40e58ee5","castVote(uint256,bool)":"15373e3d","castVoteBySig(uint256,bool,uint8,bytes32,bytes32)":"4634c61f","execute(uint256)":"fe0d94c1","getActions(uint256)":"328dd982","getReceipt(uint256,address)":"e23a9a52","guardian()":"452a9320","latestProposalIds(address)":"17977c61","name()":"06fdde03","nwl()":"f30f7c05","proposalCount()":"da35c664","proposalMaxOperations()":"7bdbe4d0","proposalThreshold()":"b58131b0","proposals(uint256)":"013cf08b","propose(address[],uint256[],string[],bytes[],string)":"da95691a","queue(uint256)":"ddf0b009","quorumVotes()":"24bc1a64","state(uint256)":"3e4f49e6","timelock()":"d33219b4","votingDelay()":"3932abb1","votingPeriod()":"02a251a3"}},"storageLayout":{"storage":[{"astId":55,"contract":"contracts/Governance/GovernorAlpha2.sol:GovernorAlpha2","label":"timelock","offset":0,"slot":"0","type":"t_contract(TimelockInterface)1247"},{"astId":57,"contract":"contracts/Governance/GovernorAlpha2.sol:GovernorAlpha2","label":"nwl","offset":0,"slot":"1","type":"t_contract(NWLInterface)1257"},{"astId":59,"contract":"contracts/Governance/GovernorAlpha2.sol:GovernorAlpha2","label":"guardian","offset":0,"slot":"2","type":"t_address"},{"astId":61,"contract":"contracts/Governance/GovernorAlpha2.sol:GovernorAlpha2","label":"proposalCount","offset":0,"slot":"3","type":"t_uint256"},{"astId":116,"contract":"contracts/Governance/GovernorAlpha2.sol:GovernorAlpha2","label":"proposals","offset":0,"slot":"4","type":"t_mapping(t_uint256,t_struct(Proposal)96_storage)"},{"astId":120,"contract":"contracts/Governance/GovernorAlpha2.sol:GovernorAlpha2","label":"latestProposalIds","offset":0,"slot":"5","type":"t_mapping(t_address,t_uint256)"}],"types":{"t_address":{"encoding":"inplace","label":"address","numberOfBytes":"20"},"t_array(t_address)dyn_storage":{"base":"t_address","encoding":"dynamic_array","label":"address[]","numberOfBytes":"32"},"t_array(t_bytes_storage)dyn_storage":{"base":"t_bytes_storage","encoding":"dynamic_array","label":"bytes[]","numberOfBytes":"32"},"t_array(t_string_storage)dyn_storage":{"base":"t_string_storage","encoding":"dynamic_array","label":"string[]","numberOfBytes":"32"},"t_array(t_uint256)dyn_storage":{"base":"t_uint256","encoding":"dynamic_array","label":"uint256[]","numberOfBytes":"32"},"t_bool":{"encoding":"inplace","label":"bool","numberOfBytes":"1"},"t_bytes_storage":{"encoding":"bytes","label":"bytes","numberOfBytes":"32"},"t_contract(NWLInterface)1257":{"encoding":"inplace","label":"contract NWLInterface","numberOfBytes":"20"},"t_contract(TimelockInterface)1247":{"encoding":"inplace","label":"contract TimelockInterface","numberOfBytes":"20"},"t_mapping(t_address,t_struct(Receipt)103_storage)":{"encoding":"mapping","key":"t_address","label":"mapping(address => struct GovernorAlpha2.Receipt)","numberOfBytes":"32","value":"t_struct(Receipt)103_storage"},"t_mapping(t_address,t_uint256)":{"encoding":"mapping","key":"t_address","label":"mapping(address => uint256)","numberOfBytes":"32","value":"t_uint256"},"t_mapping(t_uint256,t_struct(Proposal)96_storage)":{"encoding":"mapping","key":"t_uint256","label":"mapping(uint256 => struct GovernorAlpha2.Proposal)","numberOfBytes":"32","value":"t_struct(Proposal)96_storage"},"t_string_storage":{"encoding":"bytes","label":"string","numberOfBytes":"32"},"t_struct(Proposal)96_storage":{"encoding":"inplace","label":"struct GovernorAlpha2.Proposal","members":[{"astId":63,"contract":"contracts/Governance/GovernorAlpha2.sol:GovernorAlpha2","label":"id","offset":0,"slot":"0","type":"t_uint256"},{"astId":65,"contract":"contracts/Governance/GovernorAlpha2.sol:GovernorAlpha2","label":"proposer","offset":0,"slot":"1","type":"t_address"},{"astId":67,"contract":"contracts/Governance/GovernorAlpha2.sol:GovernorAlpha2","label":"eta","offset":0,"slot":"2","type":"t_uint256"},{"astId":70,"contract":"contracts/Governance/GovernorAlpha2.sol:GovernorAlpha2","label":"targets","offset":0,"slot":"3","type":"t_array(t_address)dyn_storage"},{"astId":73,"contract":"contracts/Governance/GovernorAlpha2.sol:GovernorAlpha2","label":"values","offset":0,"slot":"4","type":"t_array(t_uint256)dyn_storage"},{"astId":76,"contract":"contracts/Governance/GovernorAlpha2.sol:GovernorAlpha2","label":"signatures","offset":0,"slot":"5","type":"t_array(t_string_storage)dyn_storage"},{"astId":79,"contract":"contracts/Governance/GovernorAlpha2.sol:GovernorAlpha2","label":"calldatas","offset":0,"slot":"6","type":"t_array(t_bytes_storage)dyn_storage"},{"astId":81,"contract":"contracts/Governance/GovernorAlpha2.sol:GovernorAlpha2","label":"startBlock","offset":0,"slot":"7","type":"t_uint256"},{"astId":83,"contract":"contracts/Governance/GovernorAlpha2.sol:GovernorAlpha2","label":"endBlock","offset":0,"slot":"8","type":"t_uint256"},{"astId":85,"contract":"contracts/Governance/GovernorAlpha2.sol:GovernorAlpha2","label":"forVotes","offset":0,"slot":"9","type":"t_uint256"},{"astId":87,"contract":"contracts/Governance/GovernorAlpha2.sol:GovernorAlpha2","label":"againstVotes","offset":0,"slot":"10","type":"t_uint256"},{"astId":89,"contract":"contracts/Governance/GovernorAlpha2.sol:GovernorAlpha2","label":"canceled","offset":0,"slot":"11","type":"t_bool"},{"astId":91,"contract":"contracts/Governance/GovernorAlpha2.sol:GovernorAlpha2","label":"executed","offset":1,"slot":"11","type":"t_bool"},{"astId":95,"contract":"contracts/Governance/GovernorAlpha2.sol:GovernorAlpha2","label":"receipts","offset":0,"slot":"12","type":"t_mapping(t_address,t_struct(Receipt)103_storage)"}],"numberOfBytes":"416"},"t_struct(Receipt)103_storage":{"encoding":"inplace","label":"struct GovernorAlpha2.Receipt","members":[{"astId":98,"contract":"contracts/Governance/GovernorAlpha2.sol:GovernorAlpha2","label":"hasVoted","offset":0,"slot":"0","type":"t_bool"},{"astId":100,"contract":"contracts/Governance/GovernorAlpha2.sol:GovernorAlpha2","label":"support","offset":1,"slot":"0","type":"t_bool"},{"astId":102,"contract":"contracts/Governance/GovernorAlpha2.sol:GovernorAlpha2","label":"votes","offset":2,"slot":"0","type":"t_uint96"}],"numberOfBytes":"32"},"t_uint256":{"encoding":"inplace","label":"uint256","numberOfBytes":"32"},"t_uint96":{"encoding":"inplace","label":"uint96","numberOfBytes":"12"}}},"userdoc":{"methods":{"proposalMaxOperations()":{"notice":"The maximum number of actions that can be included in a proposal"},"proposalThreshold()":{"notice":"The number of votes required in order for a voter to become a proposer"},"quorumVotes()":{"notice":"The number of votes in support of a proposal required in order for a quorum to be reached and for a vote to succeed"},"votingDelay()":{"notice":"The delay before voting on a proposal may take place, once proposed"},"votingPeriod()":{"notice":"The duration of voting on a proposal, in blocks"}}}}}}