{"contracts/Governance/GovernorBravoInterfaces.sol":{"GovernorBravoDelegatorStorage":{"abi":[{"constant":true,"inputs":[],"name":"admin","outputs":[{"internalType":"address","name":"","type":"address"}],"payable":false,"stateMutability":"view","type":"function"},{"constant":true,"inputs":[],"name":"implementation","outputs":[{"internalType":"address","name":"","type":"address"}],"payable":false,"stateMutability":"view","type":"function"},{"constant":true,"inputs":[],"name":"pendingAdmin","outputs":[{"internalType":"address","name":"","type":"address"}],"payable":false,"stateMutability":"view","type":"function"}],"devdoc":{"methods":{}},"evm":{"bytecode":{"linkReferences":{},"object":"608060405234801561001057600080fd5b50610106806100206000396000f3fe6080604052348015600f57600080fd5b5060043610603c5760003560e01c8063267822471460415780635c60da1b14605b578063f851a440146061575b600080fd5b60476067565b6040516052919060a1565b60405180910390f35b60476076565b60476085565b6001546001600160a01b031681565b6002546001600160a01b031681565b6000546001600160a01b031681565b609b8160b3565b82525050565b6020810160ad82846094565b92915050565b60006001600160a01b03821660ad56fea365627a7a72315820a6f5aa5d87f9347b136450f3f5fe4f76d395038be197441649788b4958ad11696c6578706572696d656e74616cf564736f6c63430005100040","opcodes":"PUSH1 0x80 PUSH1 0x40 MSTORE CALLVALUE DUP1 ISZERO PUSH2 0x10 JUMPI PUSH1 0x0 DUP1 REVERT JUMPDEST POP PUSH2 0x106 DUP1 PUSH2 0x20 PUSH1 0x0 CODECOPY PUSH1 0x0 RETURN INVALID PUSH1 0x80 PUSH1 0x40 MSTORE CALLVALUE DUP1 ISZERO PUSH1 0xF JUMPI PUSH1 0x0 DUP1 REVERT JUMPDEST POP PUSH1 0x4 CALLDATASIZE LT PUSH1 0x3C JUMPI PUSH1 0x0 CALLDATALOAD PUSH1 0xE0 SHR DUP1 PUSH4 0x26782247 EQ PUSH1 0x41 JUMPI DUP1 PUSH4 0x5C60DA1B EQ PUSH1 0x5B JUMPI DUP1 PUSH4 0xF851A440 EQ PUSH1 0x61 JUMPI JUMPDEST PUSH1 0x0 DUP1 REVERT JUMPDEST PUSH1 0x47 PUSH1 0x67 JUMP JUMPDEST PUSH1 0x40 MLOAD PUSH1 0x52 SWAP2 SWAP1 PUSH1 0xA1 JUMP JUMPDEST PUSH1 0x40 MLOAD DUP1 SWAP2 SUB SWAP1 RETURN JUMPDEST PUSH1 0x47 PUSH1 0x76 JUMP JUMPDEST PUSH1 0x47 PUSH1 0x85 JUMP JUMPDEST PUSH1 0x1 SLOAD PUSH1 0x1 PUSH1 0x1 PUSH1 0xA0 SHL SUB AND DUP2 JUMP JUMPDEST PUSH1 0x2 SLOAD PUSH1 0x1 PUSH1 0x1 PUSH1 0xA0 SHL SUB AND DUP2 JUMP JUMPDEST PUSH1 0x0 SLOAD PUSH1 0x1 PUSH1 0x1 PUSH1 0xA0 SHL SUB AND DUP2 JUMP JUMPDEST PUSH1 0x9B DUP2 PUSH1 0xB3 JUMP JUMPDEST DUP3 MSTORE POP POP JUMP JUMPDEST PUSH1 0x20 DUP2 ADD PUSH1 0xAD DUP3 DUP5 PUSH1 0x94 JUMP JUMPDEST SWAP3 SWAP2 POP POP JUMP JUMPDEST PUSH1 0x0 PUSH1 0x1 PUSH1 0x1 PUSH1 0xA0 SHL SUB DUP3 AND PUSH1 0xAD JUMP INVALID LOG3 PUSH6 0x627A7A723158 KECCAK256 0xA6 CREATE2 0xAA 0x5D DUP8 0xF9 CALLVALUE PUSH28 0x136450F3F5FE4F76D395038BE197441649788B4958AD11696C657870 PUSH6 0x72696D656E74 PUSH2 0x6CF5 PUSH5 0x736F6C6343 STOP SDIV LT STOP BLOCKHASH "},"gasEstimates":{"creation":{"codeDepositCost":"52400","executionCost":"105","totalCost":"52505"},"external":{"admin()":"infinite","implementation()":"infinite","pendingAdmin()":"infinite"}},"methodIdentifiers":{"admin()":"f851a440","implementation()":"5c60da1b","pendingAdmin()":"26782247"}},"storageLayout":{"storage":[{"astId":1671,"contract":"contracts/Governance/GovernorBravoInterfaces.sol:GovernorBravoDelegatorStorage","label":"admin","offset":0,"slot":"0","type":"t_address"},{"astId":1673,"contract":"contracts/Governance/GovernorBravoInterfaces.sol:GovernorBravoDelegatorStorage","label":"pendingAdmin","offset":0,"slot":"1","type":"t_address"},{"astId":1675,"contract":"contracts/Governance/GovernorBravoInterfaces.sol:GovernorBravoDelegatorStorage","label":"implementation","offset":0,"slot":"2","type":"t_address"}],"types":{"t_address":{"encoding":"inplace","label":"address","numberOfBytes":"20"}}},"userdoc":{"methods":{}}}}}