{"contracts/Governance/GovernorBravoInterfaces.sol":{"GovernorBravoDelegateStorageV2":{"abi":[{"constant":true,"inputs":[],"name":"admin","outputs":[{"internalType":"address","name":"","type":"address"}],"payable":false,"stateMutability":"view","type":"function"},{"constant":true,"inputs":[],"name":"guardian","outputs":[{"internalType":"address","name":"","type":"address"}],"payable":false,"stateMutability":"view","type":"function"},{"constant":true,"inputs":[],"name":"implementation","outputs":[{"internalType":"address","name":"","type":"address"}],"payable":false,"stateMutability":"view","type":"function"},{"constant":true,"inputs":[],"name":"initialProposalId","outputs":[{"internalType":"uint256","name":"","type":"uint256"}],"payable":false,"stateMutability":"view","type":"function"},{"constant":true,"inputs":[{"internalType":"address","name":"","type":"address"}],"name":"latestProposalIds","outputs":[{"internalType":"uint256","name":"","type":"uint256"}],"payable":false,"stateMutability":"view","type":"function"},{"constant":true,"inputs":[],"name":"nwlVault","outputs":[{"internalType":"contract NwlVaultInterface","name":"","type":"address"}],"payable":false,"stateMutability":"view","type":"function"},{"constant":true,"inputs":[],"name":"pendingAdmin","outputs":[{"internalType":"address","name":"","type":"address"}],"payable":false,"stateMutability":"view","type":"function"},{"constant":true,"inputs":[{"internalType":"uint256","name":"","type":"uint256"}],"name":"proposalConfigs","outputs":[{"internalType":"uint256","name":"votingDelay","type":"uint256"},{"internalType":"uint256","name":"votingPeriod","type":"uint256"},{"internalType":"uint256","name":"proposalThreshold","type":"uint256"}],"payable":false,"stateMutability":"view","type":"function"},{"constant":true,"inputs":[],"name":"proposalCount","outputs":[{"internalType":"uint256","name":"","type":"uint256"}],"payable":false,"stateMutability":"view","type":"function"},{"constant":true,"inputs":[],"name":"proposalMaxOperations","outputs":[{"internalType":"uint256","name":"","type":"uint256"}],"payable":false,"stateMutability":"view","type":"function"},{"constant":true,"inputs":[],"name":"proposalThreshold","outputs":[{"internalType":"uint256","name":"","type":"uint256"}],"payable":false,"stateMutability":"view","type":"function"},{"constant":true,"inputs":[{"internalType":"uint256","name":"","type":"uint256"}],"name":"proposalTimelocks","outputs":[{"internalType":"contract TimelockInterface","name":"","type":"address"}],"payable":false,"stateMutability":"view","type":"function"},{"constant":true,"inputs":[{"internalType":"uint256","name":"","type":"uint256"}],"name":"proposals","outputs":[{"internalType":"uint256","name":"id","type":"uint256"},{"internalType":"address","name":"proposer","type":"address"},{"internalType":"uint256","name":"eta","type":"uint256"},{"internalType":"uint256","name":"startBlock","type":"uint256"},{"internalType":"uint256","name":"endBlock","type":"uint256"},{"internalType":"uint256","name":"forVotes","type":"uint256"},{"internalType":"uint256","name":"againstVotes","type":"uint256"},{"internalType":"uint256","name":"abstainVotes","type":"uint256"},{"internalType":"bool","name":"canceled","type":"bool"},{"internalType":"bool","name":"executed","type":"bool"},{"internalType":"uint8","name":"proposalType","type":"uint8"}],"payable":false,"stateMutability":"view","type":"function"},{"constant":true,"inputs":[],"name":"timelock","outputs":[{"internalType":"contract TimelockInterface","name":"","type":"address"}],"payable":false,"stateMutability":"view","type":"function"},{"constant":true,"inputs":[],"name":"votingDelay","outputs":[{"internalType":"uint256","name":"","type":"uint256"}],"payable":false,"stateMutability":"view","type":"function"},{"constant":true,"inputs":[],"name":"votingPeriod","outputs":[{"internalType":"uint256","name":"","type":"uint256"}],"payable":false,"stateMutability":"view","type":"function"}],"devdoc":{"methods":{}},"evm":{"bytecode":{"linkReferences":{},"object":"608060405234801561001057600080fd5b5061055b806100206000396000f3fe608060405234801561001057600080fd5b50600436106101005760003560e01c80635c60da1b11610097578063da35c66411610066578063da35c664146101dc578063ee9799ee146101e4578063f851a440146101f7578063fc4eee42146101ff57610100565b80635c60da1b146101bc5780637bdbe4d0146101c4578063b58131b0146101cc578063d33219b4146101d457610100565b806326782247116100d3578063267822471461017557806335a87de21461018a5780633932abb1146101ac578063452a9320146101b457610100565b8063013cf08b146101055780630221b90e1461013857806302a251a31461014d57806317977c6114610162575b600080fd5b610118610113366004610381565b610207565b60405161012f9b9a999897969594939291906103fc565b60405180910390f35b610140610273565b60405161012f91906103e0565b610155610282565b60405161012f91906103ee565b61015561017036600461035b565b610288565b61017d61029a565b60405161012f91906103d2565b61019d610198366004610381565b6102a9565b60405161012f939291906104a0565b6101556102ca565b61017d6102d0565b61017d6102df565b6101556102ee565b6101556102f4565b6101406102fa565b610155610309565b6101406101f2366004610381565b61030f565b61017d61032a565b610155610339565b600a60208190526000918252604090912080546001820154600283015460078401546008850154600986015496860154600b870154600c880154600e9098015496986001600160a01b039096169794969395929492939192909160ff808316926101009004811691168b565b6009546001600160a01b031681565b60045481565b600b6020526000908152604090205481565b6001546001600160a01b031681565b600e6020526000908152604090208054600182015460029092015490919083565b60035481565b600d546001600160a01b031681565b6002546001600160a01b031681565b600c5481565b60055481565b6008546001600160a01b031681565b60075481565b600f602052600090815260409020546001600160a01b031681565b6000546001600160a01b031681565b60065481565b803561034a816104f8565b92915050565b803561034a8161050f565b60006020828403121561036d57600080fd5b6000610379848461033f565b949350505050565b60006020828403121561039357600080fd5b60006103798484610350565b6103a8816104c8565b82525050565b6103a8816104d3565b6103a8816104ed565b6103a8816104e4565b6103a8816104e7565b6020810161034a828461039f565b6020810161034a82846103b7565b6020810161034a82846103c0565b610160810161040b828e6103c0565b610418602083018d61039f565b610425604083018c6103c0565b610432606083018b6103c0565b61043f608083018a6103c0565b61044c60a08301896103c0565b61045960c08301886103c0565b61046660e08301876103c0565b6104746101008301866103ae565b6104826101208301856103ae565b6104906101408301846103c9565b9c9b505050505050505050505050565b606081016104ae82866103c0565b6104bb60208301856103c0565b61037960408301846103c0565b600061034a826104d8565b151590565b6001600160a01b031690565b90565b60ff1690565b600061034a826104c8565b610501816104c8565b811461050c57600080fd5b50565b610501816104e456fea365627a7a72315820d545a1d32869380282b3c7877100cc81a637c3c50c720c2331347f32cae5c9e96c6578706572696d656e74616cf564736f6c63430005100040","opcodes":"PUSH1 0x80 PUSH1 0x40 MSTORE CALLVALUE DUP1 ISZERO PUSH2 0x10 JUMPI PUSH1 0x0 DUP1 REVERT JUMPDEST POP PUSH2 0x55B DUP1 PUSH2 0x20 PUSH1 0x0 CODECOPY PUSH1 0x0 RETURN INVALID PUSH1 0x80 PUSH1 0x40 MSTORE CALLVALUE DUP1 ISZERO PUSH2 0x10 JUMPI PUSH1 0x0 DUP1 REVERT JUMPDEST POP PUSH1 0x4 CALLDATASIZE LT PUSH2 0x100 JUMPI PUSH1 0x0 CALLDATALOAD PUSH1 0xE0 SHR DUP1 PUSH4 0x5C60DA1B GT PUSH2 0x97 JUMPI DUP1 PUSH4 0xDA35C664 GT PUSH2 0x66 JUMPI DUP1 PUSH4 0xDA35C664 EQ PUSH2 0x1DC JUMPI DUP1 PUSH4 0xEE9799EE EQ PUSH2 0x1E4 JUMPI DUP1 PUSH4 0xF851A440 EQ PUSH2 0x1F7 JUMPI DUP1 PUSH4 0xFC4EEE42 EQ PUSH2 0x1FF JUMPI PUSH2 0x100 JUMP JUMPDEST DUP1 PUSH4 0x5C60DA1B EQ PUSH2 0x1BC JUMPI DUP1 PUSH4 0x7BDBE4D0 EQ PUSH2 0x1C4 JUMPI DUP1 PUSH4 0xB58131B0 EQ PUSH2 0x1CC JUMPI DUP1 PUSH4 0xD33219B4 EQ PUSH2 0x1D4 JUMPI PUSH2 0x100 JUMP JUMPDEST DUP1 PUSH4 0x26782247 GT PUSH2 0xD3 JUMPI DUP1 PUSH4 0x26782247 EQ PUSH2 0x175 JUMPI DUP1 PUSH4 0x35A87DE2 EQ PUSH2 0x18A JUMPI DUP1 PUSH4 0x3932ABB1 EQ PUSH2 0x1AC JUMPI DUP1 PUSH4 0x452A9320 EQ PUSH2 0x1B4 JUMPI PUSH2 0x100 JUMP JUMPDEST DUP1 PUSH4 0x13CF08B EQ PUSH2 0x105 JUMPI DUP1 PUSH4 0x221B90E EQ PUSH2 0x138 JUMPI DUP1 PUSH4 0x2A251A3 EQ PUSH2 0x14D JUMPI DUP1 PUSH4 0x17977C61 EQ PUSH2 0x162 JUMPI JUMPDEST PUSH1 0x0 DUP1 REVERT JUMPDEST PUSH2 0x118 PUSH2 0x113 CALLDATASIZE PUSH1 0x4 PUSH2 0x381 JUMP JUMPDEST PUSH2 0x207 JUMP JUMPDEST PUSH1 0x40 MLOAD PUSH2 0x12F SWAP12 SWAP11 SWAP10 SWAP9 SWAP8 SWAP7 SWAP6 SWAP5 SWAP4 SWAP3 SWAP2 SWAP1 PUSH2 0x3FC JUMP JUMPDEST PUSH1 0x40 MLOAD DUP1 SWAP2 SUB SWAP1 RETURN JUMPDEST PUSH2 0x140 PUSH2 0x273 JUMP JUMPDEST PUSH1 0x40 MLOAD PUSH2 0x12F SWAP2 SWAP1 PUSH2 0x3E0 JUMP JUMPDEST PUSH2 0x155 PUSH2 0x282 JUMP JUMPDEST PUSH1 0x40 MLOAD PUSH2 0x12F SWAP2 SWAP1 PUSH2 0x3EE JUMP JUMPDEST PUSH2 0x155 PUSH2 0x170 CALLDATASIZE PUSH1 0x4 PUSH2 0x35B JUMP JUMPDEST PUSH2 0x288 JUMP JUMPDEST PUSH2 0x17D PUSH2 0x29A JUMP JUMPDEST PUSH1 0x40 MLOAD PUSH2 0x12F SWAP2 SWAP1 PUSH2 0x3D2 JUMP JUMPDEST PUSH2 0x19D PUSH2 0x198 CALLDATASIZE PUSH1 0x4 PUSH2 0x381 JUMP JUMPDEST PUSH2 0x2A9 JUMP JUMPDEST PUSH1 0x40 MLOAD PUSH2 0x12F SWAP4 SWAP3 SWAP2 SWAP1 PUSH2 0x4A0 JUMP JUMPDEST PUSH2 0x155 PUSH2 0x2CA JUMP JUMPDEST PUSH2 0x17D PUSH2 0x2D0 JUMP JUMPDEST PUSH2 0x17D PUSH2 0x2DF JUMP JUMPDEST PUSH2 0x155 PUSH2 0x2EE JUMP JUMPDEST PUSH2 0x155 PUSH2 0x2F4 JUMP JUMPDEST PUSH2 0x140 PUSH2 0x2FA JUMP JUMPDEST PUSH2 0x155 PUSH2 0x309 JUMP JUMPDEST PUSH2 0x140 PUSH2 0x1F2 CALLDATASIZE PUSH1 0x4 PUSH2 0x381 JUMP JUMPDEST PUSH2 0x30F JUMP JUMPDEST PUSH2 0x17D PUSH2 0x32A JUMP JUMPDEST PUSH2 0x155 PUSH2 0x339 JUMP JUMPDEST PUSH1 0xA PUSH1 0x20 DUP2 SWAP1 MSTORE PUSH1 0x0 SWAP2 DUP3 MSTORE PUSH1 0x40 SWAP1 SWAP2 KECCAK256 DUP1 SLOAD PUSH1 0x1 DUP3 ADD SLOAD PUSH1 0x2 DUP4 ADD SLOAD PUSH1 0x7 DUP5 ADD SLOAD PUSH1 0x8 DUP6 ADD SLOAD PUSH1 0x9 DUP7 ADD SLOAD SWAP7 DUP7 ADD SLOAD PUSH1 0xB DUP8 ADD SLOAD PUSH1 0xC DUP9 ADD SLOAD PUSH1 0xE SWAP1 SWAP9 ADD SLOAD SWAP7 SWAP9 PUSH1 0x1 PUSH1 0x1 PUSH1 0xA0 SHL SUB SWAP1 SWAP7 AND SWAP8 SWAP5 SWAP7 SWAP4 SWAP6 SWAP3 SWAP5 SWAP3 SWAP4 SWAP2 SWAP3 SWAP1 SWAP2 PUSH1 0xFF DUP1 DUP4 AND SWAP3 PUSH2 0x100 SWAP1 DIV DUP2 AND SWAP2 AND DUP12 JUMP JUMPDEST PUSH1 0x9 SLOAD PUSH1 0x1 PUSH1 0x1 PUSH1 0xA0 SHL SUB AND DUP2 JUMP JUMPDEST PUSH1 0x4 SLOAD DUP2 JUMP JUMPDEST PUSH1 0xB PUSH1 0x20 MSTORE PUSH1 0x0 SWAP1 DUP2 MSTORE PUSH1 0x40 SWAP1 KECCAK256 SLOAD DUP2 JUMP JUMPDEST PUSH1 0x1 SLOAD PUSH1 0x1 PUSH1 0x1 PUSH1 0xA0 SHL SUB AND DUP2 JUMP JUMPDEST PUSH1 0xE PUSH1 0x20 MSTORE PUSH1 0x0 SWAP1 DUP2 MSTORE PUSH1 0x40 SWAP1 KECCAK256 DUP1 SLOAD PUSH1 0x1 DUP3 ADD SLOAD PUSH1 0x2 SWAP1 SWAP3 ADD SLOAD SWAP1 SWAP2 SWAP1 DUP4 JUMP JUMPDEST PUSH1 0x3 SLOAD DUP2 JUMP JUMPDEST PUSH1 0xD SLOAD PUSH1 0x1 PUSH1 0x1 PUSH1 0xA0 SHL SUB AND DUP2 JUMP JUMPDEST PUSH1 0x2 SLOAD PUSH1 0x1 PUSH1 0x1 PUSH1 0xA0 SHL SUB AND DUP2 JUMP JUMPDEST PUSH1 0xC SLOAD DUP2 JUMP JUMPDEST PUSH1 0x5 SLOAD DUP2 JUMP JUMPDEST PUSH1 0x8 SLOAD PUSH1 0x1 PUSH1 0x1 PUSH1 0xA0 SHL SUB AND DUP2 JUMP JUMPDEST PUSH1 0x7 SLOAD DUP2 JUMP JUMPDEST PUSH1 0xF PUSH1 0x20 MSTORE PUSH1 0x0 SWAP1 DUP2 MSTORE PUSH1 0x40 SWAP1 KECCAK256 SLOAD PUSH1 0x1 PUSH1 0x1 PUSH1 0xA0 SHL SUB AND DUP2 JUMP JUMPDEST PUSH1 0x0 SLOAD PUSH1 0x1 PUSH1 0x1 PUSH1 0xA0 SHL SUB AND DUP2 JUMP JUMPDEST PUSH1 0x6 SLOAD DUP2 JUMP JUMPDEST DUP1 CALLDATALOAD PUSH2 0x34A DUP2 PUSH2 0x4F8 JUMP JUMPDEST SWAP3 SWAP2 POP POP JUMP JUMPDEST DUP1 CALLDATALOAD PUSH2 0x34A DUP2 PUSH2 0x50F JUMP JUMPDEST PUSH1 0x0 PUSH1 0x20 DUP3 DUP5 SUB SLT ISZERO PUSH2 0x36D JUMPI PUSH1 0x0 DUP1 REVERT JUMPDEST PUSH1 0x0 PUSH2 0x379 DUP5 DUP5 PUSH2 0x33F JUMP JUMPDEST SWAP5 SWAP4 POP POP POP POP JUMP JUMPDEST PUSH1 0x0 PUSH1 0x20 DUP3 DUP5 SUB SLT ISZERO PUSH2 0x393 JUMPI PUSH1 0x0 DUP1 REVERT JUMPDEST PUSH1 0x0 PUSH2 0x379 DUP5 DUP5 PUSH2 0x350 JUMP JUMPDEST PUSH2 0x3A8 DUP2 PUSH2 0x4C8 JUMP JUMPDEST DUP3 MSTORE POP POP JUMP JUMPDEST PUSH2 0x3A8 DUP2 PUSH2 0x4D3 JUMP JUMPDEST PUSH2 0x3A8 DUP2 PUSH2 0x4ED JUMP JUMPDEST PUSH2 0x3A8 DUP2 PUSH2 0x4E4 JUMP JUMPDEST PUSH2 0x3A8 DUP2 PUSH2 0x4E7 JUMP JUMPDEST PUSH1 0x20 DUP2 ADD PUSH2 0x34A DUP3 DUP5 PUSH2 0x39F JUMP JUMPDEST PUSH1 0x20 DUP2 ADD PUSH2 0x34A DUP3 DUP5 PUSH2 0x3B7 JUMP JUMPDEST PUSH1 0x20 DUP2 ADD PUSH2 0x34A DUP3 DUP5 PUSH2 0x3C0 JUMP JUMPDEST PUSH2 0x160 DUP2 ADD PUSH2 0x40B DUP3 DUP15 PUSH2 0x3C0 JUMP JUMPDEST PUSH2 0x418 PUSH1 0x20 DUP4 ADD DUP14 PUSH2 0x39F JUMP JUMPDEST PUSH2 0x425 PUSH1 0x40 DUP4 ADD DUP13 PUSH2 0x3C0 JUMP JUMPDEST PUSH2 0x432 PUSH1 0x60 DUP4 ADD DUP12 PUSH2 0x3C0 JUMP JUMPDEST PUSH2 0x43F PUSH1 0x80 DUP4 ADD DUP11 PUSH2 0x3C0 JUMP JUMPDEST PUSH2 0x44C PUSH1 0xA0 DUP4 ADD DUP10 PUSH2 0x3C0 JUMP JUMPDEST PUSH2 0x459 PUSH1 0xC0 DUP4 ADD DUP9 PUSH2 0x3C0 JUMP JUMPDEST PUSH2 0x466 PUSH1 0xE0 DUP4 ADD DUP8 PUSH2 0x3C0 JUMP JUMPDEST PUSH2 0x474 PUSH2 0x100 DUP4 ADD DUP7 PUSH2 0x3AE JUMP JUMPDEST PUSH2 0x482 PUSH2 0x120 DUP4 ADD DUP6 PUSH2 0x3AE JUMP JUMPDEST PUSH2 0x490 PUSH2 0x140 DUP4 ADD DUP5 PUSH2 0x3C9 JUMP JUMPDEST SWAP13 SWAP12 POP POP POP POP POP POP POP POP POP POP POP POP JUMP JUMPDEST PUSH1 0x60 DUP2 ADD PUSH2 0x4AE DUP3 DUP7 PUSH2 0x3C0 JUMP JUMPDEST PUSH2 0x4BB PUSH1 0x20 DUP4 ADD DUP6 PUSH2 0x3C0 JUMP JUMPDEST PUSH2 0x379 PUSH1 0x40 DUP4 ADD DUP5 PUSH2 0x3C0 JUMP JUMPDEST PUSH1 0x0 PUSH2 0x34A DUP3 PUSH2 0x4D8 JUMP JUMPDEST ISZERO ISZERO SWAP1 JUMP JUMPDEST PUSH1 0x1 PUSH1 0x1 PUSH1 0xA0 SHL SUB AND SWAP1 JUMP JUMPDEST SWAP1 JUMP JUMPDEST PUSH1 0xFF AND SWAP1 JUMP JUMPDEST PUSH1 0x0 PUSH2 0x34A DUP3 PUSH2 0x4C8 JUMP JUMPDEST PUSH2 0x501 DUP2 PUSH2 0x4C8 JUMP JUMPDEST DUP2 EQ PUSH2 0x50C JUMPI PUSH1 0x0 DUP1 REVERT JUMPDEST POP JUMP JUMPDEST PUSH2 0x501 DUP2 PUSH2 0x4E4 JUMP INVALID LOG3 PUSH6 0x627A7A723158 KECCAK256 0xD5 GASLIMIT LOG1 0xD3 0x28 PUSH10 0x380282B3C7877100CC81 0xA6 CALLDATACOPY 0xC3 0xC5 0xC PUSH19 0xC2331347F32CAE5C9E96C6578706572696D65 PUSH15 0x74616CF564736F6C63430005100040 "},"gasEstimates":{"creation":{"codeDepositCost":"274200","executionCost":"312","totalCost":"274512"},"external":{"admin()":"infinite","guardian()":"infinite","implementation()":"infinite","initialProposalId()":"1187","latestProposalIds(address)":"infinite","nwlVault()":"infinite","pendingAdmin()":"infinite","proposalConfigs(uint256)":"infinite","proposalCount()":"1121","proposalMaxOperations()":"1144","proposalThreshold()":"1166","proposalTimelocks(uint256)":"infinite","proposals(uint256)":"infinite","timelock()":"infinite","votingDelay()":"1166","votingPeriod()":"1167"}},"methodIdentifiers":{"admin()":"f851a440","guardian()":"452a9320","implementation()":"5c60da1b","initialProposalId()":"fc4eee42","latestProposalIds(address)":"17977c61","nwlVault()":"0221b90e","pendingAdmin()":"26782247","proposalConfigs(uint256)":"35a87de2","proposalCount()":"da35c664","proposalMaxOperations()":"7bdbe4d0","proposalThreshold()":"b58131b0","proposalTimelocks(uint256)":"ee9799ee","proposals(uint256)":"013cf08b","timelock()":"d33219b4","votingDelay()":"3932abb1","votingPeriod()":"02a251a3"}},"storageLayout":{"storage":[{"astId":1671,"contract":"contracts/Governance/GovernorBravoInterfaces.sol:GovernorBravoDelegateStorageV2","label":"admin","offset":0,"slot":"0","type":"t_address"},{"astId":1673,"contract":"contracts/Governance/GovernorBravoInterfaces.sol:GovernorBravoDelegateStorageV2","label":"pendingAdmin","offset":0,"slot":"1","type":"t_address"},{"astId":1675,"contract":"contracts/Governance/GovernorBravoInterfaces.sol:GovernorBravoDelegateStorageV2","label":"implementation","offset":0,"slot":"2","type":"t_address"},{"astId":1680,"contract":"contracts/Governance/GovernorBravoInterfaces.sol:GovernorBravoDelegateStorageV2","label":"votingDelay","offset":0,"slot":"3","type":"t_uint256"},{"astId":1682,"contract":"contracts/Governance/GovernorBravoInterfaces.sol:GovernorBravoDelegateStorageV2","label":"votingPeriod","offset":0,"slot":"4","type":"t_uint256"},{"astId":1684,"contract":"contracts/Governance/GovernorBravoInterfaces.sol:GovernorBravoDelegateStorageV2","label":"proposalThreshold","offset":0,"slot":"5","type":"t_uint256"},{"astId":1686,"contract":"contracts/Governance/GovernorBravoInterfaces.sol:GovernorBravoDelegateStorageV2","label":"initialProposalId","offset":0,"slot":"6","type":"t_uint256"},{"astId":1688,"contract":"contracts/Governance/GovernorBravoInterfaces.sol:GovernorBravoDelegateStorageV2","label":"proposalCount","offset":0,"slot":"7","type":"t_uint256"},{"astId":1690,"contract":"contracts/Governance/GovernorBravoInterfaces.sol:GovernorBravoDelegateStorageV2","label":"timelock","offset":0,"slot":"8","type":"t_contract(TimelockInterface)1846"},{"astId":1692,"contract":"contracts/Governance/GovernorBravoInterfaces.sol:GovernorBravoDelegateStorageV2","label":"nwlVault","offset":0,"slot":"9","type":"t_contract(NwlVaultInterface)1856"},{"astId":1696,"contract":"contracts/Governance/GovernorBravoInterfaces.sol:GovernorBravoDelegateStorageV2","label":"proposals","offset":0,"slot":"10","type":"t_mapping(t_uint256,t_struct(Proposal)1739_storage)"},{"astId":1700,"contract":"contracts/Governance/GovernorBravoInterfaces.sol:GovernorBravoDelegateStorageV2","label":"latestProposalIds","offset":0,"slot":"11","type":"t_mapping(t_address,t_uint256)"},{"astId":1757,"contract":"contracts/Governance/GovernorBravoInterfaces.sol:GovernorBravoDelegateStorageV2","label":"proposalMaxOperations","offset":0,"slot":"12","type":"t_uint256"},{"astId":1759,"contract":"contracts/Governance/GovernorBravoInterfaces.sol:GovernorBravoDelegateStorageV2","label":"guardian","offset":0,"slot":"13","type":"t_address"},{"astId":1777,"contract":"contracts/Governance/GovernorBravoInterfaces.sol:GovernorBravoDelegateStorageV2","label":"proposalConfigs","offset":0,"slot":"14","type":"t_mapping(t_uint256,t_struct(ProposalConfig)1773_storage)"},{"astId":1781,"contract":"contracts/Governance/GovernorBravoInterfaces.sol:GovernorBravoDelegateStorageV2","label":"proposalTimelocks","offset":0,"slot":"15","type":"t_mapping(t_uint256,t_contract(TimelockInterface)1846)"}],"types":{"t_address":{"encoding":"inplace","label":"address","numberOfBytes":"20"},"t_array(t_address)dyn_storage":{"base":"t_address","encoding":"dynamic_array","label":"address[]","numberOfBytes":"32"},"t_array(t_bytes_storage)dyn_storage":{"base":"t_bytes_storage","encoding":"dynamic_array","label":"bytes[]","numberOfBytes":"32"},"t_array(t_string_storage)dyn_storage":{"base":"t_string_storage","encoding":"dynamic_array","label":"string[]","numberOfBytes":"32"},"t_array(t_uint256)dyn_storage":{"base":"t_uint256","encoding":"dynamic_array","label":"uint256[]","numberOfBytes":"32"},"t_bool":{"encoding":"inplace","label":"bool","numberOfBytes":"1"},"t_bytes_storage":{"encoding":"bytes","label":"bytes","numberOfBytes":"32"},"t_contract(NwlVaultInterface)1856":{"encoding":"inplace","label":"contract NwlVaultInterface","numberOfBytes":"20"},"t_contract(TimelockInterface)1846":{"encoding":"inplace","label":"contract TimelockInterface","numberOfBytes":"20"},"t_mapping(t_address,t_struct(Receipt)1746_storage)":{"encoding":"mapping","key":"t_address","label":"mapping(address => struct GovernorBravoDelegateStorageV1.Receipt)","numberOfBytes":"32","value":"t_struct(Receipt)1746_storage"},"t_mapping(t_address,t_uint256)":{"encoding":"mapping","key":"t_address","label":"mapping(address => uint256)","numberOfBytes":"32","value":"t_uint256"},"t_mapping(t_uint256,t_contract(TimelockInterface)1846)":{"encoding":"mapping","key":"t_uint256","label":"mapping(uint256 => contract TimelockInterface)","numberOfBytes":"32","value":"t_contract(TimelockInterface)1846"},"t_mapping(t_uint256,t_struct(Proposal)1739_storage)":{"encoding":"mapping","key":"t_uint256","label":"mapping(uint256 => struct GovernorBravoDelegateStorageV1.Proposal)","numberOfBytes":"32","value":"t_struct(Proposal)1739_storage"},"t_mapping(t_uint256,t_struct(ProposalConfig)1773_storage)":{"encoding":"mapping","key":"t_uint256","label":"mapping(uint256 => struct GovernorBravoDelegateStorageV2.ProposalConfig)","numberOfBytes":"32","value":"t_struct(ProposalConfig)1773_storage"},"t_string_storage":{"encoding":"bytes","label":"string","numberOfBytes":"32"},"t_struct(Proposal)1739_storage":{"encoding":"inplace","label":"struct GovernorBravoDelegateStorageV1.Proposal","members":[{"astId":1702,"contract":"contracts/Governance/GovernorBravoInterfaces.sol:GovernorBravoDelegateStorageV2","label":"id","offset":0,"slot":"0","type":"t_uint256"},{"astId":1704,"contract":"contracts/Governance/GovernorBravoInterfaces.sol:GovernorBravoDelegateStorageV2","label":"proposer","offset":0,"slot":"1","type":"t_address"},{"astId":1706,"contract":"contracts/Governance/GovernorBravoInterfaces.sol:GovernorBravoDelegateStorageV2","label":"eta","offset":0,"slot":"2","type":"t_uint256"},{"astId":1709,"contract":"contracts/Governance/GovernorBravoInterfaces.sol:GovernorBravoDelegateStorageV2","label":"targets","offset":0,"slot":"3","type":"t_array(t_address)dyn_storage"},{"astId":1712,"contract":"contracts/Governance/GovernorBravoInterfaces.sol:GovernorBravoDelegateStorageV2","label":"values","offset":0,"slot":"4","type":"t_array(t_uint256)dyn_storage"},{"astId":1715,"contract":"contracts/Governance/GovernorBravoInterfaces.sol:GovernorBravoDelegateStorageV2","label":"signatures","offset":0,"slot":"5","type":"t_array(t_string_storage)dyn_storage"},{"astId":1718,"contract":"contracts/Governance/GovernorBravoInterfaces.sol:GovernorBravoDelegateStorageV2","label":"calldatas","offset":0,"slot":"6","type":"t_array(t_bytes_storage)dyn_storage"},{"astId":1720,"contract":"contracts/Governance/GovernorBravoInterfaces.sol:GovernorBravoDelegateStorageV2","label":"startBlock","offset":0,"slot":"7","type":"t_uint256"},{"astId":1722,"contract":"contracts/Governance/GovernorBravoInterfaces.sol:GovernorBravoDelegateStorageV2","label":"endBlock","offset":0,"slot":"8","type":"t_uint256"},{"astId":1724,"contract":"contracts/Governance/GovernorBravoInterfaces.sol:GovernorBravoDelegateStorageV2","label":"forVotes","offset":0,"slot":"9","type":"t_uint256"},{"astId":1726,"contract":"contracts/Governance/GovernorBravoInterfaces.sol:GovernorBravoDelegateStorageV2","label":"againstVotes","offset":0,"slot":"10","type":"t_uint256"},{"astId":1728,"contract":"contracts/Governance/GovernorBravoInterfaces.sol:GovernorBravoDelegateStorageV2","label":"abstainVotes","offset":0,"slot":"11","type":"t_uint256"},{"astId":1730,"contract":"contracts/Governance/GovernorBravoInterfaces.sol:GovernorBravoDelegateStorageV2","label":"canceled","offset":0,"slot":"12","type":"t_bool"},{"astId":1732,"contract":"contracts/Governance/GovernorBravoInterfaces.sol:GovernorBravoDelegateStorageV2","label":"executed","offset":1,"slot":"12","type":"t_bool"},{"astId":1736,"contract":"contracts/Governance/GovernorBravoInterfaces.sol:GovernorBravoDelegateStorageV2","label":"receipts","offset":0,"slot":"13","type":"t_mapping(t_address,t_struct(Receipt)1746_storage)"},{"astId":1738,"contract":"contracts/Governance/GovernorBravoInterfaces.sol:GovernorBravoDelegateStorageV2","label":"proposalType","offset":0,"slot":"14","type":"t_uint8"}],"numberOfBytes":"480"},"t_struct(ProposalConfig)1773_storage":{"encoding":"inplace","label":"struct GovernorBravoDelegateStorageV2.ProposalConfig","members":[{"astId":1768,"contract":"contracts/Governance/GovernorBravoInterfaces.sol:GovernorBravoDelegateStorageV2","label":"votingDelay","offset":0,"slot":"0","type":"t_uint256"},{"astId":1770,"contract":"contracts/Governance/GovernorBravoInterfaces.sol:GovernorBravoDelegateStorageV2","label":"votingPeriod","offset":0,"slot":"1","type":"t_uint256"},{"astId":1772,"contract":"contracts/Governance/GovernorBravoInterfaces.sol:GovernorBravoDelegateStorageV2","label":"proposalThreshold","offset":0,"slot":"2","type":"t_uint256"}],"numberOfBytes":"96"},"t_struct(Receipt)1746_storage":{"encoding":"inplace","label":"struct GovernorBravoDelegateStorageV1.Receipt","members":[{"astId":1741,"contract":"contracts/Governance/GovernorBravoInterfaces.sol:GovernorBravoDelegateStorageV2","label":"hasVoted","offset":0,"slot":"0","type":"t_bool"},{"astId":1743,"contract":"contracts/Governance/GovernorBravoInterfaces.sol:GovernorBravoDelegateStorageV2","label":"support","offset":1,"slot":"0","type":"t_uint8"},{"astId":1745,"contract":"contracts/Governance/GovernorBravoInterfaces.sol:GovernorBravoDelegateStorageV2","label":"votes","offset":2,"slot":"0","type":"t_uint96"}],"numberOfBytes":"32"},"t_uint256":{"encoding":"inplace","label":"uint256","numberOfBytes":"32"},"t_uint8":{"encoding":"inplace","label":"uint8","numberOfBytes":"1"},"t_uint96":{"encoding":"inplace","label":"uint96","numberOfBytes":"12"}}},"userdoc":{"methods":{}}}}}