{"contracts/Governance/GovernorBravoInterfaces.sol":{"GovernorBravoDelegateStorageV1":{"abi":[{"constant":true,"inputs":[],"name":"admin","outputs":[{"internalType":"address","name":"","type":"address"}],"payable":false,"stateMutability":"view","type":"function"},{"constant":true,"inputs":[],"name":"guardian","outputs":[{"internalType":"address","name":"","type":"address"}],"payable":false,"stateMutability":"view","type":"function"},{"constant":true,"inputs":[],"name":"implementation","outputs":[{"internalType":"address","name":"","type":"address"}],"payable":false,"stateMutability":"view","type":"function"},{"constant":true,"inputs":[],"name":"initialProposalId","outputs":[{"internalType":"uint256","name":"","type":"uint256"}],"payable":false,"stateMutability":"view","type":"function"},{"constant":true,"inputs":[{"internalType":"address","name":"","type":"address"}],"name":"latestProposalIds","outputs":[{"internalType":"uint256","name":"","type":"uint256"}],"payable":false,"stateMutability":"view","type":"function"},{"constant":true,"inputs":[],"name":"nwlVault","outputs":[{"internalType":"contract NwlVaultInterface","name":"","type":"address"}],"payable":false,"stateMutability":"view","type":"function"},{"constant":true,"inputs":[],"name":"pendingAdmin","outputs":[{"internalType":"address","name":"","type":"address"}],"payable":false,"stateMutability":"view","type":"function"},{"constant":true,"inputs":[],"name":"proposalCount","outputs":[{"internalType":"uint256","name":"","type":"uint256"}],"payable":false,"stateMutability":"view","type":"function"},{"constant":true,"inputs":[],"name":"proposalMaxOperations","outputs":[{"internalType":"uint256","name":"","type":"uint256"}],"payable":false,"stateMutability":"view","type":"function"},{"constant":true,"inputs":[],"name":"proposalThreshold","outputs":[{"internalType":"uint256","name":"","type":"uint256"}],"payable":false,"stateMutability":"view","type":"function"},{"constant":true,"inputs":[{"internalType":"uint256","name":"","type":"uint256"}],"name":"proposals","outputs":[{"internalType":"uint256","name":"id","type":"uint256"},{"internalType":"address","name":"proposer","type":"address"},{"internalType":"uint256","name":"eta","type":"uint256"},{"internalType":"uint256","name":"startBlock","type":"uint256"},{"internalType":"uint256","name":"endBlock","type":"uint256"},{"internalType":"uint256","name":"forVotes","type":"uint256"},{"internalType":"uint256","name":"againstVotes","type":"uint256"},{"internalType":"uint256","name":"abstainVotes","type":"uint256"},{"internalType":"bool","name":"canceled","type":"bool"},{"internalType":"bool","name":"executed","type":"bool"},{"internalType":"uint8","name":"proposalType","type":"uint8"}],"payable":false,"stateMutability":"view","type":"function"},{"constant":true,"inputs":[],"name":"timelock","outputs":[{"internalType":"contract TimelockInterface","name":"","type":"address"}],"payable":false,"stateMutability":"view","type":"function"},{"constant":true,"inputs":[],"name":"votingDelay","outputs":[{"internalType":"uint256","name":"","type":"uint256"}],"payable":false,"stateMutability":"view","type":"function"},{"constant":true,"inputs":[],"name":"votingPeriod","outputs":[{"internalType":"uint256","name":"","type":"uint256"}],"payable":false,"stateMutability":"view","type":"function"}],"devdoc":{"methods":{},"title":"Storage for Governor Bravo Delegate"},"evm":{"bytecode":{"linkReferences":{},"object":"608060405234801561001057600080fd5b506104ac806100206000396000f3fe608060405234801561001057600080fd5b50600436106100ea5760003560e01c80635c60da1b1161008c578063d33219b411610066578063d33219b41461019c578063da35c664146101a4578063f851a440146101ac578063fc4eee42146101b4576100ea565b80635c60da1b146101845780637bdbe4d01461018c578063b58131b014610194576100ea565b806317977c61116100c857806317977c611461014c578063267822471461015f5780633932abb114610174578063452a93201461017c576100ea565b8063013cf08b146100ef5780630221b90e1461012257806302a251a314610137575b600080fd5b6101026100fd3660046102fa565b6101bc565b6040516101199b9a99989796959493929190610375565b60405180910390f35b61012a610228565b6040516101199190610359565b61013f610237565b6040516101199190610367565b61013f61015a3660046102d4565b61023d565b61016761024f565b604051610119919061034b565b61013f61025e565b610167610264565b610167610273565b61013f610282565b61013f610288565b61012a61028e565b61013f61029d565b6101676102a3565b61013f6102b2565b600a60208190526000918252604090912080546001820154600283015460078401546008850154600986015496860154600b870154600c880154600e9098015496986001600160a01b039096169794969395929492939192909160ff808316926101009004811691168b565b6009546001600160a01b031681565b60045481565b600b6020526000908152604090205481565b6001546001600160a01b031681565b60035481565b600d546001600160a01b031681565b6002546001600160a01b031681565b600c5481565b60055481565b6008546001600160a01b031681565b60075481565b6000546001600160a01b031681565b60065481565b80356102c381610449565b92915050565b80356102c381610460565b6000602082840312156102e657600080fd5b60006102f284846102b8565b949350505050565b60006020828403121561030c57600080fd5b60006102f284846102c9565b61032181610419565b82525050565b61032181610424565b6103218161043e565b61032181610435565b61032181610438565b602081016102c38284610318565b602081016102c38284610330565b602081016102c38284610339565b6101608101610384828e610339565b610391602083018d610318565b61039e604083018c610339565b6103ab606083018b610339565b6103b8608083018a610339565b6103c560a0830189610339565b6103d260c0830188610339565b6103df60e0830187610339565b6103ed610100830186610327565b6103fb610120830185610327565b610409610140830184610342565b9c9b505050505050505050505050565b60006102c382610429565b151590565b6001600160a01b031690565b90565b60ff1690565b60006102c382610419565b61045281610419565b811461045d57600080fd5b50565b6104528161043556fea365627a7a72315820793baa9043480afa3f716a62da47b73a97bbb3eed9200abbd6e378cd635228386c6578706572696d656e74616cf564736f6c63430005100040","opcodes":"PUSH1 0x80 PUSH1 0x40 MSTORE CALLVALUE DUP1 ISZERO PUSH2 0x10 JUMPI PUSH1 0x0 DUP1 REVERT JUMPDEST POP PUSH2 0x4AC DUP1 PUSH2 0x20 PUSH1 0x0 CODECOPY PUSH1 0x0 RETURN INVALID PUSH1 0x80 PUSH1 0x40 MSTORE CALLVALUE DUP1 ISZERO PUSH2 0x10 JUMPI PUSH1 0x0 DUP1 REVERT JUMPDEST POP PUSH1 0x4 CALLDATASIZE LT PUSH2 0xEA JUMPI PUSH1 0x0 CALLDATALOAD PUSH1 0xE0 SHR DUP1 PUSH4 0x5C60DA1B GT PUSH2 0x8C JUMPI DUP1 PUSH4 0xD33219B4 GT PUSH2 0x66 JUMPI DUP1 PUSH4 0xD33219B4 EQ PUSH2 0x19C JUMPI DUP1 PUSH4 0xDA35C664 EQ PUSH2 0x1A4 JUMPI DUP1 PUSH4 0xF851A440 EQ PUSH2 0x1AC JUMPI DUP1 PUSH4 0xFC4EEE42 EQ PUSH2 0x1B4 JUMPI PUSH2 0xEA JUMP JUMPDEST DUP1 PUSH4 0x5C60DA1B EQ PUSH2 0x184 JUMPI DUP1 PUSH4 0x7BDBE4D0 EQ PUSH2 0x18C JUMPI DUP1 PUSH4 0xB58131B0 EQ PUSH2 0x194 JUMPI PUSH2 0xEA JUMP JUMPDEST DUP1 PUSH4 0x17977C61 GT PUSH2 0xC8 JUMPI DUP1 PUSH4 0x17977C61 EQ PUSH2 0x14C JUMPI DUP1 PUSH4 0x26782247 EQ PUSH2 0x15F JUMPI DUP1 PUSH4 0x3932ABB1 EQ PUSH2 0x174 JUMPI DUP1 PUSH4 0x452A9320 EQ PUSH2 0x17C JUMPI PUSH2 0xEA JUMP JUMPDEST DUP1 PUSH4 0x13CF08B EQ PUSH2 0xEF JUMPI DUP1 PUSH4 0x221B90E EQ PUSH2 0x122 JUMPI DUP1 PUSH4 0x2A251A3 EQ PUSH2 0x137 JUMPI JUMPDEST PUSH1 0x0 DUP1 REVERT JUMPDEST PUSH2 0x102 PUSH2 0xFD CALLDATASIZE PUSH1 0x4 PUSH2 0x2FA JUMP JUMPDEST PUSH2 0x1BC JUMP JUMPDEST PUSH1 0x40 MLOAD PUSH2 0x119 SWAP12 SWAP11 SWAP10 SWAP9 SWAP8 SWAP7 SWAP6 SWAP5 SWAP4 SWAP3 SWAP2 SWAP1 PUSH2 0x375 JUMP JUMPDEST PUSH1 0x40 MLOAD DUP1 SWAP2 SUB SWAP1 RETURN JUMPDEST PUSH2 0x12A PUSH2 0x228 JUMP JUMPDEST PUSH1 0x40 MLOAD PUSH2 0x119 SWAP2 SWAP1 PUSH2 0x359 JUMP JUMPDEST PUSH2 0x13F PUSH2 0x237 JUMP JUMPDEST PUSH1 0x40 MLOAD PUSH2 0x119 SWAP2 SWAP1 PUSH2 0x367 JUMP JUMPDEST PUSH2 0x13F PUSH2 0x15A CALLDATASIZE PUSH1 0x4 PUSH2 0x2D4 JUMP JUMPDEST PUSH2 0x23D JUMP JUMPDEST PUSH2 0x167 PUSH2 0x24F JUMP JUMPDEST PUSH1 0x40 MLOAD PUSH2 0x119 SWAP2 SWAP1 PUSH2 0x34B JUMP JUMPDEST PUSH2 0x13F PUSH2 0x25E JUMP JUMPDEST PUSH2 0x167 PUSH2 0x264 JUMP JUMPDEST PUSH2 0x167 PUSH2 0x273 JUMP JUMPDEST PUSH2 0x13F PUSH2 0x282 JUMP JUMPDEST PUSH2 0x13F PUSH2 0x288 JUMP JUMPDEST PUSH2 0x12A PUSH2 0x28E JUMP JUMPDEST PUSH2 0x13F PUSH2 0x29D JUMP JUMPDEST PUSH2 0x167 PUSH2 0x2A3 JUMP JUMPDEST PUSH2 0x13F PUSH2 0x2B2 JUMP JUMPDEST PUSH1 0xA PUSH1 0x20 DUP2 SWAP1 MSTORE PUSH1 0x0 SWAP2 DUP3 MSTORE PUSH1 0x40 SWAP1 SWAP2 KECCAK256 DUP1 SLOAD PUSH1 0x1 DUP3 ADD SLOAD PUSH1 0x2 DUP4 ADD SLOAD PUSH1 0x7 DUP5 ADD SLOAD PUSH1 0x8 DUP6 ADD SLOAD PUSH1 0x9 DUP7 ADD SLOAD SWAP7 DUP7 ADD SLOAD PUSH1 0xB DUP8 ADD SLOAD PUSH1 0xC DUP9 ADD SLOAD PUSH1 0xE SWAP1 SWAP9 ADD SLOAD SWAP7 SWAP9 PUSH1 0x1 PUSH1 0x1 PUSH1 0xA0 SHL SUB SWAP1 SWAP7 AND SWAP8 SWAP5 SWAP7 SWAP4 SWAP6 SWAP3 SWAP5 SWAP3 SWAP4 SWAP2 SWAP3 SWAP1 SWAP2 PUSH1 0xFF DUP1 DUP4 AND SWAP3 PUSH2 0x100 SWAP1 DIV DUP2 AND SWAP2 AND DUP12 JUMP JUMPDEST PUSH1 0x9 SLOAD PUSH1 0x1 PUSH1 0x1 PUSH1 0xA0 SHL SUB AND DUP2 JUMP JUMPDEST PUSH1 0x4 SLOAD DUP2 JUMP JUMPDEST PUSH1 0xB PUSH1 0x20 MSTORE PUSH1 0x0 SWAP1 DUP2 MSTORE PUSH1 0x40 SWAP1 KECCAK256 SLOAD DUP2 JUMP JUMPDEST PUSH1 0x1 SLOAD PUSH1 0x1 PUSH1 0x1 PUSH1 0xA0 SHL SUB AND DUP2 JUMP JUMPDEST PUSH1 0x3 SLOAD DUP2 JUMP JUMPDEST PUSH1 0xD SLOAD PUSH1 0x1 PUSH1 0x1 PUSH1 0xA0 SHL SUB AND DUP2 JUMP JUMPDEST PUSH1 0x2 SLOAD PUSH1 0x1 PUSH1 0x1 PUSH1 0xA0 SHL SUB AND DUP2 JUMP JUMPDEST PUSH1 0xC SLOAD DUP2 JUMP JUMPDEST PUSH1 0x5 SLOAD DUP2 JUMP JUMPDEST PUSH1 0x8 SLOAD PUSH1 0x1 PUSH1 0x1 PUSH1 0xA0 SHL SUB AND DUP2 JUMP JUMPDEST PUSH1 0x7 SLOAD DUP2 JUMP JUMPDEST PUSH1 0x0 SLOAD PUSH1 0x1 PUSH1 0x1 PUSH1 0xA0 SHL SUB AND DUP2 JUMP JUMPDEST PUSH1 0x6 SLOAD DUP2 JUMP JUMPDEST DUP1 CALLDATALOAD PUSH2 0x2C3 DUP2 PUSH2 0x449 JUMP JUMPDEST SWAP3 SWAP2 POP POP JUMP JUMPDEST DUP1 CALLDATALOAD PUSH2 0x2C3 DUP2 PUSH2 0x460 JUMP JUMPDEST PUSH1 0x0 PUSH1 0x20 DUP3 DUP5 SUB SLT ISZERO PUSH2 0x2E6 JUMPI PUSH1 0x0 DUP1 REVERT JUMPDEST PUSH1 0x0 PUSH2 0x2F2 DUP5 DUP5 PUSH2 0x2B8 JUMP JUMPDEST SWAP5 SWAP4 POP POP POP POP JUMP JUMPDEST PUSH1 0x0 PUSH1 0x20 DUP3 DUP5 SUB SLT ISZERO PUSH2 0x30C JUMPI PUSH1 0x0 DUP1 REVERT JUMPDEST PUSH1 0x0 PUSH2 0x2F2 DUP5 DUP5 PUSH2 0x2C9 JUMP JUMPDEST PUSH2 0x321 DUP2 PUSH2 0x419 JUMP JUMPDEST DUP3 MSTORE POP POP JUMP JUMPDEST PUSH2 0x321 DUP2 PUSH2 0x424 JUMP JUMPDEST PUSH2 0x321 DUP2 PUSH2 0x43E JUMP JUMPDEST PUSH2 0x321 DUP2 PUSH2 0x435 JUMP JUMPDEST PUSH2 0x321 DUP2 PUSH2 0x438 JUMP JUMPDEST PUSH1 0x20 DUP2 ADD PUSH2 0x2C3 DUP3 DUP5 PUSH2 0x318 JUMP JUMPDEST PUSH1 0x20 DUP2 ADD PUSH2 0x2C3 DUP3 DUP5 PUSH2 0x330 JUMP JUMPDEST PUSH1 0x20 DUP2 ADD PUSH2 0x2C3 DUP3 DUP5 PUSH2 0x339 JUMP JUMPDEST PUSH2 0x160 DUP2 ADD PUSH2 0x384 DUP3 DUP15 PUSH2 0x339 JUMP JUMPDEST PUSH2 0x391 PUSH1 0x20 DUP4 ADD DUP14 PUSH2 0x318 JUMP JUMPDEST PUSH2 0x39E PUSH1 0x40 DUP4 ADD DUP13 PUSH2 0x339 JUMP JUMPDEST PUSH2 0x3AB PUSH1 0x60 DUP4 ADD DUP12 PUSH2 0x339 JUMP JUMPDEST PUSH2 0x3B8 PUSH1 0x80 DUP4 ADD DUP11 PUSH2 0x339 JUMP JUMPDEST PUSH2 0x3C5 PUSH1 0xA0 DUP4 ADD DUP10 PUSH2 0x339 JUMP JUMPDEST PUSH2 0x3D2 PUSH1 0xC0 DUP4 ADD DUP9 PUSH2 0x339 JUMP JUMPDEST PUSH2 0x3DF PUSH1 0xE0 DUP4 ADD DUP8 PUSH2 0x339 JUMP JUMPDEST PUSH2 0x3ED PUSH2 0x100 DUP4 ADD DUP7 PUSH2 0x327 JUMP JUMPDEST PUSH2 0x3FB PUSH2 0x120 DUP4 ADD DUP6 PUSH2 0x327 JUMP JUMPDEST PUSH2 0x409 PUSH2 0x140 DUP4 ADD DUP5 PUSH2 0x342 JUMP JUMPDEST SWAP13 SWAP12 POP POP POP POP POP POP POP POP POP POP POP POP JUMP JUMPDEST PUSH1 0x0 PUSH2 0x2C3 DUP3 PUSH2 0x429 JUMP JUMPDEST ISZERO ISZERO SWAP1 JUMP JUMPDEST PUSH1 0x1 PUSH1 0x1 PUSH1 0xA0 SHL SUB AND SWAP1 JUMP JUMPDEST SWAP1 JUMP JUMPDEST PUSH1 0xFF AND SWAP1 JUMP JUMPDEST PUSH1 0x0 PUSH2 0x2C3 DUP3 PUSH2 0x419 JUMP JUMPDEST PUSH2 0x452 DUP2 PUSH2 0x419 JUMP JUMPDEST DUP2 EQ PUSH2 0x45D JUMPI PUSH1 0x0 DUP1 REVERT JUMPDEST POP JUMP JUMPDEST PUSH2 0x452 DUP2 PUSH2 0x435 JUMP INVALID LOG3 PUSH6 0x627A7A723158 KECCAK256 PUSH26 0x3BAA9043480AFA3F716A62DA47B73A97BBB3EED9200ABBD6E378 0xCD PUSH4 0x5228386C PUSH6 0x78706572696D PUSH6 0x6E74616CF564 PUSH20 0x6F6C634300051000400000000000000000000000 "},"gasEstimates":{"creation":{"codeDepositCost":"239200","executionCost":"281","totalCost":"239481"},"external":{"admin()":"infinite","guardian()":"infinite","implementation()":"infinite","initialProposalId()":"1187","latestProposalIds(address)":"infinite","nwlVault()":"infinite","pendingAdmin()":"infinite","proposalCount()":"1143","proposalMaxOperations()":"1144","proposalThreshold()":"1166","proposals(uint256)":"infinite","timelock()":"infinite","votingDelay()":"1166","votingPeriod()":"1167"}},"methodIdentifiers":{"admin()":"f851a440","guardian()":"452a9320","implementation()":"5c60da1b","initialProposalId()":"fc4eee42","latestProposalIds(address)":"17977c61","nwlVault()":"0221b90e","pendingAdmin()":"26782247","proposalCount()":"da35c664","proposalMaxOperations()":"7bdbe4d0","proposalThreshold()":"b58131b0","proposals(uint256)":"013cf08b","timelock()":"d33219b4","votingDelay()":"3932abb1","votingPeriod()":"02a251a3"}},"storageLayout":{"storage":[{"astId":1671,"contract":"contracts/Governance/GovernorBravoInterfaces.sol:GovernorBravoDelegateStorageV1","label":"admin","offset":0,"slot":"0","type":"t_address"},{"astId":1673,"contract":"contracts/Governance/GovernorBravoInterfaces.sol:GovernorBravoDelegateStorageV1","label":"pendingAdmin","offset":0,"slot":"1","type":"t_address"},{"astId":1675,"contract":"contracts/Governance/GovernorBravoInterfaces.sol:GovernorBravoDelegateStorageV1","label":"implementation","offset":0,"slot":"2","type":"t_address"},{"astId":1680,"contract":"contracts/Governance/GovernorBravoInterfaces.sol:GovernorBravoDelegateStorageV1","label":"votingDelay","offset":0,"slot":"3","type":"t_uint256"},{"astId":1682,"contract":"contracts/Governance/GovernorBravoInterfaces.sol:GovernorBravoDelegateStorageV1","label":"votingPeriod","offset":0,"slot":"4","type":"t_uint256"},{"astId":1684,"contract":"contracts/Governance/GovernorBravoInterfaces.sol:GovernorBravoDelegateStorageV1","label":"proposalThreshold","offset":0,"slot":"5","type":"t_uint256"},{"astId":1686,"contract":"contracts/Governance/GovernorBravoInterfaces.sol:GovernorBravoDelegateStorageV1","label":"initialProposalId","offset":0,"slot":"6","type":"t_uint256"},{"astId":1688,"contract":"contracts/Governance/GovernorBravoInterfaces.sol:GovernorBravoDelegateStorageV1","label":"proposalCount","offset":0,"slot":"7","type":"t_uint256"},{"astId":1690,"contract":"contracts/Governance/GovernorBravoInterfaces.sol:GovernorBravoDelegateStorageV1","label":"timelock","offset":0,"slot":"8","type":"t_contract(TimelockInterface)1846"},{"astId":1692,"contract":"contracts/Governance/GovernorBravoInterfaces.sol:GovernorBravoDelegateStorageV1","label":"nwlVault","offset":0,"slot":"9","type":"t_contract(NwlVaultInterface)1856"},{"astId":1696,"contract":"contracts/Governance/GovernorBravoInterfaces.sol:GovernorBravoDelegateStorageV1","label":"proposals","offset":0,"slot":"10","type":"t_mapping(t_uint256,t_struct(Proposal)1739_storage)"},{"astId":1700,"contract":"contracts/Governance/GovernorBravoInterfaces.sol:GovernorBravoDelegateStorageV1","label":"latestProposalIds","offset":0,"slot":"11","type":"t_mapping(t_address,t_uint256)"},{"astId":1757,"contract":"contracts/Governance/GovernorBravoInterfaces.sol:GovernorBravoDelegateStorageV1","label":"proposalMaxOperations","offset":0,"slot":"12","type":"t_uint256"},{"astId":1759,"contract":"contracts/Governance/GovernorBravoInterfaces.sol:GovernorBravoDelegateStorageV1","label":"guardian","offset":0,"slot":"13","type":"t_address"}],"types":{"t_address":{"encoding":"inplace","label":"address","numberOfBytes":"20"},"t_array(t_address)dyn_storage":{"base":"t_address","encoding":"dynamic_array","label":"address[]","numberOfBytes":"32"},"t_array(t_bytes_storage)dyn_storage":{"base":"t_bytes_storage","encoding":"dynamic_array","label":"bytes[]","numberOfBytes":"32"},"t_array(t_string_storage)dyn_storage":{"base":"t_string_storage","encoding":"dynamic_array","label":"string[]","numberOfBytes":"32"},"t_array(t_uint256)dyn_storage":{"base":"t_uint256","encoding":"dynamic_array","label":"uint256[]","numberOfBytes":"32"},"t_bool":{"encoding":"inplace","label":"bool","numberOfBytes":"1"},"t_bytes_storage":{"encoding":"bytes","label":"bytes","numberOfBytes":"32"},"t_contract(NwlVaultInterface)1856":{"encoding":"inplace","label":"contract NwlVaultInterface","numberOfBytes":"20"},"t_contract(TimelockInterface)1846":{"encoding":"inplace","label":"contract TimelockInterface","numberOfBytes":"20"},"t_mapping(t_address,t_struct(Receipt)1746_storage)":{"encoding":"mapping","key":"t_address","label":"mapping(address => struct GovernorBravoDelegateStorageV1.Receipt)","numberOfBytes":"32","value":"t_struct(Receipt)1746_storage"},"t_mapping(t_address,t_uint256)":{"encoding":"mapping","key":"t_address","label":"mapping(address => uint256)","numberOfBytes":"32","value":"t_uint256"},"t_mapping(t_uint256,t_struct(Proposal)1739_storage)":{"encoding":"mapping","key":"t_uint256","label":"mapping(uint256 => struct GovernorBravoDelegateStorageV1.Proposal)","numberOfBytes":"32","value":"t_struct(Proposal)1739_storage"},"t_string_storage":{"encoding":"bytes","label":"string","numberOfBytes":"32"},"t_struct(Proposal)1739_storage":{"encoding":"inplace","label":"struct GovernorBravoDelegateStorageV1.Proposal","members":[{"astId":1702,"contract":"contracts/Governance/GovernorBravoInterfaces.sol:GovernorBravoDelegateStorageV1","label":"id","offset":0,"slot":"0","type":"t_uint256"},{"astId":1704,"contract":"contracts/Governance/GovernorBravoInterfaces.sol:GovernorBravoDelegateStorageV1","label":"proposer","offset":0,"slot":"1","type":"t_address"},{"astId":1706,"contract":"contracts/Governance/GovernorBravoInterfaces.sol:GovernorBravoDelegateStorageV1","label":"eta","offset":0,"slot":"2","type":"t_uint256"},{"astId":1709,"contract":"contracts/Governance/GovernorBravoInterfaces.sol:GovernorBravoDelegateStorageV1","label":"targets","offset":0,"slot":"3","type":"t_array(t_address)dyn_storage"},{"astId":1712,"contract":"contracts/Governance/GovernorBravoInterfaces.sol:GovernorBravoDelegateStorageV1","label":"values","offset":0,"slot":"4","type":"t_array(t_uint256)dyn_storage"},{"astId":1715,"contract":"contracts/Governance/GovernorBravoInterfaces.sol:GovernorBravoDelegateStorageV1","label":"signatures","offset":0,"slot":"5","type":"t_array(t_string_storage)dyn_storage"},{"astId":1718,"contract":"contracts/Governance/GovernorBravoInterfaces.sol:GovernorBravoDelegateStorageV1","label":"calldatas","offset":0,"slot":"6","type":"t_array(t_bytes_storage)dyn_storage"},{"astId":1720,"contract":"contracts/Governance/GovernorBravoInterfaces.sol:GovernorBravoDelegateStorageV1","label":"startBlock","offset":0,"slot":"7","type":"t_uint256"},{"astId":1722,"contract":"contracts/Governance/GovernorBravoInterfaces.sol:GovernorBravoDelegateStorageV1","label":"endBlock","offset":0,"slot":"8","type":"t_uint256"},{"astId":1724,"contract":"contracts/Governance/GovernorBravoInterfaces.sol:GovernorBravoDelegateStorageV1","label":"forVotes","offset":0,"slot":"9","type":"t_uint256"},{"astId":1726,"contract":"contracts/Governance/GovernorBravoInterfaces.sol:GovernorBravoDelegateStorageV1","label":"againstVotes","offset":0,"slot":"10","type":"t_uint256"},{"astId":1728,"contract":"contracts/Governance/GovernorBravoInterfaces.sol:GovernorBravoDelegateStorageV1","label":"abstainVotes","offset":0,"slot":"11","type":"t_uint256"},{"astId":1730,"contract":"contracts/Governance/GovernorBravoInterfaces.sol:GovernorBravoDelegateStorageV1","label":"canceled","offset":0,"slot":"12","type":"t_bool"},{"astId":1732,"contract":"contracts/Governance/GovernorBravoInterfaces.sol:GovernorBravoDelegateStorageV1","label":"executed","offset":1,"slot":"12","type":"t_bool"},{"astId":1736,"contract":"contracts/Governance/GovernorBravoInterfaces.sol:GovernorBravoDelegateStorageV1","label":"receipts","offset":0,"slot":"13","type":"t_mapping(t_address,t_struct(Receipt)1746_storage)"},{"astId":1738,"contract":"contracts/Governance/GovernorBravoInterfaces.sol:GovernorBravoDelegateStorageV1","label":"proposalType","offset":0,"slot":"14","type":"t_uint8"}],"numberOfBytes":"480"},"t_struct(Receipt)1746_storage":{"encoding":"inplace","label":"struct GovernorBravoDelegateStorageV1.Receipt","members":[{"astId":1741,"contract":"contracts/Governance/GovernorBravoInterfaces.sol:GovernorBravoDelegateStorageV1","label":"hasVoted","offset":0,"slot":"0","type":"t_bool"},{"astId":1743,"contract":"contracts/Governance/GovernorBravoInterfaces.sol:GovernorBravoDelegateStorageV1","label":"support","offset":1,"slot":"0","type":"t_uint8"},{"astId":1745,"contract":"contracts/Governance/GovernorBravoInterfaces.sol:GovernorBravoDelegateStorageV1","label":"votes","offset":2,"slot":"0","type":"t_uint96"}],"numberOfBytes":"32"},"t_uint256":{"encoding":"inplace","label":"uint256","numberOfBytes":"32"},"t_uint8":{"encoding":"inplace","label":"uint8","numberOfBytes":"1"},"t_uint96":{"encoding":"inplace","label":"uint96","numberOfBytes":"12"}}},"userdoc":{"methods":{},"notice":"For future upgrades, do not change GovernorBravoDelegateStorageV1. Create a new contract which implements GovernorBravoDelegateStorageV1 and following the naming convention GovernorBravoDelegateStorageVX."}}}}