{"contracts/Governance/GovernorBravoDelegate.sol":{"GovernorBravoDelegate":{"abi":[{"anonymous":false,"inputs":[{"indexed":false,"internalType":"address","name":"oldAdmin","type":"address"},{"indexed":false,"internalType":"address","name":"newAdmin","type":"address"}],"name":"NewAdmin","type":"event"},{"anonymous":false,"inputs":[{"indexed":false,"internalType":"address","name":"oldGuardian","type":"address"},{"indexed":false,"internalType":"address","name":"newGuardian","type":"address"}],"name":"NewGuardian","type":"event"},{"anonymous":false,"inputs":[{"indexed":false,"internalType":"address","name":"oldImplementation","type":"address"},{"indexed":false,"internalType":"address","name":"newImplementation","type":"address"}],"name":"NewImplementation","type":"event"},{"anonymous":false,"inputs":[{"indexed":false,"internalType":"address","name":"oldPendingAdmin","type":"address"},{"indexed":false,"internalType":"address","name":"newPendingAdmin","type":"address"}],"name":"NewPendingAdmin","type":"event"},{"anonymous":false,"inputs":[{"indexed":false,"internalType":"uint256","name":"id","type":"uint256"}],"name":"ProposalCanceled","type":"event"},{"anonymous":false,"inputs":[{"indexed":false,"internalType":"uint256","name":"id","type":"uint256"},{"indexed":false,"internalType":"address","name":"proposer","type":"address"},{"indexed":false,"internalType":"address[]","name":"targets","type":"address[]"},{"indexed":false,"internalType":"uint256[]","name":"values","type":"uint256[]"},{"indexed":false,"internalType":"string[]","name":"signatures","type":"string[]"},{"indexed":false,"internalType":"bytes[]","name":"calldatas","type":"bytes[]"},{"indexed":false,"internalType":"uint256","name":"startBlock","type":"uint256"},{"indexed":false,"internalType":"uint256","name":"endBlock","type":"uint256"},{"indexed":false,"internalType":"string","name":"description","type":"string"},{"indexed":false,"internalType":"uint8","name":"proposalType","type":"uint8"}],"name":"ProposalCreated","type":"event"},{"anonymous":false,"inputs":[{"indexed":false,"internalType":"uint256","name":"id","type":"uint256"}],"name":"ProposalExecuted","type":"event"},{"anonymous":false,"inputs":[{"indexed":false,"internalType":"uint256","name":"oldMaxOperations","type":"uint256"},{"indexed":false,"internalType":"uint256","name":"newMaxOperations","type":"uint256"}],"name":"ProposalMaxOperationsUpdated","type":"event"},{"anonymous":false,"inputs":[{"indexed":false,"internalType":"uint256","name":"id","type":"uint256"},{"indexed":false,"internalType":"uint256","name":"eta","type":"uint256"}],"name":"ProposalQueued","type":"event"},{"anonymous":false,"inputs":[{"indexed":false,"internalType":"uint256","name":"oldProposalThreshold","type":"uint256"},{"indexed":false,"internalType":"uint256","name":"newProposalThreshold","type":"uint256"}],"name":"ProposalThresholdSet","type":"event"},{"anonymous":false,"inputs":[{"indexed":true,"internalType":"address","name":"voter","type":"address"},{"indexed":false,"internalType":"uint256","name":"proposalId","type":"uint256"},{"indexed":false,"internalType":"uint8","name":"support","type":"uint8"},{"indexed":false,"internalType":"uint256","name":"votes","type":"uint256"},{"indexed":false,"internalType":"string","name":"reason","type":"string"}],"name":"VoteCast","type":"event"},{"anonymous":false,"inputs":[{"indexed":false,"internalType":"uint256","name":"oldVotingDelay","type":"uint256"},{"indexed":false,"internalType":"uint256","name":"newVotingDelay","type":"uint256"}],"name":"VotingDelaySet","type":"event"},{"anonymous":false,"inputs":[{"indexed":false,"internalType":"uint256","name":"oldVotingPeriod","type":"uint256"},{"indexed":false,"internalType":"uint256","name":"newVotingPeriod","type":"uint256"}],"name":"VotingPeriodSet","type":"event"},{"constant":true,"inputs":[],"name":"BALLOT_TYPEHASH","outputs":[{"internalType":"bytes32","name":"","type":"bytes32"}],"payable":false,"stateMutability":"view","type":"function"},{"constant":true,"inputs":[],"name":"DOMAIN_TYPEHASH","outputs":[{"internalType":"bytes32","name":"","type":"bytes32"}],"payable":false,"stateMutability":"view","type":"function"},{"constant":true,"inputs":[],"name":"MAX_PROPOSAL_THRESHOLD","outputs":[{"internalType":"uint256","name":"","type":"uint256"}],"payable":false,"stateMutability":"view","type":"function"},{"constant":true,"inputs":[],"name":"MAX_VOTING_DELAY","outputs":[{"internalType":"uint256","name":"","type":"uint256"}],"payable":false,"stateMutability":"view","type":"function"},{"constant":true,"inputs":[],"name":"MAX_VOTING_PERIOD","outputs":[{"internalType":"uint256","name":"","type":"uint256"}],"payable":false,"stateMutability":"view","type":"function"},{"constant":true,"inputs":[],"name":"MIN_PROPOSAL_THRESHOLD","outputs":[{"internalType":"uint256","name":"","type":"uint256"}],"payable":false,"stateMutability":"view","type":"function"},{"constant":true,"inputs":[],"name":"MIN_VOTING_DELAY","outputs":[{"internalType":"uint256","name":"","type":"uint256"}],"payable":false,"stateMutability":"view","type":"function"},{"constant":true,"inputs":[],"name":"MIN_VOTING_PERIOD","outputs":[{"internalType":"uint256","name":"","type":"uint256"}],"payable":false,"stateMutability":"view","type":"function"},{"constant":false,"inputs":[],"name":"_acceptAdmin","outputs":[],"payable":false,"stateMutability":"nonpayable","type":"function"},{"constant":false,"inputs":[{"internalType":"address","name":"governorAlpha","type":"address"}],"name":"_initiate","outputs":[],"payable":false,"stateMutability":"nonpayable","type":"function"},{"constant":false,"inputs":[{"internalType":"address","name":"newGuardian","type":"address"}],"name":"_setGuardian","outputs":[],"payable":false,"stateMutability":"nonpayable","type":"function"},{"constant":false,"inputs":[{"internalType":"address","name":"newPendingAdmin","type":"address"}],"name":"_setPendingAdmin","outputs":[],"payable":false,"stateMutability":"nonpayable","type":"function"},{"constant":false,"inputs":[{"internalType":"uint256","name":"proposalMaxOperations_","type":"uint256"}],"name":"_setProposalMaxOperations","outputs":[],"payable":false,"stateMutability":"nonpayable","type":"function"},{"constant":true,"inputs":[],"name":"admin","outputs":[{"internalType":"address","name":"","type":"address"}],"payable":false,"stateMutability":"view","type":"function"},{"constant":false,"inputs":[{"internalType":"uint256","name":"proposalId","type":"uint256"}],"name":"cancel","outputs":[],"payable":false,"stateMutability":"nonpayable","type":"function"},{"constant":false,"inputs":[{"internalType":"uint256","name":"proposalId","type":"uint256"},{"internalType":"uint8","name":"support","type":"uint8"}],"name":"castVote","outputs":[],"payable":false,"stateMutability":"nonpayable","type":"function"},{"constant":false,"inputs":[{"internalType":"uint256","name":"proposalId","type":"uint256"},{"internalType":"uint8","name":"support","type":"uint8"},{"internalType":"uint8","name":"v","type":"uint8"},{"internalType":"bytes32","name":"r","type":"bytes32"},{"internalType":"bytes32","name":"s","type":"bytes32"}],"name":"castVoteBySig","outputs":[],"payable":false,"stateMutability":"nonpayable","type":"function"},{"constant":false,"inputs":[{"internalType":"uint256","name":"proposalId","type":"uint256"},{"internalType":"uint8","name":"support","type":"uint8"},{"internalType":"string","name":"reason","type":"string"}],"name":"castVoteWithReason","outputs":[],"payable":false,"stateMutability":"nonpayable","type":"function"},{"constant":false,"inputs":[{"internalType":"uint256","name":"proposalId","type":"uint256"}],"name":"execute","outputs":[],"payable":false,"stateMutability":"nonpayable","type":"function"},{"constant":true,"inputs":[{"internalType":"uint256","name":"proposalId","type":"uint256"}],"name":"getActions","outputs":[{"internalType":"address[]","name":"targets","type":"address[]"},{"internalType":"uint256[]","name":"values","type":"uint256[]"},{"internalType":"string[]","name":"signatures","type":"string[]"},{"internalType":"bytes[]","name":"calldatas","type":"bytes[]"}],"payable":false,"stateMutability":"view","type":"function"},{"constant":true,"inputs":[{"internalType":"uint256","name":"proposalId","type":"uint256"},{"internalType":"address","name":"voter","type":"address"}],"name":"getReceipt","outputs":[{"components":[{"internalType":"bool","name":"hasVoted","type":"bool"},{"internalType":"uint8","name":"support","type":"uint8"},{"internalType":"uint96","name":"votes","type":"uint96"}],"internalType":"struct GovernorBravoDelegateStorageV1.Receipt","name":"","type":"tuple"}],"payable":false,"stateMutability":"view","type":"function"},{"constant":true,"inputs":[],"name":"guardian","outputs":[{"internalType":"address","name":"","type":"address"}],"payable":false,"stateMutability":"view","type":"function"},{"constant":true,"inputs":[],"name":"implementation","outputs":[{"internalType":"address","name":"","type":"address"}],"payable":false,"stateMutability":"view","type":"function"},{"constant":true,"inputs":[],"name":"initialProposalId","outputs":[{"internalType":"uint256","name":"","type":"uint256"}],"payable":false,"stateMutability":"view","type":"function"},{"constant":false,"inputs":[{"internalType":"address","name":"nwlVault_","type":"address"},{"components":[{"internalType":"uint256","name":"votingDelay","type":"uint256"},{"internalType":"uint256","name":"votingPeriod","type":"uint256"},{"internalType":"uint256","name":"proposalThreshold","type":"uint256"}],"internalType":"struct GovernorBravoDelegateStorageV2.ProposalConfig[]","name":"proposalConfigs_","type":"tuple[]"},{"internalType":"contract TimelockInterface[]","name":"timelocks","type":"address[]"},{"internalType":"address","name":"guardian_","type":"address"}],"name":"initialize","outputs":[],"payable":false,"stateMutability":"nonpayable","type":"function"},{"constant":true,"inputs":[{"internalType":"address","name":"","type":"address"}],"name":"latestProposalIds","outputs":[{"internalType":"uint256","name":"","type":"uint256"}],"payable":false,"stateMutability":"view","type":"function"},{"constant":true,"inputs":[],"name":"name","outputs":[{"internalType":"string","name":"","type":"string"}],"payable":false,"stateMutability":"view","type":"function"},{"constant":true,"inputs":[],"name":"nwlVault","outputs":[{"internalType":"contract NwlVaultInterface","name":"","type":"address"}],"payable":false,"stateMutability":"view","type":"function"},{"constant":true,"inputs":[],"name":"pendingAdmin","outputs":[{"internalType":"address","name":"","type":"address"}],"payable":false,"stateMutability":"view","type":"function"},{"constant":true,"inputs":[{"internalType":"uint256","name":"","type":"uint256"}],"name":"proposalConfigs","outputs":[{"internalType":"uint256","name":"votingDelay","type":"uint256"},{"internalType":"uint256","name":"votingPeriod","type":"uint256"},{"internalType":"uint256","name":"proposalThreshold","type":"uint256"}],"payable":false,"stateMutability":"view","type":"function"},{"constant":true,"inputs":[],"name":"proposalCount","outputs":[{"internalType":"uint256","name":"","type":"uint256"}],"payable":false,"stateMutability":"view","type":"function"},{"constant":true,"inputs":[],"name":"proposalMaxOperations","outputs":[{"internalType":"uint256","name":"","type":"uint256"}],"payable":false,"stateMutability":"view","type":"function"},{"constant":true,"inputs":[],"name":"proposalThreshold","outputs":[{"internalType":"uint256","name":"","type":"uint256"}],"payable":false,"stateMutability":"view","type":"function"},{"constant":true,"inputs":[{"internalType":"uint256","name":"","type":"uint256"}],"name":"proposalTimelocks","outputs":[{"internalType":"contract TimelockInterface","name":"","type":"address"}],"payable":false,"stateMutability":"view","type":"function"},{"constant":true,"inputs":[{"internalType":"uint256","name":"","type":"uint256"}],"name":"proposals","outputs":[{"internalType":"uint256","name":"id","type":"uint256"},{"internalType":"address","name":"proposer","type":"address"},{"internalType":"uint256","name":"eta","type":"uint256"},{"internalType":"uint256","name":"startBlock","type":"uint256"},{"internalType":"uint256","name":"endBlock","type":"uint256"},{"internalType":"uint256","name":"forVotes","type":"uint256"},{"internalType":"uint256","name":"againstVotes","type":"uint256"},{"internalType":"uint256","name":"abstainVotes","type":"uint256"},{"internalType":"bool","name":"canceled","type":"bool"},{"internalType":"bool","name":"executed","type":"bool"},{"internalType":"uint8","name":"proposalType","type":"uint8"}],"payable":false,"stateMutability":"view","type":"function"},{"constant":false,"inputs":[{"internalType":"address[]","name":"targets","type":"address[]"},{"internalType":"uint256[]","name":"values","type":"uint256[]"},{"internalType":"string[]","name":"signatures","type":"string[]"},{"internalType":"bytes[]","name":"calldatas","type":"bytes[]"},{"internalType":"string","name":"description","type":"string"},{"internalType":"enum GovernorBravoDelegateStorageV2.ProposalType","name":"proposalType","type":"uint8"}],"name":"propose","outputs":[{"internalType":"uint256","name":"","type":"uint256"}],"payable":false,"stateMutability":"nonpayable","type":"function"},{"constant":false,"inputs":[{"internalType":"uint256","name":"proposalId","type":"uint256"}],"name":"queue","outputs":[],"payable":false,"stateMutability":"nonpayable","type":"function"},{"constant":true,"inputs":[],"name":"quorumVotes","outputs":[{"internalType":"uint256","name":"","type":"uint256"}],"payable":false,"stateMutability":"view","type":"function"},{"constant":true,"inputs":[{"internalType":"uint256","name":"proposalId","type":"uint256"}],"name":"state","outputs":[{"internalType":"enum GovernorBravoDelegateStorageV1.ProposalState","name":"","type":"uint8"}],"payable":false,"stateMutability":"view","type":"function"},{"constant":true,"inputs":[],"name":"timelock","outputs":[{"internalType":"contract TimelockInterface","name":"","type":"address"}],"payable":false,"stateMutability":"view","type":"function"},{"constant":true,"inputs":[],"name":"votingDelay","outputs":[{"internalType":"uint256","name":"","type":"uint256"}],"payable":false,"stateMutability":"view","type":"function"},{"constant":true,"inputs":[],"name":"votingPeriod","outputs":[{"internalType":"uint256","name":"","type":"uint256"}],"payable":false,"stateMutability":"view","type":"function"}],"devdoc":{"methods":{"_acceptAdmin()":{"details":"Admin function for pending admin to accept role and update admin"},"_initiate(address)":{"details":"Admin only. Sets initial proposal id which initiates the contract, ensuring a continuous proposal id count","params":{"governorAlpha":"The address for the Governor to continue the proposal id count from"}},"_setGuardian(address)":{"params":{"newGuardian":"the address of the new guardian"}},"_setPendingAdmin(address)":{"details":"Admin function to begin change of admin. The newPendingAdmin must call `_acceptAdmin` to finalize the transfer.","params":{"newPendingAdmin":"New pending admin."}},"_setProposalMaxOperations(uint256)":{"details":"Admin only.","params":{"proposalMaxOperations_":"Max proposal operations"}},"cancel(uint256)":{"params":{"proposalId":"The id of the proposal to cancel"}},"castVote(uint256,uint8)":{"params":{"proposalId":"The id of the proposal to vote on","support":"The support value for the vote. 0=against, 1=for, 2=abstain"}},"castVoteBySig(uint256,uint8,uint8,bytes32,bytes32)":{"details":"External function that accepts EIP-712 signatures for voting on proposals."},"castVoteWithReason(uint256,uint8,string)":{"params":{"proposalId":"The id of the proposal to vote on","reason":"The reason given for the vote by the voter","support":"The support value for the vote. 0=against, 1=for, 2=abstain"}},"execute(uint256)":{"params":{"proposalId":"The id of the proposal to execute"}},"getActions(uint256)":{"params":{"proposalId":"the id of the proposal"},"return":"Targets, values, signatures, and calldatas of the proposal actions"},"getReceipt(uint256,address)":{"params":{"proposalId":"the id of proposal","voter":"The address of the voter"},"return":"The voting receipt"},"initialize(address,(uint256,uint256,uint256)[],address[],address)":{"params":{"nwlVault_":"The address of the NwlVault","proposalConfigs_":"Governance confifgs for each GovernanceType","timelocks":"Timelock addresses for each GovernanceType"}},"propose(address[],uint256[],string[],bytes[],string,uint8)":{"params":{"calldatas":"Calldatas for proposal calls","description":"String description of the proposal","signatures":"Function signatures for proposal calls","targets":"Target addresses for proposal calls","values":"Eth values for proposal calls"},"return":"Proposal id of new proposal"},"queue(uint256)":{"params":{"proposalId":"The id of the proposal to queue"}},"state(uint256)":{"params":{"proposalId":"The id of the proposal"},"return":"Proposal state"}}},"evm":{"bytecode":{"linkReferences":{},"object":"608060405234801561001057600080fd5b50614990806100206000396000f3fe608060405234801561001057600080fd5b506004361061025e5760003560e01c8063791f5d2311610146578063ddf0b009116100c3578063e9c714f211610087578063e9c714f2146104c2578063ee9799ee146104ca578063f851a440146104dd578063f9d28b80146104e5578063fc4eee42146104f8578063fe0d94c1146105005761025e565b8063ddf0b0091461046c578063deaaa7cc1461047f578063e23a9a5214610487578063e38e8c0f146104a7578063e48083fe146104ba5761025e565b8063b11262631161010a578063b112626314610439578063b58131b014610441578063b71d1a0c14610449578063d33219b41461045c578063da35c664146104645761025e565b8063791f5d23146103fb5780637b3c71d3146104035780637bdbe4d0146104165780639e6f26261461041e578063a64e024a146104315761025e565b806325fd935a116101df5780633bccf4fd116101a35780633bccf4fd146103925780633e4f49e6146103a557806340e58ee5146103c5578063452a9320146103d857806356781388146103e05780635c60da1b146103f35761025e565b806325fd935a146103285780632678224714610330578063328dd9821461034557806335a87de2146103685780633932abb11461038a5761025e565b806317977c611161022657806317977c61146102e85780631ebcfefd146102fb57806320606b7014610310578063215809ca1461031857806324bc1a64146103205761025e565b8063013cf08b146102635780630221b90e1461029657806302a251a3146102ab57806306fdde03146102c0578063164a1ab1146102d5575b600080fd5b610276610271366004612e33565b610513565b60405161028d9b9a9998979695949392919061464a565b60405180910390f35b61029e61057f565b60405161028d91906142e7565b6102b361058e565b60405161028d919061423e565b6102c8610594565b60405161028d9190614303565b6102b36102e3366004612cca565b6105c6565b6102b36102f6366004612c15565b610a83565b61030e610309366004612e33565b610a95565b005b6102b3610b05565b6102b3610b1c565b6102b3610b22565b6102b3610b30565b610338610b3e565b60405161028d919061410e565b610358610353366004612e33565b610b4d565b60405161028d94939291906141f1565b61037b610376366004612e33565b610ddc565b60405161028d939291906146fc565b6102b3610dfd565b61030e6103a0366004612f22565b610e03565b6103b86103b3366004612e33565b610fdd565b60405161028d91906142f5565b61030e6103d3366004612e33565b611177565b61033861140d565b61030e6103ee366004612e8b565b61141c565b610338611466565b6102b3611475565b61030e610411366004612ebb565b611483565b6102b36114d3565b61030e61042c366004612c3b565b6114d9565b6102b361187e565b6102b3611885565b6102b361188c565b61030e610457366004612c15565b611892565b61029e61190f565b6102b361191e565b61030e61047a366004612e33565b611924565b6102b3611bb8565b61049a610495366004612e51565b611bc4565b60405161028d9190614584565b61030e6104b5366004612c15565b611c31565b6102b3611ce9565b61030e611cee565b61029e6104d8366004612e33565b611dcc565b610338611de7565b61030e6104f3366004612c15565b611df6565b6102b3611f3a565b61030e61050e366004612e33565b611f40565b600a60208190526000918252604090912080546001820154600283015460078401546008850154600986015496860154600b870154600c880154600e9098015496986001600160a01b039096169794969395929492939192909160ff808316926101009004811691168b565b6009546001600160a01b031681565b60045481565b604051806040016040528060168152602001754e61727768616c20476f7665726e6f7220427261766f60501b81525081565b6000600654600014156105f45760405162461bcd60e51b81526004016105eb90614354565b60405180910390fd5b600e600083600281111561060457fe5b60ff1681526020810191909152604001600020600201546009546001600160a01b031663782d6fe1336106384360016120f3565b6040518363ffffffff1660e01b815260040161065592919061411c565b60206040518083038186803b15801561066d57600080fd5b505afa158015610681573d6000803e3d6000fd5b505050506040513d601f19601f820116820180604052506106a59190810190612f97565b6001600160601b0316116106cb5760405162461bcd60e51b81526004016105eb906144f4565b855187511480156106dd575084518751145b80156106ea575083518751145b6107065760405162461bcd60e51b81526004016105eb906143c4565b86516107245760405162461bcd60e51b81526004016105eb90614434565b600c54875111156107475760405162461bcd60e51b81526004016105eb90614484565b336000908152600b602052604090205480156107c457600061076882610fdd565b9050600181600781111561077857fe5b14156107965760405162461bcd60e51b81526004016105eb906144d4565b60008160078111156107a457fe5b14156107c25760405162461bcd60e51b81526004016105eb90614494565b505b60006107f443600e60008760028111156107da57fe5b60ff1681526020019081526020016000206000015461211b565b9050600061082682600e600088600281111561080c57fe5b60ff1681526020019081526020016000206001015461211b565b60078054600101905590506108396124be565b604051806101e001604052806007548152602001336001600160a01b03168152602001600081526020018c81526020018b81526020018a81526020018981526020018481526020018381526020016000815260200160008152602001600081526020016000151581526020016000151581526020018760028111156108ba57fe5b60ff16905280516000908152600a602090815260409182902083518155818401516001820180546001600160a01b0319166001600160a01b039092169190911790559183015160028301556060830151805193945084936109219260038501920190612544565b506080820151805161093d9160048401916020909101906125a9565b5060a082015180516109599160058401916020909101906125f0565b5060c08201518051610975916006840191602090910190612649565b5060e082015160078201556101008083015160088301556101208301516009830155610140830151600a830155610160830151600b80840191909155610180840151600c840180546101a087015160ff199182169315159390931761ff0019169215159094029190911790556101c090930151600e909201805490911660ff90921691909117905581516020808401516001600160a01b0316600090815292905260409091205580517fc8df7ff219f3c0358e14500814d8b62b443a4bebf3a596baa60b9295b1cf1bde90338d8d8d8d89898f8f6002811115610a5457fe5b604051610a6a9a99989796959493929190614592565b60405180910390a15193505050505b9695505050505050565b600b6020526000908152604090205481565b6000546001600160a01b03163314610abf5760405162461bcd60e51b81526004016105eb906144a4565b600c8054908290556040517fd03b3c3c5c1446bcdd31423061041c94ca3bc5450fe7ccfb0f636f4c420de87e90610af990839085906146ee565b60405180910390a15050565b604051610b1190614103565b604051809103902081565b610e1081565b697f0e10af47c1c700000081565b693f870857a3e0e380000081565b6001546001600160a01b031681565b6060806060806000600a600087815260200190815260200160002090508060030181600401826005018360060183805480602002602001604051908101604052809291908181526020018280548015610bcf57602002820191906000526020600020905b81546001600160a01b03168152600190910190602001808311610bb1575b5050505050935082805480602002602001604051908101604052809291908181526020018280548015610c2157602002820191906000526020600020905b815481526020019060010190808311610c0d575b5050505050925081805480602002602001604051908101604052809291908181526020016000905b82821015610cf45760008481526020908190208301805460408051601f6002600019610100600187161502019094169390930492830185900485028101850190915281815292830182828015610ce05780601f10610cb557610100808354040283529160200191610ce0565b820191906000526020600020905b815481529060010190602001808311610cc357829003601f168201915b505050505081526020019060010190610c49565b50505050915080805480602002602001604051908101604052809291908181526020016000905b82821015610dc65760008481526020908190208301805460408051601f6002600019610100600187161502019094169390930492830185900485028101850190915281815292830182828015610db25780601f10610d8757610100808354040283529160200191610db2565b820191906000526020600020905b815481529060010190602001808311610d9557829003601f168201915b505050505081526020019060010190610d1b565b5050505090509450945094509450509193509193565b600e6020526000908152604090208054600182015460029092015490919083565b60035481565b6000604051610e1190614103565b6040805191829003822082820190915260168252754e61727768616c20476f7665726e6f7220427261766f60501b6020909201919091527fa5913e215ee7a5382aef35ee6d8d427767bf65220256f1fa33acd6ed760b9e0f610e71612147565b30604051602001610e85949392919061424c565b6040516020818303038152906040528051906020012090506000604051610eab906140c7565b604051908190038120610ec4918990899060200161428a565b60405160208183030381529060405280519060200120905060008282604051602001610ef19291906140d2565b604051602081830303815290604052805190602001209050600060018288888860405160008152602001604052604051610f2e94939291906142b2565b6020604051602081039080840390855afa158015610f50573d6000803e3d6000fd5b5050604051601f1901519150506001600160a01b038116610f835760405162461bcd60e51b81526004016105eb906143b4565b806001600160a01b03167fb8e138887d0aa13bab447e82de9d5c1777041ecd21ca36ba824ff1e6c07ddda48a8a610fbb858e8e61214c565b604051610fca9392919061476a565b60405180910390a2505050505050505050565b60008160075410158015610ff2575060065482115b61100e5760405162461bcd60e51b81526004016105eb90614514565b6000828152600a60205260409020600c81015460ff1615611033576002915050611172565b80600701544311611048576000915050611172565b8060080154431161105d576001915050611172565b80600a015481600901541115806110815750697f0e10af47c1c70000008160090154105b15611090576003915050611172565b60028101546110a3576004915050611172565b600c810154610100900460ff16156110bf576007915050611172565b6002810154600e82015460ff166000908152600f60209081526040918290205482516360d143f160e11b8152925161115c94936001600160a01b039092169263c1a287e29260048082019391829003018186803b15801561111f57600080fd5b505afa158015611133573d6000803e3d6000fd5b505050506040513d601f19601f820116820180604052506111579190810190612de1565b61211b565b421061116c576006915050611172565b60059150505b919050565b600761118282610fdd565b600781111561118d57fe5b14156111ab5760405162461bcd60e51b81526004016105eb90614504565b6000818152600a60205260409020600d546001600160a01b03163314806111de575060018101546001600160a01b031633145b806112a15750600e8181015460ff16600090815260209190915260409020600201546009546001808401546001600160a01b039283169263782d6fe1929116906112299043906120f3565b6040518363ffffffff1660e01b8152600401611246929190614152565b60206040518083038186803b15801561125e57600080fd5b505afa158015611272573d6000803e3d6000fd5b505050506040513d601f19601f820116820180604052506112969190810190612f97565b6001600160601b0316105b6112bd5760405162461bcd60e51b81526004016105eb90614464565b600c8101805460ff1916600117905560005b60038201548110156113dd57600e82015460ff166000908152600f60205260409020546003830180546001600160a01b039092169163591fcdfe91908490811061131557fe5b6000918252602090912001546004850180546001600160a01b03909216918590811061133d57fe5b906000526020600020015485600501858154811061135757fe5b9060005260206000200186600601868154811061137057fe5b9060005260206000200187600201546040518663ffffffff1660e01b815260040161139f9594939291906141b0565b600060405180830381600087803b1580156113b957600080fd5b505af11580156113cd573d6000803e3d6000fd5b5050600190920191506112cf9050565b507f789cf55be980739dad1d0699b93b58e806b51c9d96619bfa8fe0a28abaa7b30c82604051610af9919061423e565b600d546001600160a01b031681565b337fb8e138887d0aa13bab447e82de9d5c1777041ecd21ca36ba824ff1e6c07ddda4838361144b84838361214c565b60405161145a9392919061476a565b60405180910390a25050565b6002546001600160a01b031681565b691fc3842bd1f071c0000081565b337fb8e138887d0aa13bab447e82de9d5c1777041ecd21ca36ba824ff1e6c07ddda485856114b284838361214c565b86866040516114c5959493929190614724565b60405180910390a250505050565b600c5481565b60008052600f6020527ff4803e074bd026baaf6ed2e288c9515f68c72fb7216eebdd7cae1718a53ec375546001600160a01b03161561152a5760405162461bcd60e51b81526004016105eb906143e4565b6000546001600160a01b031633146115545760405162461bcd60e51b81526004016105eb906143d4565b6001600160a01b03841661157a5760405162461bcd60e51b81526004016105eb90614424565b6001600160a01b0381166115a05760405162461bcd60e51b81526004016105eb90614474565b81516003146115c15760405162461bcd60e51b81526004016105eb90614344565b82516003146115e25760405162461bcd60e51b81526004016105eb90614524565b600980546001600160a01b038087166001600160a01b031992831617909255600a600c55600d80549284169290911691909117905560005b835181101561187757600084828151811061163157fe5b6020026020010151602001519050610e1085838151811061164e57fe5b60200260200101516020015110156116785760405162461bcd60e51b81526004016105eb90614394565b6206270085838151811061168857fe5b60200260200101516020015111156116b25760405162461bcd60e51b81526004016105eb90614564565b60018583815181106116c057fe5b60200260200101516000015110156116ea5760405162461bcd60e51b81526004016105eb90614454565b620313808583815181106116fa57fe5b60200260200101516000015111156117245760405162461bcd60e51b81526004016105eb906144c4565b691fc3842bd1f071c0000085838151811061173b57fe5b60200260200101516040015110156117655760405162461bcd60e51b81526004016105eb90614364565b693f870857a3e0e380000085838151811061177c57fe5b60200260200101516040015111156117a65760405162461bcd60e51b81526004016105eb90614574565b60006001600160a01b03168483815181106117bd57fe5b60200260200101516001600160a01b031614156117ec5760405162461bcd60e51b81526004016105eb906144b4565b8482815181106117f857fe5b6020908102919091018101516000848152600e8352604090819020825181559282015160018401550151600290910155835184908390811061183657fe5b6020908102919091018101516000848152600f909252604090912080546001600160a01b0319166001600160a01b039092169190911790555060010161161a565b5050505050565b6206270081565b6203138081565b60055481565b6000546001600160a01b031633146118bc5760405162461bcd60e51b81526004016105eb90614324565b600180546001600160a01b038381166001600160a01b03198316179092556040519116907fca4f2f25d0898edd99413412fb94012f9e54ec8142f9b093e7720646a95b16a990610af99083908590614137565b6008546001600160a01b031681565b60075481565b600461192f82610fdd565b600781111561193a57fe5b146119575760405162461bcd60e51b81526004016105eb906143f4565b6000818152600a60209081526040808320600e81015460ff168452600f8352818420548251630d48571f60e31b815292519194936119c09342936001600160a01b0390931692636a42b8f892600480840193919291829003018186803b15801561111f57600080fd5b905060005b6003830154811015611b7157611b698360030182815481106119e357fe5b6000918252602090912001546004850180546001600160a01b039092169184908110611a0b57fe5b9060005260206000200154856005018481548110611a2557fe5b600091825260209182902001805460408051601f6002600019610100600187161502019094169390930492830185900485028101850190915281815292830182828015611ab35780601f10611a8857610100808354040283529160200191611ab3565b820191906000526020600020905b815481529060010190602001808311611a9657829003601f168201915b5050505050866006018581548110611ac757fe5b600091825260209182902001805460408051601f6002600019610100600187161502019094169390930492830185900485028101850190915281815292830182828015611b555780601f10611b2a57610100808354040283529160200191611b55565b820191906000526020600020905b815481529060010190602001808311611b3857829003601f168201915b50505050600e89015488915060ff1661233c565b6001016119c5565b50600282018190556040517f9a2e42fd6722813d69113e7d0079d3d940171428df7373df9c7f7617cfda289290611bab90859084906146ee565b60405180910390a1505050565b604051610b11906140c7565b611bcc6126a2565b506000828152600a602090815260408083206001600160a01b0385168452600d018252918290208251606081018452905460ff8082161515835261010082041692820192909252620100009091046001600160601b0316918101919091525b92915050565b600d546001600160a01b0316331480611c5457506000546001600160a01b031633145b611c705760405162461bcd60e51b81526004016105eb90614544565b6001600160a01b038116611c965760405162461bcd60e51b81526004016105eb90614534565b600d80546001600160a01b038381166001600160a01b03198316179092556040519116907f08fdaf06427a2010e5958f4329b566993472d14ce81d3f16ce7f2a2660da98e390610af99083908590614137565b600181565b6001546001600160a01b031633148015611d0757503315155b611d235760405162461bcd60e51b81526004016105eb90614444565b60008054600180546001600160a01b038082166001600160a01b03198086168217968790559092169092556040519282169390927ff9ffabca9c8276e99321725bcb43fb076a6c66a54b7f21c4e8146d8519b417dc92611d87928692911690614137565b60405180910390a16001546040517fca4f2f25d0898edd99413412fb94012f9e54ec8142f9b093e7720646a95b16a991610af99184916001600160a01b031690614137565b600f602052600090815260409020546001600160a01b031681565b6000546001600160a01b031681565b6000546001600160a01b03163314611e205760405162461bcd60e51b81526004016105eb906144e4565b60065415611e405760405162461bcd60e51b81526004016105eb90614414565b806001600160a01b031663da35c6646040518163ffffffff1660e01b8152600401602060405180830381600087803b158015611e7b57600080fd5b505af1158015611e8f573d6000803e3d6000fd5b505050506040513d601f19601f82011682018060405250611eb39190810190612de1565b600781905560065560005b6003811015611f36576000818152600f6020526040808220548151630e18b68160e01b815291516001600160a01b0390911692630e18b681926004808201939182900301818387803b158015611f1357600080fd5b505af1158015611f27573d6000803e3d6000fd5b50505050806001019050611ebe565b5050565b60065481565b6005611f4b82610fdd565b6007811115611f5657fe5b14611f735760405162461bcd60e51b81526004016105eb906143a4565b6000818152600a60205260408120600c8101805461ff001916610100179055905b60038201548110156120c357600e82015460ff166000908152600f60205260409020546003830180546001600160a01b0390921691630825f38f919084908110611fda57fe5b6000918252602090912001546004850180546001600160a01b03909216918590811061200257fe5b906000526020600020015485600501858154811061201c57fe5b9060005260206000200186600601868154811061203557fe5b9060005260206000200187600201546040518663ffffffff1660e01b81526004016120649594939291906141b0565b600060405180830381600087803b15801561207e57600080fd5b505af1158015612092573d6000803e3d6000fd5b505050506040513d6000823e601f3d908101601f191682016040526120ba9190810190612dff565b50600101611f94565b507f712ae1383f79ac853f8d882153778e0260ef8f03b504e2866e0593e04d2b291f82604051610af9919061423e565b6000828211156121155760405162461bcd60e51b81526004016105eb90614554565b50900390565b6000828201838110156121405760405162461bcd60e51b81526004016105eb90614404565b9392505050565b465b90565b6000600161215984610fdd565b600781111561216457fe5b146121815760405162461bcd60e51b81526004016105eb90614374565b60028260ff1611156121a55760405162461bcd60e51b81526004016105eb90614314565b6000838152600a602090815260408083206001600160a01b0388168452600d8101909252909120805460ff16156121ee5760405162461bcd60e51b81526004016105eb90614384565b600954600783015460405163782d6fe160e01b81526000926001600160a01b03169163782d6fe191612224918b91600401614152565b60206040518083038186803b15801561223c57600080fd5b505afa158015612250573d6000803e3d6000fd5b505050506040513d601f19601f820116820180604052506122749190810190612f97565b905060ff851661229f5761229583600a0154826001600160601b031661211b565b600a8401556122f5565b8460ff16600114156122cc576122c28360090154826001600160601b031661211b565b60098401556122f5565b8460ff16600214156122f5576122ef83600b0154826001600160601b031661211b565b600b8401555b8154600160ff199091161761ff00191661010060ff871602176dffffffffffffffffffffffff00001916620100006001600160601b03831602179091559150509392505050565b60ff81166000908152600f60209081526040918290205491516001600160a01b039092169163f2b065379161237b918a918a918a918a918a9101614160565b604051602081830303815290604052805190602001206040518263ffffffff1660e01b81526004016123ad919061423e565b60206040518083038186803b1580156123c557600080fd5b505afa1580156123d9573d6000803e3d6000fd5b505050506040513d601f19601f820116820180604052506123fd9190810190612dc3565b1561241a5760405162461bcd60e51b81526004016105eb90614334565b60ff81166000908152600f602052604090819020549051633a66f90160e01b81526001600160a01b0390911690633a66f901906124639089908990899089908990600401614160565b602060405180830381600087803b15801561247d57600080fd5b505af1158015612491573d6000803e3d6000fd5b505050506040513d601f19601f820116820180604052506124b59190810190612de1565b50505050505050565b604051806101e001604052806000815260200160006001600160a01b0316815260200160008152602001606081526020016060815260200160608152602001606081526020016000815260200160008152602001600081526020016000815260200160008152602001600015158152602001600015158152602001600060ff1681525090565b828054828255906000526020600020908101928215612599579160200282015b8281111561259957825182546001600160a01b0319166001600160a01b03909116178255602090920191600190910190612564565b506125a59291506126c2565b5090565b8280548282559060005260206000209081019282156125e4579160200282015b828111156125e45782518255916020019190600101906125c9565b506125a59291506126e6565b82805482825590600052602060002090810192821561263d579160200282015b8281111561263d578251805161262d918491602090910190612700565b5091602001919060010190612610565b506125a592915061276d565b828054828255906000526020600020908101928215612696579160200282015b828111156126965782518051612686918491602090910190612700565b5091602001919060010190612669565b506125a5929150612790565b604080516060810182526000808252602082018190529181019190915290565b61214991905b808211156125a55780546001600160a01b03191681556001016126c8565b61214991905b808211156125a557600081556001016126ec565b828054600181600116156101000203166002900490600052602060002090601f016020900481019282601f1061274157805160ff19168380011785556125e4565b828001600101855582156125e457918201828111156125e45782518255916020019190600101906125c9565b61214991905b808211156125a557600061278782826127b3565b50600101612773565b61214991905b808211156125a55760006127aa82826127b3565b50600101612796565b50805460018160011615610100020316600290046000825580601f106127d957506127f7565b601f0160209004906000526020600020908101906127f791906126e6565b50565b8035611c2b816148df565b600082601f83011261281657600080fd5b8135612829612824826147c9565b6147a3565b9150818183526020840193506020810190508385602084028201111561284e57600080fd5b60005b8381101561287a578161286488826127fa565b8452506020928301929190910190600101612851565b5050505092915050565b600082601f83011261289557600080fd5b81356128a3612824826147c9565b81815260209384019390925082018360005b8381101561287a57813586016128cb8882612ab1565b84525060209283019291909101906001016128b5565b600082601f8301126128f257600080fd5b8135612900612824826147c9565b9150818183526020840193506020810190508385602084028201111561292557600080fd5b60005b8381101561287a578161293b8882612b46565b8452506020928301929190910190600101612928565b600082601f83011261296257600080fd5b8135612970612824826147c9565b81815260209384019390925082018360005b8381101561287a57813586016129988882612ab1565b8452506020928301929190910190600101612982565b600082601f8301126129bf57600080fd5b81356129cd612824826147c9565b915081818352602084019350602081019050838560608402820111156129f257600080fd5b60005b8381101561287a5781612a088882612ba4565b845250602090920191606091909101906001016129f5565b600082601f830112612a3157600080fd5b8135612a3f612824826147c9565b91508181835260208401935060208101905083856020840282011115612a6457600080fd5b60005b8381101561287a5781612a7a8882612a9b565b8452506020928301929190910190600101612a67565b8051611c2b816148f3565b8035611c2b816148fc565b8051611c2b816148fc565b600082601f830112612ac257600080fd5b8135612ad0612824826147e9565b91508082526020830160208301858383011115612aec57600080fd5b612af7838284614893565b50505092915050565b600082601f830112612b1157600080fd5b8151612b1f612824826147e9565b91508082526020830160208301858383011115612b3b57600080fd5b612af783828461489f565b8035611c2b81614905565b8035611c2b8161490e565b60008083601f840112612b6e57600080fd5b5081356001600160401b03811115612b8557600080fd5b602083019150836001820283011115612b9d57600080fd5b9250929050565b600060608284031215612bb657600080fd5b612bc060606147a3565b90506000612bce8484612a9b565b8252506020612bdf84848301612a9b565b6020830152506040612bf384828501612a9b565b60408301525092915050565b8035611c2b8161491b565b8051611c2b81614924565b600060208284031215612c2757600080fd5b6000612c3384846127fa565b949350505050565b60008060008060808587031215612c5157600080fd5b6000612c5d87876127fa565b94505060208501356001600160401b03811115612c7957600080fd5b612c85878288016129ae565b93505060408501356001600160401b03811115612ca157600080fd5b612cad878288016128e1565b9250506060612cbe878288016127fa565b91505092959194509250565b60008060008060008060c08789031215612ce357600080fd5b86356001600160401b03811115612cf957600080fd5b612d0589828a01612805565b96505060208701356001600160401b03811115612d2157600080fd5b612d2d89828a01612a20565b95505060408701356001600160401b03811115612d4957600080fd5b612d5589828a01612951565b94505060608701356001600160401b03811115612d7157600080fd5b612d7d89828a01612884565b93505060808701356001600160401b03811115612d9957600080fd5b612da589828a01612ab1565b92505060a0612db689828a01612b51565b9150509295509295509295565b600060208284031215612dd557600080fd5b6000612c338484612a90565b600060208284031215612df357600080fd5b6000612c338484612aa6565b600060208284031215612e1157600080fd5b81516001600160401b03811115612e2757600080fd5b612c3384828501612b00565b600060208284031215612e4557600080fd5b6000612c338484612a9b565b60008060408385031215612e6457600080fd5b6000612e708585612a9b565b9250506020612e81858286016127fa565b9150509250929050565b60008060408385031215612e9e57600080fd5b6000612eaa8585612a9b565b9250506020612e8185828601612bff565b60008060008060608587031215612ed157600080fd5b6000612edd8787612a9b565b9450506020612eee87828801612bff565b93505060408501356001600160401b03811115612f0a57600080fd5b612f1687828801612b5c565b95989497509550505050565b600080600080600060a08688031215612f3a57600080fd5b6000612f468888612a9b565b9550506020612f5788828901612bff565b9450506040612f6888828901612bff565b9350506060612f7988828901612a9b565b9250506080612f8a88828901612a9b565b9150509295509295909350565b600060208284031215612fa957600080fd5b6000612c338484612c0a565b6000612fc18383612ff0565b505060200190565b60006121408383613192565b6000612fc18383613178565b612fea81614872565b82525050565b612fea8161482f565b600061300482614822565b61300e8185614826565b935061301983614810565b8060005b838110156130475781516130318882612fb5565b975061303c83614810565b92505060010161301d565b509495945050505050565b600061305d82614822565b6130678185614826565b93508360208202850161307985614810565b8060005b858110156130b357848403895281516130968582612fc9565b94506130a183614810565b60209a909a019992505060010161307d565b5091979650505050505050565b60006130cb82614822565b6130d58185614826565b9350836020820285016130e785614810565b8060005b858110156130b357848403895281516131048582612fc9565b945061310f83614810565b60209a909a01999250506001016130eb565b600061312c82614822565b6131368185614826565b935061314183614810565b8060005b838110156130475781516131598882612fd5565b975061316483614810565b925050600101613145565b612fea8161483a565b612fea81612149565b612fea61318d82612149565b612149565b600061319d82614822565b6131a78185614826565b93506131b781856020860161489f565b6131c0816148cb565b9093019392505050565b6000815460018116600081146131e7576001811461320d5761324c565b607f60028304166131f88187614826565b60ff198416815295505060208501925061324c565b6002820461321b8187614826565b955061322685614816565b60005b8281101561324557815488820152600190910190602001613229565b8701945050505b505092915050565b612fea8161483f565b612fea8161487d565b60006132728385614826565b935061327f838584614893565b6131c0836148cb565b6000613295603283614826565b7f476f7665726e6f72427261766f3a3a63617374566f7465496e7465726e616c3a81527120696e76616c696420766f7465207479706560701b602082015260400192915050565b60006132e9602883611172565b7f42616c6c6f742875696e743235362070726f706f73616c49642c75696e743820815267737570706f72742960c01b602082015260280192915050565b6000613333602a83614826565b7f476f7665726e6f72427261766f3a5f73657450656e64696e6741646d696e3a2081526961646d696e206f6e6c7960b01b602082015260400192915050565b600061337f605583614826565b7f476f7665726e6f72427261766f3a3a71756575654f72526576657274496e746581527f726e616c3a206964656e746963616c2070726f706f73616c20616374696f6e20602082015274616c7265616479207175657565642061742065746160581b604082015260600192915050565b60006133fc605683614826565b7f476f7665726e6f72427261766f3a3a696e697469616c697a653a6e756d62657281527f206f662074696d656c6f636b732073686f756c64206d61746368206e756d626560208201527572206f6620676f7665726e616e636520726f7574657360501b604082015260600192915050565b600061347a603183614826565b7f476f7665726e6f72427261766f3a3a70726f706f73653a20476f7665726e6f7281527020427261766f206e6f742061637469766560781b602082015260400192915050565b60006134cd600283611172565b61190160f01b815260020192915050565b60006134eb603983614826565b60008051602061492e83398151915281527f6964206d696e2070726f706f73616c207468726573686f6c6400000000000000602082015260400192915050565b6000613538603183614826565b7f476f7665726e6f72427261766f3a3a63617374566f7465496e7465726e616c3a815270081d9bdd1a5b99c81a5cc818db1bdcd959607a1b602082015260400192915050565b600061358b603483614826565b7f476f7665726e6f72427261766f3a3a63617374566f7465496e7465726e616c3a815273081d9bdd195c88185b1c9958591e481d9bdd195960621b602082015260400192915050565b60006135e1603483614826565b60008051602061492e8339815191528152731a59081b5a5b881d9bdd1a5b99c81c195c9a5bd960621b602082015260400192915050565b6000613625604583614826565b7f476f7665726e6f72427261766f3a3a657865637574653a2070726f706f73616c81527f2063616e206f6e6c7920626520657865637574656420696620697420697320716020820152641d595d595960da1b604082015260600192915050565b6000613692602f83614826565b7f476f7665726e6f72427261766f3a3a63617374566f746542795369673a20696e81526e76616c6964207369676e617475726560881b602082015260400192915050565b60006136e3604483614826565b7f476f7665726e6f72427261766f3a3a70726f706f73653a2070726f706f73616c81527f2066756e6374696f6e20696e666f726d6174696f6e206172697479206d69736d6020820152630c2e8c6d60e31b604082015260600192915050565b600061374f602583614826565b7f476f7665726e6f72427261766f3a3a696e697469616c697a653a2061646d696e815264206f6e6c7960d81b602082015260400192915050565b6000613796603283614826565b7f476f7665726e6f72427261766f3a3a696e697469616c697a653a2063616e6e6f8152717420696e697469616c697a6520747769636560701b602082015260400192915050565b60006137ea604483614826565b7f476f7665726e6f72427261766f3a3a71756575653a2070726f706f73616c206381527f616e206f6e6c79206265207175657565642069662069742069732073756363656020820152631959195960e21b604082015260600192915050565b6000613856601183614826565b706164646974696f6e206f766572666c6f7760781b815260200192915050565b6000613883604383611172565b7f454950373132446f6d61696e28737472696e67206e616d652c75696e7432353681527f20636861696e49642c6164647265737320766572696679696e67436f6e74726160208201526263742960e81b604082015260430192915050565b60006138ee603083614826565b7f476f7665726e6f72427261766f3a3a5f696e6974696174653a2063616e206f6e81526f6c7920696e697469617465206f6e636560801b602082015260400192915050565b6000613940602e83614826565b60008051602061492e83398151915281526d6964206e776c206164647265737360901b602082015260400192915050565b600061397e602c83614826565b7f476f7665726e6f72427261766f3a3a70726f706f73653a206d7573742070726f81526b7669646520616374696f6e7360a01b602082015260400192915050565b60006139cc602e83614826565b7f476f7665726e6f72427261766f3a5f61636365707441646d696e3a2070656e6481526d696e672061646d696e206f6e6c7960901b602082015260400192915050565b6000613a1c603383614826565b60008051602061492e8339815191528152726964206d696e20766f74696e672064656c617960681b602082015260400192915050565b6000613a5f602f83614826565b7f476f7665726e6f72427261766f3a3a63616e63656c3a2070726f706f7365722081526e18589bdd99481d1a1c995cda1bdb19608a1b602082015260400192915050565b6000613ab0602b83614826565b60008051602061492e83398151915281526a34b21033bab0b93234b0b760a91b602082015260400192915050565b6000613aeb602883614826565b7f476f7665726e6f72427261766f3a3a70726f706f73653a20746f6f206d616e7981526720616374696f6e7360c01b602082015260400192915050565b6000613b35605983614826565b7f476f7665726e6f72427261766f3a3a70726f706f73653a206f6e65206c69766581527f2070726f706f73616c207065722070726f706f7365722c20666f756e6420616e60208201527f20616c72656164792070656e64696e672070726f706f73616c00000000000000604082015260600192915050565b6000613bba603483614826565b7f476f7665726e6f72427261766f3a3a5f73657450726f706f73616c4d61784f7081527365726174696f6e733a2061646d696e206f6e6c7960601b602082015260400192915050565b6000613c10603283614826565b7f476f7665726e6f72427261766f3a3a696e697469616c697a653a696e76616c69815271642074696d656c6f636b206164647265737360701b602082015260400192915050565b6000613c64603383614826565b60008051602061492e8339815191528152726964206d617820766f74696e672064656c617960681b602082015260400192915050565b6000613ca7605883614826565b7f476f7665726e6f72427261766f3a3a70726f706f73653a206f6e65206c69766581527f2070726f706f73616c207065722070726f706f7365722c20666f756e6420616e60208201527f20616c7265616479206163746976652070726f706f73616c0000000000000000604082015260600192915050565b6000611c2b600083614826565b6000613d39602483614826565b7f476f7665726e6f72427261766f3a3a5f696e6974696174653a2061646d696e208152636f6e6c7960e01b602082015260400192915050565b6000613d7f603f83614826565b7f476f7665726e6f72427261766f3a3a70726f706f73653a2070726f706f73657281527f20766f7465732062656c6f772070726f706f73616c207468726573686f6c6400602082015260400192915050565b6000613dde603683614826565b7f476f7665726e6f72427261766f3a3a63616e63656c3a2063616e6e6f742063618152751b98d95b08195e1958dd5d1959081c1c9bdc1bdcd85b60521b602082015260400192915050565b6000613e36602983614826565b7f476f7665726e6f72427261766f3a3a73746174653a20696e76616c69642070728152681bdc1bdcd85b081a5960ba1b602082015260400192915050565b6000613e81605d83614826565b7f476f7665726e6f72427261766f3a3a696e697469616c697a653a6e756d62657281527f206f662070726f706f73616c20636f6e666967732073686f756c64206d61746360208201527f68206e756d626572206f6620676f7665726e616e636520726f75746573000000604082015260600192915050565b6000613f06603b83614826565b7f476f7665726e6f72427261766f3a3a5f736574477561726469616e3a2063616e81527f6e6f74206c69766520776974686f7574206120677561726469616e0000000000602082015260400192915050565b6000613f65603383614826565b7f476f7665726e6f72427261766f3a3a5f736574477561726469616e3a2061646d815272696e206f7220677561726469616e206f6e6c7960681b602082015260400192915050565b6000613fba601583614826565b747375627472616374696f6e20756e646572666c6f7760581b815260200192915050565b6000613feb603483614826565b60008051602061492e8339815191528152731a59081b585e081d9bdd1a5b99c81c195c9a5bd960621b602082015260400192915050565b600061402f603983614826565b60008051602061492e83398151915281527f6964206d61782070726f706f73616c207468726573686f6c6400000000000000602082015260400192915050565b80516060830190614080848261316f565b50602082015161409360208501826140ac565b5060408201516140a660408501826140be565b50505050565b612fea81614860565b612fea81614888565b612fea81614866565b6000611c2b826132dc565b60006140dd826134c0565b91506140e98285613181565b6020820191506140f98284613181565b5060200192915050565b6000611c2b82613876565b60208101611c2b8284612ff0565b6040810161412a8285612fe1565b6121406020830184613178565b604081016141458285612ff0565b6121406020830184612ff0565b6040810161412a8285612ff0565b60a0810161416e8288612ff0565b61417b6020830187613178565b818103604083015261418d8186613192565b905081810360608301526141a18185613192565b9050610a796080830184613178565b60a081016141be8288612ff0565b6141cb6020830187613178565b81810360408301526141dd81866131ca565b905081810360608301526141a181856131ca565b608080825281016142028187612ff9565b905081810360208301526142168186613121565b9050818103604083015261422a81856130c0565b90508181036060830152610a798184613052565b60208101611c2b8284613178565b6080810161425a8287613178565b6142676020830186613178565b6142746040830185613178565b6142816060830184612ff0565b95945050505050565b606081016142988286613178565b6142a56020830185613178565b612c3360408301846140ac565b608081016142c08287613178565b6142cd60208301866140ac565b6142da6040830185613178565b6142816060830184613178565b60208101611c2b8284613254565b60208101611c2b828461325d565b602080825281016121408184613192565b60208082528101611c2b81613288565b60208082528101611c2b81613326565b60208082528101611c2b81613372565b60208082528101611c2b816133ef565b60208082528101611c2b8161346d565b60208082528101611c2b816134de565b60208082528101611c2b8161352b565b60208082528101611c2b8161357e565b60208082528101611c2b816135d4565b60208082528101611c2b81613618565b60208082528101611c2b81613685565b60208082528101611c2b816136d6565b60208082528101611c2b81613742565b60208082528101611c2b81613789565b60208082528101611c2b816137dd565b60208082528101611c2b81613849565b60208082528101611c2b816138e1565b60208082528101611c2b81613933565b60208082528101611c2b81613971565b60208082528101611c2b816139bf565b60208082528101611c2b81613a0f565b60208082528101611c2b81613a52565b60208082528101611c2b81613aa3565b60208082528101611c2b81613ade565b60208082528101611c2b81613b28565b60208082528101611c2b81613bad565b60208082528101611c2b81613c03565b60208082528101611c2b81613c57565b60208082528101611c2b81613c9a565b60208082528101611c2b81613d2c565b60208082528101611c2b81613d72565b60208082528101611c2b81613dd1565b60208082528101611c2b81613e29565b60208082528101611c2b81613e74565b60208082528101611c2b81613ef9565b60208082528101611c2b81613f58565b60208082528101611c2b81613fad565b60208082528101611c2b81613fde565b60208082528101611c2b81614022565b60608101611c2b828461406f565b61014081016145a1828d613178565b6145ae602083018c612fe1565b81810360408301526145c0818b612ff9565b905081810360608301526145d4818a613121565b905081810360808301526145e881896130c0565b905081810360a08301526145fc8188613052565b905061460b60c0830187613178565b61461860e0830186613178565b81810361010083015261462b8185613192565b905061463b6101208301846140ac565b9b9a5050505050505050505050565b6101608101614659828e613178565b614666602083018d612ff0565b614673604083018c613178565b614680606083018b613178565b61468d608083018a613178565b61469a60a0830189613178565b6146a760c0830188613178565b6146b460e0830187613178565b6146c261010083018661316f565b6146d061012083018561316f565b6146de6101408301846140ac565b9c9b505050505050505050505050565b6040810161412a8285613178565b6060810161470a8286613178565b6147176020830185613178565b612c336040830184613178565b608081016147328288613178565b61473f60208301876140ac565b61474c60408301866140b5565b818103606083015261475f818486613266565b979650505050505050565b608081016147788286613178565b61478560208301856140ac565b61479260408301846140b5565b818103606083015261428181613d1f565b6040518181016001600160401b03811182821017156147c157600080fd5b604052919050565b60006001600160401b038211156147df57600080fd5b5060209081020190565b60006001600160401b038211156147ff57600080fd5b506020601f91909101601f19160190565b60200190565b60009081526020902090565b5190565b90815260200190565b6000611c2b82614854565b151590565b6000611c2b8261482f565b80611172816148d5565b6001600160a01b031690565b60ff1690565b6001600160601b031690565b6000611c2b8261483f565b6000611c2b8261484a565b6000611c2b82614866565b82818337506000910152565b60005b838110156148ba5781810151838201526020016148a2565b838111156140a65750506000910152565b601f01601f191690565b600881106127f757fe5b6148e88161482f565b81146127f757600080fd5b6148e88161483a565b6148e881612149565b6148e88161483f565b600381106127f757600080fd5b6148e881614860565b6148e88161486656fe476f7665726e6f72427261766f3a3a696e697469616c697a653a20696e76616ca365627a7a72315820e35b1a62b80be6ad4b1797004e693bd98ffffdd9bfc280c82f3b1f7e9435840f6c6578706572696d656e74616cf564736f6c63430005100040","opcodes":"PUSH1 0x80 PUSH1 0x40 MSTORE CALLVALUE DUP1 ISZERO PUSH2 0x10 JUMPI PUSH1 0x0 DUP1 REVERT JUMPDEST POP PUSH2 0x4990 DUP1 PUSH2 0x20 PUSH1 0x0 CODECOPY PUSH1 0x0 RETURN INVALID PUSH1 0x80 PUSH1 0x40 MSTORE CALLVALUE DUP1 ISZERO PUSH2 0x10 JUMPI PUSH1 0x0 DUP1 REVERT JUMPDEST POP PUSH1 0x4 CALLDATASIZE LT PUSH2 0x25E JUMPI PUSH1 0x0 CALLDATALOAD PUSH1 0xE0 SHR DUP1 PUSH4 0x791F5D23 GT PUSH2 0x146 JUMPI DUP1 PUSH4 0xDDF0B009 GT PUSH2 0xC3 JUMPI DUP1 PUSH4 0xE9C714F2 GT PUSH2 0x87 JUMPI DUP1 PUSH4 0xE9C714F2 EQ PUSH2 0x4C2 JUMPI DUP1 PUSH4 0xEE9799EE EQ PUSH2 0x4CA JUMPI DUP1 PUSH4 0xF851A440 EQ PUSH2 0x4DD JUMPI DUP1 PUSH4 0xF9D28B80 EQ PUSH2 0x4E5 JUMPI DUP1 PUSH4 0xFC4EEE42 EQ PUSH2 0x4F8 JUMPI DUP1 PUSH4 0xFE0D94C1 EQ PUSH2 0x500 JUMPI PUSH2 0x25E JUMP JUMPDEST DUP1 PUSH4 0xDDF0B009 EQ PUSH2 0x46C JUMPI DUP1 PUSH4 0xDEAAA7CC EQ PUSH2 0x47F JUMPI DUP1 PUSH4 0xE23A9A52 EQ PUSH2 0x487 JUMPI DUP1 PUSH4 0xE38E8C0F EQ PUSH2 0x4A7 JUMPI DUP1 PUSH4 0xE48083FE EQ PUSH2 0x4BA JUMPI PUSH2 0x25E JUMP JUMPDEST DUP1 PUSH4 0xB1126263 GT PUSH2 0x10A JUMPI DUP1 PUSH4 0xB1126263 EQ PUSH2 0x439 JUMPI DUP1 PUSH4 0xB58131B0 EQ PUSH2 0x441 JUMPI DUP1 PUSH4 0xB71D1A0C EQ PUSH2 0x449 JUMPI DUP1 PUSH4 0xD33219B4 EQ PUSH2 0x45C JUMPI DUP1 PUSH4 0xDA35C664 EQ PUSH2 0x464 JUMPI PUSH2 0x25E JUMP JUMPDEST DUP1 PUSH4 0x791F5D23 EQ PUSH2 0x3FB JUMPI DUP1 PUSH4 0x7B3C71D3 EQ PUSH2 0x403 JUMPI DUP1 PUSH4 0x7BDBE4D0 EQ PUSH2 0x416 JUMPI DUP1 PUSH4 0x9E6F2626 EQ PUSH2 0x41E JUMPI DUP1 PUSH4 0xA64E024A EQ PUSH2 0x431 JUMPI PUSH2 0x25E JUMP JUMPDEST DUP1 PUSH4 0x25FD935A GT PUSH2 0x1DF JUMPI DUP1 PUSH4 0x3BCCF4FD GT PUSH2 0x1A3 JUMPI DUP1 PUSH4 0x3BCCF4FD EQ PUSH2 0x392 JUMPI DUP1 PUSH4 0x3E4F49E6 EQ PUSH2 0x3A5 JUMPI DUP1 PUSH4 0x40E58EE5 EQ PUSH2 0x3C5 JUMPI DUP1 PUSH4 0x452A9320 EQ PUSH2 0x3D8 JUMPI DUP1 PUSH4 0x56781388 EQ PUSH2 0x3E0 JUMPI DUP1 PUSH4 0x5C60DA1B EQ PUSH2 0x3F3 JUMPI PUSH2 0x25E JUMP JUMPDEST DUP1 PUSH4 0x25FD935A EQ PUSH2 0x328 JUMPI DUP1 PUSH4 0x26782247 EQ PUSH2 0x330 JUMPI DUP1 PUSH4 0x328DD982 EQ PUSH2 0x345 JUMPI DUP1 PUSH4 0x35A87DE2 EQ PUSH2 0x368 JUMPI DUP1 PUSH4 0x3932ABB1 EQ PUSH2 0x38A JUMPI PUSH2 0x25E JUMP JUMPDEST DUP1 PUSH4 0x17977C61 GT PUSH2 0x226 JUMPI DUP1 PUSH4 0x17977C61 EQ PUSH2 0x2E8 JUMPI DUP1 PUSH4 0x1EBCFEFD EQ PUSH2 0x2FB JUMPI DUP1 PUSH4 0x20606B70 EQ PUSH2 0x310 JUMPI DUP1 PUSH4 0x215809CA EQ PUSH2 0x318 JUMPI DUP1 PUSH4 0x24BC1A64 EQ PUSH2 0x320 JUMPI PUSH2 0x25E JUMP JUMPDEST DUP1 PUSH4 0x13CF08B EQ PUSH2 0x263 JUMPI DUP1 PUSH4 0x221B90E EQ PUSH2 0x296 JUMPI DUP1 PUSH4 0x2A251A3 EQ PUSH2 0x2AB JUMPI DUP1 PUSH4 0x6FDDE03 EQ PUSH2 0x2C0 JUMPI DUP1 PUSH4 0x164A1AB1 EQ PUSH2 0x2D5 JUMPI JUMPDEST PUSH1 0x0 DUP1 REVERT JUMPDEST PUSH2 0x276 PUSH2 0x271 CALLDATASIZE PUSH1 0x4 PUSH2 0x2E33 JUMP JUMPDEST PUSH2 0x513 JUMP JUMPDEST PUSH1 0x40 MLOAD PUSH2 0x28D SWAP12 SWAP11 SWAP10 SWAP9 SWAP8 SWAP7 SWAP6 SWAP5 SWAP4 SWAP3 SWAP2 SWAP1 PUSH2 0x464A JUMP JUMPDEST PUSH1 0x40 MLOAD DUP1 SWAP2 SUB SWAP1 RETURN JUMPDEST PUSH2 0x29E PUSH2 0x57F JUMP JUMPDEST PUSH1 0x40 MLOAD PUSH2 0x28D SWAP2 SWAP1 PUSH2 0x42E7 JUMP JUMPDEST PUSH2 0x2B3 PUSH2 0x58E JUMP JUMPDEST PUSH1 0x40 MLOAD PUSH2 0x28D SWAP2 SWAP1 PUSH2 0x423E JUMP JUMPDEST PUSH2 0x2C8 PUSH2 0x594 JUMP JUMPDEST PUSH1 0x40 MLOAD PUSH2 0x28D SWAP2 SWAP1 PUSH2 0x4303 JUMP JUMPDEST PUSH2 0x2B3 PUSH2 0x2E3 CALLDATASIZE PUSH1 0x4 PUSH2 0x2CCA JUMP JUMPDEST PUSH2 0x5C6 JUMP JUMPDEST PUSH2 0x2B3 PUSH2 0x2F6 CALLDATASIZE PUSH1 0x4 PUSH2 0x2C15 JUMP JUMPDEST PUSH2 0xA83 JUMP JUMPDEST PUSH2 0x30E PUSH2 0x309 CALLDATASIZE PUSH1 0x4 PUSH2 0x2E33 JUMP JUMPDEST PUSH2 0xA95 JUMP JUMPDEST STOP JUMPDEST PUSH2 0x2B3 PUSH2 0xB05 JUMP JUMPDEST PUSH2 0x2B3 PUSH2 0xB1C JUMP JUMPDEST PUSH2 0x2B3 PUSH2 0xB22 JUMP JUMPDEST PUSH2 0x2B3 PUSH2 0xB30 JUMP JUMPDEST PUSH2 0x338 PUSH2 0xB3E JUMP JUMPDEST PUSH1 0x40 MLOAD PUSH2 0x28D SWAP2 SWAP1 PUSH2 0x410E JUMP JUMPDEST PUSH2 0x358 PUSH2 0x353 CALLDATASIZE PUSH1 0x4 PUSH2 0x2E33 JUMP JUMPDEST PUSH2 0xB4D JUMP JUMPDEST PUSH1 0x40 MLOAD PUSH2 0x28D SWAP5 SWAP4 SWAP3 SWAP2 SWAP1 PUSH2 0x41F1 JUMP JUMPDEST PUSH2 0x37B PUSH2 0x376 CALLDATASIZE PUSH1 0x4 PUSH2 0x2E33 JUMP JUMPDEST PUSH2 0xDDC JUMP JUMPDEST PUSH1 0x40 MLOAD PUSH2 0x28D SWAP4 SWAP3 SWAP2 SWAP1 PUSH2 0x46FC JUMP JUMPDEST PUSH2 0x2B3 PUSH2 0xDFD JUMP JUMPDEST PUSH2 0x30E PUSH2 0x3A0 CALLDATASIZE PUSH1 0x4 PUSH2 0x2F22 JUMP JUMPDEST PUSH2 0xE03 JUMP JUMPDEST PUSH2 0x3B8 PUSH2 0x3B3 CALLDATASIZE PUSH1 0x4 PUSH2 0x2E33 JUMP JUMPDEST PUSH2 0xFDD JUMP JUMPDEST PUSH1 0x40 MLOAD PUSH2 0x28D SWAP2 SWAP1 PUSH2 0x42F5 JUMP JUMPDEST PUSH2 0x30E PUSH2 0x3D3 CALLDATASIZE PUSH1 0x4 PUSH2 0x2E33 JUMP JUMPDEST PUSH2 0x1177 JUMP JUMPDEST PUSH2 0x338 PUSH2 0x140D JUMP JUMPDEST PUSH2 0x30E PUSH2 0x3EE CALLDATASIZE PUSH1 0x4 PUSH2 0x2E8B JUMP JUMPDEST PUSH2 0x141C JUMP JUMPDEST PUSH2 0x338 PUSH2 0x1466 JUMP JUMPDEST PUSH2 0x2B3 PUSH2 0x1475 JUMP JUMPDEST PUSH2 0x30E PUSH2 0x411 CALLDATASIZE PUSH1 0x4 PUSH2 0x2EBB JUMP JUMPDEST PUSH2 0x1483 JUMP JUMPDEST PUSH2 0x2B3 PUSH2 0x14D3 JUMP JUMPDEST PUSH2 0x30E PUSH2 0x42C CALLDATASIZE PUSH1 0x4 PUSH2 0x2C3B JUMP JUMPDEST PUSH2 0x14D9 JUMP JUMPDEST PUSH2 0x2B3 PUSH2 0x187E JUMP JUMPDEST PUSH2 0x2B3 PUSH2 0x1885 JUMP JUMPDEST PUSH2 0x2B3 PUSH2 0x188C JUMP JUMPDEST PUSH2 0x30E PUSH2 0x457 CALLDATASIZE PUSH1 0x4 PUSH2 0x2C15 JUMP JUMPDEST PUSH2 0x1892 JUMP JUMPDEST PUSH2 0x29E PUSH2 0x190F JUMP JUMPDEST PUSH2 0x2B3 PUSH2 0x191E JUMP JUMPDEST PUSH2 0x30E PUSH2 0x47A CALLDATASIZE PUSH1 0x4 PUSH2 0x2E33 JUMP JUMPDEST PUSH2 0x1924 JUMP JUMPDEST PUSH2 0x2B3 PUSH2 0x1BB8 JUMP JUMPDEST PUSH2 0x49A PUSH2 0x495 CALLDATASIZE PUSH1 0x4 PUSH2 0x2E51 JUMP JUMPDEST PUSH2 0x1BC4 JUMP JUMPDEST PUSH1 0x40 MLOAD PUSH2 0x28D SWAP2 SWAP1 PUSH2 0x4584 JUMP JUMPDEST PUSH2 0x30E PUSH2 0x4B5 CALLDATASIZE PUSH1 0x4 PUSH2 0x2C15 JUMP JUMPDEST PUSH2 0x1C31 JUMP JUMPDEST PUSH2 0x2B3 PUSH2 0x1CE9 JUMP JUMPDEST PUSH2 0x30E PUSH2 0x1CEE JUMP JUMPDEST PUSH2 0x29E PUSH2 0x4D8 CALLDATASIZE PUSH1 0x4 PUSH2 0x2E33 JUMP JUMPDEST PUSH2 0x1DCC JUMP JUMPDEST PUSH2 0x338 PUSH2 0x1DE7 JUMP JUMPDEST PUSH2 0x30E PUSH2 0x4F3 CALLDATASIZE PUSH1 0x4 PUSH2 0x2C15 JUMP JUMPDEST PUSH2 0x1DF6 JUMP JUMPDEST PUSH2 0x2B3 PUSH2 0x1F3A JUMP JUMPDEST PUSH2 0x30E PUSH2 0x50E CALLDATASIZE PUSH1 0x4 PUSH2 0x2E33 JUMP JUMPDEST PUSH2 0x1F40 JUMP JUMPDEST PUSH1 0xA PUSH1 0x20 DUP2 SWAP1 MSTORE PUSH1 0x0 SWAP2 DUP3 MSTORE PUSH1 0x40 SWAP1 SWAP2 KECCAK256 DUP1 SLOAD PUSH1 0x1 DUP3 ADD SLOAD PUSH1 0x2 DUP4 ADD SLOAD PUSH1 0x7 DUP5 ADD SLOAD PUSH1 0x8 DUP6 ADD SLOAD PUSH1 0x9 DUP7 ADD SLOAD SWAP7 DUP7 ADD SLOAD PUSH1 0xB DUP8 ADD SLOAD PUSH1 0xC DUP9 ADD SLOAD PUSH1 0xE SWAP1 SWAP9 ADD SLOAD SWAP7 SWAP9 PUSH1 0x1 PUSH1 0x1 PUSH1 0xA0 SHL SUB SWAP1 SWAP7 AND SWAP8 SWAP5 SWAP7 SWAP4 SWAP6 SWAP3 SWAP5 SWAP3 SWAP4 SWAP2 SWAP3 SWAP1 SWAP2 PUSH1 0xFF DUP1 DUP4 AND SWAP3 PUSH2 0x100 SWAP1 DIV DUP2 AND SWAP2 AND DUP12 JUMP JUMPDEST PUSH1 0x9 SLOAD PUSH1 0x1 PUSH1 0x1 PUSH1 0xA0 SHL SUB AND DUP2 JUMP JUMPDEST PUSH1 0x4 SLOAD DUP2 JUMP JUMPDEST PUSH1 0x40 MLOAD DUP1 PUSH1 0x40 ADD PUSH1 0x40 MSTORE DUP1 PUSH1 0x16 DUP2 MSTORE PUSH1 0x20 ADD PUSH22 0x4E61727768616C20476F7665726E6F7220427261766F PUSH1 0x50 SHL DUP2 MSTORE POP DUP2 JUMP JUMPDEST PUSH1 0x0 PUSH1 0x6 SLOAD PUSH1 0x0 EQ ISZERO PUSH2 0x5F4 JUMPI PUSH1 0x40 MLOAD PUSH3 0x461BCD PUSH1 0xE5 SHL DUP2 MSTORE PUSH1 0x4 ADD PUSH2 0x5EB SWAP1 PUSH2 0x4354 JUMP JUMPDEST PUSH1 0x40 MLOAD DUP1 SWAP2 SUB SWAP1 REVERT JUMPDEST PUSH1 0xE PUSH1 0x0 DUP4 PUSH1 0x2 DUP2 GT ISZERO PUSH2 0x604 JUMPI INVALID JUMPDEST PUSH1 0xFF AND DUP2 MSTORE PUSH1 0x20 DUP2 ADD SWAP2 SWAP1 SWAP2 MSTORE PUSH1 0x40 ADD PUSH1 0x0 KECCAK256 PUSH1 0x2 ADD SLOAD PUSH1 0x9 SLOAD PUSH1 0x1 PUSH1 0x1 PUSH1 0xA0 SHL SUB AND PUSH4 0x782D6FE1 CALLER PUSH2 0x638 NUMBER PUSH1 0x1 PUSH2 0x20F3 JUMP JUMPDEST PUSH1 0x40 MLOAD DUP4 PUSH4 0xFFFFFFFF AND PUSH1 0xE0 SHL DUP2 MSTORE PUSH1 0x4 ADD PUSH2 0x655 SWAP3 SWAP2 SWAP1 PUSH2 0x411C JUMP JUMPDEST PUSH1 0x20 PUSH1 0x40 MLOAD DUP1 DUP4 SUB DUP2 DUP7 DUP1 EXTCODESIZE ISZERO DUP1 ISZERO PUSH2 0x66D JUMPI PUSH1 0x0 DUP1 REVERT JUMPDEST POP GAS STATICCALL ISZERO DUP1 ISZERO PUSH2 0x681 JUMPI RETURNDATASIZE PUSH1 0x0 DUP1 RETURNDATACOPY RETURNDATASIZE PUSH1 0x0 REVERT JUMPDEST POP POP POP POP PUSH1 0x40 MLOAD RETURNDATASIZE PUSH1 0x1F NOT PUSH1 0x1F DUP3 ADD AND DUP3 ADD DUP1 PUSH1 0x40 MSTORE POP PUSH2 0x6A5 SWAP2 SWAP1 DUP2 ADD SWAP1 PUSH2 0x2F97 JUMP JUMPDEST PUSH1 0x1 PUSH1 0x1 PUSH1 0x60 SHL SUB AND GT PUSH2 0x6CB JUMPI PUSH1 0x40 MLOAD PUSH3 0x461BCD PUSH1 0xE5 SHL DUP2 MSTORE PUSH1 0x4 ADD PUSH2 0x5EB SWAP1 PUSH2 0x44F4 JUMP JUMPDEST DUP6 MLOAD DUP8 MLOAD EQ DUP1 ISZERO PUSH2 0x6DD JUMPI POP DUP5 MLOAD DUP8 MLOAD EQ JUMPDEST DUP1 ISZERO PUSH2 0x6EA JUMPI POP DUP4 MLOAD DUP8 MLOAD EQ JUMPDEST PUSH2 0x706 JUMPI PUSH1 0x40 MLOAD PUSH3 0x461BCD PUSH1 0xE5 SHL DUP2 MSTORE PUSH1 0x4 ADD PUSH2 0x5EB SWAP1 PUSH2 0x43C4 JUMP JUMPDEST DUP7 MLOAD PUSH2 0x724 JUMPI PUSH1 0x40 MLOAD PUSH3 0x461BCD PUSH1 0xE5 SHL DUP2 MSTORE PUSH1 0x4 ADD PUSH2 0x5EB SWAP1 PUSH2 0x4434 JUMP JUMPDEST PUSH1 0xC SLOAD DUP8 MLOAD GT ISZERO PUSH2 0x747 JUMPI PUSH1 0x40 MLOAD PUSH3 0x461BCD PUSH1 0xE5 SHL DUP2 MSTORE PUSH1 0x4 ADD PUSH2 0x5EB SWAP1 PUSH2 0x4484 JUMP JUMPDEST CALLER PUSH1 0x0 SWAP1 DUP2 MSTORE PUSH1 0xB PUSH1 0x20 MSTORE PUSH1 0x40 SWAP1 KECCAK256 SLOAD DUP1 ISZERO PUSH2 0x7C4 JUMPI PUSH1 0x0 PUSH2 0x768 DUP3 PUSH2 0xFDD JUMP JUMPDEST SWAP1 POP PUSH1 0x1 DUP2 PUSH1 0x7 DUP2 GT ISZERO PUSH2 0x778 JUMPI INVALID JUMPDEST EQ ISZERO PUSH2 0x796 JUMPI PUSH1 0x40 MLOAD PUSH3 0x461BCD PUSH1 0xE5 SHL DUP2 MSTORE PUSH1 0x4 ADD PUSH2 0x5EB SWAP1 PUSH2 0x44D4 JUMP JUMPDEST PUSH1 0x0 DUP2 PUSH1 0x7 DUP2 GT ISZERO PUSH2 0x7A4 JUMPI INVALID JUMPDEST EQ ISZERO PUSH2 0x7C2 JUMPI PUSH1 0x40 MLOAD PUSH3 0x461BCD PUSH1 0xE5 SHL DUP2 MSTORE PUSH1 0x4 ADD PUSH2 0x5EB SWAP1 PUSH2 0x4494 JUMP JUMPDEST POP JUMPDEST PUSH1 0x0 PUSH2 0x7F4 NUMBER PUSH1 0xE PUSH1 0x0 DUP8 PUSH1 0x2 DUP2 GT ISZERO PUSH2 0x7DA JUMPI INVALID JUMPDEST PUSH1 0xFF AND DUP2 MSTORE PUSH1 0x20 ADD SWAP1 DUP2 MSTORE PUSH1 0x20 ADD PUSH1 0x0 KECCAK256 PUSH1 0x0 ADD SLOAD PUSH2 0x211B JUMP JUMPDEST SWAP1 POP PUSH1 0x0 PUSH2 0x826 DUP3 PUSH1 0xE PUSH1 0x0 DUP9 PUSH1 0x2 DUP2 GT ISZERO PUSH2 0x80C JUMPI INVALID JUMPDEST PUSH1 0xFF AND DUP2 MSTORE PUSH1 0x20 ADD SWAP1 DUP2 MSTORE PUSH1 0x20 ADD PUSH1 0x0 KECCAK256 PUSH1 0x1 ADD SLOAD PUSH2 0x211B JUMP JUMPDEST PUSH1 0x7 DUP1 SLOAD PUSH1 0x1 ADD SWAP1 SSTORE SWAP1 POP PUSH2 0x839 PUSH2 0x24BE JUMP JUMPDEST PUSH1 0x40 MLOAD DUP1 PUSH2 0x1E0 ADD PUSH1 0x40 MSTORE DUP1 PUSH1 0x7 SLOAD DUP2 MSTORE PUSH1 0x20 ADD CALLER PUSH1 0x1 PUSH1 0x1 PUSH1 0xA0 SHL SUB AND DUP2 MSTORE PUSH1 0x20 ADD PUSH1 0x0 DUP2 MSTORE PUSH1 0x20 ADD DUP13 DUP2 MSTORE PUSH1 0x20 ADD DUP12 DUP2 MSTORE PUSH1 0x20 ADD DUP11 DUP2 MSTORE PUSH1 0x20 ADD DUP10 DUP2 MSTORE PUSH1 0x20 ADD DUP5 DUP2 MSTORE PUSH1 0x20 ADD DUP4 DUP2 MSTORE PUSH1 0x20 ADD PUSH1 0x0 DUP2 MSTORE PUSH1 0x20 ADD PUSH1 0x0 DUP2 MSTORE PUSH1 0x20 ADD PUSH1 0x0 DUP2 MSTORE PUSH1 0x20 ADD PUSH1 0x0 ISZERO ISZERO DUP2 MSTORE PUSH1 0x20 ADD PUSH1 0x0 ISZERO ISZERO DUP2 MSTORE PUSH1 0x20 ADD DUP8 PUSH1 0x2 DUP2 GT ISZERO PUSH2 0x8BA JUMPI INVALID JUMPDEST PUSH1 0xFF AND SWAP1 MSTORE DUP1 MLOAD PUSH1 0x0 SWAP1 DUP2 MSTORE PUSH1 0xA PUSH1 0x20 SWAP1 DUP2 MSTORE PUSH1 0x40 SWAP2 DUP3 SWAP1 KECCAK256 DUP4 MLOAD DUP2 SSTORE DUP2 DUP5 ADD MLOAD PUSH1 0x1 DUP3 ADD DUP1 SLOAD PUSH1 0x1 PUSH1 0x1 PUSH1 0xA0 SHL SUB NOT AND PUSH1 0x1 PUSH1 0x1 PUSH1 0xA0 SHL SUB SWAP1 SWAP3 AND SWAP2 SWAP1 SWAP2 OR SWAP1 SSTORE SWAP2 DUP4 ADD MLOAD PUSH1 0x2 DUP4 ADD SSTORE PUSH1 0x60 DUP4 ADD MLOAD DUP1 MLOAD SWAP4 SWAP5 POP DUP5 SWAP4 PUSH2 0x921 SWAP3 PUSH1 0x3 DUP6 ADD SWAP3 ADD SWAP1 PUSH2 0x2544 JUMP JUMPDEST POP PUSH1 0x80 DUP3 ADD MLOAD DUP1 MLOAD PUSH2 0x93D SWAP2 PUSH1 0x4 DUP5 ADD SWAP2 PUSH1 0x20 SWAP1 SWAP2 ADD SWAP1 PUSH2 0x25A9 JUMP JUMPDEST POP PUSH1 0xA0 DUP3 ADD MLOAD DUP1 MLOAD PUSH2 0x959 SWAP2 PUSH1 0x5 DUP5 ADD SWAP2 PUSH1 0x20 SWAP1 SWAP2 ADD SWAP1 PUSH2 0x25F0 JUMP JUMPDEST POP PUSH1 0xC0 DUP3 ADD MLOAD DUP1 MLOAD PUSH2 0x975 SWAP2 PUSH1 0x6 DUP5 ADD SWAP2 PUSH1 0x20 SWAP1 SWAP2 ADD SWAP1 PUSH2 0x2649 JUMP JUMPDEST POP PUSH1 0xE0 DUP3 ADD MLOAD PUSH1 0x7 DUP3 ADD SSTORE PUSH2 0x100 DUP1 DUP4 ADD MLOAD PUSH1 0x8 DUP4 ADD SSTORE PUSH2 0x120 DUP4 ADD MLOAD PUSH1 0x9 DUP4 ADD SSTORE PUSH2 0x140 DUP4 ADD MLOAD PUSH1 0xA DUP4 ADD SSTORE PUSH2 0x160 DUP4 ADD MLOAD PUSH1 0xB DUP1 DUP5 ADD SWAP2 SWAP1 SWAP2 SSTORE PUSH2 0x180 DUP5 ADD MLOAD PUSH1 0xC DUP5 ADD DUP1 SLOAD PUSH2 0x1A0 DUP8 ADD MLOAD PUSH1 0xFF NOT SWAP2 DUP3 AND SWAP4 ISZERO ISZERO SWAP4 SWAP1 SWAP4 OR PUSH2 0xFF00 NOT AND SWAP3 ISZERO ISZERO SWAP1 SWAP5 MUL SWAP2 SWAP1 SWAP2 OR SWAP1 SSTORE PUSH2 0x1C0 SWAP1 SWAP4 ADD MLOAD PUSH1 0xE SWAP1 SWAP3 ADD DUP1 SLOAD SWAP1 SWAP2 AND PUSH1 0xFF SWAP1 SWAP3 AND SWAP2 SWAP1 SWAP2 OR SWAP1 SSTORE DUP2 MLOAD PUSH1 0x20 DUP1 DUP5 ADD MLOAD PUSH1 0x1 PUSH1 0x1 PUSH1 0xA0 SHL SUB AND PUSH1 0x0 SWAP1 DUP2 MSTORE SWAP3 SWAP1 MSTORE PUSH1 0x40 SWAP1 SWAP2 KECCAK256 SSTORE DUP1 MLOAD PUSH32 0xC8DF7FF219F3C0358E14500814D8B62B443A4BEBF3A596BAA60B9295B1CF1BDE SWAP1 CALLER DUP14 DUP14 DUP14 DUP14 DUP10 DUP10 DUP16 DUP16 PUSH1 0x2 DUP2 GT ISZERO PUSH2 0xA54 JUMPI INVALID JUMPDEST PUSH1 0x40 MLOAD PUSH2 0xA6A SWAP11 SWAP10 SWAP9 SWAP8 SWAP7 SWAP6 SWAP5 SWAP4 SWAP3 SWAP2 SWAP1 PUSH2 0x4592 JUMP JUMPDEST PUSH1 0x40 MLOAD DUP1 SWAP2 SUB SWAP1 LOG1 MLOAD SWAP4 POP POP POP POP JUMPDEST SWAP7 SWAP6 POP POP POP POP POP POP JUMP JUMPDEST PUSH1 0xB PUSH1 0x20 MSTORE PUSH1 0x0 SWAP1 DUP2 MSTORE PUSH1 0x40 SWAP1 KECCAK256 SLOAD DUP2 JUMP JUMPDEST PUSH1 0x0 SLOAD PUSH1 0x1 PUSH1 0x1 PUSH1 0xA0 SHL SUB AND CALLER EQ PUSH2 0xABF JUMPI PUSH1 0x40 MLOAD PUSH3 0x461BCD PUSH1 0xE5 SHL DUP2 MSTORE PUSH1 0x4 ADD PUSH2 0x5EB SWAP1 PUSH2 0x44A4 JUMP JUMPDEST PUSH1 0xC DUP1 SLOAD SWAP1 DUP3 SWAP1 SSTORE PUSH1 0x40 MLOAD PUSH32 0xD03B3C3C5C1446BCDD31423061041C94CA3BC5450FE7CCFB0F636F4C420DE87E SWAP1 PUSH2 0xAF9 SWAP1 DUP4 SWAP1 DUP6 SWAP1 PUSH2 0x46EE JUMP JUMPDEST PUSH1 0x40 MLOAD DUP1 SWAP2 SUB SWAP1 LOG1 POP POP JUMP JUMPDEST PUSH1 0x40 MLOAD PUSH2 0xB11 SWAP1 PUSH2 0x4103 JUMP JUMPDEST PUSH1 0x40 MLOAD DUP1 SWAP2 SUB SWAP1 KECCAK256 DUP2 JUMP JUMPDEST PUSH2 0xE10 DUP2 JUMP JUMPDEST PUSH10 0x7F0E10AF47C1C7000000 DUP2 JUMP JUMPDEST PUSH10 0x3F870857A3E0E3800000 DUP2 JUMP JUMPDEST PUSH1 0x1 SLOAD PUSH1 0x1 PUSH1 0x1 PUSH1 0xA0 SHL SUB AND DUP2 JUMP JUMPDEST PUSH1 0x60 DUP1 PUSH1 0x60 DUP1 PUSH1 0x0 PUSH1 0xA PUSH1 0x0 DUP8 DUP2 MSTORE PUSH1 0x20 ADD SWAP1 DUP2 MSTORE PUSH1 0x20 ADD PUSH1 0x0 KECCAK256 SWAP1 POP DUP1 PUSH1 0x3 ADD DUP2 PUSH1 0x4 ADD DUP3 PUSH1 0x5 ADD DUP4 PUSH1 0x6 ADD DUP4 DUP1 SLOAD DUP1 PUSH1 0x20 MUL PUSH1 0x20 ADD PUSH1 0x40 MLOAD SWAP1 DUP2 ADD PUSH1 0x40 MSTORE DUP1 SWAP3 SWAP2 SWAP1 DUP2 DUP2 MSTORE PUSH1 0x20 ADD DUP3 DUP1 SLOAD DUP1 ISZERO PUSH2 0xBCF JUMPI PUSH1 0x20 MUL DUP3 ADD SWAP2 SWAP1 PUSH1 0x0 MSTORE PUSH1 0x20 PUSH1 0x0 KECCAK256 SWAP1 JUMPDEST DUP2 SLOAD PUSH1 0x1 PUSH1 0x1 PUSH1 0xA0 SHL SUB AND DUP2 MSTORE PUSH1 0x1 SWAP1 SWAP2 ADD SWAP1 PUSH1 0x20 ADD DUP1 DUP4 GT PUSH2 0xBB1 JUMPI JUMPDEST POP POP POP POP POP SWAP4 POP DUP3 DUP1 SLOAD DUP1 PUSH1 0x20 MUL PUSH1 0x20 ADD PUSH1 0x40 MLOAD SWAP1 DUP2 ADD PUSH1 0x40 MSTORE DUP1 SWAP3 SWAP2 SWAP1 DUP2 DUP2 MSTORE PUSH1 0x20 ADD DUP3 DUP1 SLOAD DUP1 ISZERO PUSH2 0xC21 JUMPI PUSH1 0x20 MUL DUP3 ADD SWAP2 SWAP1 PUSH1 0x0 MSTORE PUSH1 0x20 PUSH1 0x0 KECCAK256 SWAP1 JUMPDEST DUP2 SLOAD DUP2 MSTORE PUSH1 0x20 ADD SWAP1 PUSH1 0x1 ADD SWAP1 DUP1 DUP4 GT PUSH2 0xC0D JUMPI JUMPDEST POP POP POP POP POP SWAP3 POP DUP2 DUP1 SLOAD DUP1 PUSH1 0x20 MUL PUSH1 0x20 ADD PUSH1 0x40 MLOAD SWAP1 DUP2 ADD PUSH1 0x40 MSTORE DUP1 SWAP3 SWAP2 SWAP1 DUP2 DUP2 MSTORE PUSH1 0x20 ADD PUSH1 0x0 SWAP1 JUMPDEST DUP3 DUP3 LT ISZERO PUSH2 0xCF4 JUMPI PUSH1 0x0 DUP5 DUP2 MSTORE PUSH1 0x20 SWAP1 DUP2 SWAP1 KECCAK256 DUP4 ADD DUP1 SLOAD PUSH1 0x40 DUP1 MLOAD PUSH1 0x1F PUSH1 0x2 PUSH1 0x0 NOT PUSH2 0x100 PUSH1 0x1 DUP8 AND ISZERO MUL ADD SWAP1 SWAP5 AND SWAP4 SWAP1 SWAP4 DIV SWAP3 DUP4 ADD DUP6 SWAP1 DIV DUP6 MUL DUP2 ADD DUP6 ADD SWAP1 SWAP2 MSTORE DUP2 DUP2 MSTORE SWAP3 DUP4 ADD DUP3 DUP3 DUP1 ISZERO PUSH2 0xCE0 JUMPI DUP1 PUSH1 0x1F LT PUSH2 0xCB5 JUMPI PUSH2 0x100 DUP1 DUP4 SLOAD DIV MUL DUP4 MSTORE SWAP2 PUSH1 0x20 ADD SWAP2 PUSH2 0xCE0 JUMP JUMPDEST DUP3 ADD SWAP2 SWAP1 PUSH1 0x0 MSTORE PUSH1 0x20 PUSH1 0x0 KECCAK256 SWAP1 JUMPDEST DUP2 SLOAD DUP2 MSTORE SWAP1 PUSH1 0x1 ADD SWAP1 PUSH1 0x20 ADD DUP1 DUP4 GT PUSH2 0xCC3 JUMPI DUP3 SWAP1 SUB PUSH1 0x1F AND DUP3 ADD SWAP2 JUMPDEST POP POP POP POP POP DUP2 MSTORE PUSH1 0x20 ADD SWAP1 PUSH1 0x1 ADD SWAP1 PUSH2 0xC49 JUMP JUMPDEST POP POP POP POP SWAP2 POP DUP1 DUP1 SLOAD DUP1 PUSH1 0x20 MUL PUSH1 0x20 ADD PUSH1 0x40 MLOAD SWAP1 DUP2 ADD PUSH1 0x40 MSTORE DUP1 SWAP3 SWAP2 SWAP1 DUP2 DUP2 MSTORE PUSH1 0x20 ADD PUSH1 0x0 SWAP1 JUMPDEST DUP3 DUP3 LT ISZERO PUSH2 0xDC6 JUMPI PUSH1 0x0 DUP5 DUP2 MSTORE PUSH1 0x20 SWAP1 DUP2 SWAP1 KECCAK256 DUP4 ADD DUP1 SLOAD PUSH1 0x40 DUP1 MLOAD PUSH1 0x1F PUSH1 0x2 PUSH1 0x0 NOT PUSH2 0x100 PUSH1 0x1 DUP8 AND ISZERO MUL ADD SWAP1 SWAP5 AND SWAP4 SWAP1 SWAP4 DIV SWAP3 DUP4 ADD DUP6 SWAP1 DIV DUP6 MUL DUP2 ADD DUP6 ADD SWAP1 SWAP2 MSTORE DUP2 DUP2 MSTORE SWAP3 DUP4 ADD DUP3 DUP3 DUP1 ISZERO PUSH2 0xDB2 JUMPI DUP1 PUSH1 0x1F LT PUSH2 0xD87 JUMPI PUSH2 0x100 DUP1 DUP4 SLOAD DIV MUL DUP4 MSTORE SWAP2 PUSH1 0x20 ADD SWAP2 PUSH2 0xDB2 JUMP JUMPDEST DUP3 ADD SWAP2 SWAP1 PUSH1 0x0 MSTORE PUSH1 0x20 PUSH1 0x0 KECCAK256 SWAP1 JUMPDEST DUP2 SLOAD DUP2 MSTORE SWAP1 PUSH1 0x1 ADD SWAP1 PUSH1 0x20 ADD DUP1 DUP4 GT PUSH2 0xD95 JUMPI DUP3 SWAP1 SUB PUSH1 0x1F AND DUP3 ADD SWAP2 JUMPDEST POP POP POP POP POP DUP2 MSTORE PUSH1 0x20 ADD SWAP1 PUSH1 0x1 ADD SWAP1 PUSH2 0xD1B JUMP JUMPDEST POP POP POP POP SWAP1 POP SWAP5 POP SWAP5 POP SWAP5 POP SWAP5 POP POP SWAP2 SWAP4 POP SWAP2 SWAP4 JUMP JUMPDEST PUSH1 0xE PUSH1 0x20 MSTORE PUSH1 0x0 SWAP1 DUP2 MSTORE PUSH1 0x40 SWAP1 KECCAK256 DUP1 SLOAD PUSH1 0x1 DUP3 ADD SLOAD PUSH1 0x2 SWAP1 SWAP3 ADD SLOAD SWAP1 SWAP2 SWAP1 DUP4 JUMP JUMPDEST PUSH1 0x3 SLOAD DUP2 JUMP JUMPDEST PUSH1 0x0 PUSH1 0x40 MLOAD PUSH2 0xE11 SWAP1 PUSH2 0x4103 JUMP JUMPDEST PUSH1 0x40 DUP1 MLOAD SWAP2 DUP3 SWAP1 SUB DUP3 KECCAK256 DUP3 DUP3 ADD SWAP1 SWAP2 MSTORE PUSH1 0x16 DUP3 MSTORE PUSH22 0x4E61727768616C20476F7665726E6F7220427261766F PUSH1 0x50 SHL PUSH1 0x20 SWAP1 SWAP3 ADD SWAP2 SWAP1 SWAP2 MSTORE PUSH32 0xA5913E215EE7A5382AEF35EE6D8D427767BF65220256F1FA33ACD6ED760B9E0F PUSH2 0xE71 PUSH2 0x2147 JUMP JUMPDEST ADDRESS PUSH1 0x40 MLOAD PUSH1 0x20 ADD PUSH2 0xE85 SWAP5 SWAP4 SWAP3 SWAP2 SWAP1 PUSH2 0x424C JUMP JUMPDEST PUSH1 0x40 MLOAD PUSH1 0x20 DUP2 DUP4 SUB SUB DUP2 MSTORE SWAP1 PUSH1 0x40 MSTORE DUP1 MLOAD SWAP1 PUSH1 0x20 ADD KECCAK256 SWAP1 POP PUSH1 0x0 PUSH1 0x40 MLOAD PUSH2 0xEAB SWAP1 PUSH2 0x40C7 JUMP JUMPDEST PUSH1 0x40 MLOAD SWAP1 DUP2 SWAP1 SUB DUP2 KECCAK256 PUSH2 0xEC4 SWAP2 DUP10 SWAP1 DUP10 SWAP1 PUSH1 0x20 ADD PUSH2 0x428A JUMP JUMPDEST PUSH1 0x40 MLOAD PUSH1 0x20 DUP2 DUP4 SUB SUB DUP2 MSTORE SWAP1 PUSH1 0x40 MSTORE DUP1 MLOAD SWAP1 PUSH1 0x20 ADD KECCAK256 SWAP1 POP PUSH1 0x0 DUP3 DUP3 PUSH1 0x40 MLOAD PUSH1 0x20 ADD PUSH2 0xEF1 SWAP3 SWAP2 SWAP1 PUSH2 0x40D2 JUMP JUMPDEST PUSH1 0x40 MLOAD PUSH1 0x20 DUP2 DUP4 SUB SUB DUP2 MSTORE SWAP1 PUSH1 0x40 MSTORE DUP1 MLOAD SWAP1 PUSH1 0x20 ADD KECCAK256 SWAP1 POP PUSH1 0x0 PUSH1 0x1 DUP3 DUP9 DUP9 DUP9 PUSH1 0x40 MLOAD PUSH1 0x0 DUP2 MSTORE PUSH1 0x20 ADD PUSH1 0x40 MSTORE PUSH1 0x40 MLOAD PUSH2 0xF2E SWAP5 SWAP4 SWAP3 SWAP2 SWAP1 PUSH2 0x42B2 JUMP JUMPDEST PUSH1 0x20 PUSH1 0x40 MLOAD PUSH1 0x20 DUP2 SUB SWAP1 DUP1 DUP5 SUB SWAP1 DUP6 GAS STATICCALL ISZERO DUP1 ISZERO PUSH2 0xF50 JUMPI RETURNDATASIZE PUSH1 0x0 DUP1 RETURNDATACOPY RETURNDATASIZE PUSH1 0x0 REVERT JUMPDEST POP POP PUSH1 0x40 MLOAD PUSH1 0x1F NOT ADD MLOAD SWAP2 POP POP PUSH1 0x1 PUSH1 0x1 PUSH1 0xA0 SHL SUB DUP2 AND PUSH2 0xF83 JUMPI PUSH1 0x40 MLOAD PUSH3 0x461BCD PUSH1 0xE5 SHL DUP2 MSTORE PUSH1 0x4 ADD PUSH2 0x5EB SWAP1 PUSH2 0x43B4 JUMP JUMPDEST DUP1 PUSH1 0x1 PUSH1 0x1 PUSH1 0xA0 SHL SUB AND PUSH32 0xB8E138887D0AA13BAB447E82DE9D5C1777041ECD21CA36BA824FF1E6C07DDDA4 DUP11 DUP11 PUSH2 0xFBB DUP6 DUP15 DUP15 PUSH2 0x214C JUMP JUMPDEST PUSH1 0x40 MLOAD PUSH2 0xFCA SWAP4 SWAP3 SWAP2 SWAP1 PUSH2 0x476A JUMP JUMPDEST PUSH1 0x40 MLOAD DUP1 SWAP2 SUB SWAP1 LOG2 POP POP POP POP POP POP POP POP POP JUMP JUMPDEST PUSH1 0x0 DUP2 PUSH1 0x7 SLOAD LT ISZERO DUP1 ISZERO PUSH2 0xFF2 JUMPI POP PUSH1 0x6 SLOAD DUP3 GT JUMPDEST PUSH2 0x100E JUMPI PUSH1 0x40 MLOAD PUSH3 0x461BCD PUSH1 0xE5 SHL DUP2 MSTORE PUSH1 0x4 ADD PUSH2 0x5EB SWAP1 PUSH2 0x4514 JUMP JUMPDEST PUSH1 0x0 DUP3 DUP2 MSTORE PUSH1 0xA PUSH1 0x20 MSTORE PUSH1 0x40 SWAP1 KECCAK256 PUSH1 0xC DUP2 ADD SLOAD PUSH1 0xFF AND ISZERO PUSH2 0x1033 JUMPI PUSH1 0x2 SWAP2 POP POP PUSH2 0x1172 JUMP JUMPDEST DUP1 PUSH1 0x7 ADD SLOAD NUMBER GT PUSH2 0x1048 JUMPI PUSH1 0x0 SWAP2 POP POP PUSH2 0x1172 JUMP JUMPDEST DUP1 PUSH1 0x8 ADD SLOAD NUMBER GT PUSH2 0x105D JUMPI PUSH1 0x1 SWAP2 POP POP PUSH2 0x1172 JUMP JUMPDEST DUP1 PUSH1 0xA ADD SLOAD DUP2 PUSH1 0x9 ADD SLOAD GT ISZERO DUP1 PUSH2 0x1081 JUMPI POP PUSH10 0x7F0E10AF47C1C7000000 DUP2 PUSH1 0x9 ADD SLOAD LT JUMPDEST ISZERO PUSH2 0x1090 JUMPI PUSH1 0x3 SWAP2 POP POP PUSH2 0x1172 JUMP JUMPDEST PUSH1 0x2 DUP2 ADD SLOAD PUSH2 0x10A3 JUMPI PUSH1 0x4 SWAP2 POP POP PUSH2 0x1172 JUMP JUMPDEST PUSH1 0xC DUP2 ADD SLOAD PUSH2 0x100 SWAP1 DIV PUSH1 0xFF AND ISZERO PUSH2 0x10BF JUMPI PUSH1 0x7 SWAP2 POP POP PUSH2 0x1172 JUMP JUMPDEST PUSH1 0x2 DUP2 ADD SLOAD PUSH1 0xE DUP3 ADD SLOAD PUSH1 0xFF AND PUSH1 0x0 SWAP1 DUP2 MSTORE PUSH1 0xF PUSH1 0x20 SWAP1 DUP2 MSTORE PUSH1 0x40 SWAP2 DUP3 SWAP1 KECCAK256 SLOAD DUP3 MLOAD PUSH4 0x60D143F1 PUSH1 0xE1 SHL DUP2 MSTORE SWAP3 MLOAD PUSH2 0x115C SWAP5 SWAP4 PUSH1 0x1 PUSH1 0x1 PUSH1 0xA0 SHL SUB SWAP1 SWAP3 AND SWAP3 PUSH4 0xC1A287E2 SWAP3 PUSH1 0x4 DUP1 DUP3 ADD SWAP4 SWAP2 DUP3 SWAP1 SUB ADD DUP2 DUP7 DUP1 EXTCODESIZE ISZERO DUP1 ISZERO PUSH2 0x111F JUMPI PUSH1 0x0 DUP1 REVERT JUMPDEST POP GAS STATICCALL ISZERO DUP1 ISZERO PUSH2 0x1133 JUMPI RETURNDATASIZE PUSH1 0x0 DUP1 RETURNDATACOPY RETURNDATASIZE PUSH1 0x0 REVERT JUMPDEST POP POP POP POP PUSH1 0x40 MLOAD RETURNDATASIZE PUSH1 0x1F NOT PUSH1 0x1F DUP3 ADD AND DUP3 ADD DUP1 PUSH1 0x40 MSTORE POP PUSH2 0x1157 SWAP2 SWAP1 DUP2 ADD SWAP1 PUSH2 0x2DE1 JUMP JUMPDEST PUSH2 0x211B JUMP JUMPDEST TIMESTAMP LT PUSH2 0x116C JUMPI PUSH1 0x6 SWAP2 POP POP PUSH2 0x1172 JUMP JUMPDEST PUSH1 0x5 SWAP2 POP POP JUMPDEST SWAP2 SWAP1 POP JUMP JUMPDEST PUSH1 0x7 PUSH2 0x1182 DUP3 PUSH2 0xFDD JUMP JUMPDEST PUSH1 0x7 DUP2 GT ISZERO PUSH2 0x118D JUMPI INVALID JUMPDEST EQ ISZERO PUSH2 0x11AB JUMPI PUSH1 0x40 MLOAD PUSH3 0x461BCD PUSH1 0xE5 SHL DUP2 MSTORE PUSH1 0x4 ADD PUSH2 0x5EB SWAP1 PUSH2 0x4504 JUMP JUMPDEST PUSH1 0x0 DUP2 DUP2 MSTORE PUSH1 0xA PUSH1 0x20 MSTORE PUSH1 0x40 SWAP1 KECCAK256 PUSH1 0xD SLOAD PUSH1 0x1 PUSH1 0x1 PUSH1 0xA0 SHL SUB AND CALLER EQ DUP1 PUSH2 0x11DE JUMPI POP PUSH1 0x1 DUP2 ADD SLOAD PUSH1 0x1 PUSH1 0x1 PUSH1 0xA0 SHL SUB AND CALLER EQ JUMPDEST DUP1 PUSH2 0x12A1 JUMPI POP PUSH1 0xE DUP2 DUP2 ADD SLOAD PUSH1 0xFF AND PUSH1 0x0 SWAP1 DUP2 MSTORE PUSH1 0x20 SWAP2 SWAP1 SWAP2 MSTORE PUSH1 0x40 SWAP1 KECCAK256 PUSH1 0x2 ADD SLOAD PUSH1 0x9 SLOAD PUSH1 0x1 DUP1 DUP5 ADD SLOAD PUSH1 0x1 PUSH1 0x1 PUSH1 0xA0 SHL SUB SWAP3 DUP4 AND SWAP3 PUSH4 0x782D6FE1 SWAP3 SWAP2 AND SWAP1 PUSH2 0x1229 SWAP1 NUMBER SWAP1 PUSH2 0x20F3 JUMP JUMPDEST PUSH1 0x40 MLOAD DUP4 PUSH4 0xFFFFFFFF AND PUSH1 0xE0 SHL DUP2 MSTORE PUSH1 0x4 ADD PUSH2 0x1246 SWAP3 SWAP2 SWAP1 PUSH2 0x4152 JUMP JUMPDEST PUSH1 0x20 PUSH1 0x40 MLOAD DUP1 DUP4 SUB DUP2 DUP7 DUP1 EXTCODESIZE ISZERO DUP1 ISZERO PUSH2 0x125E JUMPI PUSH1 0x0 DUP1 REVERT JUMPDEST POP GAS STATICCALL ISZERO DUP1 ISZERO PUSH2 0x1272 JUMPI RETURNDATASIZE PUSH1 0x0 DUP1 RETURNDATACOPY RETURNDATASIZE PUSH1 0x0 REVERT JUMPDEST POP POP POP POP PUSH1 0x40 MLOAD RETURNDATASIZE PUSH1 0x1F NOT PUSH1 0x1F DUP3 ADD AND DUP3 ADD DUP1 PUSH1 0x40 MSTORE POP PUSH2 0x1296 SWAP2 SWAP1 DUP2 ADD SWAP1 PUSH2 0x2F97 JUMP JUMPDEST PUSH1 0x1 PUSH1 0x1 PUSH1 0x60 SHL SUB AND LT JUMPDEST PUSH2 0x12BD JUMPI PUSH1 0x40 MLOAD PUSH3 0x461BCD PUSH1 0xE5 SHL DUP2 MSTORE PUSH1 0x4 ADD PUSH2 0x5EB SWAP1 PUSH2 0x4464 JUMP JUMPDEST PUSH1 0xC DUP2 ADD DUP1 SLOAD PUSH1 0xFF NOT AND PUSH1 0x1 OR SWAP1 SSTORE PUSH1 0x0 JUMPDEST PUSH1 0x3 DUP3 ADD SLOAD DUP2 LT ISZERO PUSH2 0x13DD JUMPI PUSH1 0xE DUP3 ADD SLOAD PUSH1 0xFF AND PUSH1 0x0 SWAP1 DUP2 MSTORE PUSH1 0xF PUSH1 0x20 MSTORE PUSH1 0x40 SWAP1 KECCAK256 SLOAD PUSH1 0x3 DUP4 ADD DUP1 SLOAD PUSH1 0x1 PUSH1 0x1 PUSH1 0xA0 SHL SUB SWAP1 SWAP3 AND SWAP2 PUSH4 0x591FCDFE SWAP2 SWAP1 DUP5 SWAP1 DUP2 LT PUSH2 0x1315 JUMPI INVALID JUMPDEST PUSH1 0x0 SWAP2 DUP3 MSTORE PUSH1 0x20 SWAP1 SWAP2 KECCAK256 ADD SLOAD PUSH1 0x4 DUP6 ADD DUP1 SLOAD PUSH1 0x1 PUSH1 0x1 PUSH1 0xA0 SHL SUB SWAP1 SWAP3 AND SWAP2 DUP6 SWAP1 DUP2 LT PUSH2 0x133D JUMPI INVALID JUMPDEST SWAP1 PUSH1 0x0 MSTORE PUSH1 0x20 PUSH1 0x0 KECCAK256 ADD SLOAD DUP6 PUSH1 0x5 ADD DUP6 DUP2 SLOAD DUP2 LT PUSH2 0x1357 JUMPI INVALID JUMPDEST SWAP1 PUSH1 0x0 MSTORE PUSH1 0x20 PUSH1 0x0 KECCAK256 ADD DUP7 PUSH1 0x6 ADD DUP7 DUP2 SLOAD DUP2 LT PUSH2 0x1370 JUMPI INVALID JUMPDEST SWAP1 PUSH1 0x0 MSTORE PUSH1 0x20 PUSH1 0x0 KECCAK256 ADD DUP8 PUSH1 0x2 ADD SLOAD PUSH1 0x40 MLOAD DUP7 PUSH4 0xFFFFFFFF AND PUSH1 0xE0 SHL DUP2 MSTORE PUSH1 0x4 ADD PUSH2 0x139F SWAP6 SWAP5 SWAP4 SWAP3 SWAP2 SWAP1 PUSH2 0x41B0 JUMP JUMPDEST PUSH1 0x0 PUSH1 0x40 MLOAD DUP1 DUP4 SUB DUP2 PUSH1 0x0 DUP8 DUP1 EXTCODESIZE ISZERO DUP1 ISZERO PUSH2 0x13B9 JUMPI PUSH1 0x0 DUP1 REVERT JUMPDEST POP GAS CALL ISZERO DUP1 ISZERO PUSH2 0x13CD JUMPI RETURNDATASIZE PUSH1 0x0 DUP1 RETURNDATACOPY RETURNDATASIZE PUSH1 0x0 REVERT JUMPDEST POP POP PUSH1 0x1 SWAP1 SWAP3 ADD SWAP2 POP PUSH2 0x12CF SWAP1 POP JUMP JUMPDEST POP PUSH32 0x789CF55BE980739DAD1D0699B93B58E806B51C9D96619BFA8FE0A28ABAA7B30C DUP3 PUSH1 0x40 MLOAD PUSH2 0xAF9 SWAP2 SWAP1 PUSH2 0x423E JUMP JUMPDEST PUSH1 0xD SLOAD PUSH1 0x1 PUSH1 0x1 PUSH1 0xA0 SHL SUB AND DUP2 JUMP JUMPDEST CALLER PUSH32 0xB8E138887D0AA13BAB447E82DE9D5C1777041ECD21CA36BA824FF1E6C07DDDA4 DUP4 DUP4 PUSH2 0x144B DUP5 DUP4 DUP4 PUSH2 0x214C JUMP JUMPDEST PUSH1 0x40 MLOAD PUSH2 0x145A SWAP4 SWAP3 SWAP2 SWAP1 PUSH2 0x476A JUMP JUMPDEST PUSH1 0x40 MLOAD DUP1 SWAP2 SUB SWAP1 LOG2 POP POP JUMP JUMPDEST PUSH1 0x2 SLOAD PUSH1 0x1 PUSH1 0x1 PUSH1 0xA0 SHL SUB AND DUP2 JUMP JUMPDEST PUSH10 0x1FC3842BD1F071C00000 DUP2 JUMP JUMPDEST CALLER PUSH32 0xB8E138887D0AA13BAB447E82DE9D5C1777041ECD21CA36BA824FF1E6C07DDDA4 DUP6 DUP6 PUSH2 0x14B2 DUP5 DUP4 DUP4 PUSH2 0x214C JUMP JUMPDEST DUP7 DUP7 PUSH1 0x40 MLOAD PUSH2 0x14C5 SWAP6 SWAP5 SWAP4 SWAP3 SWAP2 SWAP1 PUSH2 0x4724 JUMP JUMPDEST PUSH1 0x40 MLOAD DUP1 SWAP2 SUB SWAP1 LOG2 POP POP POP POP JUMP JUMPDEST PUSH1 0xC SLOAD DUP2 JUMP JUMPDEST PUSH1 0x0 DUP1 MSTORE PUSH1 0xF PUSH1 0x20 MSTORE PUSH32 0xF4803E074BD026BAAF6ED2E288C9515F68C72FB7216EEBDD7CAE1718A53EC375 SLOAD PUSH1 0x1 PUSH1 0x1 PUSH1 0xA0 SHL SUB AND ISZERO PUSH2 0x152A JUMPI PUSH1 0x40 MLOAD PUSH3 0x461BCD PUSH1 0xE5 SHL DUP2 MSTORE PUSH1 0x4 ADD PUSH2 0x5EB SWAP1 PUSH2 0x43E4 JUMP JUMPDEST PUSH1 0x0 SLOAD PUSH1 0x1 PUSH1 0x1 PUSH1 0xA0 SHL SUB AND CALLER EQ PUSH2 0x1554 JUMPI PUSH1 0x40 MLOAD PUSH3 0x461BCD PUSH1 0xE5 SHL DUP2 MSTORE PUSH1 0x4 ADD PUSH2 0x5EB SWAP1 PUSH2 0x43D4 JUMP JUMPDEST PUSH1 0x1 PUSH1 0x1 PUSH1 0xA0 SHL SUB DUP5 AND PUSH2 0x157A JUMPI PUSH1 0x40 MLOAD PUSH3 0x461BCD PUSH1 0xE5 SHL DUP2 MSTORE PUSH1 0x4 ADD PUSH2 0x5EB SWAP1 PUSH2 0x4424 JUMP JUMPDEST PUSH1 0x1 PUSH1 0x1 PUSH1 0xA0 SHL SUB DUP2 AND PUSH2 0x15A0 JUMPI PUSH1 0x40 MLOAD PUSH3 0x461BCD PUSH1 0xE5 SHL DUP2 MSTORE PUSH1 0x4 ADD PUSH2 0x5EB SWAP1 PUSH2 0x4474 JUMP JUMPDEST DUP2 MLOAD PUSH1 0x3 EQ PUSH2 0x15C1 JUMPI PUSH1 0x40 MLOAD PUSH3 0x461BCD PUSH1 0xE5 SHL DUP2 MSTORE PUSH1 0x4 ADD PUSH2 0x5EB SWAP1 PUSH2 0x4344 JUMP JUMPDEST DUP3 MLOAD PUSH1 0x3 EQ PUSH2 0x15E2 JUMPI PUSH1 0x40 MLOAD PUSH3 0x461BCD PUSH1 0xE5 SHL DUP2 MSTORE PUSH1 0x4 ADD PUSH2 0x5EB SWAP1 PUSH2 0x4524 JUMP JUMPDEST PUSH1 0x9 DUP1 SLOAD PUSH1 0x1 PUSH1 0x1 PUSH1 0xA0 SHL SUB DUP1 DUP8 AND PUSH1 0x1 PUSH1 0x1 PUSH1 0xA0 SHL SUB NOT SWAP3 DUP4 AND OR SWAP1 SWAP3 SSTORE PUSH1 0xA PUSH1 0xC SSTORE PUSH1 0xD DUP1 SLOAD SWAP3 DUP5 AND SWAP3 SWAP1 SWAP2 AND SWAP2 SWAP1 SWAP2 OR SWAP1 SSTORE PUSH1 0x0 JUMPDEST DUP4 MLOAD DUP2 LT ISZERO PUSH2 0x1877 JUMPI PUSH1 0x0 DUP5 DUP3 DUP2 MLOAD DUP2 LT PUSH2 0x1631 JUMPI INVALID JUMPDEST PUSH1 0x20 MUL PUSH1 0x20 ADD ADD MLOAD PUSH1 0x20 ADD MLOAD SWAP1 POP PUSH2 0xE10 DUP6 DUP4 DUP2 MLOAD DUP2 LT PUSH2 0x164E JUMPI INVALID JUMPDEST PUSH1 0x20 MUL PUSH1 0x20 ADD ADD MLOAD PUSH1 0x20 ADD MLOAD LT ISZERO PUSH2 0x1678 JUMPI PUSH1 0x40 MLOAD PUSH3 0x461BCD PUSH1 0xE5 SHL DUP2 MSTORE PUSH1 0x4 ADD PUSH2 0x5EB SWAP1 PUSH2 0x4394 JUMP JUMPDEST PUSH3 0x62700 DUP6 DUP4 DUP2 MLOAD DUP2 LT PUSH2 0x1688 JUMPI INVALID JUMPDEST PUSH1 0x20 MUL PUSH1 0x20 ADD ADD MLOAD PUSH1 0x20 ADD MLOAD GT ISZERO PUSH2 0x16B2 JUMPI PUSH1 0x40 MLOAD PUSH3 0x461BCD PUSH1 0xE5 SHL DUP2 MSTORE PUSH1 0x4 ADD PUSH2 0x5EB SWAP1 PUSH2 0x4564 JUMP JUMPDEST PUSH1 0x1 DUP6 DUP4 DUP2 MLOAD DUP2 LT PUSH2 0x16C0 JUMPI INVALID JUMPDEST PUSH1 0x20 MUL PUSH1 0x20 ADD ADD MLOAD PUSH1 0x0 ADD MLOAD LT ISZERO PUSH2 0x16EA JUMPI PUSH1 0x40 MLOAD PUSH3 0x461BCD PUSH1 0xE5 SHL DUP2 MSTORE PUSH1 0x4 ADD PUSH2 0x5EB SWAP1 PUSH2 0x4454 JUMP JUMPDEST PUSH3 0x31380 DUP6 DUP4 DUP2 MLOAD DUP2 LT PUSH2 0x16FA JUMPI INVALID JUMPDEST PUSH1 0x20 MUL PUSH1 0x20 ADD ADD MLOAD PUSH1 0x0 ADD MLOAD GT ISZERO PUSH2 0x1724 JUMPI PUSH1 0x40 MLOAD PUSH3 0x461BCD PUSH1 0xE5 SHL DUP2 MSTORE PUSH1 0x4 ADD PUSH2 0x5EB SWAP1 PUSH2 0x44C4 JUMP JUMPDEST PUSH10 0x1FC3842BD1F071C00000 DUP6 DUP4 DUP2 MLOAD DUP2 LT PUSH2 0x173B JUMPI INVALID JUMPDEST PUSH1 0x20 MUL PUSH1 0x20 ADD ADD MLOAD PUSH1 0x40 ADD MLOAD LT ISZERO PUSH2 0x1765 JUMPI PUSH1 0x40 MLOAD PUSH3 0x461BCD PUSH1 0xE5 SHL DUP2 MSTORE PUSH1 0x4 ADD PUSH2 0x5EB SWAP1 PUSH2 0x4364 JUMP JUMPDEST PUSH10 0x3F870857A3E0E3800000 DUP6 DUP4 DUP2 MLOAD DUP2 LT PUSH2 0x177C JUMPI INVALID JUMPDEST PUSH1 0x20 MUL PUSH1 0x20 ADD ADD MLOAD PUSH1 0x40 ADD MLOAD GT ISZERO PUSH2 0x17A6 JUMPI PUSH1 0x40 MLOAD PUSH3 0x461BCD PUSH1 0xE5 SHL DUP2 MSTORE PUSH1 0x4 ADD PUSH2 0x5EB SWAP1 PUSH2 0x4574 JUMP JUMPDEST PUSH1 0x0 PUSH1 0x1 PUSH1 0x1 PUSH1 0xA0 SHL SUB AND DUP5 DUP4 DUP2 MLOAD DUP2 LT PUSH2 0x17BD JUMPI INVALID JUMPDEST PUSH1 0x20 MUL PUSH1 0x20 ADD ADD MLOAD PUSH1 0x1 PUSH1 0x1 PUSH1 0xA0 SHL SUB AND EQ ISZERO PUSH2 0x17EC JUMPI PUSH1 0x40 MLOAD PUSH3 0x461BCD PUSH1 0xE5 SHL DUP2 MSTORE PUSH1 0x4 ADD PUSH2 0x5EB SWAP1 PUSH2 0x44B4 JUMP JUMPDEST DUP5 DUP3 DUP2 MLOAD DUP2 LT PUSH2 0x17F8 JUMPI INVALID JUMPDEST PUSH1 0x20 SWAP1 DUP2 MUL SWAP2 SWAP1 SWAP2 ADD DUP2 ADD MLOAD PUSH1 0x0 DUP5 DUP2 MSTORE PUSH1 0xE DUP4 MSTORE PUSH1 0x40 SWAP1 DUP2 SWAP1 KECCAK256 DUP3 MLOAD DUP2 SSTORE SWAP3 DUP3 ADD MLOAD PUSH1 0x1 DUP5 ADD SSTORE ADD MLOAD PUSH1 0x2 SWAP1 SWAP2 ADD SSTORE DUP4 MLOAD DUP5 SWAP1 DUP4 SWAP1 DUP2 LT PUSH2 0x1836 JUMPI INVALID JUMPDEST PUSH1 0x20 SWAP1 DUP2 MUL SWAP2 SWAP1 SWAP2 ADD DUP2 ADD MLOAD PUSH1 0x0 DUP5 DUP2 MSTORE PUSH1 0xF SWAP1 SWAP3 MSTORE PUSH1 0x40 SWAP1 SWAP2 KECCAK256 DUP1 SLOAD PUSH1 0x1 PUSH1 0x1 PUSH1 0xA0 SHL SUB NOT AND PUSH1 0x1 PUSH1 0x1 PUSH1 0xA0 SHL SUB SWAP1 SWAP3 AND SWAP2 SWAP1 SWAP2 OR SWAP1 SSTORE POP PUSH1 0x1 ADD PUSH2 0x161A JUMP JUMPDEST POP POP POP POP POP JUMP JUMPDEST PUSH3 0x62700 DUP2 JUMP JUMPDEST PUSH3 0x31380 DUP2 JUMP JUMPDEST PUSH1 0x5 SLOAD DUP2 JUMP JUMPDEST PUSH1 0x0 SLOAD PUSH1 0x1 PUSH1 0x1 PUSH1 0xA0 SHL SUB AND CALLER EQ PUSH2 0x18BC JUMPI PUSH1 0x40 MLOAD PUSH3 0x461BCD PUSH1 0xE5 SHL DUP2 MSTORE PUSH1 0x4 ADD PUSH2 0x5EB SWAP1 PUSH2 0x4324 JUMP JUMPDEST PUSH1 0x1 DUP1 SLOAD PUSH1 0x1 PUSH1 0x1 PUSH1 0xA0 SHL SUB DUP4 DUP2 AND PUSH1 0x1 PUSH1 0x1 PUSH1 0xA0 SHL SUB NOT DUP4 AND OR SWAP1 SWAP3 SSTORE PUSH1 0x40 MLOAD SWAP2 AND SWAP1 PUSH32 0xCA4F2F25D0898EDD99413412FB94012F9E54EC8142F9B093E7720646A95B16A9 SWAP1 PUSH2 0xAF9 SWAP1 DUP4 SWAP1 DUP6 SWAP1 PUSH2 0x4137 JUMP JUMPDEST PUSH1 0x8 SLOAD PUSH1 0x1 PUSH1 0x1 PUSH1 0xA0 SHL SUB AND DUP2 JUMP JUMPDEST PUSH1 0x7 SLOAD DUP2 JUMP JUMPDEST PUSH1 0x4 PUSH2 0x192F DUP3 PUSH2 0xFDD JUMP JUMPDEST PUSH1 0x7 DUP2 GT ISZERO PUSH2 0x193A JUMPI INVALID JUMPDEST EQ PUSH2 0x1957 JUMPI PUSH1 0x40 MLOAD PUSH3 0x461BCD PUSH1 0xE5 SHL DUP2 MSTORE PUSH1 0x4 ADD PUSH2 0x5EB SWAP1 PUSH2 0x43F4 JUMP JUMPDEST PUSH1 0x0 DUP2 DUP2 MSTORE PUSH1 0xA PUSH1 0x20 SWAP1 DUP2 MSTORE PUSH1 0x40 DUP1 DUP4 KECCAK256 PUSH1 0xE DUP2 ADD SLOAD PUSH1 0xFF AND DUP5 MSTORE PUSH1 0xF DUP4 MSTORE DUP2 DUP5 KECCAK256 SLOAD DUP3 MLOAD PUSH4 0xD48571F PUSH1 0xE3 SHL DUP2 MSTORE SWAP3 MLOAD SWAP2 SWAP5 SWAP4 PUSH2 0x19C0 SWAP4 TIMESTAMP SWAP4 PUSH1 0x1 PUSH1 0x1 PUSH1 0xA0 SHL SUB SWAP1 SWAP4 AND SWAP3 PUSH4 0x6A42B8F8 SWAP3 PUSH1 0x4 DUP1 DUP5 ADD SWAP4 SWAP2 SWAP3 SWAP2 DUP3 SWAP1 SUB ADD DUP2 DUP7 DUP1 EXTCODESIZE ISZERO DUP1 ISZERO PUSH2 0x111F JUMPI PUSH1 0x0 DUP1 REVERT JUMPDEST SWAP1 POP PUSH1 0x0 JUMPDEST PUSH1 0x3 DUP4 ADD SLOAD DUP2 LT ISZERO PUSH2 0x1B71 JUMPI PUSH2 0x1B69 DUP4 PUSH1 0x3 ADD DUP3 DUP2 SLOAD DUP2 LT PUSH2 0x19E3 JUMPI INVALID JUMPDEST PUSH1 0x0 SWAP2 DUP3 MSTORE PUSH1 0x20 SWAP1 SWAP2 KECCAK256 ADD SLOAD PUSH1 0x4 DUP6 ADD DUP1 SLOAD PUSH1 0x1 PUSH1 0x1 PUSH1 0xA0 SHL SUB SWAP1 SWAP3 AND SWAP2 DUP5 SWAP1 DUP2 LT PUSH2 0x1A0B JUMPI INVALID JUMPDEST SWAP1 PUSH1 0x0 MSTORE PUSH1 0x20 PUSH1 0x0 KECCAK256 ADD SLOAD DUP6 PUSH1 0x5 ADD DUP5 DUP2 SLOAD DUP2 LT PUSH2 0x1A25 JUMPI INVALID JUMPDEST PUSH1 0x0 SWAP2 DUP3 MSTORE PUSH1 0x20 SWAP2 DUP3 SWAP1 KECCAK256 ADD DUP1 SLOAD PUSH1 0x40 DUP1 MLOAD PUSH1 0x1F PUSH1 0x2 PUSH1 0x0 NOT PUSH2 0x100 PUSH1 0x1 DUP8 AND ISZERO MUL ADD SWAP1 SWAP5 AND SWAP4 SWAP1 SWAP4 DIV SWAP3 DUP4 ADD DUP6 SWAP1 DIV DUP6 MUL DUP2 ADD DUP6 ADD SWAP1 SWAP2 MSTORE DUP2 DUP2 MSTORE SWAP3 DUP4 ADD DUP3 DUP3 DUP1 ISZERO PUSH2 0x1AB3 JUMPI DUP1 PUSH1 0x1F LT PUSH2 0x1A88 JUMPI PUSH2 0x100 DUP1 DUP4 SLOAD DIV MUL DUP4 MSTORE SWAP2 PUSH1 0x20 ADD SWAP2 PUSH2 0x1AB3 JUMP JUMPDEST DUP3 ADD SWAP2 SWAP1 PUSH1 0x0 MSTORE PUSH1 0x20 PUSH1 0x0 KECCAK256 SWAP1 JUMPDEST DUP2 SLOAD DUP2 MSTORE SWAP1 PUSH1 0x1 ADD SWAP1 PUSH1 0x20 ADD DUP1 DUP4 GT PUSH2 0x1A96 JUMPI DUP3 SWAP1 SUB PUSH1 0x1F AND DUP3 ADD SWAP2 JUMPDEST POP POP POP POP POP DUP7 PUSH1 0x6 ADD DUP6 DUP2 SLOAD DUP2 LT PUSH2 0x1AC7 JUMPI INVALID JUMPDEST PUSH1 0x0 SWAP2 DUP3 MSTORE PUSH1 0x20 SWAP2 DUP3 SWAP1 KECCAK256 ADD DUP1 SLOAD PUSH1 0x40 DUP1 MLOAD PUSH1 0x1F PUSH1 0x2 PUSH1 0x0 NOT PUSH2 0x100 PUSH1 0x1 DUP8 AND ISZERO MUL ADD SWAP1 SWAP5 AND SWAP4 SWAP1 SWAP4 DIV SWAP3 DUP4 ADD DUP6 SWAP1 DIV DUP6 MUL DUP2 ADD DUP6 ADD SWAP1 SWAP2 MSTORE DUP2 DUP2 MSTORE SWAP3 DUP4 ADD DUP3 DUP3 DUP1 ISZERO PUSH2 0x1B55 JUMPI DUP1 PUSH1 0x1F LT PUSH2 0x1B2A JUMPI PUSH2 0x100 DUP1 DUP4 SLOAD DIV MUL DUP4 MSTORE SWAP2 PUSH1 0x20 ADD SWAP2 PUSH2 0x1B55 JUMP JUMPDEST DUP3 ADD SWAP2 SWAP1 PUSH1 0x0 MSTORE PUSH1 0x20 PUSH1 0x0 KECCAK256 SWAP1 JUMPDEST DUP2 SLOAD DUP2 MSTORE SWAP1 PUSH1 0x1 ADD SWAP1 PUSH1 0x20 ADD DUP1 DUP4 GT PUSH2 0x1B38 JUMPI DUP3 SWAP1 SUB PUSH1 0x1F AND DUP3 ADD SWAP2 JUMPDEST POP POP POP POP PUSH1 0xE DUP10 ADD SLOAD DUP9 SWAP2 POP PUSH1 0xFF AND PUSH2 0x233C JUMP JUMPDEST PUSH1 0x1 ADD PUSH2 0x19C5 JUMP JUMPDEST POP PUSH1 0x2 DUP3 ADD DUP2 SWAP1 SSTORE PUSH1 0x40 MLOAD PUSH32 0x9A2E42FD6722813D69113E7D0079D3D940171428DF7373DF9C7F7617CFDA2892 SWAP1 PUSH2 0x1BAB SWAP1 DUP6 SWAP1 DUP5 SWAP1 PUSH2 0x46EE JUMP JUMPDEST PUSH1 0x40 MLOAD DUP1 SWAP2 SUB SWAP1 LOG1 POP POP POP JUMP JUMPDEST PUSH1 0x40 MLOAD PUSH2 0xB11 SWAP1 PUSH2 0x40C7 JUMP JUMPDEST PUSH2 0x1BCC PUSH2 0x26A2 JUMP JUMPDEST POP PUSH1 0x0 DUP3 DUP2 MSTORE PUSH1 0xA PUSH1 0x20 SWAP1 DUP2 MSTORE PUSH1 0x40 DUP1 DUP4 KECCAK256 PUSH1 0x1 PUSH1 0x1 PUSH1 0xA0 SHL SUB DUP6 AND DUP5 MSTORE PUSH1 0xD ADD DUP3 MSTORE SWAP2 DUP3 SWAP1 KECCAK256 DUP3 MLOAD PUSH1 0x60 DUP2 ADD DUP5 MSTORE SWAP1 SLOAD PUSH1 0xFF DUP1 DUP3 AND ISZERO ISZERO DUP4 MSTORE PUSH2 0x100 DUP3 DIV AND SWAP3 DUP3 ADD SWAP3 SWAP1 SWAP3 MSTORE PUSH3 0x10000 SWAP1 SWAP2 DIV PUSH1 0x1 PUSH1 0x1 PUSH1 0x60 SHL SUB AND SWAP2 DUP2 ADD SWAP2 SWAP1 SWAP2 MSTORE JUMPDEST SWAP3 SWAP2 POP POP JUMP JUMPDEST PUSH1 0xD SLOAD PUSH1 0x1 PUSH1 0x1 PUSH1 0xA0 SHL SUB AND CALLER EQ DUP1 PUSH2 0x1C54 JUMPI POP PUSH1 0x0 SLOAD PUSH1 0x1 PUSH1 0x1 PUSH1 0xA0 SHL SUB AND CALLER EQ JUMPDEST PUSH2 0x1C70 JUMPI PUSH1 0x40 MLOAD PUSH3 0x461BCD PUSH1 0xE5 SHL DUP2 MSTORE PUSH1 0x4 ADD PUSH2 0x5EB SWAP1 PUSH2 0x4544 JUMP JUMPDEST PUSH1 0x1 PUSH1 0x1 PUSH1 0xA0 SHL SUB DUP2 AND PUSH2 0x1C96 JUMPI PUSH1 0x40 MLOAD PUSH3 0x461BCD PUSH1 0xE5 SHL DUP2 MSTORE PUSH1 0x4 ADD PUSH2 0x5EB SWAP1 PUSH2 0x4534 JUMP JUMPDEST PUSH1 0xD DUP1 SLOAD PUSH1 0x1 PUSH1 0x1 PUSH1 0xA0 SHL SUB DUP4 DUP2 AND PUSH1 0x1 PUSH1 0x1 PUSH1 0xA0 SHL SUB NOT DUP4 AND OR SWAP1 SWAP3 SSTORE PUSH1 0x40 MLOAD SWAP2 AND SWAP1 PUSH32 0x8FDAF06427A2010E5958F4329B566993472D14CE81D3F16CE7F2A2660DA98E3 SWAP1 PUSH2 0xAF9 SWAP1 DUP4 SWAP1 DUP6 SWAP1 PUSH2 0x4137 JUMP JUMPDEST PUSH1 0x1 DUP2 JUMP JUMPDEST PUSH1 0x1 SLOAD PUSH1 0x1 PUSH1 0x1 PUSH1 0xA0 SHL SUB AND CALLER EQ DUP1 ISZERO PUSH2 0x1D07 JUMPI POP CALLER ISZERO ISZERO JUMPDEST PUSH2 0x1D23 JUMPI PUSH1 0x40 MLOAD PUSH3 0x461BCD PUSH1 0xE5 SHL DUP2 MSTORE PUSH1 0x4 ADD PUSH2 0x5EB SWAP1 PUSH2 0x4444 JUMP JUMPDEST PUSH1 0x0 DUP1 SLOAD PUSH1 0x1 DUP1 SLOAD PUSH1 0x1 PUSH1 0x1 PUSH1 0xA0 SHL SUB DUP1 DUP3 AND PUSH1 0x1 PUSH1 0x1 PUSH1 0xA0 SHL SUB NOT DUP1 DUP7 AND DUP3 OR SWAP7 DUP8 SWAP1 SSTORE SWAP1 SWAP3 AND SWAP1 SWAP3 SSTORE PUSH1 0x40 MLOAD SWAP3 DUP3 AND SWAP4 SWAP1 SWAP3 PUSH32 0xF9FFABCA9C8276E99321725BCB43FB076A6C66A54B7F21C4E8146D8519B417DC SWAP3 PUSH2 0x1D87 SWAP3 DUP7 SWAP3 SWAP2 AND SWAP1 PUSH2 0x4137 JUMP JUMPDEST PUSH1 0x40 MLOAD DUP1 SWAP2 SUB SWAP1 LOG1 PUSH1 0x1 SLOAD PUSH1 0x40 MLOAD PUSH32 0xCA4F2F25D0898EDD99413412FB94012F9E54EC8142F9B093E7720646A95B16A9 SWAP2 PUSH2 0xAF9 SWAP2 DUP5 SWAP2 PUSH1 0x1 PUSH1 0x1 PUSH1 0xA0 SHL SUB AND SWAP1 PUSH2 0x4137 JUMP JUMPDEST PUSH1 0xF PUSH1 0x20 MSTORE PUSH1 0x0 SWAP1 DUP2 MSTORE PUSH1 0x40 SWAP1 KECCAK256 SLOAD PUSH1 0x1 PUSH1 0x1 PUSH1 0xA0 SHL SUB AND DUP2 JUMP JUMPDEST PUSH1 0x0 SLOAD PUSH1 0x1 PUSH1 0x1 PUSH1 0xA0 SHL SUB AND DUP2 JUMP JUMPDEST PUSH1 0x0 SLOAD PUSH1 0x1 PUSH1 0x1 PUSH1 0xA0 SHL SUB AND CALLER EQ PUSH2 0x1E20 JUMPI PUSH1 0x40 MLOAD PUSH3 0x461BCD PUSH1 0xE5 SHL DUP2 MSTORE PUSH1 0x4 ADD PUSH2 0x5EB SWAP1 PUSH2 0x44E4 JUMP JUMPDEST PUSH1 0x6 SLOAD ISZERO PUSH2 0x1E40 JUMPI PUSH1 0x40 MLOAD PUSH3 0x461BCD PUSH1 0xE5 SHL DUP2 MSTORE PUSH1 0x4 ADD PUSH2 0x5EB SWAP1 PUSH2 0x4414 JUMP JUMPDEST DUP1 PUSH1 0x1 PUSH1 0x1 PUSH1 0xA0 SHL SUB AND PUSH4 0xDA35C664 PUSH1 0x40 MLOAD DUP2 PUSH4 0xFFFFFFFF AND PUSH1 0xE0 SHL DUP2 MSTORE PUSH1 0x4 ADD PUSH1 0x20 PUSH1 0x40 MLOAD DUP1 DUP4 SUB DUP2 PUSH1 0x0 DUP8 DUP1 EXTCODESIZE ISZERO DUP1 ISZERO PUSH2 0x1E7B JUMPI PUSH1 0x0 DUP1 REVERT JUMPDEST POP GAS CALL ISZERO DUP1 ISZERO PUSH2 0x1E8F JUMPI RETURNDATASIZE PUSH1 0x0 DUP1 RETURNDATACOPY RETURNDATASIZE PUSH1 0x0 REVERT JUMPDEST POP POP POP POP PUSH1 0x40 MLOAD RETURNDATASIZE PUSH1 0x1F NOT PUSH1 0x1F DUP3 ADD AND DUP3 ADD DUP1 PUSH1 0x40 MSTORE POP PUSH2 0x1EB3 SWAP2 SWAP1 DUP2 ADD SWAP1 PUSH2 0x2DE1 JUMP JUMPDEST PUSH1 0x7 DUP2 SWAP1 SSTORE PUSH1 0x6 SSTORE PUSH1 0x0 JUMPDEST PUSH1 0x3 DUP2 LT ISZERO PUSH2 0x1F36 JUMPI PUSH1 0x0 DUP2 DUP2 MSTORE PUSH1 0xF PUSH1 0x20 MSTORE PUSH1 0x40 DUP1 DUP3 KECCAK256 SLOAD DUP2 MLOAD PUSH4 0xE18B681 PUSH1 0xE0 SHL DUP2 MSTORE SWAP2 MLOAD PUSH1 0x1 PUSH1 0x1 PUSH1 0xA0 SHL SUB SWAP1 SWAP2 AND SWAP3 PUSH4 0xE18B681 SWAP3 PUSH1 0x4 DUP1 DUP3 ADD SWAP4 SWAP2 DUP3 SWAP1 SUB ADD DUP2 DUP4 DUP8 DUP1 EXTCODESIZE ISZERO DUP1 ISZERO PUSH2 0x1F13 JUMPI PUSH1 0x0 DUP1 REVERT JUMPDEST POP GAS CALL ISZERO DUP1 ISZERO PUSH2 0x1F27 JUMPI RETURNDATASIZE PUSH1 0x0 DUP1 RETURNDATACOPY RETURNDATASIZE PUSH1 0x0 REVERT JUMPDEST POP POP POP POP DUP1 PUSH1 0x1 ADD SWAP1 POP PUSH2 0x1EBE JUMP JUMPDEST POP POP JUMP JUMPDEST PUSH1 0x6 SLOAD DUP2 JUMP JUMPDEST PUSH1 0x5 PUSH2 0x1F4B DUP3 PUSH2 0xFDD JUMP JUMPDEST PUSH1 0x7 DUP2 GT ISZERO PUSH2 0x1F56 JUMPI INVALID JUMPDEST EQ PUSH2 0x1F73 JUMPI PUSH1 0x40 MLOAD PUSH3 0x461BCD PUSH1 0xE5 SHL DUP2 MSTORE PUSH1 0x4 ADD PUSH2 0x5EB SWAP1 PUSH2 0x43A4 JUMP JUMPDEST PUSH1 0x0 DUP2 DUP2 MSTORE PUSH1 0xA PUSH1 0x20 MSTORE PUSH1 0x40 DUP2 KECCAK256 PUSH1 0xC DUP2 ADD DUP1 SLOAD PUSH2 0xFF00 NOT AND PUSH2 0x100 OR SWAP1 SSTORE SWAP1 JUMPDEST PUSH1 0x3 DUP3 ADD SLOAD DUP2 LT ISZERO PUSH2 0x20C3 JUMPI PUSH1 0xE DUP3 ADD SLOAD PUSH1 0xFF AND PUSH1 0x0 SWAP1 DUP2 MSTORE PUSH1 0xF PUSH1 0x20 MSTORE PUSH1 0x40 SWAP1 KECCAK256 SLOAD PUSH1 0x3 DUP4 ADD DUP1 SLOAD PUSH1 0x1 PUSH1 0x1 PUSH1 0xA0 SHL SUB SWAP1 SWAP3 AND SWAP2 PUSH4 0x825F38F SWAP2 SWAP1 DUP5 SWAP1 DUP2 LT PUSH2 0x1FDA JUMPI INVALID JUMPDEST PUSH1 0x0 SWAP2 DUP3 MSTORE PUSH1 0x20 SWAP1 SWAP2 KECCAK256 ADD SLOAD PUSH1 0x4 DUP6 ADD DUP1 SLOAD PUSH1 0x1 PUSH1 0x1 PUSH1 0xA0 SHL SUB SWAP1 SWAP3 AND SWAP2 DUP6 SWAP1 DUP2 LT PUSH2 0x2002 JUMPI INVALID JUMPDEST SWAP1 PUSH1 0x0 MSTORE PUSH1 0x20 PUSH1 0x0 KECCAK256 ADD SLOAD DUP6 PUSH1 0x5 ADD DUP6 DUP2 SLOAD DUP2 LT PUSH2 0x201C JUMPI INVALID JUMPDEST SWAP1 PUSH1 0x0 MSTORE PUSH1 0x20 PUSH1 0x0 KECCAK256 ADD DUP7 PUSH1 0x6 ADD DUP7 DUP2 SLOAD DUP2 LT PUSH2 0x2035 JUMPI INVALID JUMPDEST SWAP1 PUSH1 0x0 MSTORE PUSH1 0x20 PUSH1 0x0 KECCAK256 ADD DUP8 PUSH1 0x2 ADD SLOAD PUSH1 0x40 MLOAD DUP7 PUSH4 0xFFFFFFFF AND PUSH1 0xE0 SHL DUP2 MSTORE PUSH1 0x4 ADD PUSH2 0x2064 SWAP6 SWAP5 SWAP4 SWAP3 SWAP2 SWAP1 PUSH2 0x41B0 JUMP JUMPDEST PUSH1 0x0 PUSH1 0x40 MLOAD DUP1 DUP4 SUB DUP2 PUSH1 0x0 DUP8 DUP1 EXTCODESIZE ISZERO DUP1 ISZERO PUSH2 0x207E JUMPI PUSH1 0x0 DUP1 REVERT JUMPDEST POP GAS CALL ISZERO DUP1 ISZERO PUSH2 0x2092 JUMPI RETURNDATASIZE PUSH1 0x0 DUP1 RETURNDATACOPY RETURNDATASIZE PUSH1 0x0 REVERT JUMPDEST POP POP POP POP PUSH1 0x40 MLOAD RETURNDATASIZE PUSH1 0x0 DUP3 RETURNDATACOPY PUSH1 0x1F RETURNDATASIZE SWAP1 DUP2 ADD PUSH1 0x1F NOT AND DUP3 ADD PUSH1 0x40 MSTORE PUSH2 0x20BA SWAP2 SWAP1 DUP2 ADD SWAP1 PUSH2 0x2DFF JUMP JUMPDEST POP PUSH1 0x1 ADD PUSH2 0x1F94 JUMP JUMPDEST POP PUSH32 0x712AE1383F79AC853F8D882153778E0260EF8F03B504E2866E0593E04D2B291F DUP3 PUSH1 0x40 MLOAD PUSH2 0xAF9 SWAP2 SWAP1 PUSH2 0x423E JUMP JUMPDEST PUSH1 0x0 DUP3 DUP3 GT ISZERO PUSH2 0x2115 JUMPI PUSH1 0x40 MLOAD PUSH3 0x461BCD PUSH1 0xE5 SHL DUP2 MSTORE PUSH1 0x4 ADD PUSH2 0x5EB SWAP1 PUSH2 0x4554 JUMP JUMPDEST POP SWAP1 SUB SWAP1 JUMP JUMPDEST PUSH1 0x0 DUP3 DUP3 ADD DUP4 DUP2 LT ISZERO PUSH2 0x2140 JUMPI PUSH1 0x40 MLOAD PUSH3 0x461BCD PUSH1 0xE5 SHL DUP2 MSTORE PUSH1 0x4 ADD PUSH2 0x5EB SWAP1 PUSH2 0x4404 JUMP JUMPDEST SWAP4 SWAP3 POP POP POP JUMP JUMPDEST CHAINID JUMPDEST SWAP1 JUMP JUMPDEST PUSH1 0x0 PUSH1 0x1 PUSH2 0x2159 DUP5 PUSH2 0xFDD JUMP JUMPDEST PUSH1 0x7 DUP2 GT ISZERO PUSH2 0x2164 JUMPI INVALID JUMPDEST EQ PUSH2 0x2181 JUMPI PUSH1 0x40 MLOAD PUSH3 0x461BCD PUSH1 0xE5 SHL DUP2 MSTORE PUSH1 0x4 ADD PUSH2 0x5EB SWAP1 PUSH2 0x4374 JUMP JUMPDEST PUSH1 0x2 DUP3 PUSH1 0xFF AND GT ISZERO PUSH2 0x21A5 JUMPI PUSH1 0x40 MLOAD PUSH3 0x461BCD PUSH1 0xE5 SHL DUP2 MSTORE PUSH1 0x4 ADD PUSH2 0x5EB SWAP1 PUSH2 0x4314 JUMP JUMPDEST PUSH1 0x0 DUP4 DUP2 MSTORE PUSH1 0xA PUSH1 0x20 SWAP1 DUP2 MSTORE PUSH1 0x40 DUP1 DUP4 KECCAK256 PUSH1 0x1 PUSH1 0x1 PUSH1 0xA0 SHL SUB DUP9 AND DUP5 MSTORE PUSH1 0xD DUP2 ADD SWAP1 SWAP3 MSTORE SWAP1 SWAP2 KECCAK256 DUP1 SLOAD PUSH1 0xFF AND ISZERO PUSH2 0x21EE JUMPI PUSH1 0x40 MLOAD PUSH3 0x461BCD PUSH1 0xE5 SHL DUP2 MSTORE PUSH1 0x4 ADD PUSH2 0x5EB SWAP1 PUSH2 0x4384 JUMP JUMPDEST PUSH1 0x9 SLOAD PUSH1 0x7 DUP4 ADD SLOAD PUSH1 0x40 MLOAD PUSH4 0x782D6FE1 PUSH1 0xE0 SHL DUP2 MSTORE PUSH1 0x0 SWAP3 PUSH1 0x1 PUSH1 0x1 PUSH1 0xA0 SHL SUB AND SWAP2 PUSH4 0x782D6FE1 SWAP2 PUSH2 0x2224 SWAP2 DUP12 SWAP2 PUSH1 0x4 ADD PUSH2 0x4152 JUMP JUMPDEST PUSH1 0x20 PUSH1 0x40 MLOAD DUP1 DUP4 SUB DUP2 DUP7 DUP1 EXTCODESIZE ISZERO DUP1 ISZERO PUSH2 0x223C JUMPI PUSH1 0x0 DUP1 REVERT JUMPDEST POP GAS STATICCALL ISZERO DUP1 ISZERO PUSH2 0x2250 JUMPI RETURNDATASIZE PUSH1 0x0 DUP1 RETURNDATACOPY RETURNDATASIZE PUSH1 0x0 REVERT JUMPDEST POP POP POP POP PUSH1 0x40 MLOAD RETURNDATASIZE PUSH1 0x1F NOT PUSH1 0x1F DUP3 ADD AND DUP3 ADD DUP1 PUSH1 0x40 MSTORE POP PUSH2 0x2274 SWAP2 SWAP1 DUP2 ADD SWAP1 PUSH2 0x2F97 JUMP JUMPDEST SWAP1 POP PUSH1 0xFF DUP6 AND PUSH2 0x229F JUMPI PUSH2 0x2295 DUP4 PUSH1 0xA ADD SLOAD DUP3 PUSH1 0x1 PUSH1 0x1 PUSH1 0x60 SHL SUB AND PUSH2 0x211B JUMP JUMPDEST PUSH1 0xA DUP5 ADD SSTORE PUSH2 0x22F5 JUMP JUMPDEST DUP5 PUSH1 0xFF AND PUSH1 0x1 EQ ISZERO PUSH2 0x22CC JUMPI PUSH2 0x22C2 DUP4 PUSH1 0x9 ADD SLOAD DUP3 PUSH1 0x1 PUSH1 0x1 PUSH1 0x60 SHL SUB AND PUSH2 0x211B JUMP JUMPDEST PUSH1 0x9 DUP5 ADD SSTORE PUSH2 0x22F5 JUMP JUMPDEST DUP5 PUSH1 0xFF AND PUSH1 0x2 EQ ISZERO PUSH2 0x22F5 JUMPI PUSH2 0x22EF DUP4 PUSH1 0xB ADD SLOAD DUP3 PUSH1 0x1 PUSH1 0x1 PUSH1 0x60 SHL SUB AND PUSH2 0x211B JUMP JUMPDEST PUSH1 0xB DUP5 ADD SSTORE JUMPDEST DUP2 SLOAD PUSH1 0x1 PUSH1 0xFF NOT SWAP1 SWAP2 AND OR PUSH2 0xFF00 NOT AND PUSH2 0x100 PUSH1 0xFF DUP8 AND MUL OR PUSH14 0xFFFFFFFFFFFFFFFFFFFFFFFF0000 NOT AND PUSH3 0x10000 PUSH1 0x1 PUSH1 0x1 PUSH1 0x60 SHL SUB DUP4 AND MUL OR SWAP1 SWAP2 SSTORE SWAP2 POP POP SWAP4 SWAP3 POP POP POP JUMP JUMPDEST PUSH1 0xFF DUP2 AND PUSH1 0x0 SWAP1 DUP2 MSTORE PUSH1 0xF PUSH1 0x20 SWAP1 DUP2 MSTORE PUSH1 0x40 SWAP2 DUP3 SWAP1 KECCAK256 SLOAD SWAP2 MLOAD PUSH1 0x1 PUSH1 0x1 PUSH1 0xA0 SHL SUB SWAP1 SWAP3 AND SWAP2 PUSH4 0xF2B06537 SWAP2 PUSH2 0x237B SWAP2 DUP11 SWAP2 DUP11 SWAP2 DUP11 SWAP2 DUP11 SWAP2 DUP11 SWAP2 ADD PUSH2 0x4160 JUMP JUMPDEST PUSH1 0x40 MLOAD PUSH1 0x20 DUP2 DUP4 SUB SUB DUP2 MSTORE SWAP1 PUSH1 0x40 MSTORE DUP1 MLOAD SWAP1 PUSH1 0x20 ADD KECCAK256 PUSH1 0x40 MLOAD DUP3 PUSH4 0xFFFFFFFF AND PUSH1 0xE0 SHL DUP2 MSTORE PUSH1 0x4 ADD PUSH2 0x23AD SWAP2 SWAP1 PUSH2 0x423E JUMP JUMPDEST PUSH1 0x20 PUSH1 0x40 MLOAD DUP1 DUP4 SUB DUP2 DUP7 DUP1 EXTCODESIZE ISZERO DUP1 ISZERO PUSH2 0x23C5 JUMPI PUSH1 0x0 DUP1 REVERT JUMPDEST POP GAS STATICCALL ISZERO DUP1 ISZERO PUSH2 0x23D9 JUMPI RETURNDATASIZE PUSH1 0x0 DUP1 RETURNDATACOPY RETURNDATASIZE PUSH1 0x0 REVERT JUMPDEST POP POP POP POP PUSH1 0x40 MLOAD RETURNDATASIZE PUSH1 0x1F NOT PUSH1 0x1F DUP3 ADD AND DUP3 ADD DUP1 PUSH1 0x40 MSTORE POP PUSH2 0x23FD SWAP2 SWAP1 DUP2 ADD SWAP1 PUSH2 0x2DC3 JUMP JUMPDEST ISZERO PUSH2 0x241A JUMPI PUSH1 0x40 MLOAD PUSH3 0x461BCD PUSH1 0xE5 SHL DUP2 MSTORE PUSH1 0x4 ADD PUSH2 0x5EB SWAP1 PUSH2 0x4334 JUMP JUMPDEST PUSH1 0xFF DUP2 AND PUSH1 0x0 SWAP1 DUP2 MSTORE PUSH1 0xF PUSH1 0x20 MSTORE PUSH1 0x40 SWAP1 DUP2 SWAP1 KECCAK256 SLOAD SWAP1 MLOAD PUSH4 0x3A66F901 PUSH1 0xE0 SHL DUP2 MSTORE PUSH1 0x1 PUSH1 0x1 PUSH1 0xA0 SHL SUB SWAP1 SWAP2 AND SWAP1 PUSH4 0x3A66F901 SWAP1 PUSH2 0x2463 SWAP1 DUP10 SWAP1 DUP10 SWAP1 DUP10 SWAP1 DUP10 SWAP1 DUP10 SWAP1 PUSH1 0x4 ADD PUSH2 0x4160 JUMP JUMPDEST PUSH1 0x20 PUSH1 0x40 MLOAD DUP1 DUP4 SUB DUP2 PUSH1 0x0 DUP8 DUP1 EXTCODESIZE ISZERO DUP1 ISZERO PUSH2 0x247D JUMPI PUSH1 0x0 DUP1 REVERT JUMPDEST POP GAS CALL ISZERO DUP1 ISZERO PUSH2 0x2491 JUMPI RETURNDATASIZE PUSH1 0x0 DUP1 RETURNDATACOPY RETURNDATASIZE PUSH1 0x0 REVERT JUMPDEST POP POP POP POP PUSH1 0x40 MLOAD RETURNDATASIZE PUSH1 0x1F NOT PUSH1 0x1F DUP3 ADD AND DUP3 ADD DUP1 PUSH1 0x40 MSTORE POP PUSH2 0x24B5 SWAP2 SWAP1 DUP2 ADD SWAP1 PUSH2 0x2DE1 JUMP JUMPDEST POP POP POP POP POP POP POP JUMP JUMPDEST PUSH1 0x40 MLOAD DUP1 PUSH2 0x1E0 ADD PUSH1 0x40 MSTORE DUP1 PUSH1 0x0 DUP2 MSTORE PUSH1 0x20 ADD PUSH1 0x0 PUSH1 0x1 PUSH1 0x1 PUSH1 0xA0 SHL SUB AND DUP2 MSTORE PUSH1 0x20 ADD PUSH1 0x0 DUP2 MSTORE PUSH1 0x20 ADD PUSH1 0x60 DUP2 MSTORE PUSH1 0x20 ADD PUSH1 0x60 DUP2 MSTORE PUSH1 0x20 ADD PUSH1 0x60 DUP2 MSTORE PUSH1 0x20 ADD PUSH1 0x60 DUP2 MSTORE PUSH1 0x20 ADD PUSH1 0x0 DUP2 MSTORE PUSH1 0x20 ADD PUSH1 0x0 DUP2 MSTORE PUSH1 0x20 ADD PUSH1 0x0 DUP2 MSTORE PUSH1 0x20 ADD PUSH1 0x0 DUP2 MSTORE PUSH1 0x20 ADD PUSH1 0x0 DUP2 MSTORE PUSH1 0x20 ADD PUSH1 0x0 ISZERO ISZERO DUP2 MSTORE PUSH1 0x20 ADD PUSH1 0x0 ISZERO ISZERO DUP2 MSTORE PUSH1 0x20 ADD PUSH1 0x0 PUSH1 0xFF AND DUP2 MSTORE POP SWAP1 JUMP JUMPDEST DUP3 DUP1 SLOAD DUP3 DUP3 SSTORE SWAP1 PUSH1 0x0 MSTORE PUSH1 0x20 PUSH1 0x0 KECCAK256 SWAP1 DUP2 ADD SWAP3 DUP3 ISZERO PUSH2 0x2599 JUMPI SWAP2 PUSH1 0x20 MUL DUP3 ADD JUMPDEST DUP3 DUP2 GT ISZERO PUSH2 0x2599 JUMPI DUP3 MLOAD DUP3 SLOAD PUSH1 0x1 PUSH1 0x1 PUSH1 0xA0 SHL SUB NOT AND PUSH1 0x1 PUSH1 0x1 PUSH1 0xA0 SHL SUB SWAP1 SWAP2 AND OR DUP3 SSTORE PUSH1 0x20 SWAP1 SWAP3 ADD SWAP2 PUSH1 0x1 SWAP1 SWAP2 ADD SWAP1 PUSH2 0x2564 JUMP JUMPDEST POP PUSH2 0x25A5 SWAP3 SWAP2 POP PUSH2 0x26C2 JUMP JUMPDEST POP SWAP1 JUMP JUMPDEST DUP3 DUP1 SLOAD DUP3 DUP3 SSTORE SWAP1 PUSH1 0x0 MSTORE PUSH1 0x20 PUSH1 0x0 KECCAK256 SWAP1 DUP2 ADD SWAP3 DUP3 ISZERO PUSH2 0x25E4 JUMPI SWAP2 PUSH1 0x20 MUL DUP3 ADD JUMPDEST DUP3 DUP2 GT ISZERO PUSH2 0x25E4 JUMPI DUP3 MLOAD DUP3 SSTORE SWAP2 PUSH1 0x20 ADD SWAP2 SWAP1 PUSH1 0x1 ADD SWAP1 PUSH2 0x25C9 JUMP JUMPDEST POP PUSH2 0x25A5 SWAP3 SWAP2 POP PUSH2 0x26E6 JUMP JUMPDEST DUP3 DUP1 SLOAD DUP3 DUP3 SSTORE SWAP1 PUSH1 0x0 MSTORE PUSH1 0x20 PUSH1 0x0 KECCAK256 SWAP1 DUP2 ADD SWAP3 DUP3 ISZERO PUSH2 0x263D JUMPI SWAP2 PUSH1 0x20 MUL DUP3 ADD JUMPDEST DUP3 DUP2 GT ISZERO PUSH2 0x263D JUMPI DUP3 MLOAD DUP1 MLOAD PUSH2 0x262D SWAP2 DUP5 SWAP2 PUSH1 0x20 SWAP1 SWAP2 ADD SWAP1 PUSH2 0x2700 JUMP JUMPDEST POP SWAP2 PUSH1 0x20 ADD SWAP2 SWAP1 PUSH1 0x1 ADD SWAP1 PUSH2 0x2610 JUMP JUMPDEST POP PUSH2 0x25A5 SWAP3 SWAP2 POP PUSH2 0x276D JUMP JUMPDEST DUP3 DUP1 SLOAD DUP3 DUP3 SSTORE SWAP1 PUSH1 0x0 MSTORE PUSH1 0x20 PUSH1 0x0 KECCAK256 SWAP1 DUP2 ADD SWAP3 DUP3 ISZERO PUSH2 0x2696 JUMPI SWAP2 PUSH1 0x20 MUL DUP3 ADD JUMPDEST DUP3 DUP2 GT ISZERO PUSH2 0x2696 JUMPI DUP3 MLOAD DUP1 MLOAD PUSH2 0x2686 SWAP2 DUP5 SWAP2 PUSH1 0x20 SWAP1 SWAP2 ADD SWAP1 PUSH2 0x2700 JUMP JUMPDEST POP SWAP2 PUSH1 0x20 ADD SWAP2 SWAP1 PUSH1 0x1 ADD SWAP1 PUSH2 0x2669 JUMP JUMPDEST POP PUSH2 0x25A5 SWAP3 SWAP2 POP PUSH2 0x2790 JUMP JUMPDEST PUSH1 0x40 DUP1 MLOAD PUSH1 0x60 DUP2 ADD DUP3 MSTORE PUSH1 0x0 DUP1 DUP3 MSTORE PUSH1 0x20 DUP3 ADD DUP2 SWAP1 MSTORE SWAP2 DUP2 ADD SWAP2 SWAP1 SWAP2 MSTORE SWAP1 JUMP JUMPDEST PUSH2 0x2149 SWAP2 SWAP1 JUMPDEST DUP1 DUP3 GT ISZERO PUSH2 0x25A5 JUMPI DUP1 SLOAD PUSH1 0x1 PUSH1 0x1 PUSH1 0xA0 SHL SUB NOT AND DUP2 SSTORE PUSH1 0x1 ADD PUSH2 0x26C8 JUMP JUMPDEST PUSH2 0x2149 SWAP2 SWAP1 JUMPDEST DUP1 DUP3 GT ISZERO PUSH2 0x25A5 JUMPI PUSH1 0x0 DUP2 SSTORE PUSH1 0x1 ADD PUSH2 0x26EC JUMP JUMPDEST DUP3 DUP1 SLOAD PUSH1 0x1 DUP2 PUSH1 0x1 AND ISZERO PUSH2 0x100 MUL SUB AND PUSH1 0x2 SWAP1 DIV SWAP1 PUSH1 0x0 MSTORE PUSH1 0x20 PUSH1 0x0 KECCAK256 SWAP1 PUSH1 0x1F ADD PUSH1 0x20 SWAP1 DIV DUP2 ADD SWAP3 DUP3 PUSH1 0x1F LT PUSH2 0x2741 JUMPI DUP1 MLOAD PUSH1 0xFF NOT AND DUP4 DUP1 ADD OR DUP6 SSTORE PUSH2 0x25E4 JUMP JUMPDEST DUP3 DUP1 ADD PUSH1 0x1 ADD DUP6 SSTORE DUP3 ISZERO PUSH2 0x25E4 JUMPI SWAP2 DUP3 ADD DUP3 DUP2 GT ISZERO PUSH2 0x25E4 JUMPI DUP3 MLOAD DUP3 SSTORE SWAP2 PUSH1 0x20 ADD SWAP2 SWAP1 PUSH1 0x1 ADD SWAP1 PUSH2 0x25C9 JUMP JUMPDEST PUSH2 0x2149 SWAP2 SWAP1 JUMPDEST DUP1 DUP3 GT ISZERO PUSH2 0x25A5 JUMPI PUSH1 0x0 PUSH2 0x2787 DUP3 DUP3 PUSH2 0x27B3 JUMP JUMPDEST POP PUSH1 0x1 ADD PUSH2 0x2773 JUMP JUMPDEST PUSH2 0x2149 SWAP2 SWAP1 JUMPDEST DUP1 DUP3 GT ISZERO PUSH2 0x25A5 JUMPI PUSH1 0x0 PUSH2 0x27AA DUP3 DUP3 PUSH2 0x27B3 JUMP JUMPDEST POP PUSH1 0x1 ADD PUSH2 0x2796 JUMP JUMPDEST POP DUP1 SLOAD PUSH1 0x1 DUP2 PUSH1 0x1 AND ISZERO PUSH2 0x100 MUL SUB AND PUSH1 0x2 SWAP1 DIV PUSH1 0x0 DUP3 SSTORE DUP1 PUSH1 0x1F LT PUSH2 0x27D9 JUMPI POP PUSH2 0x27F7 JUMP JUMPDEST PUSH1 0x1F ADD PUSH1 0x20 SWAP1 DIV SWAP1 PUSH1 0x0 MSTORE PUSH1 0x20 PUSH1 0x0 KECCAK256 SWAP1 DUP2 ADD SWAP1 PUSH2 0x27F7 SWAP2 SWAP1 PUSH2 0x26E6 JUMP JUMPDEST POP JUMP JUMPDEST DUP1 CALLDATALOAD PUSH2 0x1C2B DUP2 PUSH2 0x48DF JUMP JUMPDEST PUSH1 0x0 DUP3 PUSH1 0x1F DUP4 ADD SLT PUSH2 0x2816 JUMPI PUSH1 0x0 DUP1 REVERT JUMPDEST DUP2 CALLDATALOAD PUSH2 0x2829 PUSH2 0x2824 DUP3 PUSH2 0x47C9 JUMP JUMPDEST PUSH2 0x47A3 JUMP JUMPDEST SWAP2 POP DUP2 DUP2 DUP4 MSTORE PUSH1 0x20 DUP5 ADD SWAP4 POP PUSH1 0x20 DUP2 ADD SWAP1 POP DUP4 DUP6 PUSH1 0x20 DUP5 MUL DUP3 ADD GT ISZERO PUSH2 0x284E JUMPI PUSH1 0x0 DUP1 REVERT JUMPDEST PUSH1 0x0 JUMPDEST DUP4 DUP2 LT ISZERO PUSH2 0x287A JUMPI DUP2 PUSH2 0x2864 DUP9 DUP3 PUSH2 0x27FA JUMP JUMPDEST DUP5 MSTORE POP PUSH1 0x20 SWAP3 DUP4 ADD SWAP3 SWAP2 SWAP1 SWAP2 ADD SWAP1 PUSH1 0x1 ADD PUSH2 0x2851 JUMP JUMPDEST POP POP POP POP SWAP3 SWAP2 POP POP JUMP JUMPDEST PUSH1 0x0 DUP3 PUSH1 0x1F DUP4 ADD SLT PUSH2 0x2895 JUMPI PUSH1 0x0 DUP1 REVERT JUMPDEST DUP2 CALLDATALOAD PUSH2 0x28A3 PUSH2 0x2824 DUP3 PUSH2 0x47C9 JUMP JUMPDEST DUP2 DUP2 MSTORE PUSH1 0x20 SWAP4 DUP5 ADD SWAP4 SWAP1 SWAP3 POP DUP3 ADD DUP4 PUSH1 0x0 JUMPDEST DUP4 DUP2 LT ISZERO PUSH2 0x287A JUMPI DUP2 CALLDATALOAD DUP7 ADD PUSH2 0x28CB DUP9 DUP3 PUSH2 0x2AB1 JUMP JUMPDEST DUP5 MSTORE POP PUSH1 0x20 SWAP3 DUP4 ADD SWAP3 SWAP2 SWAP1 SWAP2 ADD SWAP1 PUSH1 0x1 ADD PUSH2 0x28B5 JUMP JUMPDEST PUSH1 0x0 DUP3 PUSH1 0x1F DUP4 ADD SLT PUSH2 0x28F2 JUMPI PUSH1 0x0 DUP1 REVERT JUMPDEST DUP2 CALLDATALOAD PUSH2 0x2900 PUSH2 0x2824 DUP3 PUSH2 0x47C9 JUMP JUMPDEST SWAP2 POP DUP2 DUP2 DUP4 MSTORE PUSH1 0x20 DUP5 ADD SWAP4 POP PUSH1 0x20 DUP2 ADD SWAP1 POP DUP4 DUP6 PUSH1 0x20 DUP5 MUL DUP3 ADD GT ISZERO PUSH2 0x2925 JUMPI PUSH1 0x0 DUP1 REVERT JUMPDEST PUSH1 0x0 JUMPDEST DUP4 DUP2 LT ISZERO PUSH2 0x287A JUMPI DUP2 PUSH2 0x293B DUP9 DUP3 PUSH2 0x2B46 JUMP JUMPDEST DUP5 MSTORE POP PUSH1 0x20 SWAP3 DUP4 ADD SWAP3 SWAP2 SWAP1 SWAP2 ADD SWAP1 PUSH1 0x1 ADD PUSH2 0x2928 JUMP JUMPDEST PUSH1 0x0 DUP3 PUSH1 0x1F DUP4 ADD SLT PUSH2 0x2962 JUMPI PUSH1 0x0 DUP1 REVERT JUMPDEST DUP2 CALLDATALOAD PUSH2 0x2970 PUSH2 0x2824 DUP3 PUSH2 0x47C9 JUMP JUMPDEST DUP2 DUP2 MSTORE PUSH1 0x20 SWAP4 DUP5 ADD SWAP4 SWAP1 SWAP3 POP DUP3 ADD DUP4 PUSH1 0x0 JUMPDEST DUP4 DUP2 LT ISZERO PUSH2 0x287A JUMPI DUP2 CALLDATALOAD DUP7 ADD PUSH2 0x2998 DUP9 DUP3 PUSH2 0x2AB1 JUMP JUMPDEST DUP5 MSTORE POP PUSH1 0x20 SWAP3 DUP4 ADD SWAP3 SWAP2 SWAP1 SWAP2 ADD SWAP1 PUSH1 0x1 ADD PUSH2 0x2982 JUMP JUMPDEST PUSH1 0x0 DUP3 PUSH1 0x1F DUP4 ADD SLT PUSH2 0x29BF JUMPI PUSH1 0x0 DUP1 REVERT JUMPDEST DUP2 CALLDATALOAD PUSH2 0x29CD PUSH2 0x2824 DUP3 PUSH2 0x47C9 JUMP JUMPDEST SWAP2 POP DUP2 DUP2 DUP4 MSTORE PUSH1 0x20 DUP5 ADD SWAP4 POP PUSH1 0x20 DUP2 ADD SWAP1 POP DUP4 DUP6 PUSH1 0x60 DUP5 MUL DUP3 ADD GT ISZERO PUSH2 0x29F2 JUMPI PUSH1 0x0 DUP1 REVERT JUMPDEST PUSH1 0x0 JUMPDEST DUP4 DUP2 LT ISZERO PUSH2 0x287A JUMPI DUP2 PUSH2 0x2A08 DUP9 DUP3 PUSH2 0x2BA4 JUMP JUMPDEST DUP5 MSTORE POP PUSH1 0x20 SWAP1 SWAP3 ADD SWAP2 PUSH1 0x60 SWAP2 SWAP1 SWAP2 ADD SWAP1 PUSH1 0x1 ADD PUSH2 0x29F5 JUMP JUMPDEST PUSH1 0x0 DUP3 PUSH1 0x1F DUP4 ADD SLT PUSH2 0x2A31 JUMPI PUSH1 0x0 DUP1 REVERT JUMPDEST DUP2 CALLDATALOAD PUSH2 0x2A3F PUSH2 0x2824 DUP3 PUSH2 0x47C9 JUMP JUMPDEST SWAP2 POP DUP2 DUP2 DUP4 MSTORE PUSH1 0x20 DUP5 ADD SWAP4 POP PUSH1 0x20 DUP2 ADD SWAP1 POP DUP4 DUP6 PUSH1 0x20 DUP5 MUL DUP3 ADD GT ISZERO PUSH2 0x2A64 JUMPI PUSH1 0x0 DUP1 REVERT JUMPDEST PUSH1 0x0 JUMPDEST DUP4 DUP2 LT ISZERO PUSH2 0x287A JUMPI DUP2 PUSH2 0x2A7A DUP9 DUP3 PUSH2 0x2A9B JUMP JUMPDEST DUP5 MSTORE POP PUSH1 0x20 SWAP3 DUP4 ADD SWAP3 SWAP2 SWAP1 SWAP2 ADD SWAP1 PUSH1 0x1 ADD PUSH2 0x2A67 JUMP JUMPDEST DUP1 MLOAD PUSH2 0x1C2B DUP2 PUSH2 0x48F3 JUMP JUMPDEST DUP1 CALLDATALOAD PUSH2 0x1C2B DUP2 PUSH2 0x48FC JUMP JUMPDEST DUP1 MLOAD PUSH2 0x1C2B DUP2 PUSH2 0x48FC JUMP JUMPDEST PUSH1 0x0 DUP3 PUSH1 0x1F DUP4 ADD SLT PUSH2 0x2AC2 JUMPI PUSH1 0x0 DUP1 REVERT JUMPDEST DUP2 CALLDATALOAD PUSH2 0x2AD0 PUSH2 0x2824 DUP3 PUSH2 0x47E9 JUMP JUMPDEST SWAP2 POP DUP1 DUP3 MSTORE PUSH1 0x20 DUP4 ADD PUSH1 0x20 DUP4 ADD DUP6 DUP4 DUP4 ADD GT ISZERO PUSH2 0x2AEC JUMPI PUSH1 0x0 DUP1 REVERT JUMPDEST PUSH2 0x2AF7 DUP4 DUP3 DUP5 PUSH2 0x4893 JUMP JUMPDEST POP POP POP SWAP3 SWAP2 POP POP JUMP JUMPDEST PUSH1 0x0 DUP3 PUSH1 0x1F DUP4 ADD SLT PUSH2 0x2B11 JUMPI PUSH1 0x0 DUP1 REVERT JUMPDEST DUP2 MLOAD PUSH2 0x2B1F PUSH2 0x2824 DUP3 PUSH2 0x47E9 JUMP JUMPDEST SWAP2 POP DUP1 DUP3 MSTORE PUSH1 0x20 DUP4 ADD PUSH1 0x20 DUP4 ADD DUP6 DUP4 DUP4 ADD GT ISZERO PUSH2 0x2B3B JUMPI PUSH1 0x0 DUP1 REVERT JUMPDEST PUSH2 0x2AF7 DUP4 DUP3 DUP5 PUSH2 0x489F JUMP JUMPDEST DUP1 CALLDATALOAD PUSH2 0x1C2B DUP2 PUSH2 0x4905 JUMP JUMPDEST DUP1 CALLDATALOAD PUSH2 0x1C2B DUP2 PUSH2 0x490E JUMP JUMPDEST PUSH1 0x0 DUP1 DUP4 PUSH1 0x1F DUP5 ADD SLT PUSH2 0x2B6E JUMPI PUSH1 0x0 DUP1 REVERT JUMPDEST POP DUP2 CALLDATALOAD PUSH1 0x1 PUSH1 0x1 PUSH1 0x40 SHL SUB DUP2 GT ISZERO PUSH2 0x2B85 JUMPI PUSH1 0x0 DUP1 REVERT JUMPDEST PUSH1 0x20 DUP4 ADD SWAP2 POP DUP4 PUSH1 0x1 DUP3 MUL DUP4 ADD GT ISZERO PUSH2 0x2B9D JUMPI PUSH1 0x0 DUP1 REVERT JUMPDEST SWAP3 POP SWAP3 SWAP1 POP JUMP JUMPDEST PUSH1 0x0 PUSH1 0x60 DUP3 DUP5 SUB SLT ISZERO PUSH2 0x2BB6 JUMPI PUSH1 0x0 DUP1 REVERT JUMPDEST PUSH2 0x2BC0 PUSH1 0x60 PUSH2 0x47A3 JUMP JUMPDEST SWAP1 POP PUSH1 0x0 PUSH2 0x2BCE DUP5 DUP5 PUSH2 0x2A9B JUMP JUMPDEST DUP3 MSTORE POP PUSH1 0x20 PUSH2 0x2BDF DUP5 DUP5 DUP4 ADD PUSH2 0x2A9B JUMP JUMPDEST PUSH1 0x20 DUP4 ADD MSTORE POP PUSH1 0x40 PUSH2 0x2BF3 DUP5 DUP3 DUP6 ADD PUSH2 0x2A9B JUMP JUMPDEST PUSH1 0x40 DUP4 ADD MSTORE POP SWAP3 SWAP2 POP POP JUMP JUMPDEST DUP1 CALLDATALOAD PUSH2 0x1C2B DUP2 PUSH2 0x491B JUMP JUMPDEST DUP1 MLOAD PUSH2 0x1C2B DUP2 PUSH2 0x4924 JUMP JUMPDEST PUSH1 0x0 PUSH1 0x20 DUP3 DUP5 SUB SLT ISZERO PUSH2 0x2C27 JUMPI PUSH1 0x0 DUP1 REVERT JUMPDEST PUSH1 0x0 PUSH2 0x2C33 DUP5 DUP5 PUSH2 0x27FA JUMP JUMPDEST SWAP5 SWAP4 POP POP POP POP JUMP JUMPDEST PUSH1 0x0 DUP1 PUSH1 0x0 DUP1 PUSH1 0x80 DUP6 DUP8 SUB SLT ISZERO PUSH2 0x2C51 JUMPI PUSH1 0x0 DUP1 REVERT JUMPDEST PUSH1 0x0 PUSH2 0x2C5D DUP8 DUP8 PUSH2 0x27FA JUMP JUMPDEST SWAP5 POP POP PUSH1 0x20 DUP6 ADD CALLDATALOAD PUSH1 0x1 PUSH1 0x1 PUSH1 0x40 SHL SUB DUP2 GT ISZERO PUSH2 0x2C79 JUMPI PUSH1 0x0 DUP1 REVERT JUMPDEST PUSH2 0x2C85 DUP8 DUP3 DUP9 ADD PUSH2 0x29AE JUMP JUMPDEST SWAP4 POP POP PUSH1 0x40 DUP6 ADD CALLDATALOAD PUSH1 0x1 PUSH1 0x1 PUSH1 0x40 SHL SUB DUP2 GT ISZERO PUSH2 0x2CA1 JUMPI PUSH1 0x0 DUP1 REVERT JUMPDEST PUSH2 0x2CAD DUP8 DUP3 DUP9 ADD PUSH2 0x28E1 JUMP JUMPDEST SWAP3 POP POP PUSH1 0x60 PUSH2 0x2CBE DUP8 DUP3 DUP9 ADD PUSH2 0x27FA JUMP JUMPDEST SWAP2 POP POP SWAP3 SWAP6 SWAP2 SWAP5 POP SWAP3 POP JUMP JUMPDEST PUSH1 0x0 DUP1 PUSH1 0x0 DUP1 PUSH1 0x0 DUP1 PUSH1 0xC0 DUP8 DUP10 SUB SLT ISZERO PUSH2 0x2CE3 JUMPI PUSH1 0x0 DUP1 REVERT JUMPDEST DUP7 CALLDATALOAD PUSH1 0x1 PUSH1 0x1 PUSH1 0x40 SHL SUB DUP2 GT ISZERO PUSH2 0x2CF9 JUMPI PUSH1 0x0 DUP1 REVERT JUMPDEST PUSH2 0x2D05 DUP10 DUP3 DUP11 ADD PUSH2 0x2805 JUMP JUMPDEST SWAP7 POP POP PUSH1 0x20 DUP8 ADD CALLDATALOAD PUSH1 0x1 PUSH1 0x1 PUSH1 0x40 SHL SUB DUP2 GT ISZERO PUSH2 0x2D21 JUMPI PUSH1 0x0 DUP1 REVERT JUMPDEST PUSH2 0x2D2D DUP10 DUP3 DUP11 ADD PUSH2 0x2A20 JUMP JUMPDEST SWAP6 POP POP PUSH1 0x40 DUP8 ADD CALLDATALOAD PUSH1 0x1 PUSH1 0x1 PUSH1 0x40 SHL SUB DUP2 GT ISZERO PUSH2 0x2D49 JUMPI PUSH1 0x0 DUP1 REVERT JUMPDEST PUSH2 0x2D55 DUP10 DUP3 DUP11 ADD PUSH2 0x2951 JUMP JUMPDEST SWAP5 POP POP PUSH1 0x60 DUP8 ADD CALLDATALOAD PUSH1 0x1 PUSH1 0x1 PUSH1 0x40 SHL SUB DUP2 GT ISZERO PUSH2 0x2D71 JUMPI PUSH1 0x0 DUP1 REVERT JUMPDEST PUSH2 0x2D7D DUP10 DUP3 DUP11 ADD PUSH2 0x2884 JUMP JUMPDEST SWAP4 POP POP PUSH1 0x80 DUP8 ADD CALLDATALOAD PUSH1 0x1 PUSH1 0x1 PUSH1 0x40 SHL SUB DUP2 GT ISZERO PUSH2 0x2D99 JUMPI PUSH1 0x0 DUP1 REVERT JUMPDEST PUSH2 0x2DA5 DUP10 DUP3 DUP11 ADD PUSH2 0x2AB1 JUMP JUMPDEST SWAP3 POP POP PUSH1 0xA0 PUSH2 0x2DB6 DUP10 DUP3 DUP11 ADD PUSH2 0x2B51 JUMP JUMPDEST SWAP2 POP POP SWAP3 SWAP6 POP SWAP3 SWAP6 POP SWAP3 SWAP6 JUMP JUMPDEST PUSH1 0x0 PUSH1 0x20 DUP3 DUP5 SUB SLT ISZERO PUSH2 0x2DD5 JUMPI PUSH1 0x0 DUP1 REVERT JUMPDEST PUSH1 0x0 PUSH2 0x2C33 DUP5 DUP5 PUSH2 0x2A90 JUMP JUMPDEST PUSH1 0x0 PUSH1 0x20 DUP3 DUP5 SUB SLT ISZERO PUSH2 0x2DF3 JUMPI PUSH1 0x0 DUP1 REVERT JUMPDEST PUSH1 0x0 PUSH2 0x2C33 DUP5 DUP5 PUSH2 0x2AA6 JUMP JUMPDEST PUSH1 0x0 PUSH1 0x20 DUP3 DUP5 SUB SLT ISZERO PUSH2 0x2E11 JUMPI PUSH1 0x0 DUP1 REVERT JUMPDEST DUP2 MLOAD PUSH1 0x1 PUSH1 0x1 PUSH1 0x40 SHL SUB DUP2 GT ISZERO PUSH2 0x2E27 JUMPI PUSH1 0x0 DUP1 REVERT JUMPDEST PUSH2 0x2C33 DUP5 DUP3 DUP6 ADD PUSH2 0x2B00 JUMP JUMPDEST PUSH1 0x0 PUSH1 0x20 DUP3 DUP5 SUB SLT ISZERO PUSH2 0x2E45 JUMPI PUSH1 0x0 DUP1 REVERT JUMPDEST PUSH1 0x0 PUSH2 0x2C33 DUP5 DUP5 PUSH2 0x2A9B JUMP JUMPDEST PUSH1 0x0 DUP1 PUSH1 0x40 DUP4 DUP6 SUB SLT ISZERO PUSH2 0x2E64 JUMPI PUSH1 0x0 DUP1 REVERT JUMPDEST PUSH1 0x0 PUSH2 0x2E70 DUP6 DUP6 PUSH2 0x2A9B JUMP JUMPDEST SWAP3 POP POP PUSH1 0x20 PUSH2 0x2E81 DUP6 DUP3 DUP7 ADD PUSH2 0x27FA JUMP JUMPDEST SWAP2 POP POP SWAP3 POP SWAP3 SWAP1 POP JUMP JUMPDEST PUSH1 0x0 DUP1 PUSH1 0x40 DUP4 DUP6 SUB SLT ISZERO PUSH2 0x2E9E JUMPI PUSH1 0x0 DUP1 REVERT JUMPDEST PUSH1 0x0 PUSH2 0x2EAA DUP6 DUP6 PUSH2 0x2A9B JUMP JUMPDEST SWAP3 POP POP PUSH1 0x20 PUSH2 0x2E81 DUP6 DUP3 DUP7 ADD PUSH2 0x2BFF JUMP JUMPDEST PUSH1 0x0 DUP1 PUSH1 0x0 DUP1 PUSH1 0x60 DUP6 DUP8 SUB SLT ISZERO PUSH2 0x2ED1 JUMPI PUSH1 0x0 DUP1 REVERT JUMPDEST PUSH1 0x0 PUSH2 0x2EDD DUP8 DUP8 PUSH2 0x2A9B JUMP JUMPDEST SWAP5 POP POP PUSH1 0x20 PUSH2 0x2EEE DUP8 DUP3 DUP9 ADD PUSH2 0x2BFF JUMP JUMPDEST SWAP4 POP POP PUSH1 0x40 DUP6 ADD CALLDATALOAD PUSH1 0x1 PUSH1 0x1 PUSH1 0x40 SHL SUB DUP2 GT ISZERO PUSH2 0x2F0A JUMPI PUSH1 0x0 DUP1 REVERT JUMPDEST PUSH2 0x2F16 DUP8 DUP3 DUP9 ADD PUSH2 0x2B5C JUMP JUMPDEST SWAP6 SWAP9 SWAP5 SWAP8 POP SWAP6 POP POP POP POP JUMP JUMPDEST PUSH1 0x0 DUP1 PUSH1 0x0 DUP1 PUSH1 0x0 PUSH1 0xA0 DUP7 DUP9 SUB SLT ISZERO PUSH2 0x2F3A JUMPI PUSH1 0x0 DUP1 REVERT JUMPDEST PUSH1 0x0 PUSH2 0x2F46 DUP9 DUP9 PUSH2 0x2A9B JUMP JUMPDEST SWAP6 POP POP PUSH1 0x20 PUSH2 0x2F57 DUP9 DUP3 DUP10 ADD PUSH2 0x2BFF JUMP JUMPDEST SWAP5 POP POP PUSH1 0x40 PUSH2 0x2F68 DUP9 DUP3 DUP10 ADD PUSH2 0x2BFF JUMP JUMPDEST SWAP4 POP POP PUSH1 0x60 PUSH2 0x2F79 DUP9 DUP3 DUP10 ADD PUSH2 0x2A9B JUMP JUMPDEST SWAP3 POP POP PUSH1 0x80 PUSH2 0x2F8A DUP9 DUP3 DUP10 ADD PUSH2 0x2A9B JUMP JUMPDEST SWAP2 POP POP SWAP3 SWAP6 POP SWAP3 SWAP6 SWAP1 SWAP4 POP JUMP JUMPDEST PUSH1 0x0 PUSH1 0x20 DUP3 DUP5 SUB SLT ISZERO PUSH2 0x2FA9 JUMPI PUSH1 0x0 DUP1 REVERT JUMPDEST PUSH1 0x0 PUSH2 0x2C33 DUP5 DUP5 PUSH2 0x2C0A JUMP JUMPDEST PUSH1 0x0 PUSH2 0x2FC1 DUP4 DUP4 PUSH2 0x2FF0 JUMP JUMPDEST POP POP PUSH1 0x20 ADD SWAP1 JUMP JUMPDEST PUSH1 0x0 PUSH2 0x2140 DUP4 DUP4 PUSH2 0x3192 JUMP JUMPDEST PUSH1 0x0 PUSH2 0x2FC1 DUP4 DUP4 PUSH2 0x3178 JUMP JUMPDEST PUSH2 0x2FEA DUP2 PUSH2 0x4872 JUMP JUMPDEST DUP3 MSTORE POP POP JUMP JUMPDEST PUSH2 0x2FEA DUP2 PUSH2 0x482F JUMP JUMPDEST PUSH1 0x0 PUSH2 0x3004 DUP3 PUSH2 0x4822 JUMP JUMPDEST PUSH2 0x300E DUP2 DUP6 PUSH2 0x4826 JUMP JUMPDEST SWAP4 POP PUSH2 0x3019 DUP4 PUSH2 0x4810 JUMP JUMPDEST DUP1 PUSH1 0x0 JUMPDEST DUP4 DUP2 LT ISZERO PUSH2 0x3047 JUMPI DUP2 MLOAD PUSH2 0x3031 DUP9 DUP3 PUSH2 0x2FB5 JUMP JUMPDEST SWAP8 POP PUSH2 0x303C DUP4 PUSH2 0x4810 JUMP JUMPDEST SWAP3 POP POP PUSH1 0x1 ADD PUSH2 0x301D JUMP JUMPDEST POP SWAP5 SWAP6 SWAP5 POP POP POP POP POP JUMP JUMPDEST PUSH1 0x0 PUSH2 0x305D DUP3 PUSH2 0x4822 JUMP JUMPDEST PUSH2 0x3067 DUP2 DUP6 PUSH2 0x4826 JUMP JUMPDEST SWAP4 POP DUP4 PUSH1 0x20 DUP3 MUL DUP6 ADD PUSH2 0x3079 DUP6 PUSH2 0x4810 JUMP JUMPDEST DUP1 PUSH1 0x0 JUMPDEST DUP6 DUP2 LT ISZERO PUSH2 0x30B3 JUMPI DUP5 DUP5 SUB DUP10 MSTORE DUP2 MLOAD PUSH2 0x3096 DUP6 DUP3 PUSH2 0x2FC9 JUMP JUMPDEST SWAP5 POP PUSH2 0x30A1 DUP4 PUSH2 0x4810 JUMP JUMPDEST PUSH1 0x20 SWAP11 SWAP1 SWAP11 ADD SWAP10 SWAP3 POP POP PUSH1 0x1 ADD PUSH2 0x307D JUMP JUMPDEST POP SWAP2 SWAP8 SWAP7 POP POP POP POP POP POP POP JUMP JUMPDEST PUSH1 0x0 PUSH2 0x30CB DUP3 PUSH2 0x4822 JUMP JUMPDEST PUSH2 0x30D5 DUP2 DUP6 PUSH2 0x4826 JUMP JUMPDEST SWAP4 POP DUP4 PUSH1 0x20 DUP3 MUL DUP6 ADD PUSH2 0x30E7 DUP6 PUSH2 0x4810 JUMP JUMPDEST DUP1 PUSH1 0x0 JUMPDEST DUP6 DUP2 LT ISZERO PUSH2 0x30B3 JUMPI DUP5 DUP5 SUB DUP10 MSTORE DUP2 MLOAD PUSH2 0x3104 DUP6 DUP3 PUSH2 0x2FC9 JUMP JUMPDEST SWAP5 POP PUSH2 0x310F DUP4 PUSH2 0x4810 JUMP JUMPDEST PUSH1 0x20 SWAP11 SWAP1 SWAP11 ADD SWAP10 SWAP3 POP POP PUSH1 0x1 ADD PUSH2 0x30EB JUMP JUMPDEST PUSH1 0x0 PUSH2 0x312C DUP3 PUSH2 0x4822 JUMP JUMPDEST PUSH2 0x3136 DUP2 DUP6 PUSH2 0x4826 JUMP JUMPDEST SWAP4 POP PUSH2 0x3141 DUP4 PUSH2 0x4810 JUMP JUMPDEST DUP1 PUSH1 0x0 JUMPDEST DUP4 DUP2 LT ISZERO PUSH2 0x3047 JUMPI DUP2 MLOAD PUSH2 0x3159 DUP9 DUP3 PUSH2 0x2FD5 JUMP JUMPDEST SWAP8 POP PUSH2 0x3164 DUP4 PUSH2 0x4810 JUMP JUMPDEST SWAP3 POP POP PUSH1 0x1 ADD PUSH2 0x3145 JUMP JUMPDEST PUSH2 0x2FEA DUP2 PUSH2 0x483A JUMP JUMPDEST PUSH2 0x2FEA DUP2 PUSH2 0x2149 JUMP JUMPDEST PUSH2 0x2FEA PUSH2 0x318D DUP3 PUSH2 0x2149 JUMP JUMPDEST PUSH2 0x2149 JUMP JUMPDEST PUSH1 0x0 PUSH2 0x319D DUP3 PUSH2 0x4822 JUMP JUMPDEST PUSH2 0x31A7 DUP2 DUP6 PUSH2 0x4826 JUMP JUMPDEST SWAP4 POP PUSH2 0x31B7 DUP2 DUP6 PUSH1 0x20 DUP7 ADD PUSH2 0x489F JUMP JUMPDEST PUSH2 0x31C0 DUP2 PUSH2 0x48CB JUMP JUMPDEST SWAP1 SWAP4 ADD SWAP4 SWAP3 POP POP POP JUMP JUMPDEST PUSH1 0x0 DUP2 SLOAD PUSH1 0x1 DUP2 AND PUSH1 0x0 DUP2 EQ PUSH2 0x31E7 JUMPI PUSH1 0x1 DUP2 EQ PUSH2 0x320D JUMPI PUSH2 0x324C JUMP JUMPDEST PUSH1 0x7F PUSH1 0x2 DUP4 DIV AND PUSH2 0x31F8 DUP2 DUP8 PUSH2 0x4826 JUMP JUMPDEST PUSH1 0xFF NOT DUP5 AND DUP2 MSTORE SWAP6 POP POP PUSH1 0x20 DUP6 ADD SWAP3 POP PUSH2 0x324C JUMP JUMPDEST PUSH1 0x2 DUP3 DIV PUSH2 0x321B DUP2 DUP8 PUSH2 0x4826 JUMP JUMPDEST SWAP6 POP PUSH2 0x3226 DUP6 PUSH2 0x4816 JUMP JUMPDEST PUSH1 0x0 JUMPDEST DUP3 DUP2 LT ISZERO PUSH2 0x3245 JUMPI DUP2 SLOAD DUP9 DUP3 ADD MSTORE PUSH1 0x1 SWAP1 SWAP2 ADD SWAP1 PUSH1 0x20 ADD PUSH2 0x3229 JUMP JUMPDEST DUP8 ADD SWAP5 POP POP POP JUMPDEST POP POP SWAP3 SWAP2 POP POP JUMP JUMPDEST PUSH2 0x2FEA DUP2 PUSH2 0x483F JUMP JUMPDEST PUSH2 0x2FEA DUP2 PUSH2 0x487D JUMP JUMPDEST PUSH1 0x0 PUSH2 0x3272 DUP4 DUP6 PUSH2 0x4826 JUMP JUMPDEST SWAP4 POP PUSH2 0x327F DUP4 DUP6 DUP5 PUSH2 0x4893 JUMP JUMPDEST PUSH2 0x31C0 DUP4 PUSH2 0x48CB JUMP JUMPDEST PUSH1 0x0 PUSH2 0x3295 PUSH1 0x32 DUP4 PUSH2 0x4826 JUMP JUMPDEST PUSH32 0x476F7665726E6F72427261766F3A3A63617374566F7465496E7465726E616C3A DUP2 MSTORE PUSH18 0x20696E76616C696420766F74652074797065 PUSH1 0x70 SHL PUSH1 0x20 DUP3 ADD MSTORE PUSH1 0x40 ADD SWAP3 SWAP2 POP POP JUMP JUMPDEST PUSH1 0x0 PUSH2 0x32E9 PUSH1 0x28 DUP4 PUSH2 0x1172 JUMP JUMPDEST PUSH32 0x42616C6C6F742875696E743235362070726F706F73616C49642C75696E743820 DUP2 MSTORE PUSH8 0x737570706F727429 PUSH1 0xC0 SHL PUSH1 0x20 DUP3 ADD MSTORE PUSH1 0x28 ADD SWAP3 SWAP2 POP POP JUMP JUMPDEST PUSH1 0x0 PUSH2 0x3333 PUSH1 0x2A DUP4 PUSH2 0x4826 JUMP JUMPDEST PUSH32 0x476F7665726E6F72427261766F3A5F73657450656E64696E6741646D696E3A20 DUP2 MSTORE PUSH10 0x61646D696E206F6E6C79 PUSH1 0xB0 SHL PUSH1 0x20 DUP3 ADD MSTORE PUSH1 0x40 ADD SWAP3 SWAP2 POP POP JUMP JUMPDEST PUSH1 0x0 PUSH2 0x337F PUSH1 0x55 DUP4 PUSH2 0x4826 JUMP JUMPDEST PUSH32 0x476F7665726E6F72427261766F3A3A71756575654F72526576657274496E7465 DUP2 MSTORE PUSH32 0x726E616C3A206964656E746963616C2070726F706F73616C20616374696F6E20 PUSH1 0x20 DUP3 ADD MSTORE PUSH21 0x616C72656164792071756575656420617420657461 PUSH1 0x58 SHL PUSH1 0x40 DUP3 ADD MSTORE PUSH1 0x60 ADD SWAP3 SWAP2 POP POP JUMP JUMPDEST PUSH1 0x0 PUSH2 0x33FC PUSH1 0x56 DUP4 PUSH2 0x4826 JUMP JUMPDEST PUSH32 0x476F7665726E6F72427261766F3A3A696E697469616C697A653A6E756D626572 DUP2 MSTORE PUSH32 0x206F662074696D656C6F636B732073686F756C64206D61746368206E756D6265 PUSH1 0x20 DUP3 ADD MSTORE PUSH22 0x72206F6620676F7665726E616E636520726F75746573 PUSH1 0x50 SHL PUSH1 0x40 DUP3 ADD MSTORE PUSH1 0x60 ADD SWAP3 SWAP2 POP POP JUMP JUMPDEST PUSH1 0x0 PUSH2 0x347A PUSH1 0x31 DUP4 PUSH2 0x4826 JUMP JUMPDEST PUSH32 0x476F7665726E6F72427261766F3A3A70726F706F73653A20476F7665726E6F72 DUP2 MSTORE PUSH17 0x20427261766F206E6F7420616374697665 PUSH1 0x78 SHL PUSH1 0x20 DUP3 ADD MSTORE PUSH1 0x40 ADD SWAP3 SWAP2 POP POP JUMP JUMPDEST PUSH1 0x0 PUSH2 0x34CD PUSH1 0x2 DUP4 PUSH2 0x1172 JUMP JUMPDEST PUSH2 0x1901 PUSH1 0xF0 SHL DUP2 MSTORE PUSH1 0x2 ADD SWAP3 SWAP2 POP POP JUMP JUMPDEST PUSH1 0x0 PUSH2 0x34EB PUSH1 0x39 DUP4 PUSH2 0x4826 JUMP JUMPDEST PUSH1 0x0 DUP1 MLOAD PUSH1 0x20 PUSH2 0x492E DUP4 CODECOPY DUP2 MLOAD SWAP2 MSTORE DUP2 MSTORE PUSH32 0x6964206D696E2070726F706F73616C207468726573686F6C6400000000000000 PUSH1 0x20 DUP3 ADD MSTORE PUSH1 0x40 ADD SWAP3 SWAP2 POP POP JUMP JUMPDEST PUSH1 0x0 PUSH2 0x3538 PUSH1 0x31 DUP4 PUSH2 0x4826 JUMP JUMPDEST PUSH32 0x476F7665726E6F72427261766F3A3A63617374566F7465496E7465726E616C3A DUP2 MSTORE PUSH17 0x81D9BDD1A5B99C81A5CC818DB1BDCD959 PUSH1 0x7A SHL PUSH1 0x20 DUP3 ADD MSTORE PUSH1 0x40 ADD SWAP3 SWAP2 POP POP JUMP JUMPDEST PUSH1 0x0 PUSH2 0x358B PUSH1 0x34 DUP4 PUSH2 0x4826 JUMP JUMPDEST PUSH32 0x476F7665726E6F72427261766F3A3A63617374566F7465496E7465726E616C3A DUP2 MSTORE PUSH20 0x81D9BDD195C88185B1C9958591E481D9BDD1959 PUSH1 0x62 SHL PUSH1 0x20 DUP3 ADD MSTORE PUSH1 0x40 ADD SWAP3 SWAP2 POP POP JUMP JUMPDEST PUSH1 0x0 PUSH2 0x35E1 PUSH1 0x34 DUP4 PUSH2 0x4826 JUMP JUMPDEST PUSH1 0x0 DUP1 MLOAD PUSH1 0x20 PUSH2 0x492E DUP4 CODECOPY DUP2 MLOAD SWAP2 MSTORE DUP2 MSTORE PUSH20 0x1A59081B5A5B881D9BDD1A5B99C81C195C9A5BD9 PUSH1 0x62 SHL PUSH1 0x20 DUP3 ADD MSTORE PUSH1 0x40 ADD SWAP3 SWAP2 POP POP JUMP JUMPDEST PUSH1 0x0 PUSH2 0x3625 PUSH1 0x45 DUP4 PUSH2 0x4826 JUMP JUMPDEST PUSH32 0x476F7665726E6F72427261766F3A3A657865637574653A2070726F706F73616C DUP2 MSTORE PUSH32 0x2063616E206F6E6C792062652065786563757465642069662069742069732071 PUSH1 0x20 DUP3 ADD MSTORE PUSH5 0x1D595D5959 PUSH1 0xDA SHL PUSH1 0x40 DUP3 ADD MSTORE PUSH1 0x60 ADD SWAP3 SWAP2 POP POP JUMP JUMPDEST PUSH1 0x0 PUSH2 0x3692 PUSH1 0x2F DUP4 PUSH2 0x4826 JUMP JUMPDEST PUSH32 0x476F7665726E6F72427261766F3A3A63617374566F746542795369673A20696E DUP2 MSTORE PUSH15 0x76616C6964207369676E6174757265 PUSH1 0x88 SHL PUSH1 0x20 DUP3 ADD MSTORE PUSH1 0x40 ADD SWAP3 SWAP2 POP POP JUMP JUMPDEST PUSH1 0x0 PUSH2 0x36E3 PUSH1 0x44 DUP4 PUSH2 0x4826 JUMP JUMPDEST PUSH32 0x476F7665726E6F72427261766F3A3A70726F706F73653A2070726F706F73616C DUP2 MSTORE PUSH32 0x2066756E6374696F6E20696E666F726D6174696F6E206172697479206D69736D PUSH1 0x20 DUP3 ADD MSTORE PUSH4 0xC2E8C6D PUSH1 0xE3 SHL PUSH1 0x40 DUP3 ADD MSTORE PUSH1 0x60 ADD SWAP3 SWAP2 POP POP JUMP JUMPDEST PUSH1 0x0 PUSH2 0x374F PUSH1 0x25 DUP4 PUSH2 0x4826 JUMP JUMPDEST PUSH32 0x476F7665726E6F72427261766F3A3A696E697469616C697A653A2061646D696E DUP2 MSTORE PUSH5 0x206F6E6C79 PUSH1 0xD8 SHL PUSH1 0x20 DUP3 ADD MSTORE PUSH1 0x40 ADD SWAP3 SWAP2 POP POP JUMP JUMPDEST PUSH1 0x0 PUSH2 0x3796 PUSH1 0x32 DUP4 PUSH2 0x4826 JUMP JUMPDEST PUSH32 0x476F7665726E6F72427261766F3A3A696E697469616C697A653A2063616E6E6F DUP2 MSTORE PUSH18 0x7420696E697469616C697A65207477696365 PUSH1 0x70 SHL PUSH1 0x20 DUP3 ADD MSTORE PUSH1 0x40 ADD SWAP3 SWAP2 POP POP JUMP JUMPDEST PUSH1 0x0 PUSH2 0x37EA PUSH1 0x44 DUP4 PUSH2 0x4826 JUMP JUMPDEST PUSH32 0x476F7665726E6F72427261766F3A3A71756575653A2070726F706F73616C2063 DUP2 MSTORE PUSH32 0x616E206F6E6C7920626520717565756564206966206974206973207375636365 PUSH1 0x20 DUP3 ADD MSTORE PUSH4 0x19591959 PUSH1 0xE2 SHL PUSH1 0x40 DUP3 ADD MSTORE PUSH1 0x60 ADD SWAP3 SWAP2 POP POP JUMP JUMPDEST PUSH1 0x0 PUSH2 0x3856 PUSH1 0x11 DUP4 PUSH2 0x4826 JUMP JUMPDEST PUSH17 0x6164646974696F6E206F766572666C6F77 PUSH1 0x78 SHL DUP2 MSTORE PUSH1 0x20 ADD SWAP3 SWAP2 POP POP JUMP JUMPDEST PUSH1 0x0 PUSH2 0x3883 PUSH1 0x43 DUP4 PUSH2 0x1172 JUMP JUMPDEST PUSH32 0x454950373132446F6D61696E28737472696E67206E616D652C75696E74323536 DUP2 MSTORE PUSH32 0x20636861696E49642C6164647265737320766572696679696E67436F6E747261 PUSH1 0x20 DUP3 ADD MSTORE PUSH3 0x637429 PUSH1 0xE8 SHL PUSH1 0x40 DUP3 ADD MSTORE PUSH1 0x43 ADD SWAP3 SWAP2 POP POP JUMP JUMPDEST PUSH1 0x0 PUSH2 0x38EE PUSH1 0x30 DUP4 PUSH2 0x4826 JUMP JUMPDEST PUSH32 0x476F7665726E6F72427261766F3A3A5F696E6974696174653A2063616E206F6E DUP2 MSTORE PUSH16 0x6C7920696E697469617465206F6E6365 PUSH1 0x80 SHL PUSH1 0x20 DUP3 ADD MSTORE PUSH1 0x40 ADD SWAP3 SWAP2 POP POP JUMP JUMPDEST PUSH1 0x0 PUSH2 0x3940 PUSH1 0x2E DUP4 PUSH2 0x4826 JUMP JUMPDEST PUSH1 0x0 DUP1 MLOAD PUSH1 0x20 PUSH2 0x492E DUP4 CODECOPY DUP2 MLOAD SWAP2 MSTORE DUP2 MSTORE PUSH14 0x6964206E776C2061646472657373 PUSH1 0x90 SHL PUSH1 0x20 DUP3 ADD MSTORE PUSH1 0x40 ADD SWAP3 SWAP2 POP POP JUMP JUMPDEST PUSH1 0x0 PUSH2 0x397E PUSH1 0x2C DUP4 PUSH2 0x4826 JUMP JUMPDEST PUSH32 0x476F7665726E6F72427261766F3A3A70726F706F73653A206D7573742070726F DUP2 MSTORE PUSH12 0x7669646520616374696F6E73 PUSH1 0xA0 SHL PUSH1 0x20 DUP3 ADD MSTORE PUSH1 0x40 ADD SWAP3 SWAP2 POP POP JUMP JUMPDEST PUSH1 0x0 PUSH2 0x39CC PUSH1 0x2E DUP4 PUSH2 0x4826 JUMP JUMPDEST PUSH32 0x476F7665726E6F72427261766F3A5F61636365707441646D696E3A2070656E64 DUP2 MSTORE PUSH14 0x696E672061646D696E206F6E6C79 PUSH1 0x90 SHL PUSH1 0x20 DUP3 ADD MSTORE PUSH1 0x40 ADD SWAP3 SWAP2 POP POP JUMP JUMPDEST PUSH1 0x0 PUSH2 0x3A1C PUSH1 0x33 DUP4 PUSH2 0x4826 JUMP JUMPDEST PUSH1 0x0 DUP1 MLOAD PUSH1 0x20 PUSH2 0x492E DUP4 CODECOPY DUP2 MLOAD SWAP2 MSTORE DUP2 MSTORE PUSH19 0x6964206D696E20766F74696E672064656C6179 PUSH1 0x68 SHL PUSH1 0x20 DUP3 ADD MSTORE PUSH1 0x40 ADD SWAP3 SWAP2 POP POP JUMP JUMPDEST PUSH1 0x0 PUSH2 0x3A5F PUSH1 0x2F DUP4 PUSH2 0x4826 JUMP JUMPDEST PUSH32 0x476F7665726E6F72427261766F3A3A63616E63656C3A2070726F706F73657220 DUP2 MSTORE PUSH15 0x18589BDD99481D1A1C995CDA1BDB19 PUSH1 0x8A SHL PUSH1 0x20 DUP3 ADD MSTORE PUSH1 0x40 ADD SWAP3 SWAP2 POP POP JUMP JUMPDEST PUSH1 0x0 PUSH2 0x3AB0 PUSH1 0x2B DUP4 PUSH2 0x4826 JUMP JUMPDEST PUSH1 0x0 DUP1 MLOAD PUSH1 0x20 PUSH2 0x492E DUP4 CODECOPY DUP2 MLOAD SWAP2 MSTORE DUP2 MSTORE PUSH11 0x34B21033BAB0B93234B0B7 PUSH1 0xA9 SHL PUSH1 0x20 DUP3 ADD MSTORE PUSH1 0x40 ADD SWAP3 SWAP2 POP POP JUMP JUMPDEST PUSH1 0x0 PUSH2 0x3AEB PUSH1 0x28 DUP4 PUSH2 0x4826 JUMP JUMPDEST PUSH32 0x476F7665726E6F72427261766F3A3A70726F706F73653A20746F6F206D616E79 DUP2 MSTORE PUSH8 0x20616374696F6E73 PUSH1 0xC0 SHL PUSH1 0x20 DUP3 ADD MSTORE PUSH1 0x40 ADD SWAP3 SWAP2 POP POP JUMP JUMPDEST PUSH1 0x0 PUSH2 0x3B35 PUSH1 0x59 DUP4 PUSH2 0x4826 JUMP JUMPDEST PUSH32 0x476F7665726E6F72427261766F3A3A70726F706F73653A206F6E65206C697665 DUP2 MSTORE PUSH32 0x2070726F706F73616C207065722070726F706F7365722C20666F756E6420616E PUSH1 0x20 DUP3 ADD MSTORE PUSH32 0x20616C72656164792070656E64696E672070726F706F73616C00000000000000 PUSH1 0x40 DUP3 ADD MSTORE PUSH1 0x60 ADD SWAP3 SWAP2 POP POP JUMP JUMPDEST PUSH1 0x0 PUSH2 0x3BBA PUSH1 0x34 DUP4 PUSH2 0x4826 JUMP JUMPDEST PUSH32 0x476F7665726E6F72427261766F3A3A5F73657450726F706F73616C4D61784F70 DUP2 MSTORE PUSH20 0x65726174696F6E733A2061646D696E206F6E6C79 PUSH1 0x60 SHL PUSH1 0x20 DUP3 ADD MSTORE PUSH1 0x40 ADD SWAP3 SWAP2 POP POP JUMP JUMPDEST PUSH1 0x0 PUSH2 0x3C10 PUSH1 0x32 DUP4 PUSH2 0x4826 JUMP JUMPDEST PUSH32 0x476F7665726E6F72427261766F3A3A696E697469616C697A653A696E76616C69 DUP2 MSTORE PUSH18 0x642074696D656C6F636B2061646472657373 PUSH1 0x70 SHL PUSH1 0x20 DUP3 ADD MSTORE PUSH1 0x40 ADD SWAP3 SWAP2 POP POP JUMP JUMPDEST PUSH1 0x0 PUSH2 0x3C64 PUSH1 0x33 DUP4 PUSH2 0x4826 JUMP JUMPDEST PUSH1 0x0 DUP1 MLOAD PUSH1 0x20 PUSH2 0x492E DUP4 CODECOPY DUP2 MLOAD SWAP2 MSTORE DUP2 MSTORE PUSH19 0x6964206D617820766F74696E672064656C6179 PUSH1 0x68 SHL PUSH1 0x20 DUP3 ADD MSTORE PUSH1 0x40 ADD SWAP3 SWAP2 POP POP JUMP JUMPDEST PUSH1 0x0 PUSH2 0x3CA7 PUSH1 0x58 DUP4 PUSH2 0x4826 JUMP JUMPDEST PUSH32 0x476F7665726E6F72427261766F3A3A70726F706F73653A206F6E65206C697665 DUP2 MSTORE PUSH32 0x2070726F706F73616C207065722070726F706F7365722C20666F756E6420616E PUSH1 0x20 DUP3 ADD MSTORE PUSH32 0x20616C7265616479206163746976652070726F706F73616C0000000000000000 PUSH1 0x40 DUP3 ADD MSTORE PUSH1 0x60 ADD SWAP3 SWAP2 POP POP JUMP JUMPDEST PUSH1 0x0 PUSH2 0x1C2B PUSH1 0x0 DUP4 PUSH2 0x4826 JUMP JUMPDEST PUSH1 0x0 PUSH2 0x3D39 PUSH1 0x24 DUP4 PUSH2 0x4826 JUMP JUMPDEST PUSH32 0x476F7665726E6F72427261766F3A3A5F696E6974696174653A2061646D696E20 DUP2 MSTORE PUSH4 0x6F6E6C79 PUSH1 0xE0 SHL PUSH1 0x20 DUP3 ADD MSTORE PUSH1 0x40 ADD SWAP3 SWAP2 POP POP JUMP JUMPDEST PUSH1 0x0 PUSH2 0x3D7F PUSH1 0x3F DUP4 PUSH2 0x4826 JUMP JUMPDEST PUSH32 0x476F7665726E6F72427261766F3A3A70726F706F73653A2070726F706F736572 DUP2 MSTORE PUSH32 0x20766F7465732062656C6F772070726F706F73616C207468726573686F6C6400 PUSH1 0x20 DUP3 ADD MSTORE PUSH1 0x40 ADD SWAP3 SWAP2 POP POP JUMP JUMPDEST PUSH1 0x0 PUSH2 0x3DDE PUSH1 0x36 DUP4 PUSH2 0x4826 JUMP JUMPDEST PUSH32 0x476F7665726E6F72427261766F3A3A63616E63656C3A2063616E6E6F74206361 DUP2 MSTORE PUSH22 0x1B98D95B08195E1958DD5D1959081C1C9BDC1BDCD85B PUSH1 0x52 SHL PUSH1 0x20 DUP3 ADD MSTORE PUSH1 0x40 ADD SWAP3 SWAP2 POP POP JUMP JUMPDEST PUSH1 0x0 PUSH2 0x3E36 PUSH1 0x29 DUP4 PUSH2 0x4826 JUMP JUMPDEST PUSH32 0x476F7665726E6F72427261766F3A3A73746174653A20696E76616C6964207072 DUP2 MSTORE PUSH9 0x1BDC1BDCD85B081A59 PUSH1 0xBA SHL PUSH1 0x20 DUP3 ADD MSTORE PUSH1 0x40 ADD SWAP3 SWAP2 POP POP JUMP JUMPDEST PUSH1 0x0 PUSH2 0x3E81 PUSH1 0x5D DUP4 PUSH2 0x4826 JUMP JUMPDEST PUSH32 0x476F7665726E6F72427261766F3A3A696E697469616C697A653A6E756D626572 DUP2 MSTORE PUSH32 0x206F662070726F706F73616C20636F6E666967732073686F756C64206D617463 PUSH1 0x20 DUP3 ADD MSTORE PUSH32 0x68206E756D626572206F6620676F7665726E616E636520726F75746573000000 PUSH1 0x40 DUP3 ADD MSTORE PUSH1 0x60 ADD SWAP3 SWAP2 POP POP JUMP JUMPDEST PUSH1 0x0 PUSH2 0x3F06 PUSH1 0x3B DUP4 PUSH2 0x4826 JUMP JUMPDEST PUSH32 0x476F7665726E6F72427261766F3A3A5F736574477561726469616E3A2063616E DUP2 MSTORE PUSH32 0x6E6F74206C69766520776974686F7574206120677561726469616E0000000000 PUSH1 0x20 DUP3 ADD MSTORE PUSH1 0x40 ADD SWAP3 SWAP2 POP POP JUMP JUMPDEST PUSH1 0x0 PUSH2 0x3F65 PUSH1 0x33 DUP4 PUSH2 0x4826 JUMP JUMPDEST PUSH32 0x476F7665726E6F72427261766F3A3A5F736574477561726469616E3A2061646D DUP2 MSTORE PUSH19 0x696E206F7220677561726469616E206F6E6C79 PUSH1 0x68 SHL PUSH1 0x20 DUP3 ADD MSTORE PUSH1 0x40 ADD SWAP3 SWAP2 POP POP JUMP JUMPDEST PUSH1 0x0 PUSH2 0x3FBA PUSH1 0x15 DUP4 PUSH2 0x4826 JUMP JUMPDEST PUSH21 0x7375627472616374696F6E20756E646572666C6F77 PUSH1 0x58 SHL DUP2 MSTORE PUSH1 0x20 ADD SWAP3 SWAP2 POP POP JUMP JUMPDEST PUSH1 0x0 PUSH2 0x3FEB PUSH1 0x34 DUP4 PUSH2 0x4826 JUMP JUMPDEST PUSH1 0x0 DUP1 MLOAD PUSH1 0x20 PUSH2 0x492E DUP4 CODECOPY DUP2 MLOAD SWAP2 MSTORE DUP2 MSTORE PUSH20 0x1A59081B585E081D9BDD1A5B99C81C195C9A5BD9 PUSH1 0x62 SHL PUSH1 0x20 DUP3 ADD MSTORE PUSH1 0x40 ADD SWAP3 SWAP2 POP POP JUMP JUMPDEST PUSH1 0x0 PUSH2 0x402F PUSH1 0x39 DUP4 PUSH2 0x4826 JUMP JUMPDEST PUSH1 0x0 DUP1 MLOAD PUSH1 0x20 PUSH2 0x492E DUP4 CODECOPY DUP2 MLOAD SWAP2 MSTORE DUP2 MSTORE PUSH32 0x6964206D61782070726F706F73616C207468726573686F6C6400000000000000 PUSH1 0x20 DUP3 ADD MSTORE PUSH1 0x40 ADD SWAP3 SWAP2 POP POP JUMP JUMPDEST DUP1 MLOAD PUSH1 0x60 DUP4 ADD SWAP1 PUSH2 0x4080 DUP5 DUP3 PUSH2 0x316F JUMP JUMPDEST POP PUSH1 0x20 DUP3 ADD MLOAD PUSH2 0x4093 PUSH1 0x20 DUP6 ADD DUP3 PUSH2 0x40AC JUMP JUMPDEST POP PUSH1 0x40 DUP3 ADD MLOAD PUSH2 0x40A6 PUSH1 0x40 DUP6 ADD DUP3 PUSH2 0x40BE JUMP JUMPDEST POP POP POP POP JUMP JUMPDEST PUSH2 0x2FEA DUP2 PUSH2 0x4860 JUMP JUMPDEST PUSH2 0x2FEA DUP2 PUSH2 0x4888 JUMP JUMPDEST PUSH2 0x2FEA DUP2 PUSH2 0x4866 JUMP JUMPDEST PUSH1 0x0 PUSH2 0x1C2B DUP3 PUSH2 0x32DC JUMP JUMPDEST PUSH1 0x0 PUSH2 0x40DD DUP3 PUSH2 0x34C0 JUMP JUMPDEST SWAP2 POP PUSH2 0x40E9 DUP3 DUP6 PUSH2 0x3181 JUMP JUMPDEST PUSH1 0x20 DUP3 ADD SWAP2 POP PUSH2 0x40F9 DUP3 DUP5 PUSH2 0x3181 JUMP JUMPDEST POP PUSH1 0x20 ADD SWAP3 SWAP2 POP POP JUMP JUMPDEST PUSH1 0x0 PUSH2 0x1C2B DUP3 PUSH2 0x3876 JUMP JUMPDEST PUSH1 0x20 DUP2 ADD PUSH2 0x1C2B DUP3 DUP5 PUSH2 0x2FF0 JUMP JUMPDEST PUSH1 0x40 DUP2 ADD PUSH2 0x412A DUP3 DUP6 PUSH2 0x2FE1 JUMP JUMPDEST PUSH2 0x2140 PUSH1 0x20 DUP4 ADD DUP5 PUSH2 0x3178 JUMP JUMPDEST PUSH1 0x40 DUP2 ADD PUSH2 0x4145 DUP3 DUP6 PUSH2 0x2FF0 JUMP JUMPDEST PUSH2 0x2140 PUSH1 0x20 DUP4 ADD DUP5 PUSH2 0x2FF0 JUMP JUMPDEST PUSH1 0x40 DUP2 ADD PUSH2 0x412A DUP3 DUP6 PUSH2 0x2FF0 JUMP JUMPDEST PUSH1 0xA0 DUP2 ADD PUSH2 0x416E DUP3 DUP9 PUSH2 0x2FF0 JUMP JUMPDEST PUSH2 0x417B PUSH1 0x20 DUP4 ADD DUP8 PUSH2 0x3178 JUMP JUMPDEST DUP2 DUP2 SUB PUSH1 0x40 DUP4 ADD MSTORE PUSH2 0x418D DUP2 DUP7 PUSH2 0x3192 JUMP JUMPDEST SWAP1 POP DUP2 DUP2 SUB PUSH1 0x60 DUP4 ADD MSTORE PUSH2 0x41A1 DUP2 DUP6 PUSH2 0x3192 JUMP JUMPDEST SWAP1 POP PUSH2 0xA79 PUSH1 0x80 DUP4 ADD DUP5 PUSH2 0x3178 JUMP JUMPDEST PUSH1 0xA0 DUP2 ADD PUSH2 0x41BE DUP3 DUP9 PUSH2 0x2FF0 JUMP JUMPDEST PUSH2 0x41CB PUSH1 0x20 DUP4 ADD DUP8 PUSH2 0x3178 JUMP JUMPDEST DUP2 DUP2 SUB PUSH1 0x40 DUP4 ADD MSTORE PUSH2 0x41DD DUP2 DUP7 PUSH2 0x31CA JUMP JUMPDEST SWAP1 POP DUP2 DUP2 SUB PUSH1 0x60 DUP4 ADD MSTORE PUSH2 0x41A1 DUP2 DUP6 PUSH2 0x31CA JUMP JUMPDEST PUSH1 0x80 DUP1 DUP3 MSTORE DUP2 ADD PUSH2 0x4202 DUP2 DUP8 PUSH2 0x2FF9 JUMP JUMPDEST SWAP1 POP DUP2 DUP2 SUB PUSH1 0x20 DUP4 ADD MSTORE PUSH2 0x4216 DUP2 DUP7 PUSH2 0x3121 JUMP JUMPDEST SWAP1 POP DUP2 DUP2 SUB PUSH1 0x40 DUP4 ADD MSTORE PUSH2 0x422A DUP2 DUP6 PUSH2 0x30C0 JUMP JUMPDEST SWAP1 POP DUP2 DUP2 SUB PUSH1 0x60 DUP4 ADD MSTORE PUSH2 0xA79 DUP2 DUP5 PUSH2 0x3052 JUMP JUMPDEST PUSH1 0x20 DUP2 ADD PUSH2 0x1C2B DUP3 DUP5 PUSH2 0x3178 JUMP JUMPDEST PUSH1 0x80 DUP2 ADD PUSH2 0x425A DUP3 DUP8 PUSH2 0x3178 JUMP JUMPDEST PUSH2 0x4267 PUSH1 0x20 DUP4 ADD DUP7 PUSH2 0x3178 JUMP JUMPDEST PUSH2 0x4274 PUSH1 0x40 DUP4 ADD DUP6 PUSH2 0x3178 JUMP JUMPDEST PUSH2 0x4281 PUSH1 0x60 DUP4 ADD DUP5 PUSH2 0x2FF0 JUMP JUMPDEST SWAP6 SWAP5 POP POP POP POP POP JUMP JUMPDEST PUSH1 0x60 DUP2 ADD PUSH2 0x4298 DUP3 DUP7 PUSH2 0x3178 JUMP JUMPDEST PUSH2 0x42A5 PUSH1 0x20 DUP4 ADD DUP6 PUSH2 0x3178 JUMP JUMPDEST PUSH2 0x2C33 PUSH1 0x40 DUP4 ADD DUP5 PUSH2 0x40AC JUMP JUMPDEST PUSH1 0x80 DUP2 ADD PUSH2 0x42C0 DUP3 DUP8 PUSH2 0x3178 JUMP JUMPDEST PUSH2 0x42CD PUSH1 0x20 DUP4 ADD DUP7 PUSH2 0x40AC JUMP JUMPDEST PUSH2 0x42DA PUSH1 0x40 DUP4 ADD DUP6 PUSH2 0x3178 JUMP JUMPDEST PUSH2 0x4281 PUSH1 0x60 DUP4 ADD DUP5 PUSH2 0x3178 JUMP JUMPDEST PUSH1 0x20 DUP2 ADD PUSH2 0x1C2B DUP3 DUP5 PUSH2 0x3254 JUMP JUMPDEST PUSH1 0x20 DUP2 ADD PUSH2 0x1C2B DUP3 DUP5 PUSH2 0x325D JUMP JUMPDEST PUSH1 0x20 DUP1 DUP3 MSTORE DUP2 ADD PUSH2 0x2140 DUP2 DUP5 PUSH2 0x3192 JUMP JUMPDEST PUSH1 0x20 DUP1 DUP3 MSTORE DUP2 ADD PUSH2 0x1C2B DUP2 PUSH2 0x3288 JUMP JUMPDEST PUSH1 0x20 DUP1 DUP3 MSTORE DUP2 ADD PUSH2 0x1C2B DUP2 PUSH2 0x3326 JUMP JUMPDEST PUSH1 0x20 DUP1 DUP3 MSTORE DUP2 ADD PUSH2 0x1C2B DUP2 PUSH2 0x3372 JUMP JUMPDEST PUSH1 0x20 DUP1 DUP3 MSTORE DUP2 ADD PUSH2 0x1C2B DUP2 PUSH2 0x33EF JUMP JUMPDEST PUSH1 0x20 DUP1 DUP3 MSTORE DUP2 ADD PUSH2 0x1C2B DUP2 PUSH2 0x346D JUMP JUMPDEST PUSH1 0x20 DUP1 DUP3 MSTORE DUP2 ADD PUSH2 0x1C2B DUP2 PUSH2 0x34DE JUMP JUMPDEST PUSH1 0x20 DUP1 DUP3 MSTORE DUP2 ADD PUSH2 0x1C2B DUP2 PUSH2 0x352B JUMP JUMPDEST PUSH1 0x20 DUP1 DUP3 MSTORE DUP2 ADD PUSH2 0x1C2B DUP2 PUSH2 0x357E JUMP JUMPDEST PUSH1 0x20 DUP1 DUP3 MSTORE DUP2 ADD PUSH2 0x1C2B DUP2 PUSH2 0x35D4 JUMP JUMPDEST PUSH1 0x20 DUP1 DUP3 MSTORE DUP2 ADD PUSH2 0x1C2B DUP2 PUSH2 0x3618 JUMP JUMPDEST PUSH1 0x20 DUP1 DUP3 MSTORE DUP2 ADD PUSH2 0x1C2B DUP2 PUSH2 0x3685 JUMP JUMPDEST PUSH1 0x20 DUP1 DUP3 MSTORE DUP2 ADD PUSH2 0x1C2B DUP2 PUSH2 0x36D6 JUMP JUMPDEST PUSH1 0x20 DUP1 DUP3 MSTORE DUP2 ADD PUSH2 0x1C2B DUP2 PUSH2 0x3742 JUMP JUMPDEST PUSH1 0x20 DUP1 DUP3 MSTORE DUP2 ADD PUSH2 0x1C2B DUP2 PUSH2 0x3789 JUMP JUMPDEST PUSH1 0x20 DUP1 DUP3 MSTORE DUP2 ADD PUSH2 0x1C2B DUP2 PUSH2 0x37DD JUMP JUMPDEST PUSH1 0x20 DUP1 DUP3 MSTORE DUP2 ADD PUSH2 0x1C2B DUP2 PUSH2 0x3849 JUMP JUMPDEST PUSH1 0x20 DUP1 DUP3 MSTORE DUP2 ADD PUSH2 0x1C2B DUP2 PUSH2 0x38E1 JUMP JUMPDEST PUSH1 0x20 DUP1 DUP3 MSTORE DUP2 ADD PUSH2 0x1C2B DUP2 PUSH2 0x3933 JUMP JUMPDEST PUSH1 0x20 DUP1 DUP3 MSTORE DUP2 ADD PUSH2 0x1C2B DUP2 PUSH2 0x3971 JUMP JUMPDEST PUSH1 0x20 DUP1 DUP3 MSTORE DUP2 ADD PUSH2 0x1C2B DUP2 PUSH2 0x39BF JUMP JUMPDEST PUSH1 0x20 DUP1 DUP3 MSTORE DUP2 ADD PUSH2 0x1C2B DUP2 PUSH2 0x3A0F JUMP JUMPDEST PUSH1 0x20 DUP1 DUP3 MSTORE DUP2 ADD PUSH2 0x1C2B DUP2 PUSH2 0x3A52 JUMP JUMPDEST PUSH1 0x20 DUP1 DUP3 MSTORE DUP2 ADD PUSH2 0x1C2B DUP2 PUSH2 0x3AA3 JUMP JUMPDEST PUSH1 0x20 DUP1 DUP3 MSTORE DUP2 ADD PUSH2 0x1C2B DUP2 PUSH2 0x3ADE JUMP JUMPDEST PUSH1 0x20 DUP1 DUP3 MSTORE DUP2 ADD PUSH2 0x1C2B DUP2 PUSH2 0x3B28 JUMP JUMPDEST PUSH1 0x20 DUP1 DUP3 MSTORE DUP2 ADD PUSH2 0x1C2B DUP2 PUSH2 0x3BAD JUMP JUMPDEST PUSH1 0x20 DUP1 DUP3 MSTORE DUP2 ADD PUSH2 0x1C2B DUP2 PUSH2 0x3C03 JUMP JUMPDEST PUSH1 0x20 DUP1 DUP3 MSTORE DUP2 ADD PUSH2 0x1C2B DUP2 PUSH2 0x3C57 JUMP JUMPDEST PUSH1 0x20 DUP1 DUP3 MSTORE DUP2 ADD PUSH2 0x1C2B DUP2 PUSH2 0x3C9A JUMP JUMPDEST PUSH1 0x20 DUP1 DUP3 MSTORE DUP2 ADD PUSH2 0x1C2B DUP2 PUSH2 0x3D2C JUMP JUMPDEST PUSH1 0x20 DUP1 DUP3 MSTORE DUP2 ADD PUSH2 0x1C2B DUP2 PUSH2 0x3D72 JUMP JUMPDEST PUSH1 0x20 DUP1 DUP3 MSTORE DUP2 ADD PUSH2 0x1C2B DUP2 PUSH2 0x3DD1 JUMP JUMPDEST PUSH1 0x20 DUP1 DUP3 MSTORE DUP2 ADD PUSH2 0x1C2B DUP2 PUSH2 0x3E29 JUMP JUMPDEST PUSH1 0x20 DUP1 DUP3 MSTORE DUP2 ADD PUSH2 0x1C2B DUP2 PUSH2 0x3E74 JUMP JUMPDEST PUSH1 0x20 DUP1 DUP3 MSTORE DUP2 ADD PUSH2 0x1C2B DUP2 PUSH2 0x3EF9 JUMP JUMPDEST PUSH1 0x20 DUP1 DUP3 MSTORE DUP2 ADD PUSH2 0x1C2B DUP2 PUSH2 0x3F58 JUMP JUMPDEST PUSH1 0x20 DUP1 DUP3 MSTORE DUP2 ADD PUSH2 0x1C2B DUP2 PUSH2 0x3FAD JUMP JUMPDEST PUSH1 0x20 DUP1 DUP3 MSTORE DUP2 ADD PUSH2 0x1C2B DUP2 PUSH2 0x3FDE JUMP JUMPDEST PUSH1 0x20 DUP1 DUP3 MSTORE DUP2 ADD PUSH2 0x1C2B DUP2 PUSH2 0x4022 JUMP JUMPDEST PUSH1 0x60 DUP2 ADD PUSH2 0x1C2B DUP3 DUP5 PUSH2 0x406F JUMP JUMPDEST PUSH2 0x140 DUP2 ADD PUSH2 0x45A1 DUP3 DUP14 PUSH2 0x3178 JUMP JUMPDEST PUSH2 0x45AE PUSH1 0x20 DUP4 ADD DUP13 PUSH2 0x2FE1 JUMP JUMPDEST DUP2 DUP2 SUB PUSH1 0x40 DUP4 ADD MSTORE PUSH2 0x45C0 DUP2 DUP12 PUSH2 0x2FF9 JUMP JUMPDEST SWAP1 POP DUP2 DUP2 SUB PUSH1 0x60 DUP4 ADD MSTORE PUSH2 0x45D4 DUP2 DUP11 PUSH2 0x3121 JUMP JUMPDEST SWAP1 POP DUP2 DUP2 SUB PUSH1 0x80 DUP4 ADD MSTORE PUSH2 0x45E8 DUP2 DUP10 PUSH2 0x30C0 JUMP JUMPDEST SWAP1 POP DUP2 DUP2 SUB PUSH1 0xA0 DUP4 ADD MSTORE PUSH2 0x45FC DUP2 DUP9 PUSH2 0x3052 JUMP JUMPDEST SWAP1 POP PUSH2 0x460B PUSH1 0xC0 DUP4 ADD DUP8 PUSH2 0x3178 JUMP JUMPDEST PUSH2 0x4618 PUSH1 0xE0 DUP4 ADD DUP7 PUSH2 0x3178 JUMP JUMPDEST DUP2 DUP2 SUB PUSH2 0x100 DUP4 ADD MSTORE PUSH2 0x462B DUP2 DUP6 PUSH2 0x3192 JUMP JUMPDEST SWAP1 POP PUSH2 0x463B PUSH2 0x120 DUP4 ADD DUP5 PUSH2 0x40AC JUMP JUMPDEST SWAP12 SWAP11 POP POP POP POP POP POP POP POP POP POP POP JUMP JUMPDEST PUSH2 0x160 DUP2 ADD PUSH2 0x4659 DUP3 DUP15 PUSH2 0x3178 JUMP JUMPDEST PUSH2 0x4666 PUSH1 0x20 DUP4 ADD DUP14 PUSH2 0x2FF0 JUMP JUMPDEST PUSH2 0x4673 PUSH1 0x40 DUP4 ADD DUP13 PUSH2 0x3178 JUMP JUMPDEST PUSH2 0x4680 PUSH1 0x60 DUP4 ADD DUP12 PUSH2 0x3178 JUMP JUMPDEST PUSH2 0x468D PUSH1 0x80 DUP4 ADD DUP11 PUSH2 0x3178 JUMP JUMPDEST PUSH2 0x469A PUSH1 0xA0 DUP4 ADD DUP10 PUSH2 0x3178 JUMP JUMPDEST PUSH2 0x46A7 PUSH1 0xC0 DUP4 ADD DUP9 PUSH2 0x3178 JUMP JUMPDEST PUSH2 0x46B4 PUSH1 0xE0 DUP4 ADD DUP8 PUSH2 0x3178 JUMP JUMPDEST PUSH2 0x46C2 PUSH2 0x100 DUP4 ADD DUP7 PUSH2 0x316F JUMP JUMPDEST PUSH2 0x46D0 PUSH2 0x120 DUP4 ADD DUP6 PUSH2 0x316F JUMP JUMPDEST PUSH2 0x46DE PUSH2 0x140 DUP4 ADD DUP5 PUSH2 0x40AC JUMP JUMPDEST SWAP13 SWAP12 POP POP POP POP POP POP POP POP POP POP POP POP JUMP JUMPDEST PUSH1 0x40 DUP2 ADD PUSH2 0x412A DUP3 DUP6 PUSH2 0x3178 JUMP JUMPDEST PUSH1 0x60 DUP2 ADD PUSH2 0x470A DUP3 DUP7 PUSH2 0x3178 JUMP JUMPDEST PUSH2 0x4717 PUSH1 0x20 DUP4 ADD DUP6 PUSH2 0x3178 JUMP JUMPDEST PUSH2 0x2C33 PUSH1 0x40 DUP4 ADD DUP5 PUSH2 0x3178 JUMP JUMPDEST PUSH1 0x80 DUP2 ADD PUSH2 0x4732 DUP3 DUP9 PUSH2 0x3178 JUMP JUMPDEST PUSH2 0x473F PUSH1 0x20 DUP4 ADD DUP8 PUSH2 0x40AC JUMP JUMPDEST PUSH2 0x474C PUSH1 0x40 DUP4 ADD DUP7 PUSH2 0x40B5 JUMP JUMPDEST DUP2 DUP2 SUB PUSH1 0x60 DUP4 ADD MSTORE PUSH2 0x475F DUP2 DUP5 DUP7 PUSH2 0x3266 JUMP JUMPDEST SWAP8 SWAP7 POP POP POP POP POP POP POP JUMP JUMPDEST PUSH1 0x80 DUP2 ADD PUSH2 0x4778 DUP3 DUP7 PUSH2 0x3178 JUMP JUMPDEST PUSH2 0x4785 PUSH1 0x20 DUP4 ADD DUP6 PUSH2 0x40AC JUMP JUMPDEST PUSH2 0x4792 PUSH1 0x40 DUP4 ADD DUP5 PUSH2 0x40B5 JUMP JUMPDEST DUP2 DUP2 SUB PUSH1 0x60 DUP4 ADD MSTORE PUSH2 0x4281 DUP2 PUSH2 0x3D1F JUMP JUMPDEST PUSH1 0x40 MLOAD DUP2 DUP2 ADD PUSH1 0x1 PUSH1 0x1 PUSH1 0x40 SHL SUB DUP2 GT DUP3 DUP3 LT OR ISZERO PUSH2 0x47C1 JUMPI PUSH1 0x0 DUP1 REVERT JUMPDEST PUSH1 0x40 MSTORE SWAP2 SWAP1 POP JUMP JUMPDEST PUSH1 0x0 PUSH1 0x1 PUSH1 0x1 PUSH1 0x40 SHL SUB DUP3 GT ISZERO PUSH2 0x47DF JUMPI PUSH1 0x0 DUP1 REVERT JUMPDEST POP PUSH1 0x20 SWAP1 DUP2 MUL ADD SWAP1 JUMP JUMPDEST PUSH1 0x0 PUSH1 0x1 PUSH1 0x1 PUSH1 0x40 SHL SUB DUP3 GT ISZERO PUSH2 0x47FF JUMPI PUSH1 0x0 DUP1 REVERT JUMPDEST POP PUSH1 0x20 PUSH1 0x1F SWAP2 SWAP1 SWAP2 ADD PUSH1 0x1F NOT AND ADD SWAP1 JUMP JUMPDEST PUSH1 0x20 ADD SWAP1 JUMP JUMPDEST PUSH1 0x0 SWAP1 DUP2 MSTORE PUSH1 0x20 SWAP1 KECCAK256 SWAP1 JUMP JUMPDEST MLOAD SWAP1 JUMP JUMPDEST SWAP1 DUP2 MSTORE PUSH1 0x20 ADD SWAP1 JUMP JUMPDEST PUSH1 0x0 PUSH2 0x1C2B DUP3 PUSH2 0x4854 JUMP JUMPDEST ISZERO ISZERO SWAP1 JUMP JUMPDEST PUSH1 0x0 PUSH2 0x1C2B DUP3 PUSH2 0x482F JUMP JUMPDEST DUP1 PUSH2 0x1172 DUP2 PUSH2 0x48D5 JUMP JUMPDEST PUSH1 0x1 PUSH1 0x1 PUSH1 0xA0 SHL SUB AND SWAP1 JUMP JUMPDEST PUSH1 0xFF AND SWAP1 JUMP JUMPDEST PUSH1 0x1 PUSH1 0x1 PUSH1 0x60 SHL SUB AND SWAP1 JUMP JUMPDEST PUSH1 0x0 PUSH2 0x1C2B DUP3 PUSH2 0x483F JUMP JUMPDEST PUSH1 0x0 PUSH2 0x1C2B DUP3 PUSH2 0x484A JUMP JUMPDEST PUSH1 0x0 PUSH2 0x1C2B DUP3 PUSH2 0x4866 JUMP JUMPDEST DUP3 DUP2 DUP4 CALLDATACOPY POP PUSH1 0x0 SWAP2 ADD MSTORE JUMP JUMPDEST PUSH1 0x0 JUMPDEST DUP4 DUP2 LT ISZERO PUSH2 0x48BA JUMPI DUP2 DUP2 ADD MLOAD DUP4 DUP3 ADD MSTORE PUSH1 0x20 ADD PUSH2 0x48A2 JUMP JUMPDEST DUP4 DUP2 GT ISZERO PUSH2 0x40A6 JUMPI POP POP PUSH1 0x0 SWAP2 ADD MSTORE JUMP JUMPDEST PUSH1 0x1F ADD PUSH1 0x1F NOT AND SWAP1 JUMP JUMPDEST PUSH1 0x8 DUP2 LT PUSH2 0x27F7 JUMPI INVALID JUMPDEST PUSH2 0x48E8 DUP2 PUSH2 0x482F JUMP JUMPDEST DUP2 EQ PUSH2 0x27F7 JUMPI PUSH1 0x0 DUP1 REVERT JUMPDEST PUSH2 0x48E8 DUP2 PUSH2 0x483A JUMP JUMPDEST PUSH2 0x48E8 DUP2 PUSH2 0x2149 JUMP JUMPDEST PUSH2 0x48E8 DUP2 PUSH2 0x483F JUMP JUMPDEST PUSH1 0x3 DUP2 LT PUSH2 0x27F7 JUMPI PUSH1 0x0 DUP1 REVERT JUMPDEST PUSH2 0x48E8 DUP2 PUSH2 0x4860 JUMP JUMPDEST PUSH2 0x48E8 DUP2 PUSH2 0x4866 JUMP INVALID SELFBALANCE PUSH16 0x7665726E6F72427261766F3A3A696E69 PUSH21 0x69616C697A653A20696E76616CA365627A7A723158 KECCAK256 0xE3 JUMPDEST BYTE PUSH3 0xB80BE6 0xAD 0x4B OR SWAP8 STOP 0x4E PUSH10 0x3BD98FFFFDD9BFC280C8 0x2F EXTCODESIZE 0x1F PUSH31 0x9435840F6C6578706572696D656E74616CF564736F6C634300051000400000 "},"gasEstimates":{"creation":{"codeDepositCost":"3766400","executionCost":"4262","totalCost":"3770662"},"external":{"BALLOT_TYPEHASH()":"infinite","DOMAIN_TYPEHASH()":"infinite","MAX_PROPOSAL_THRESHOLD()":"345","MAX_VOTING_DELAY()":"344","MAX_VOTING_PERIOD()":"433","MIN_PROPOSAL_THRESHOLD()":"345","MIN_VOTING_DELAY()":"432","MIN_VOTING_PERIOD()":"411","_acceptAdmin()":"infinite","_initiate(address)":"infinite","_setGuardian(address)":"infinite","_setPendingAdmin(address)":"infinite","_setProposalMaxOperations(uint256)":"infinite","admin()":"infinite","cancel(uint256)":"infinite","castVote(uint256,uint8)":"infinite","castVoteBySig(uint256,uint8,uint8,bytes32,bytes32)":"infinite","castVoteWithReason(uint256,uint8,string)":"infinite","execute(uint256)":"infinite","getActions(uint256)":"infinite","getReceipt(uint256,address)":"infinite","guardian()":"infinite","implementation()":"infinite","initialProposalId()":"1231","initialize(address,(uint256,uint256,uint256)[],address[],address)":"infinite","latestProposalIds(address)":"infinite","name()":"infinite","nwlVault()":"infinite","pendingAdmin()":"infinite","proposalConfigs(uint256)":"infinite","proposalCount()":"1232","proposalMaxOperations()":"1189","proposalThreshold()":"1166","proposalTimelocks(uint256)":"infinite","proposals(uint256)":"infinite","propose(address[],uint256[],string[],bytes[],string,uint8)":"infinite","queue(uint256)":"infinite","quorumVotes()":"433","state(uint256)":"infinite","timelock()":"infinite","votingDelay()":"1233","votingPeriod()":"1190"},"internal":{"add256(uint256,uint256)":"infinite","castVoteInternal(address,uint256,uint8)":"infinite","getChainIdInternal()":"15","queueOrRevertInternal(address,uint256,string memory,bytes memory,uint256,uint8)":"infinite","sub256(uint256,uint256)":"infinite"}},"methodIdentifiers":{"BALLOT_TYPEHASH()":"deaaa7cc","DOMAIN_TYPEHASH()":"20606b70","MAX_PROPOSAL_THRESHOLD()":"25fd935a","MAX_VOTING_DELAY()":"b1126263","MAX_VOTING_PERIOD()":"a64e024a","MIN_PROPOSAL_THRESHOLD()":"791f5d23","MIN_VOTING_DELAY()":"e48083fe","MIN_VOTING_PERIOD()":"215809ca","_acceptAdmin()":"e9c714f2","_initiate(address)":"f9d28b80","_setGuardian(address)":"e38e8c0f","_setPendingAdmin(address)":"b71d1a0c","_setProposalMaxOperations(uint256)":"1ebcfefd","admin()":"f851a440","cancel(uint256)":"40e58ee5","castVote(uint256,uint8)":"56781388","castVoteBySig(uint256,uint8,uint8,bytes32,bytes32)":"3bccf4fd","castVoteWithReason(uint256,uint8,string)":"7b3c71d3","execute(uint256)":"fe0d94c1","getActions(uint256)":"328dd982","getReceipt(uint256,address)":"e23a9a52","guardian()":"452a9320","implementation()":"5c60da1b","initialProposalId()":"fc4eee42","initialize(address,(uint256,uint256,uint256)[],address[],address)":"9e6f2626","latestProposalIds(address)":"17977c61","name()":"06fdde03","nwlVault()":"0221b90e","pendingAdmin()":"26782247","proposalConfigs(uint256)":"35a87de2","proposalCount()":"da35c664","proposalMaxOperations()":"7bdbe4d0","proposalThreshold()":"b58131b0","proposalTimelocks(uint256)":"ee9799ee","proposals(uint256)":"013cf08b","propose(address[],uint256[],string[],bytes[],string,uint8)":"164a1ab1","queue(uint256)":"ddf0b009","quorumVotes()":"24bc1a64","state(uint256)":"3e4f49e6","timelock()":"d33219b4","votingDelay()":"3932abb1","votingPeriod()":"02a251a3"}},"storageLayout":{"storage":[{"astId":1671,"contract":"contracts/Governance/GovernorBravoDelegate.sol:GovernorBravoDelegate","label":"admin","offset":0,"slot":"0","type":"t_address"},{"astId":1673,"contract":"contracts/Governance/GovernorBravoDelegate.sol:GovernorBravoDelegate","label":"pendingAdmin","offset":0,"slot":"1","type":"t_address"},{"astId":1675,"contract":"contracts/Governance/GovernorBravoDelegate.sol:GovernorBravoDelegate","label":"implementation","offset":0,"slot":"2","type":"t_address"},{"astId":1680,"contract":"contracts/Governance/GovernorBravoDelegate.sol:GovernorBravoDelegate","label":"votingDelay","offset":0,"slot":"3","type":"t_uint256"},{"astId":1682,"contract":"contracts/Governance/GovernorBravoDelegate.sol:GovernorBravoDelegate","label":"votingPeriod","offset":0,"slot":"4","type":"t_uint256"},{"astId":1684,"contract":"contracts/Governance/GovernorBravoDelegate.sol:GovernorBravoDelegate","label":"proposalThreshold","offset":0,"slot":"5","type":"t_uint256"},{"astId":1686,"contract":"contracts/Governance/GovernorBravoDelegate.sol:GovernorBravoDelegate","label":"initialProposalId","offset":0,"slot":"6","type":"t_uint256"},{"astId":1688,"contract":"contracts/Governance/GovernorBravoDelegate.sol:GovernorBravoDelegate","label":"proposalCount","offset":0,"slot":"7","type":"t_uint256"},{"astId":1690,"contract":"contracts/Governance/GovernorBravoDelegate.sol:GovernorBravoDelegate","label":"timelock","offset":0,"slot":"8","type":"t_contract(TimelockInterface)1846"},{"astId":1692,"contract":"contracts/Governance/GovernorBravoDelegate.sol:GovernorBravoDelegate","label":"nwlVault","offset":0,"slot":"9","type":"t_contract(NwlVaultInterface)1856"},{"astId":1696,"contract":"contracts/Governance/GovernorBravoDelegate.sol:GovernorBravoDelegate","label":"proposals","offset":0,"slot":"10","type":"t_mapping(t_uint256,t_struct(Proposal)1739_storage)"},{"astId":1700,"contract":"contracts/Governance/GovernorBravoDelegate.sol:GovernorBravoDelegate","label":"latestProposalIds","offset":0,"slot":"11","type":"t_mapping(t_address,t_uint256)"},{"astId":1757,"contract":"contracts/Governance/GovernorBravoDelegate.sol:GovernorBravoDelegate","label":"proposalMaxOperations","offset":0,"slot":"12","type":"t_uint256"},{"astId":1759,"contract":"contracts/Governance/GovernorBravoDelegate.sol:GovernorBravoDelegate","label":"guardian","offset":0,"slot":"13","type":"t_address"},{"astId":1777,"contract":"contracts/Governance/GovernorBravoDelegate.sol:GovernorBravoDelegate","label":"proposalConfigs","offset":0,"slot":"14","type":"t_mapping(t_uint256,t_struct(ProposalConfig)1773_storage)"},{"astId":1781,"contract":"contracts/Governance/GovernorBravoDelegate.sol:GovernorBravoDelegate","label":"proposalTimelocks","offset":0,"slot":"15","type":"t_mapping(t_uint256,t_contract(TimelockInterface)1846)"}],"types":{"t_address":{"encoding":"inplace","label":"address","numberOfBytes":"20"},"t_array(t_address)dyn_storage":{"base":"t_address","encoding":"dynamic_array","label":"address[]","numberOfBytes":"32"},"t_array(t_bytes_storage)dyn_storage":{"base":"t_bytes_storage","encoding":"dynamic_array","label":"bytes[]","numberOfBytes":"32"},"t_array(t_string_storage)dyn_storage":{"base":"t_string_storage","encoding":"dynamic_array","label":"string[]","numberOfBytes":"32"},"t_array(t_uint256)dyn_storage":{"base":"t_uint256","encoding":"dynamic_array","label":"uint256[]","numberOfBytes":"32"},"t_bool":{"encoding":"inplace","label":"bool","numberOfBytes":"1"},"t_bytes_storage":{"encoding":"bytes","label":"bytes","numberOfBytes":"32"},"t_contract(NwlVaultInterface)1856":{"encoding":"inplace","label":"contract NwlVaultInterface","numberOfBytes":"20"},"t_contract(TimelockInterface)1846":{"encoding":"inplace","label":"contract TimelockInterface","numberOfBytes":"20"},"t_mapping(t_address,t_struct(Receipt)1746_storage)":{"encoding":"mapping","key":"t_address","label":"mapping(address => struct GovernorBravoDelegateStorageV1.Receipt)","numberOfBytes":"32","value":"t_struct(Receipt)1746_storage"},"t_mapping(t_address,t_uint256)":{"encoding":"mapping","key":"t_address","label":"mapping(address => uint256)","numberOfBytes":"32","value":"t_uint256"},"t_mapping(t_uint256,t_contract(TimelockInterface)1846)":{"encoding":"mapping","key":"t_uint256","label":"mapping(uint256 => contract TimelockInterface)","numberOfBytes":"32","value":"t_contract(TimelockInterface)1846"},"t_mapping(t_uint256,t_struct(Proposal)1739_storage)":{"encoding":"mapping","key":"t_uint256","label":"mapping(uint256 => struct GovernorBravoDelegateStorageV1.Proposal)","numberOfBytes":"32","value":"t_struct(Proposal)1739_storage"},"t_mapping(t_uint256,t_struct(ProposalConfig)1773_storage)":{"encoding":"mapping","key":"t_uint256","label":"mapping(uint256 => struct GovernorBravoDelegateStorageV2.ProposalConfig)","numberOfBytes":"32","value":"t_struct(ProposalConfig)1773_storage"},"t_string_storage":{"encoding":"bytes","label":"string","numberOfBytes":"32"},"t_struct(Proposal)1739_storage":{"encoding":"inplace","label":"struct GovernorBravoDelegateStorageV1.Proposal","members":[{"astId":1702,"contract":"contracts/Governance/GovernorBravoDelegate.sol:GovernorBravoDelegate","label":"id","offset":0,"slot":"0","type":"t_uint256"},{"astId":1704,"contract":"contracts/Governance/GovernorBravoDelegate.sol:GovernorBravoDelegate","label":"proposer","offset":0,"slot":"1","type":"t_address"},{"astId":1706,"contract":"contracts/Governance/GovernorBravoDelegate.sol:GovernorBravoDelegate","label":"eta","offset":0,"slot":"2","type":"t_uint256"},{"astId":1709,"contract":"contracts/Governance/GovernorBravoDelegate.sol:GovernorBravoDelegate","label":"targets","offset":0,"slot":"3","type":"t_array(t_address)dyn_storage"},{"astId":1712,"contract":"contracts/Governance/GovernorBravoDelegate.sol:GovernorBravoDelegate","label":"values","offset":0,"slot":"4","type":"t_array(t_uint256)dyn_storage"},{"astId":1715,"contract":"contracts/Governance/GovernorBravoDelegate.sol:GovernorBravoDelegate","label":"signatures","offset":0,"slot":"5","type":"t_array(t_string_storage)dyn_storage"},{"astId":1718,"contract":"contracts/Governance/GovernorBravoDelegate.sol:GovernorBravoDelegate","label":"calldatas","offset":0,"slot":"6","type":"t_array(t_bytes_storage)dyn_storage"},{"astId":1720,"contract":"contracts/Governance/GovernorBravoDelegate.sol:GovernorBravoDelegate","label":"startBlock","offset":0,"slot":"7","type":"t_uint256"},{"astId":1722,"contract":"contracts/Governance/GovernorBravoDelegate.sol:GovernorBravoDelegate","label":"endBlock","offset":0,"slot":"8","type":"t_uint256"},{"astId":1724,"contract":"contracts/Governance/GovernorBravoDelegate.sol:GovernorBravoDelegate","label":"forVotes","offset":0,"slot":"9","type":"t_uint256"},{"astId":1726,"contract":"contracts/Governance/GovernorBravoDelegate.sol:GovernorBravoDelegate","label":"againstVotes","offset":0,"slot":"10","type":"t_uint256"},{"astId":1728,"contract":"contracts/Governance/GovernorBravoDelegate.sol:GovernorBravoDelegate","label":"abstainVotes","offset":0,"slot":"11","type":"t_uint256"},{"astId":1730,"contract":"contracts/Governance/GovernorBravoDelegate.sol:GovernorBravoDelegate","label":"canceled","offset":0,"slot":"12","type":"t_bool"},{"astId":1732,"contract":"contracts/Governance/GovernorBravoDelegate.sol:GovernorBravoDelegate","label":"executed","offset":1,"slot":"12","type":"t_bool"},{"astId":1736,"contract":"contracts/Governance/GovernorBravoDelegate.sol:GovernorBravoDelegate","label":"receipts","offset":0,"slot":"13","type":"t_mapping(t_address,t_struct(Receipt)1746_storage)"},{"astId":1738,"contract":"contracts/Governance/GovernorBravoDelegate.sol:GovernorBravoDelegate","label":"proposalType","offset":0,"slot":"14","type":"t_uint8"}],"numberOfBytes":"480"},"t_struct(ProposalConfig)1773_storage":{"encoding":"inplace","label":"struct GovernorBravoDelegateStorageV2.ProposalConfig","members":[{"astId":1768,"contract":"contracts/Governance/GovernorBravoDelegate.sol:GovernorBravoDelegate","label":"votingDelay","offset":0,"slot":"0","type":"t_uint256"},{"astId":1770,"contract":"contracts/Governance/GovernorBravoDelegate.sol:GovernorBravoDelegate","label":"votingPeriod","offset":0,"slot":"1","type":"t_uint256"},{"astId":1772,"contract":"contracts/Governance/GovernorBravoDelegate.sol:GovernorBravoDelegate","label":"proposalThreshold","offset":0,"slot":"2","type":"t_uint256"}],"numberOfBytes":"96"},"t_struct(Receipt)1746_storage":{"encoding":"inplace","label":"struct GovernorBravoDelegateStorageV1.Receipt","members":[{"astId":1741,"contract":"contracts/Governance/GovernorBravoDelegate.sol:GovernorBravoDelegate","label":"hasVoted","offset":0,"slot":"0","type":"t_bool"},{"astId":1743,"contract":"contracts/Governance/GovernorBravoDelegate.sol:GovernorBravoDelegate","label":"support","offset":1,"slot":"0","type":"t_uint8"},{"astId":1745,"contract":"contracts/Governance/GovernorBravoDelegate.sol:GovernorBravoDelegate","label":"votes","offset":2,"slot":"0","type":"t_uint96"}],"numberOfBytes":"32"},"t_uint256":{"encoding":"inplace","label":"uint256","numberOfBytes":"32"},"t_uint8":{"encoding":"inplace","label":"uint8","numberOfBytes":"1"},"t_uint96":{"encoding":"inplace","label":"uint96","numberOfBytes":"12"}}},"userdoc":{"methods":{"_acceptAdmin()":{"notice":"Accepts transfer of admin rights. msg.sender must be pendingAdmin"},"_initiate(address)":{"notice":"Initiate the GovernorBravo contract"},"_setGuardian(address)":{"notice":"Sets the new governance guardian"},"_setPendingAdmin(address)":{"notice":"Begins transfer of admin rights. The newPendingAdmin must call `_acceptAdmin` to finalize the transfer."},"_setProposalMaxOperations(uint256)":{"notice":"Set max proposal operations"},"cancel(uint256)":{"notice":"Cancels a proposal only if sender is the proposer, or proposer delegates dropped below proposal threshold"},"castVote(uint256,uint8)":{"notice":"Cast a vote for a proposal"},"castVoteBySig(uint256,uint8,uint8,bytes32,bytes32)":{"notice":"Cast a vote for a proposal by signature"},"castVoteWithReason(uint256,uint8,string)":{"notice":"Cast a vote for a proposal with a reason"},"execute(uint256)":{"notice":"Executes a queued proposal if eta has passed"},"getActions(uint256)":{"notice":"Gets actions of a proposal"},"getReceipt(uint256,address)":{"notice":"Gets the receipt for a voter on a given proposal"},"initialize(address,(uint256,uint256,uint256)[],address[],address)":{"notice":"Used to initialize the contract during delegator contructor"},"propose(address[],uint256[],string[],bytes[],string,uint8)":{"notice":"Function used to propose a new proposal. Sender must have delegates above the proposal threshold"},"queue(uint256)":{"notice":"Queues a proposal of state succeeded"},"state(uint256)":{"notice":"Gets the state of a proposal"}}}}}}