{
  "_format": "hh-sol-artifact-1",
  "contractName": "SimplePriceOracle",
  "sourceName": "contracts/SimplePriceOracle.sol",
  "abi": [
    {
      "anonymous": false,
      "inputs": [
        {
          "indexed": false,
          "internalType": "address",
          "name": "asset",
          "type": "address"
        },
        {
          "indexed": false,
          "internalType": "uint256",
          "name": "previousPriceMantissa",
          "type": "uint256"
        },
        {
          "indexed": false,
          "internalType": "uint256",
          "name": "requestedPriceMantissa",
          "type": "uint256"
        },
        {
          "indexed": false,
          "internalType": "uint256",
          "name": "newPriceMantissa",
          "type": "uint256"
        }
      ],
      "name": "PricePosted",
      "type": "event"
    },
    {
      "constant": true,
      "inputs": [
        {
          "internalType": "address",
          "name": "asset",
          "type": "address"
        }
      ],
      "name": "assetPrices",
      "outputs": [
        {
          "internalType": "uint256",
          "name": "",
          "type": "uint256"
        }
      ],
      "payable": false,
      "stateMutability": "view",
      "type": "function"
    },
    {
      "constant": true,
      "inputs": [
        {
          "internalType": "contract NToken",
          "name": "nToken",
          "type": "address"
        }
      ],
      "name": "getUnderlyingPrice",
      "outputs": [
        {
          "internalType": "uint256",
          "name": "",
          "type": "uint256"
        }
      ],
      "payable": false,
      "stateMutability": "view",
      "type": "function"
    },
    {
      "constant": true,
      "inputs": [],
      "name": "isPriceOracle",
      "outputs": [
        {
          "internalType": "bool",
          "name": "",
          "type": "bool"
        }
      ],
      "payable": false,
      "stateMutability": "view",
      "type": "function"
    },
    {
      "constant": false,
      "inputs": [
        {
          "internalType": "address",
          "name": "asset",
          "type": "address"
        },
        {
          "internalType": "uint256",
          "name": "price",
          "type": "uint256"
        }
      ],
      "name": "setDirectPrice",
      "outputs": [],
      "payable": false,
      "stateMutability": "nonpayable",
      "type": "function"
    },
    {
      "constant": false,
      "inputs": [
        {
          "internalType": "contract NToken",
          "name": "nToken",
          "type": "address"
        },
        {
          "internalType": "uint256",
          "name": "underlyingPriceMantissa",
          "type": "uint256"
        }
      ],
      "name": "setUnderlyingPrice",
      "outputs": [],
      "payable": false,
      "stateMutability": "nonpayable",
      "type": "function"
    }
  ],
  "bytecode": "0x608060405234801561001057600080fd5b50610b0c806100206000396000f3fe608060405234801561001057600080fd5b50600436106100575760003560e01c806309a8acb01461005c578063127ffda01461008a5780635e9a523c146100b657806366331bba146100ee578063fc57d4df1461010a575b600080fd5b6100886004803603604081101561007257600080fd5b506001600160a01b038135169060200135610130565b005b610088600480360360408110156100a057600080fd5b506001600160a01b0381351690602001356101a8565b6100dc600480360360208110156100cc57600080fd5b50356001600160a01b031661028a565b60408051918252519081900360200190f35b6100f66102a9565b604080519115158252519081900360200190f35b6100dc6004803603602081101561012057600080fd5b50356001600160a01b03166102ae565b6001600160a01b038216600081815260208181526040918290205482519384529083015281810183905260608201839052517fdd71a1d19fcba687442a1d5c58578f1e409af71a79d10fd95a4d66efd8fa9ae79181900360800190a16001600160a01b03909116600090815260208190526040902055565b6000826001600160a01b0316636f307dc36040518163ffffffff1660e01b815260040160206040518083038186803b1580156101e357600080fd5b505afa1580156101f7573d6000803e3d6000fd5b505050506040513d602081101561020d57600080fd5b50516001600160a01b038116600081815260208181526040918290205482519384529083015281810185905260608201859052519192507fdd71a1d19fcba687442a1d5c58578f1e409af71a79d10fd95a4d66efd8fa9ae7919081900360800190a16001600160a01b031660009081526020819052604090205550565b6001600160a01b0381166000908152602081905260409020545b919050565b600181565b60006103f3826001600160a01b03166395d89b416040518163ffffffff1660e01b815260040160006040518083038186803b1580156102ec57600080fd5b505afa158015610300573d6000803e3d6000fd5b505050506040513d6000823e601f3d908101601f19168201604052602081101561032957600080fd5b8101908080516040519392919084600160201b82111561034857600080fd5b90830190602082018581111561035d57600080fd5b8251600160201b81118282018810171561037657600080fd5b82525081516020918201929091019080838360005b838110156103a357818101518382015260200161038b565b50505050905090810190601f1680156103d05780820380516001836020036101000a031916815260200191505b506040818101905260048152631b91925360e21b602082015292506109f0915050565b156104075750674563918244f400006102a4565b610549826001600160a01b03166395d89b416040518163ffffffff1660e01b815260040160006040518083038186803b15801561044357600080fd5b505afa158015610457573d6000803e3d6000fd5b505050506040513d6000823e601f3d908101601f19168201604052602081101561048057600080fd5b8101908080516040519392919084600160201b82111561049f57600080fd5b9083019060208201858111156104b457600080fd5b8251600160201b8111828201881017156104cd57600080fd5b82525081516020918201929091019080838360005b838110156104fa5781810151838201526020016104e2565b50505050905090810190601f1680156105275780820380516001836020036101000a031916815260200191505b506040818101905260038152624e414960e81b602082015292506109f0915050565b1561055d5750670de0b6b3a76400006102a4565b6106a0826001600160a01b03166395d89b416040518163ffffffff1660e01b815260040160006040518083038186803b15801561059957600080fd5b505afa1580156105ad573d6000803e3d6000fd5b505050506040513d6000823e601f3d908101601f1916820160405260208110156105d657600080fd5b8101908080516040519392919084600160201b8211156105f557600080fd5b90830190602082018581111561060a57600080fd5b8251600160201b81118282018810171561062357600080fd5b82525081516020918201929091019080838360005b83811015610650578181015183820152602001610638565b50505050905090810190601f16801561067d5780820380516001836020036101000a031916815260200191505b506040818101905260048152636e4e414960e01b602082015292506109f0915050565b156106b45750670de0b6b3a76400006102a4565b6107f8826001600160a01b03166395d89b416040518163ffffffff1660e01b815260040160006040518083038186803b1580156106f057600080fd5b505afa158015610704573d6000803e3d6000fd5b505050506040513d6000823e601f3d908101601f19168201604052602081101561072d57600080fd5b8101908080516040519392919084600160201b82111561074c57600080fd5b90830190602082018581111561076157600080fd5b8251600160201b81118282018810171561077a57600080fd5b82525081516020918201929091019080838360005b838110156107a757818101518382015260200161078f565b50505050905090810190601f1680156107d45780820380516001836020036101000a031916815260200191505b506040818101905260058152646e5742544360d81b602082015292506109f0915050565b1561080e575069043c33c19375648000006102a4565b610952826001600160a01b03166395d89b416040518163ffffffff1660e01b815260040160006040518083038186803b15801561084a57600080fd5b505afa15801561085e573d6000803e3d6000fd5b505050506040513d6000823e601f3d908101601f19168201604052602081101561088757600080fd5b8101908080516040519392919084600160201b8211156108a657600080fd5b9083019060208201858111156108bb57600080fd5b8251600160201b8111828201881017156108d457600080fd5b82525081516020918201929091019080838360005b838110156109015781810151838201526020016108e9565b50505050905090810190601f16801561092e5780820380516001836020036101000a031916815260200191505b506040818101905260058152640dcae8aa8960db1b602082015292506109f0915050565b156109675750686c6b935b8bbd4000006102a4565b600080836001600160a01b0316636f307dc36040518163ffffffff1660e01b815260040160206040518083038186803b1580156109a357600080fd5b505afa1580156109b7573d6000803e3d6000fd5b505050506040513d60208110156109cd57600080fd5b50516001600160a01b0316815260208101919091526040016000205490506102a4565b6000816040516020018082805190602001908083835b60208310610a255780518252601f199092019160209182019101610a06565b6001836020036101000a03801982511681845116808217855250505050505090500191505060405160208183030381529060405280519060200120836040516020018082805190602001908083835b60208310610a935780518252601f199092019160209182019101610a74565b6001836020036101000a038019825116818451168082178552505050505050905001915050604051602081830303815290604052805190602001201490509291505056fea265627a7a7231582050085769be4d388288c734f69e36e64029a822b306f1d079373a25ae9ca5946b64736f6c63430005100032",
  "linkReferences": {},
  "deployedLinkReferences": {}
}