{
  "_format": "hh-sol-artifact-1",
  "contractName": "VRT",
  "sourceName": "contracts/Tokens/VRT.sol",
  "abi": [
    {
      "inputs": [
        {
          "internalType": "address",
          "name": "account",
          "type": "address"
        }
      ],
      "payable": false,
      "stateMutability": "nonpayable",
      "type": "constructor"
    },
    {
      "anonymous": false,
      "inputs": [
        {
          "indexed": true,
          "internalType": "address",
          "name": "owner",
          "type": "address"
        },
        {
          "indexed": true,
          "internalType": "address",
          "name": "spender",
          "type": "address"
        },
        {
          "indexed": false,
          "internalType": "uint256",
          "name": "amount",
          "type": "uint256"
        }
      ],
      "name": "Approval",
      "type": "event"
    },
    {
      "anonymous": false,
      "inputs": [
        {
          "indexed": true,
          "internalType": "address",
          "name": "delegator",
          "type": "address"
        },
        {
          "indexed": true,
          "internalType": "address",
          "name": "fromDelegate",
          "type": "address"
        },
        {
          "indexed": true,
          "internalType": "address",
          "name": "toDelegate",
          "type": "address"
        }
      ],
      "name": "DelegateChanged",
      "type": "event"
    },
    {
      "anonymous": false,
      "inputs": [
        {
          "indexed": true,
          "internalType": "address",
          "name": "delegate",
          "type": "address"
        },
        {
          "indexed": false,
          "internalType": "uint256",
          "name": "previousBalance",
          "type": "uint256"
        },
        {
          "indexed": false,
          "internalType": "uint256",
          "name": "newBalance",
          "type": "uint256"
        }
      ],
      "name": "DelegateVotesChanged",
      "type": "event"
    },
    {
      "anonymous": false,
      "inputs": [],
      "name": "Freezed",
      "type": "event"
    },
    {
      "anonymous": false,
      "inputs": [
        {
          "indexed": true,
          "internalType": "address",
          "name": "_from",
          "type": "address"
        },
        {
          "indexed": true,
          "internalType": "address",
          "name": "_to",
          "type": "address"
        }
      ],
      "name": "OwnershipTransferred",
      "type": "event"
    },
    {
      "anonymous": false,
      "inputs": [
        {
          "indexed": true,
          "internalType": "address",
          "name": "from",
          "type": "address"
        },
        {
          "indexed": true,
          "internalType": "address",
          "name": "to",
          "type": "address"
        },
        {
          "indexed": false,
          "internalType": "uint256",
          "name": "amount",
          "type": "uint256"
        }
      ],
      "name": "Transfer",
      "type": "event"
    },
    {
      "anonymous": false,
      "inputs": [],
      "name": "UnFreezed",
      "type": "event"
    },
    {
      "constant": true,
      "inputs": [],
      "name": "DELEGATION_TYPEHASH",
      "outputs": [
        {
          "internalType": "bytes32",
          "name": "",
          "type": "bytes32"
        }
      ],
      "payable": false,
      "stateMutability": "view",
      "type": "function"
    },
    {
      "constant": true,
      "inputs": [],
      "name": "DOMAIN_TYPEHASH",
      "outputs": [
        {
          "internalType": "bytes32",
          "name": "",
          "type": "bytes32"
        }
      ],
      "payable": false,
      "stateMutability": "view",
      "type": "function"
    },
    {
      "constant": true,
      "inputs": [
        {
          "internalType": "address",
          "name": "account",
          "type": "address"
        },
        {
          "internalType": "address",
          "name": "spender",
          "type": "address"
        }
      ],
      "name": "allowance",
      "outputs": [
        {
          "internalType": "uint256",
          "name": "",
          "type": "uint256"
        }
      ],
      "payable": false,
      "stateMutability": "view",
      "type": "function"
    },
    {
      "constant": false,
      "inputs": [
        {
          "internalType": "address",
          "name": "spender",
          "type": "address"
        },
        {
          "internalType": "uint256",
          "name": "rawAmount",
          "type": "uint256"
        }
      ],
      "name": "approve",
      "outputs": [
        {
          "internalType": "bool",
          "name": "",
          "type": "bool"
        }
      ],
      "payable": false,
      "stateMutability": "nonpayable",
      "type": "function"
    },
    {
      "constant": true,
      "inputs": [
        {
          "internalType": "address",
          "name": "account",
          "type": "address"
        }
      ],
      "name": "balanceOf",
      "outputs": [
        {
          "internalType": "uint256",
          "name": "",
          "type": "uint256"
        }
      ],
      "payable": false,
      "stateMutability": "view",
      "type": "function"
    },
    {
      "constant": true,
      "inputs": [
        {
          "internalType": "address",
          "name": "",
          "type": "address"
        },
        {
          "internalType": "uint32",
          "name": "",
          "type": "uint32"
        }
      ],
      "name": "checkpoints",
      "outputs": [
        {
          "internalType": "uint32",
          "name": "fromBlock",
          "type": "uint32"
        },
        {
          "internalType": "uint96",
          "name": "votes",
          "type": "uint96"
        }
      ],
      "payable": false,
      "stateMutability": "view",
      "type": "function"
    },
    {
      "constant": true,
      "inputs": [],
      "name": "decimals",
      "outputs": [
        {
          "internalType": "uint8",
          "name": "",
          "type": "uint8"
        }
      ],
      "payable": false,
      "stateMutability": "view",
      "type": "function"
    },
    {
      "constant": false,
      "inputs": [
        {
          "internalType": "address",
          "name": "delegatee",
          "type": "address"
        }
      ],
      "name": "delegate",
      "outputs": [],
      "payable": false,
      "stateMutability": "nonpayable",
      "type": "function"
    },
    {
      "constant": false,
      "inputs": [
        {
          "internalType": "address",
          "name": "delegatee",
          "type": "address"
        },
        {
          "internalType": "uint256",
          "name": "nonce",
          "type": "uint256"
        },
        {
          "internalType": "uint256",
          "name": "expiry",
          "type": "uint256"
        },
        {
          "internalType": "uint8",
          "name": "v",
          "type": "uint8"
        },
        {
          "internalType": "bytes32",
          "name": "r",
          "type": "bytes32"
        },
        {
          "internalType": "bytes32",
          "name": "s",
          "type": "bytes32"
        }
      ],
      "name": "delegateBySig",
      "outputs": [],
      "payable": false,
      "stateMutability": "nonpayable",
      "type": "function"
    },
    {
      "constant": true,
      "inputs": [
        {
          "internalType": "address",
          "name": "",
          "type": "address"
        }
      ],
      "name": "delegates",
      "outputs": [
        {
          "internalType": "address",
          "name": "",
          "type": "address"
        }
      ],
      "payable": false,
      "stateMutability": "view",
      "type": "function"
    },
    {
      "constant": false,
      "inputs": [],
      "name": "freeze",
      "outputs": [],
      "payable": false,
      "stateMutability": "nonpayable",
      "type": "function"
    },
    {
      "constant": true,
      "inputs": [
        {
          "internalType": "address",
          "name": "account",
          "type": "address"
        }
      ],
      "name": "getCurrentVotes",
      "outputs": [
        {
          "internalType": "uint96",
          "name": "",
          "type": "uint96"
        }
      ],
      "payable": false,
      "stateMutability": "view",
      "type": "function"
    },
    {
      "constant": true,
      "inputs": [
        {
          "internalType": "address",
          "name": "account",
          "type": "address"
        },
        {
          "internalType": "uint256",
          "name": "blockNumber",
          "type": "uint256"
        }
      ],
      "name": "getPriorVotes",
      "outputs": [
        {
          "internalType": "uint96",
          "name": "",
          "type": "uint96"
        }
      ],
      "payable": false,
      "stateMutability": "view",
      "type": "function"
    },
    {
      "constant": true,
      "inputs": [],
      "name": "name",
      "outputs": [
        {
          "internalType": "string",
          "name": "",
          "type": "string"
        }
      ],
      "payable": false,
      "stateMutability": "view",
      "type": "function"
    },
    {
      "constant": true,
      "inputs": [
        {
          "internalType": "address",
          "name": "",
          "type": "address"
        }
      ],
      "name": "nonces",
      "outputs": [
        {
          "internalType": "uint256",
          "name": "",
          "type": "uint256"
        }
      ],
      "payable": false,
      "stateMutability": "view",
      "type": "function"
    },
    {
      "constant": true,
      "inputs": [
        {
          "internalType": "address",
          "name": "",
          "type": "address"
        }
      ],
      "name": "numCheckpoints",
      "outputs": [
        {
          "internalType": "uint32",
          "name": "",
          "type": "uint32"
        }
      ],
      "payable": false,
      "stateMutability": "view",
      "type": "function"
    },
    {
      "constant": true,
      "inputs": [],
      "name": "owner",
      "outputs": [
        {
          "internalType": "address",
          "name": "",
          "type": "address"
        }
      ],
      "payable": false,
      "stateMutability": "view",
      "type": "function"
    },
    {
      "constant": true,
      "inputs": [],
      "name": "symbol",
      "outputs": [
        {
          "internalType": "string",
          "name": "",
          "type": "string"
        }
      ],
      "payable": false,
      "stateMutability": "view",
      "type": "function"
    },
    {
      "constant": true,
      "inputs": [],
      "name": "totalSupply",
      "outputs": [
        {
          "internalType": "uint256",
          "name": "",
          "type": "uint256"
        }
      ],
      "payable": false,
      "stateMutability": "view",
      "type": "function"
    },
    {
      "constant": false,
      "inputs": [
        {
          "internalType": "address",
          "name": "dst",
          "type": "address"
        },
        {
          "internalType": "uint256",
          "name": "rawAmount",
          "type": "uint256"
        }
      ],
      "name": "transfer",
      "outputs": [
        {
          "internalType": "bool",
          "name": "",
          "type": "bool"
        }
      ],
      "payable": false,
      "stateMutability": "nonpayable",
      "type": "function"
    },
    {
      "constant": false,
      "inputs": [
        {
          "internalType": "address",
          "name": "src",
          "type": "address"
        },
        {
          "internalType": "address",
          "name": "dst",
          "type": "address"
        },
        {
          "internalType": "uint256",
          "name": "rawAmount",
          "type": "uint256"
        }
      ],
      "name": "transferFrom",
      "outputs": [
        {
          "internalType": "bool",
          "name": "",
          "type": "bool"
        }
      ],
      "payable": false,
      "stateMutability": "nonpayable",
      "type": "function"
    },
    {
      "constant": false,
      "inputs": [
        {
          "internalType": "address",
          "name": "newOwner",
          "type": "address"
        }
      ],
      "name": "transferOwnership",
      "outputs": [],
      "payable": false,
      "stateMutability": "nonpayable",
      "type": "function"
    },
    {
      "constant": false,
      "inputs": [],
      "name": "unfreeze",
      "outputs": [],
      "payable": false,
      "stateMutability": "nonpayable",
      "type": "function"
    }
  ],
  "bytecode": "0x60806040526000805460ff60a01b1916905534801561001d57600080fd5b50604051611d20380380611d208339818101604052602081101561004057600080fd5b5051600080546001600160a01b031916331781556001600160a01b03821680825260026020908152604080842080546001600160601b0319166b60ef6b1aba6f072330000000908117909155815190815290519293927fddf252ad1be2c89b69c2b068fc378daa952ba7f163c4a11628f55a4df523b3ef929181900390910190a350611c4f806100d16000396000f3fe608060405234801561001057600080fd5b506004361061014d5760003560e01c806370a08231116100c3578063b4b5ea571161007c578063b4b5ea571461040e578063c3cda52014610434578063dd62ed3e1461047b578063e7a324dc146104a9578063f1127ed8146104b1578063f2fde38b1461050b5761014d565b806370a082311461033e578063782d6fe1146103645780637ecebe00146103ac5780638da5cb5b146103d257806395d89b41146103da578063a9059cbb146103e25761014d565b8063313ce56711610115578063313ce56714610267578063587cde1e146102855780635c19a95c146102c757806362a5af3b146102ef5780636a28f000146102f75780636fcfff45146102ff5761014d565b806306fdde0314610152578063095ea7b3146101cf57806318160ddd1461020f57806320606b701461022957806323b872dd14610231575b600080fd5b61015a610531565b6040805160208082528351818301528351919283929083019185019080838360005b8381101561019457818101518382015260200161017c565b50505050905090810190601f1680156101c15780820380516001836020036101000a031916815260200191505b509250505060405180910390f35b6101fb600480360360408110156101e557600080fd5b506001600160a01b038135169060200135610561565b604080519115158252519081900360200190f35b610217610670565b60408051918252519081900360200190f35b610217610680565b6101fb6004803603606081101561024757600080fd5b506001600160a01b0381358116916020810135909116906040013561069b565b61026f610830565b6040805160ff9092168252519081900360200190f35b6102ab6004803603602081101561029b57600080fd5b50356001600160a01b0316610835565b604080516001600160a01b039092168252519081900360200190f35b6102ed600480360360208110156102dd57600080fd5b50356001600160a01b0316610850565b005b6102ed6108ae565b6102ed61093b565b6103256004803603602081101561031557600080fd5b50356001600160a01b03166109c2565b6040805163ffffffff9092168252519081900360200190f35b6102176004803603602081101561035457600080fd5b50356001600160a01b03166109da565b6103906004803603604081101561037a57600080fd5b506001600160a01b0381351690602001356109fe565b604080516001600160601b039092168252519081900360200190f35b610217600480360360208110156103c257600080fd5b50356001600160a01b0316610c2b565b6102ab610c3d565b61015a610c4c565b6101fb600480360360408110156103f857600080fd5b506001600160a01b038135169060200135610c6b565b6103906004803603602081101561042457600080fd5b50356001600160a01b0316610cf8565b6102ed600480360360c081101561044a57600080fd5b506001600160a01b038135169060208101359060408101359060ff6060820135169060808101359060a00135610d69565b6102176004803603604081101561049157600080fd5b506001600160a01b038135811691602001351661106f565b6102176110a3565b6104e3600480360360408110156104c757600080fd5b5080356001600160a01b0316906020013563ffffffff166110be565b6040805163ffffffff90931683526001600160601b0390911660208301528051918290030190f35b6102ed6004803603602081101561052157600080fd5b50356001600160a01b03166110f3565b604051806040016040528060148152602001732730b93bb430b6102932bbb0b932102a37b5b2b760611b81525081565b60008054600160a01b900460ff16156105b3576040805162461bcd60e51b815260206004820152600f60248201526e151bdad95b881a5cc81b1bd8dad959608a1b604482015290519081900360640190fd5b60006000198314156105c857506000196105ed565b6105ea83604051806060016040528060248152602001611b3060249139611192565b90505b3360008181526001602090815260408083206001600160a01b0389168085529083529281902080546001600160601b0319166001600160601b038716908117909155815190815290519293927f8c5be1e5ebec7d5bd14f71427d1e84f3dd0314c0f7b2291e5b200ac8c7c3b925929181900390910190a360019150505b92915050565b6b60ef6b1aba6f07233000000081565b604051806043611a3782396043019050604051809103902081565b60008054600160a01b900460ff16156106ed576040805162461bcd60e51b815260206004820152600f60248201526e151bdad95b881a5cc81b1bd8dad959608a1b604482015290519081900360640190fd5b6001600160a01b03841660009081526001602090815260408083203380855290835281842054825160608101909352602480845291946001600160601b03909116939092610743928892611b3090830139611192565b9050866001600160a01b0316836001600160a01b03161415801561077057506001600160601b0382811614155b1561081857600061079a83836040518060600160405280603c81526020016119fb603c913961122c565b6001600160a01b038981166000818152600160209081526040808320948a168084529482529182902080546001600160601b0319166001600160601b03871690811790915582519081529151949550929391927f8c5be1e5ebec7d5bd14f71427d1e84f3dd0314c0f7b2291e5b200ac8c7c3b92592918290030190a3505b610823878783611299565b5060019695505050505050565b601281565b6003602052600090815260409020546001600160a01b031681565b600054600160a01b900460ff16156108a1576040805162461bcd60e51b815260206004820152600f60248201526e151bdad95b881a5cc81b1bd8dad959608a1b604482015290519081900360640190fd5b6108ab338261147e565b50565b6000546001600160a01b031633146108ff576040805162461bcd60e51b815260206004820152600f60248201526e29b437bab6321031329037bbb732b960891b604482015290519081900360640190fd5b6000805460ff60a01b1916600160a01b1781556040517f962a6139ca22015759d0878e2cf5d770dcb8152e1d5ba08e46a969dd9b154a9c9190a1565b6000546001600160a01b0316331461098c576040805162461bcd60e51b815260206004820152600f60248201526e29b437bab6321031329037bbb732b960891b604482015290519081900360640190fd5b6000805460ff60a01b191681556040517ff0daac2271a735ea786b9adf80dfcbd6a3cbd52f3cab0a78337114692d5faf5d9190a1565b60056020526000908152604090205463ffffffff1681565b6001600160a01b03166000908152600260205260409020546001600160601b031690565b6000438210610a3e5760405162461bcd60e51b81526004018080602001828103825260268152602001806119b46026913960400191505060405180910390fd5b6001600160a01b03831660009081526005602052604090205463ffffffff1680610a6c57600091505061066a565b6001600160a01b038416600090815260046020908152604080832063ffffffff600019860181168552925290912054168310610ae8576001600160a01b03841660009081526004602090815260408083206000199490940163ffffffff1683529290522054600160201b90046001600160601b0316905061066a565b6001600160a01b038416600090815260046020908152604080832083805290915290205463ffffffff16831015610b2357600091505061066a565b600060001982015b8163ffffffff168163ffffffff161115610be657600282820363ffffffff16048103610b55611918565b506001600160a01b038716600090815260046020908152604080832063ffffffff858116855290835292819020815180830190925254928316808252600160201b9093046001600160601b03169181019190915290871415610bc15760200151945061066a9350505050565b805163ffffffff16871115610bd857819350610bdf565b6001820392505b5050610b2b565b506001600160a01b038516600090815260046020908152604080832063ffffffff909416835292905220546001600160601b03600160201b9091041691505092915050565b60066020526000908152604090205481565b6000546001600160a01b031681565b6040518060400160405280600381526020016215949560ea1b81525081565b60008054600160a01b900460ff1615610cbd576040805162461bcd60e51b815260206004820152600f60248201526e151bdad95b881a5cc81b1bd8dad959608a1b604482015290519081900360640190fd5b6000610ce183604051806060016040528060258152602001611ae460259139611192565b9050610cee338583611299565b5060019392505050565b6001600160a01b03811660009081526005602052604081205463ffffffff1680610d23576000610d62565b6001600160a01b0383166000908152600460209081526040808320600019850163ffffffff168452909152902054600160201b90046001600160601b03165b9392505050565b600054600160a01b900460ff1615610dba576040805162461bcd60e51b815260206004820152600f60248201526e151bdad95b881a5cc81b1bd8dad959608a1b604482015290519081900360640190fd5b60006040518080611a37604391396040805191829003604301822082820190915260148252732730b93bb430b6102932bbb0b932102a37b5b2b760611b60209092019190915290507f10dbe81692e62d177e2a217dcf359300e11113a11f4460fdcc883164e51ba693610e2b611508565b3060405160200180858152602001848152602001838152602001826001600160a01b03166001600160a01b0316815260200194505050505060405160208183030381529060405280519060200120905060006040518080611b54603a91396040805191829003603a0182206020808401919091526001600160a01b038c1683830152606083018b905260808084018b90528251808503909101815260a08401835280519082012061190160f01b60c085015260c2840187905260e2808501829052835180860390910181526101028501808552815191840191909120600091829052610122860180865281905260ff8c1661014287015261016286018b905261018286018a9052935191965092945091926001926101a28083019392601f198301929081900390910190855afa158015610f69573d6000803e3d6000fd5b5050604051601f1901519150506001600160a01b038116610fbb5760405162461bcd60e51b8152600401808060200182810382526025815260200180611bf66025913960400191505060405180910390fd5b6001600160a01b038116600090815260066020526040902080546001810190915589146110195760405162461bcd60e51b81526004018080602001828103825260218152602001806119da6021913960400191505060405180910390fd5b874211156110585760405162461bcd60e51b815260040180806020018281038252602581526020018061198f6025913960400191505060405180910390fd5b611062818b61147e565b505050505b505050505050565b6001600160a01b0391821660009081526001602090815260408083209390941682529190915220546001600160601b031690565b60405180603a611b548239603a019050604051809103902081565b600460209081526000928352604080842090915290825290205463ffffffff811690600160201b90046001600160601b031682565b6000546001600160a01b03163314611144576040805162461bcd60e51b815260206004820152600f60248201526e29b437bab6321031329037bbb732b960891b604482015290519081900360640190fd5b600080546001600160a01b0319166001600160a01b0383811691821780845560405192939116917f8be0079c531659141344cd1fd0a4f28419497f9722a3daafe3b4186f6b6457e09190a350565b600081600160601b84106112245760405162461bcd60e51b81526004018080602001828103825283818151815260200191508051906020019080838360005b838110156111e95781810151838201526020016111d1565b50505050905090810190601f1680156112165780820380516001836020036101000a031916815260200191505b509250505060405180910390fd5b509192915050565b6000836001600160601b0316836001600160601b0316111582906112915760405162461bcd60e51b81526020600482018181528351602484015283519092839260449091019190850190808383600083156111e95781810151838201526020016111d1565b505050900390565b6001600160a01b0383166112de5760405162461bcd60e51b815260040180806020018281038252603b815260200180611aa9603b913960400191505060405180910390fd5b6001600160a01b0382166113235760405162461bcd60e51b81526004018080602001828103825260398152602001806119566039913960400191505060405180910390fd5b6001600160a01b03831660009081526002602090815260409182902054825160608101909352603580845261136e936001600160601b039092169285929190611bc19083013961122c565b6001600160a01b03848116600090815260026020908152604080832080546001600160601b0319166001600160601b0396871617905592861682529082902054825160608101909352602f8084526113d69491909116928592909190611a7a9083013961150c565b6001600160a01b0383811660008181526002602090815260409182902080546001600160601b0319166001600160601b039687161790558151948616855290519193928716927fddf252ad1be2c89b69c2b068fc378daa952ba7f163c4a11628f55a4df523b3ef929081900390910190a36001600160a01b0380841660009081526003602052604080822054858416835291205461147992918216911683611576565b505050565b6001600160a01b03808316600081815260036020818152604080842080546002845282862054949093528787166001600160a01b031984168117909155905191909516946001600160601b039092169391928592917f3134e8a2e6d97e929a7e54011ea5485d7d196dd5f0ba4d4ef95803e8e3fc257f9190a4611502828483611576565b50505050565b4690565b6000838301826001600160601b03808716908316101561156d5760405162461bcd60e51b81526020600482018181528351602484015283519092839260449091019190850190808383600083156111e95781810151838201526020016111d1565b50949350505050565b816001600160a01b0316836001600160a01b0316141580156115a157506000816001600160601b0316115b15611479576001600160a01b03831615611659576001600160a01b03831660009081526005602052604081205463ffffffff1690816115e1576000611620565b6001600160a01b0385166000908152600460209081526040808320600019860163ffffffff168452909152902054600160201b90046001600160601b03165b905060006116478285604051806060016040528060278152602001611b096027913961122c565b905061165586848484611704565b5050505b6001600160a01b03821615611479576001600160a01b03821660009081526005602052604081205463ffffffff1690816116945760006116d3565b6001600160a01b0384166000908152600460209081526040808320600019860163ffffffff168452909152902054600160201b90046001600160601b03165b905060006116fa82856040518060600160405280602681526020016119306026913961150c565b9050611067858484845b600061172843604051806060016040528060338152602001611b8e603391396118c3565b905060008463ffffffff1611801561177157506001600160a01b038516600090815260046020908152604080832063ffffffff6000198901811685529252909120548282169116145b156117d0576001600160a01b0385166000908152600460209081526040808320600019880163ffffffff168452909152902080546fffffffffffffffffffffffff000000001916600160201b6001600160601b0385160217905561186f565b60408051808201825263ffffffff80841682526001600160601b0380861660208085019182526001600160a01b038b166000818152600483528781208c871682528352878120965187549451909516600160201b026fffffffffffffffffffffffff000000001995871663ffffffff19958616179590951694909417909555938252600590935292909220805460018801909316929091169190911790555b604080516001600160601b0380861682528416602082015281516001600160a01b038816927fdec2bacdd2f05b59de34da9b523dff8be42e5e38e818c82fdb0bae774387a724928290030190a25050505050565b600081600160201b84106112245760405162461bcd60e51b81526020600482018181528351602484015283519092839260449091019190850190808383600083156111e95781810151838201526020016111d1565b60408051808201909152600080825260208201529056fe5652543a3a5f6d6f7665566f7465733a20766f746520616d6f756e74206f766572666c6f77735652543a3a5f7472616e73666572546f6b656e733a2063616e6e6f74207472616e7366657220746f20746865207a65726f20616464726573735652543a3a64656c656761746542795369673a207369676e617475726520657870697265645652543a3a6765745072696f72566f7465733a206e6f74207965742064657465726d696e65645652543a3a64656c656761746542795369673a20696e76616c6964206e6f6e63655652543a3a7472616e7366657246726f6d3a207472616e7366657220616d6f756e742065786365656473207370656e64657220616c6c6f77616e6365454950373132446f6d61696e28737472696e67206e616d652c75696e7432353620636861696e49642c6164647265737320766572696679696e67436f6e7472616374295652543a3a5f7472616e73666572546f6b656e733a207472616e7366657220616d6f756e74206f766572666c6f77735652543a3a5f7472616e73666572546f6b656e733a2063616e6e6f74207472616e736665722066726f6d20746865207a65726f20616464726573735652543a3a7472616e736665723a20616d6f756e74206578636565647320393620626974735652543a3a5f6d6f7665566f7465733a20766f746520616d6f756e7420756e646572666c6f77735652543a3a617070726f76653a20616d6f756e742065786365656473203936206269747344656c65676174696f6e28616464726573732064656c6567617465652c75696e74323536206e6f6e63652c75696e7432353620657870697279295652543a3a5f7772697465436865636b706f696e743a20626c6f636b206e756d626572206578636565647320333220626974735652543a3a5f7472616e73666572546f6b656e733a207472616e7366657220616d6f756e7420657863656564732062616c616e63655652543a3a64656c656761746542795369673a20696e76616c6964207369676e6174757265a265627a7a72315820f8fdb0acf200e365ac7acdcc067a5a921865bc5902129eae25098aec008efff564736f6c63430005100032",
  "linkReferences": {},
  "deployedLinkReferences": {}
}