{
  "_format": "hh-sol-artifact-1",
  "contractName": "NAIControllerStorageG2",
  "sourceName": "contracts/NAIControllerStorage.sol",
  "abi": [
    {
      "constant": true,
      "inputs": [],
      "name": "admin",
      "outputs": [
        {
          "internalType": "address",
          "name": "",
          "type": "address"
        }
      ],
      "payable": false,
      "stateMutability": "view",
      "type": "function"
    },
    {
      "constant": true,
      "inputs": [],
      "name": "comptroller",
      "outputs": [
        {
          "internalType": "contract ComptrollerInterface",
          "name": "",
          "type": "address"
        }
      ],
      "payable": false,
      "stateMutability": "view",
      "type": "function"
    },
    {
      "constant": true,
      "inputs": [],
      "name": "isNarwhalNAIInitialized",
      "outputs": [
        {
          "internalType": "bool",
          "name": "",
          "type": "bool"
        }
      ],
      "payable": false,
      "stateMutability": "view",
      "type": "function"
    },
    {
      "constant": true,
      "inputs": [],
      "name": "naiControllerImplementation",
      "outputs": [
        {
          "internalType": "address",
          "name": "",
          "type": "address"
        }
      ],
      "payable": false,
      "stateMutability": "view",
      "type": "function"
    },
    {
      "constant": true,
      "inputs": [
        {
          "internalType": "address",
          "name": "",
          "type": "address"
        }
      ],
      "name": "narwhalNAIMinterIndex",
      "outputs": [
        {
          "internalType": "uint256",
          "name": "",
          "type": "uint256"
        }
      ],
      "payable": false,
      "stateMutability": "view",
      "type": "function"
    },
    {
      "constant": true,
      "inputs": [],
      "name": "narwhalNAIState",
      "outputs": [
        {
          "internalType": "uint224",
          "name": "index",
          "type": "uint224"
        },
        {
          "internalType": "uint32",
          "name": "block",
          "type": "uint32"
        }
      ],
      "payable": false,
      "stateMutability": "view",
      "type": "function"
    },
    {
      "constant": true,
      "inputs": [],
      "name": "pendingAdmin",
      "outputs": [
        {
          "internalType": "address",
          "name": "",
          "type": "address"
        }
      ],
      "payable": false,
      "stateMutability": "view",
      "type": "function"
    },
    {
      "constant": true,
      "inputs": [],
      "name": "pendingNAIControllerImplementation",
      "outputs": [
        {
          "internalType": "address",
          "name": "",
          "type": "address"
        }
      ],
      "payable": false,
      "stateMutability": "view",
      "type": "function"
    },
    {
      "constant": true,
      "inputs": [],
      "name": "treasuryAddress",
      "outputs": [
        {
          "internalType": "address",
          "name": "",
          "type": "address"
        }
      ],
      "payable": false,
      "stateMutability": "view",
      "type": "function"
    },
    {
      "constant": true,
      "inputs": [],
      "name": "treasuryGuardian",
      "outputs": [
        {
          "internalType": "address",
          "name": "",
          "type": "address"
        }
      ],
      "payable": false,
      "stateMutability": "view",
      "type": "function"
    },
    {
      "constant": true,
      "inputs": [],
      "name": "treasuryPercent",
      "outputs": [
        {
          "internalType": "uint256",
          "name": "",
          "type": "uint256"
        }
      ],
      "payable": false,
      "stateMutability": "view",
      "type": "function"
    }
  ],
  "bytecode": "0x608060405234801561001057600080fd5b5061026b806100206000396000f3fe608060405234801561001057600080fd5b50600436106100a95760003560e01c8063b2eafc3911610071578063b2eafc391461012c578063c5f956af14610134578063cc0fe0881461013c578063f51eb5d214610158578063f851a4401461017e578063fac034fa14610186576100a9565b806304ef9d58146100ae57806326782247146100c85780634bc16f8a146100ec5780635fe3b567146100f45780639348040d146100fc575b600080fd5b6100b661018e565b60408051918252519081900360200190f35b6100d0610194565b604080516001600160a01b039092168252519081900360200190f35b6100d06101a3565b6100d06101b2565b6101046101c1565b604080516001600160e01b03909316835263ffffffff90911660208301528051918290030190f35b6100d06101df565b6100d06101ee565b6101446101fd565b604080519115158252519081900360200190f35b6100b66004803603602081101561016e57600080fd5b50356001600160a01b0316610206565b6100d0610218565b6100d0610227565b600a5481565b6001546001600160a01b031681565b6003546001600160a01b031681565b6004546001600160a01b031681565b6005546001600160e01b03811690600160e01b900463ffffffff1682565b6008546001600160a01b031681565b6009546001600160a01b031681565b60065460ff1681565b60076020526000908152604090205481565b6000546001600160a01b031681565b6002546001600160a01b03168156fea265627a7a723158201138ec7c55e303bb2db3e226b7525f12217dcef180531fa9e47399ca0f5cd60e64736f6c63430005100032",
  "linkReferences": {},
  "deployedLinkReferences": {}
}