{
  "_format": "hh-sol-artifact-1",
  "contractName": "ComptrollerV8Storage",
  "sourceName": "contracts/ComptrollerStorage.sol",
  "abi": [
    {
      "constant": true,
      "inputs": [
        {
          "internalType": "address",
          "name": "",
          "type": "address"
        },
        {
          "internalType": "uint256",
          "name": "",
          "type": "uint256"
        }
      ],
      "name": "accountAssets",
      "outputs": [
        {
          "internalType": "contract NToken",
          "name": "",
          "type": "address"
        }
      ],
      "payable": false,
      "stateMutability": "view",
      "type": "function"
    },
    {
      "constant": true,
      "inputs": [],
      "name": "admin",
      "outputs": [
        {
          "internalType": "address",
          "name": "",
          "type": "address"
        }
      ],
      "payable": false,
      "stateMutability": "view",
      "type": "function"
    },
    {
      "constant": true,
      "inputs": [
        {
          "internalType": "uint256",
          "name": "",
          "type": "uint256"
        }
      ],
      "name": "allMarkets",
      "outputs": [
        {
          "internalType": "contract NToken",
          "name": "",
          "type": "address"
        }
      ],
      "payable": false,
      "stateMutability": "view",
      "type": "function"
    },
    {
      "constant": true,
      "inputs": [],
      "name": "borrowCapGuardian",
      "outputs": [
        {
          "internalType": "address",
          "name": "",
          "type": "address"
        }
      ],
      "payable": false,
      "stateMutability": "view",
      "type": "function"
    },
    {
      "constant": true,
      "inputs": [
        {
          "internalType": "address",
          "name": "",
          "type": "address"
        }
      ],
      "name": "borrowCaps",
      "outputs": [
        {
          "internalType": "uint256",
          "name": "",
          "type": "uint256"
        }
      ],
      "payable": false,
      "stateMutability": "view",
      "type": "function"
    },
    {
      "constant": true,
      "inputs": [],
      "name": "closeFactorMantissa",
      "outputs": [
        {
          "internalType": "uint256",
          "name": "",
          "type": "uint256"
        }
      ],
      "payable": false,
      "stateMutability": "view",
      "type": "function"
    },
    {
      "constant": true,
      "inputs": [],
      "name": "comptrollerImplementation",
      "outputs": [
        {
          "internalType": "address",
          "name": "",
          "type": "address"
        }
      ],
      "payable": false,
      "stateMutability": "view",
      "type": "function"
    },
    {
      "constant": true,
      "inputs": [],
      "name": "comptrollerLens",
      "outputs": [
        {
          "internalType": "contract ComptrollerLensInterface",
          "name": "",
          "type": "address"
        }
      ],
      "payable": false,
      "stateMutability": "view",
      "type": "function"
    },
    {
      "constant": true,
      "inputs": [],
      "name": "liquidationIncentiveMantissa",
      "outputs": [
        {
          "internalType": "uint256",
          "name": "",
          "type": "uint256"
        }
      ],
      "payable": false,
      "stateMutability": "view",
      "type": "function"
    },
    {
      "constant": true,
      "inputs": [],
      "name": "liquidatorContract",
      "outputs": [
        {
          "internalType": "address",
          "name": "",
          "type": "address"
        }
      ],
      "payable": false,
      "stateMutability": "view",
      "type": "function"
    },
    {
      "constant": true,
      "inputs": [
        {
          "internalType": "address",
          "name": "",
          "type": "address"
        }
      ],
      "name": "markets",
      "outputs": [
        {
          "internalType": "bool",
          "name": "isListed",
          "type": "bool"
        },
        {
          "internalType": "uint256",
          "name": "collateralFactorMantissa",
          "type": "uint256"
        },
        {
          "internalType": "bool",
          "name": "isNarwhal",
          "type": "bool"
        }
      ],
      "payable": false,
      "stateMutability": "view",
      "type": "function"
    },
    {
      "constant": true,
      "inputs": [],
      "name": "maxAssets",
      "outputs": [
        {
          "internalType": "uint256",
          "name": "",
          "type": "uint256"
        }
      ],
      "payable": false,
      "stateMutability": "view",
      "type": "function"
    },
    {
      "constant": true,
      "inputs": [],
      "name": "minReleaseAmount",
      "outputs": [
        {
          "internalType": "uint256",
          "name": "",
          "type": "uint256"
        }
      ],
      "payable": false,
      "stateMutability": "view",
      "type": "function"
    },
    {
      "constant": true,
      "inputs": [],
      "name": "mintNAIGuardianPaused",
      "outputs": [
        {
          "internalType": "bool",
          "name": "",
          "type": "bool"
        }
      ],
      "payable": false,
      "stateMutability": "view",
      "type": "function"
    },
    {
      "constant": true,
      "inputs": [
        {
          "internalType": "address",
          "name": "",
          "type": "address"
        }
      ],
      "name": "mintedNAIs",
      "outputs": [
        {
          "internalType": "uint256",
          "name": "",
          "type": "uint256"
        }
      ],
      "payable": false,
      "stateMutability": "view",
      "type": "function"
    },
    {
      "constant": true,
      "inputs": [],
      "name": "naiController",
      "outputs": [
        {
          "internalType": "contract NAIControllerInterface",
          "name": "",
          "type": "address"
        }
      ],
      "payable": false,
      "stateMutability": "view",
      "type": "function"
    },
    {
      "constant": true,
      "inputs": [],
      "name": "naiMintRate",
      "outputs": [
        {
          "internalType": "uint256",
          "name": "",
          "type": "uint256"
        }
      ],
      "payable": false,
      "stateMutability": "view",
      "type": "function"
    },
    {
      "constant": true,
      "inputs": [],
      "name": "naiVaultAddress",
      "outputs": [
        {
          "internalType": "address",
          "name": "",
          "type": "address"
        }
      ],
      "payable": false,
      "stateMutability": "view",
      "type": "function"
    },
    {
      "constant": true,
      "inputs": [
        {
          "internalType": "address",
          "name": "",
          "type": "address"
        }
      ],
      "name": "narwhalAccrued",
      "outputs": [
        {
          "internalType": "uint256",
          "name": "",
          "type": "uint256"
        }
      ],
      "payable": false,
      "stateMutability": "view",
      "type": "function"
    },
    {
      "constant": true,
      "inputs": [
        {
          "internalType": "address",
          "name": "",
          "type": "address"
        }
      ],
      "name": "narwhalBorrowState",
      "outputs": [
        {
          "internalType": "uint224",
          "name": "index",
          "type": "uint224"
        },
        {
          "internalType": "uint32",
          "name": "block",
          "type": "uint32"
        }
      ],
      "payable": false,
      "stateMutability": "view",
      "type": "function"
    },
    {
      "constant": true,
      "inputs": [
        {
          "internalType": "address",
          "name": "",
          "type": "address"
        },
        {
          "internalType": "address",
          "name": "",
          "type": "address"
        }
      ],
      "name": "narwhalBorrowerIndex",
      "outputs": [
        {
          "internalType": "uint256",
          "name": "",
          "type": "uint256"
        }
      ],
      "payable": false,
      "stateMutability": "view",
      "type": "function"
    },
    {
      "constant": true,
      "inputs": [],
      "name": "narwhalNAIVaultRate",
      "outputs": [
        {
          "internalType": "uint256",
          "name": "",
          "type": "uint256"
        }
      ],
      "payable": false,
      "stateMutability": "view",
      "type": "function"
    },
    {
      "constant": true,
      "inputs": [],
      "name": "narwhalRate",
      "outputs": [
        {
          "internalType": "uint256",
          "name": "",
          "type": "uint256"
        }
      ],
      "payable": false,
      "stateMutability": "view",
      "type": "function"
    },
    {
      "constant": true,
      "inputs": [
        {
          "internalType": "address",
          "name": "",
          "type": "address"
        }
      ],
      "name": "narwhalSpeeds",
      "outputs": [
        {
          "internalType": "uint256",
          "name": "",
          "type": "uint256"
        }
      ],
      "payable": false,
      "stateMutability": "view",
      "type": "function"
    },
    {
      "constant": true,
      "inputs": [
        {
          "internalType": "address",
          "name": "",
          "type": "address"
        },
        {
          "internalType": "address",
          "name": "",
          "type": "address"
        }
      ],
      "name": "narwhalSupplierIndex",
      "outputs": [
        {
          "internalType": "uint256",
          "name": "",
          "type": "uint256"
        }
      ],
      "payable": false,
      "stateMutability": "view",
      "type": "function"
    },
    {
      "constant": true,
      "inputs": [
        {
          "internalType": "address",
          "name": "",
          "type": "address"
        }
      ],
      "name": "narwhalSupplyState",
      "outputs": [
        {
          "internalType": "uint224",
          "name": "index",
          "type": "uint224"
        },
        {
          "internalType": "uint32",
          "name": "block",
          "type": "uint32"
        }
      ],
      "payable": false,
      "stateMutability": "view",
      "type": "function"
    },
    {
      "constant": true,
      "inputs": [],
      "name": "oracle",
      "outputs": [
        {
          "internalType": "contract PriceOracle",
          "name": "",
          "type": "address"
        }
      ],
      "payable": false,
      "stateMutability": "view",
      "type": "function"
    },
    {
      "constant": true,
      "inputs": [],
      "name": "pauseGuardian",
      "outputs": [
        {
          "internalType": "address",
          "name": "",
          "type": "address"
        }
      ],
      "payable": false,
      "stateMutability": "view",
      "type": "function"
    },
    {
      "constant": true,
      "inputs": [],
      "name": "pendingAdmin",
      "outputs": [
        {
          "internalType": "address",
          "name": "",
          "type": "address"
        }
      ],
      "payable": false,
      "stateMutability": "view",
      "type": "function"
    },
    {
      "constant": true,
      "inputs": [],
      "name": "pendingComptrollerImplementation",
      "outputs": [
        {
          "internalType": "address",
          "name": "",
          "type": "address"
        }
      ],
      "payable": false,
      "stateMutability": "view",
      "type": "function"
    },
    {
      "constant": true,
      "inputs": [],
      "name": "protocolPaused",
      "outputs": [
        {
          "internalType": "bool",
          "name": "",
          "type": "bool"
        }
      ],
      "payable": false,
      "stateMutability": "view",
      "type": "function"
    },
    {
      "constant": true,
      "inputs": [],
      "name": "releaseStartBlock",
      "outputs": [
        {
          "internalType": "uint256",
          "name": "",
          "type": "uint256"
        }
      ],
      "payable": false,
      "stateMutability": "view",
      "type": "function"
    },
    {
      "constant": true,
      "inputs": [],
      "name": "repayNAIGuardianPaused",
      "outputs": [
        {
          "internalType": "bool",
          "name": "",
          "type": "bool"
        }
      ],
      "payable": false,
      "stateMutability": "view",
      "type": "function"
    },
    {
      "constant": true,
      "inputs": [
        {
          "internalType": "address",
          "name": "",
          "type": "address"
        }
      ],
      "name": "supplyCaps",
      "outputs": [
        {
          "internalType": "uint256",
          "name": "",
          "type": "uint256"
        }
      ],
      "payable": false,
      "stateMutability": "view",
      "type": "function"
    },
    {
      "constant": true,
      "inputs": [],
      "name": "treasuryAddress",
      "outputs": [
        {
          "internalType": "address",
          "name": "",
          "type": "address"
        }
      ],
      "payable": false,
      "stateMutability": "view",
      "type": "function"
    },
    {
      "constant": true,
      "inputs": [],
      "name": "treasuryGuardian",
      "outputs": [
        {
          "internalType": "address",
          "name": "",
          "type": "address"
        }
      ],
      "payable": false,
      "stateMutability": "view",
      "type": "function"
    },
    {
      "constant": true,
      "inputs": [],
      "name": "treasuryPercent",
      "outputs": [
        {
          "internalType": "uint256",
          "name": "",
          "type": "uint256"
        }
      ],
      "payable": false,
      "stateMutability": "view",
      "type": "function"
    }
  ],
  "bytecode": "0x608060405234801561001057600080fd5b50610813806100206000396000f3fe608060405234801561001057600080fd5b50600436106102275760003560e01c80637dc0d1d011610130578063bcf4262f116100b8578063dcfbc0c71161007c578063dcfbc0c7146104e9578063e8755446146104f1578063f0315b22146104f9578063f04a60c214610527578063f851a4401461054d57610227565b8063bcf4262f1461047f578063c5f956af14610487578063c89c35ec1461048f578063d3270f99146104b5578063dce15449146104bd57610227565b80639745cd01116100ff5780639745cd01146104575780639bb27d621461045f578063a4848e8f14610467578063b2eafc391461046f578063bb82aa5e1461047757610227565b80637dc0d1d0146103f75780638e8f294b146103ff57806394b2294b14610447578063957e38721461044f57610227565b806329ee1bd1116101b35780634ada90af116101825780634ada90af146103ba57806352d84d1e146103c25780635ec7a913146103df5780636194275f146103e7578063719f701b146103ef57610227565b806329ee1bd1146103045780632e70baa31461032a578063425fad58146103785780634a5844321461039457610227565b806318520f43116101fa57806318520f431461029a5780631aba8f09146102c857806321af4569146102ec57806324a3d622146102f457806326782247146102fc57610227565b806302c3bcbb1461022c57806304ef9d58146102645780630db4b4e51461026c5780631661082214610274575b600080fd5b6102526004803603602081101561024257600080fd5b50356001600160a01b0316610555565b60408051918252519081900360200190f35b610252610567565b61025261056d565b6102526004803603602081101561028a57600080fd5b50356001600160a01b0316610573565b610252600480360360408110156102b057600080fd5b506001600160a01b0381358116916020013516610585565b6102d06105a2565b604080516001600160a01b039092168252519081900360200190f35b6102d06105b1565b6102d06105c0565b6102d06105cf565b6102526004803603602081101561031a57600080fd5b50356001600160a01b03166105de565b6103506004803603602081101561034057600080fd5b50356001600160a01b03166105f0565b604080516001600160e01b03909316835263ffffffff90911660208301528051918290030190f35b61038061061a565b604080519115158252519081900360200190f35b610252600480360360208110156103aa57600080fd5b50356001600160a01b0316610629565b61025261063b565b6102d0600480360360208110156103d857600080fd5b5035610641565b610252610668565b61038061066e565b610252610677565b6102d061067d565b6104256004803603602081101561041557600080fd5b50356001600160a01b031661068c565b6040805193151584526020840192909252151582820152519081900360600190f35b6102526106b2565b6102526106b8565b6102d06106be565b6102d06106cd565b6103806106dc565b6102d06106ea565b6102d06106f9565b610252610708565b6102d061070e565b610350600480360360208110156104a557600080fd5b50356001600160a01b031661071d565b6102d0610747565b6102d0600480360360408110156104d357600080fd5b506001600160a01b038135169060200135610756565b6102d061078b565b61025261079a565b6102526004803603604081101561050f57600080fd5b506001600160a01b03813581169160200135166107a0565b6102526004803603602081101561053d57600080fd5b50356001600160a01b03166107bd565b6102d06107cf565b60276020526000908152604090205481565b60225481565b601d5481565b60146020526000908152604090205481565b601360209081526000928352604080842090915290825290205481565b6015546001600160a01b031681565b601e546001600160a01b031681565b600a546001600160a01b031681565b6001546001600160a01b031681565b600f6020526000908152604090205481565b6011602052600090815260409020546001600160e01b03811690600160e01b900463ffffffff1682565b60185462010000900460ff1681565b601f6020526000908152604090205481565b60065481565b600d818154811061064e57fe5b6000918252602090912001546001600160a01b0316905081565b60175481565b60185460ff1681565b601c5481565b6004546001600160a01b031681565b60096020526000908152604090208054600182015460039092015460ff91821692911683565b60075481565b600e5481565b601b546001600160a01b031681565b6025546001600160a01b031681565b601854610100900460ff1681565b6020546001600160a01b031681565b6002546001600160a01b031681565b601a5481565b6021546001600160a01b031681565b6010602052600090815260409020546001600160e01b03811690600160e01b900463ffffffff1682565b6026546001600160a01b031681565b6008602052816000526040600020818154811061076f57fe5b6000918252602090912001546001600160a01b03169150829050565b6003546001600160a01b031681565b60055481565b601260209081526000928352604080842090915290825290205481565b60166020526000908152604090205481565b6000546001600160a01b03168156fea265627a7a723158201ffb0eb0c83fa8d691d8c9435cc52ae55781c3b16a970559b02ac360c87c05b264736f6c63430005100032",
  "linkReferences": {},
  "deployedLinkReferences": {}
}