{
  "_format": "hh-sol-artifact-1",
  "contractName": "NAIVault",
  "sourceName": "contracts/Vault/NAIVault.sol",
  "abi": [
    {
      "inputs": [],
      "payable": false,
      "stateMutability": "nonpayable",
      "type": "constructor"
    },
    {
      "anonymous": false,
      "inputs": [
        {
          "indexed": true,
          "internalType": "address",
          "name": "oldAdmin",
          "type": "address"
        },
        {
          "indexed": true,
          "internalType": "address",
          "name": "newAdmin",
          "type": "address"
        }
      ],
      "name": "AdminTransfered",
      "type": "event"
    },
    {
      "anonymous": false,
      "inputs": [
        {
          "indexed": true,
          "internalType": "address",
          "name": "user",
          "type": "address"
        },
        {
          "indexed": false,
          "internalType": "uint256",
          "name": "amount",
          "type": "uint256"
        }
      ],
      "name": "Deposit",
      "type": "event"
    },
    {
      "anonymous": false,
      "inputs": [
        {
          "indexed": true,
          "internalType": "address",
          "name": "user",
          "type": "address"
        },
        {
          "indexed": false,
          "internalType": "uint256",
          "name": "amount",
          "type": "uint256"
        }
      ],
      "name": "Withdraw",
      "type": "event"
    },
    {
      "constant": false,
      "inputs": [
        {
          "internalType": "contract NAIVaultProxy",
          "name": "naiVaultProxy",
          "type": "address"
        }
      ],
      "name": "_become",
      "outputs": [],
      "payable": false,
      "stateMutability": "nonpayable",
      "type": "function"
    },
    {
      "constant": true,
      "inputs": [],
      "name": "accNWLPerShare",
      "outputs": [
        {
          "internalType": "uint256",
          "name": "",
          "type": "uint256"
        }
      ],
      "payable": false,
      "stateMutability": "view",
      "type": "function"
    },
    {
      "constant": true,
      "inputs": [],
      "name": "admin",
      "outputs": [
        {
          "internalType": "address",
          "name": "",
          "type": "address"
        }
      ],
      "payable": false,
      "stateMutability": "view",
      "type": "function"
    },
    {
      "constant": false,
      "inputs": [],
      "name": "burnAdmin",
      "outputs": [],
      "payable": false,
      "stateMutability": "nonpayable",
      "type": "function"
    },
    {
      "constant": false,
      "inputs": [],
      "name": "claim",
      "outputs": [],
      "payable": false,
      "stateMutability": "nonpayable",
      "type": "function"
    },
    {
      "constant": false,
      "inputs": [
        {
          "internalType": "uint256",
          "name": "_amount",
          "type": "uint256"
        }
      ],
      "name": "deposit",
      "outputs": [],
      "payable": false,
      "stateMutability": "nonpayable",
      "type": "function"
    },
    {
      "constant": true,
      "inputs": [],
      "name": "getAdmin",
      "outputs": [
        {
          "internalType": "address",
          "name": "",
          "type": "address"
        }
      ],
      "payable": false,
      "stateMutability": "view",
      "type": "function"
    },
    {
      "constant": true,
      "inputs": [],
      "name": "nai",
      "outputs": [
        {
          "internalType": "contract IBEP20",
          "name": "",
          "type": "address"
        }
      ],
      "payable": false,
      "stateMutability": "view",
      "type": "function"
    },
    {
      "constant": true,
      "inputs": [],
      "name": "naiVaultImplementation",
      "outputs": [
        {
          "internalType": "address",
          "name": "",
          "type": "address"
        }
      ],
      "payable": false,
      "stateMutability": "view",
      "type": "function"
    },
    {
      "constant": true,
      "inputs": [],
      "name": "nwl",
      "outputs": [
        {
          "internalType": "contract IBEP20",
          "name": "",
          "type": "address"
        }
      ],
      "payable": false,
      "stateMutability": "view",
      "type": "function"
    },
    {
      "constant": true,
      "inputs": [],
      "name": "nwlBalance",
      "outputs": [
        {
          "internalType": "uint256",
          "name": "",
          "type": "uint256"
        }
      ],
      "payable": false,
      "stateMutability": "view",
      "type": "function"
    },
    {
      "constant": true,
      "inputs": [],
      "name": "pendingAdmin",
      "outputs": [
        {
          "internalType": "address",
          "name": "",
          "type": "address"
        }
      ],
      "payable": false,
      "stateMutability": "view",
      "type": "function"
    },
    {
      "constant": true,
      "inputs": [],
      "name": "pendingNAIVaultImplementation",
      "outputs": [
        {
          "internalType": "address",
          "name": "",
          "type": "address"
        }
      ],
      "payable": false,
      "stateMutability": "view",
      "type": "function"
    },
    {
      "constant": true,
      "inputs": [
        {
          "internalType": "address",
          "name": "_user",
          "type": "address"
        }
      ],
      "name": "pendingNWL",
      "outputs": [
        {
          "internalType": "uint256",
          "name": "",
          "type": "uint256"
        }
      ],
      "payable": false,
      "stateMutability": "view",
      "type": "function"
    },
    {
      "constant": true,
      "inputs": [],
      "name": "pendingRewards",
      "outputs": [
        {
          "internalType": "uint256",
          "name": "",
          "type": "uint256"
        }
      ],
      "payable": false,
      "stateMutability": "view",
      "type": "function"
    },
    {
      "constant": false,
      "inputs": [
        {
          "internalType": "address",
          "name": "_nwl",
          "type": "address"
        },
        {
          "internalType": "address",
          "name": "_nai",
          "type": "address"
        }
      ],
      "name": "setNarwhalInfo",
      "outputs": [],
      "payable": false,
      "stateMutability": "nonpayable",
      "type": "function"
    },
    {
      "constant": false,
      "inputs": [
        {
          "internalType": "address",
          "name": "newAdmin",
          "type": "address"
        }
      ],
      "name": "setNewAdmin",
      "outputs": [],
      "payable": false,
      "stateMutability": "nonpayable",
      "type": "function"
    },
    {
      "constant": false,
      "inputs": [],
      "name": "updatePendingRewards",
      "outputs": [],
      "payable": false,
      "stateMutability": "nonpayable",
      "type": "function"
    },
    {
      "constant": true,
      "inputs": [
        {
          "internalType": "address",
          "name": "",
          "type": "address"
        }
      ],
      "name": "userInfo",
      "outputs": [
        {
          "internalType": "uint256",
          "name": "amount",
          "type": "uint256"
        },
        {
          "internalType": "uint256",
          "name": "rewardDebt",
          "type": "uint256"
        }
      ],
      "payable": false,
      "stateMutability": "view",
      "type": "function"
    },
    {
      "constant": false,
      "inputs": [
        {
          "internalType": "uint256",
          "name": "_amount",
          "type": "uint256"
        }
      ],
      "name": "withdraw",
      "outputs": [],
      "payable": false,
      "stateMutability": "nonpayable",
      "type": "function"
    }
  ],
  "bytecode": "0x608060405234801561001057600080fd5b50600080546001600160a01b031916331790556114bb806100326000396000f3fe608060405234801561001057600080fd5b506004361061012c5760003560e01c80636e9960c3116100ad578063eded3fda11610071578063eded3fda1461029c578063f30f7c05146102a4578063f37d8d6a146102ac578063f851a440146102d2578063faa1809e146102da5761012c565b80636e9960c31461021b57806381bdf98c146102235780638eec99c81461022b578063b6b55f2514610251578063bc3883041461026e5761012c565b80632e1a7d4d116100f45780632e1a7d4d146101cc5780633f4470da146101e95780634e71d92d146102035780635b0a8a071461020b57806364aa44db146102135761012c565b80630f9eab09146101315780631959a002146101555780631d504dc61461019457806323dc14d3146101bc57806326782247146101c4575b600080fd5b6101396102e2565b604080516001600160a01b039092168252519081900360200190f35b61017b6004803603602081101561016b57600080fd5b50356001600160a01b03166102f1565b6040805192835260208301919091528051918290030190f35b6101ba600480360360208110156101aa57600080fd5b50356001600160a01b031661030a565b005b610139610469565b610139610478565b6101ba600480360360208110156101e257600080fd5b5035610487565b6101f16104ff565b60408051918252519081900360200190f35b6101ba610505565b61013961057d565b6101f161058c565b610139610592565b6101ba6105a1565b6101ba6004803603602081101561024157600080fd5b50356001600160a01b031661063b565b6101ba6004803603602081101561026757600080fd5b5035610741565b6101ba6004803603604081101561028457600080fd5b506001600160a01b0381358116916020013516610872565b6101f1610900565b610139610906565b6101f1600480360360208110156102c257600080fd5b50356001600160a01b0316610915565b61013961096d565b6101ba61097c565b6003546001600160a01b031681565b6009602052600090815260409020805460019091015482565b806001600160a01b031663f851a4406040518163ffffffff1660e01b815260040160206040518083038186803b15801561034357600080fd5b505afa158015610357573d6000803e3d6000fd5b505050506040513d602081101561036d57600080fd5b50516001600160a01b031633146103b55760405162461bcd60e51b81526004018080602001828103825260228152602001806114656022913960400191505060405180910390fd5b806001600160a01b031663c1e803346040518163ffffffff1660e01b8152600401602060405180830381600087803b1580156103f057600080fd5b505af1158015610404573d6000803e3d6000fd5b505050506040513d602081101561041a57600080fd5b505115610466576040805162461bcd60e51b815260206004820152601560248201527418da185b99d9481b9bdd08185d5d1a1bdc9a5e9959605a1b604482015290519081900360640190fd5b50565b6002546001600160a01b031681565b6001546001600160a01b031681565b600554600160a01b900460ff166104d2576040805162461bcd60e51b815260206004820152600a6024820152691c994b595b9d195c995960b21b604482015290519081900360640190fd5b6005805460ff60a01b191690556104e93382610aa7565b506005805460ff60a01b1916600160a01b179055565b60065481565b600554600160a01b900460ff16610550576040805162461bcd60e51b815260206004820152600a6024820152691c994b595b9d195c995960b21b604482015290519081900360640190fd5b6005805460ff60a01b19169055610568336000610aa7565b6005805460ff60a01b1916600160a01b179055565b6005546001600160a01b031681565b60075481565b6000546001600160a01b031690565b6000546001600160a01b031633146105f1576040805162461bcd60e51b815260206004820152600e60248201526d37b7363c9030b236b4b71031b0b760911b604482015290519081900360640190fd5b600080546040516001600160a01b03909116907f173de3514d8508f36ce8c81d509adcd8c8c76098400f685d3042b36f9a4160c3908390a3600080546001600160a01b0319169055565b6000546001600160a01b0316331461068b576040805162461bcd60e51b815260206004820152600e60248201526d37b7363c9030b236b4b71031b0b760911b604482015290519081900360640190fd5b6001600160a01b0381166106e6576040805162461bcd60e51b815260206004820152601d60248201527f6e6577206f776e657220697320746865207a65726f2061646472657373000000604482015290519081900360640190fd5b600080546040516001600160a01b03808516939216917f173de3514d8508f36ce8c81d509adcd8c8c76098400f685d3042b36f9a4160c391a3600080546001600160a01b0319166001600160a01b0392909216919091179055565b600554600160a01b900460ff1661078c576040805162461bcd60e51b815260206004820152600a6024820152691c994b595b9d195c995960b21b604482015290519081900360640190fd5b6005805460ff60a01b191690553360009081526009602052604090206107b0610bbd565b6107b933610c80565b81156107f2576005546107dd906001600160a01b031633308563ffffffff610ca116565b80546107ef908363ffffffff610d0116565b81555b600754815461082091670de0b6b3a7640000916108149163ffffffff610d6416565b9063ffffffff610dbd16565b600182015560408051838152905133917fe1fffcc4923d04b559f4d29a8bfc6cda04eb5b0d3c460751c2402c5c5cc9109c919081900360200190a250506005805460ff60a01b1916600160a01b179055565b6000546001600160a01b031633146108c2576040805162461bcd60e51b815260206004820152600e60248201526d37b7363c9030b236b4b71031b0b760911b604482015290519081900360640190fd5b600480546001600160a01b03199081166001600160a01b039485161790915560058054600160a01b9216929093169190911760ff60a01b1916179055565b60085481565b6004546001600160a01b031681565b6001600160a01b038116600090815260096020526040812060018101546007548254610966929161095a91670de0b6b3a764000091610814919063ffffffff610d6416565b9063ffffffff610dff16565b9392505050565b6000546001600160a01b031681565b60065460048054604080516370a0823160e01b8152309381019390935251600093610a0b9390926001600160a01b0316916370a0823191602480820192602092909190829003018186803b1580156109d357600080fd5b505afa1580156109e7573d6000803e3d6000fd5b505050506040513d60208110156109fd57600080fd5b50519063ffffffff610dff16565b905080156104665760048054604080516370a0823160e01b81523093810193909352516001600160a01b03909116916370a08231916024808301926020929190829003018186803b158015610a5f57600080fd5b505afa158015610a73573d6000803e3d6000fd5b505050506040513d6020811015610a8957600080fd5b5051600655600854610aa1908263ffffffff610d0116565b60085550565b6001600160a01b03821660009081526009602052604090208054821115610b0a576040805162461bcd60e51b81526020600482015260126024820152711dda5d1a191c985dce881b9bdd0819dbdbd960721b604482015290519081900360640190fd5b610b12610bbd565b610b1b83610c80565b8115610b52578054610b33908363ffffffff610dff16565b8155600554610b52906001600160a01b0316848463ffffffff610e4116565b6007548154610b7491670de0b6b3a7640000916108149163ffffffff610d6416565b60018201556040805183815290516001600160a01b038516917f884edad9ce6fa2440d8a54cc123490eb96d2768479d49ff9c7366125a9424364919081900360200190a2505050565b600554604080516370a0823160e01b815230600482015290516000926001600160a01b0316916370a08231916024808301926020929190829003018186803b158015610c0857600080fd5b505afa158015610c1c573d6000803e3d6000fd5b505050506040513d6020811015610c3257600080fd5b5051905080610c415750610c7e565b610c74610c6582610814670de0b6b3a7640000600854610d6490919063ffffffff16565b6007549063ffffffff610d0116565b6007555060006008555b565b6000610c8b82610915565b90508015610c9d57610c9d8282610e98565b5050565b604080516001600160a01b0385811660248301528416604482015260648082018490528251808303909101815260849091019091526020810180516001600160e01b03166323b872dd60e01b179052610cfb908590611129565b50505050565b600082820183811015610d5b576040805162461bcd60e51b815260206004820152601b60248201527f536166654d6174683a206164646974696f6e206f766572666c6f770000000000604482015290519081900360640190fd5b90505b92915050565b600082610d7357506000610d5e565b82820282848281610d8057fe5b0414610d5b5760405162461bcd60e51b81526004018080602001828103825260218152602001806114446021913960400191505060405180910390fd5b6000610d5b83836040518060400160405280601a81526020017f536166654d6174683a206469766973696f6e206279207a65726f0000000000008152506112e1565b6000610d5b83836040518060400160405280601e81526020017f536166654d6174683a207375627472616374696f6e206f766572666c6f770000815250611383565b604080516001600160a01b038416602482015260448082018490528251808303909101815260649091019091526020810180516001600160e01b031663a9059cbb60e01b179052610e93908490611129565b505050565b60048054604080516370a0823160e01b81523093810193909352516000926001600160a01b03909216916370a08231916024808301926020929190829003018186803b158015610ee757600080fd5b505afa158015610efb573d6000803e3d6000fd5b505050506040513d6020811015610f1157600080fd5b505190508082111561102357600480546040805163a9059cbb60e01b81526001600160a01b0387811694820194909452602481018590529051929091169163a9059cbb916044808201926020929091908290030181600087803b158015610f7757600080fd5b505af1158015610f8b573d6000803e3d6000fd5b505050506040513d6020811015610fa157600080fd5b505060048054604080516370a0823160e01b81523093810193909352516001600160a01b03909116916370a08231916024808301926020929190829003018186803b158015610fef57600080fd5b505afa158015611003573d6000803e3d6000fd5b505050506040513d602081101561101957600080fd5b5051600655610e93565b600480546040805163a9059cbb60e01b81526001600160a01b0387811694820194909452602481018690529051929091169163a9059cbb916044808201926020929091908290030181600087803b15801561107d57600080fd5b505af1158015611091573d6000803e3d6000fd5b505050506040513d60208110156110a757600080fd5b505060048054604080516370a0823160e01b81523093810193909352516001600160a01b03909116916370a08231916024808301926020929190829003018186803b1580156110f557600080fd5b505afa158015611109573d6000803e3d6000fd5b505050506040513d602081101561111f57600080fd5b5051600655505050565b61113b826001600160a01b03166113dd565b61118c576040805162461bcd60e51b815260206004820152601f60248201527f5361666542455032303a2063616c6c20746f206e6f6e2d636f6e747261637400604482015290519081900360640190fd5b60006060836001600160a01b0316836040518082805190602001908083835b602083106111ca5780518252601f1990920191602091820191016111ab565b6001836020036101000a0380198251168184511680821785525050505050509050019150506000604051808303816000865af19150503d806000811461122c576040519150601f19603f3d011682016040523d82523d6000602084013e611231565b606091505b509150915081611288576040805162461bcd60e51b815260206004820181905260248201527f5361666542455032303a206c6f772d6c6576656c2063616c6c206661696c6564604482015290519081900360640190fd5b805115610cfb578080602001905160208110156112a457600080fd5b5051610cfb5760405162461bcd60e51b815260040180806020018281038252602a81526020018061141a602a913960400191505060405180910390fd5b6000818361136d5760405162461bcd60e51b81526004018080602001828103825283818151815260200191508051906020019080838360005b8381101561133257818101518382015260200161131a565b50505050905090810190601f16801561135f5780820380516001836020036101000a031916815260200191505b509250505060405180910390fd5b50600083858161137957fe5b0495945050505050565b600081848411156113d55760405162461bcd60e51b815260206004820181815283516024840152835190928392604490910191908501908083836000831561133257818101518382015260200161131a565b505050900390565b6000813f7fc5d2460186f7233c927e7db2dcc703c0e500b653ca82273b7bfad8045d85a47081811480159061141157508115155b94935050505056fe5361666542455032303a204245503230206f7065726174696f6e20646964206e6f742073756363656564536166654d6174683a206d756c7469706c69636174696f6e206f766572666c6f776f6e6c792070726f78792061646d696e2063616e206368616e676520627261696e73a265627a7a72315820d396ef0d680b3f60d8c648b030d78516a23b410b50a97ce2bc9b2f3ba2e551fd64736f6c63430005100032",
  "linkReferences": {},
  "deployedLinkReferences": {}
}