{
  "_format": "hh-sol-artifact-1",
  "contractName": "GovernorAlpha",
  "sourceName": "contracts/Governance/GovernorAlpha.sol",
  "abi": [
    {
      "inputs": [
        {
          "internalType": "address",
          "name": "timelock_",
          "type": "address"
        },
        {
          "internalType": "address",
          "name": "nwl_",
          "type": "address"
        },
        {
          "internalType": "address",
          "name": "guardian_",
          "type": "address"
        }
      ],
      "payable": false,
      "stateMutability": "nonpayable",
      "type": "constructor"
    },
    {
      "anonymous": false,
      "inputs": [
        {
          "indexed": false,
          "internalType": "uint256",
          "name": "id",
          "type": "uint256"
        }
      ],
      "name": "ProposalCanceled",
      "type": "event"
    },
    {
      "anonymous": false,
      "inputs": [
        {
          "indexed": false,
          "internalType": "uint256",
          "name": "id",
          "type": "uint256"
        },
        {
          "indexed": false,
          "internalType": "address",
          "name": "proposer",
          "type": "address"
        },
        {
          "indexed": false,
          "internalType": "address[]",
          "name": "targets",
          "type": "address[]"
        },
        {
          "indexed": false,
          "internalType": "uint256[]",
          "name": "values",
          "type": "uint256[]"
        },
        {
          "indexed": false,
          "internalType": "string[]",
          "name": "signatures",
          "type": "string[]"
        },
        {
          "indexed": false,
          "internalType": "bytes[]",
          "name": "calldatas",
          "type": "bytes[]"
        },
        {
          "indexed": false,
          "internalType": "uint256",
          "name": "startBlock",
          "type": "uint256"
        },
        {
          "indexed": false,
          "internalType": "uint256",
          "name": "endBlock",
          "type": "uint256"
        },
        {
          "indexed": false,
          "internalType": "string",
          "name": "description",
          "type": "string"
        }
      ],
      "name": "ProposalCreated",
      "type": "event"
    },
    {
      "anonymous": false,
      "inputs": [
        {
          "indexed": false,
          "internalType": "uint256",
          "name": "id",
          "type": "uint256"
        }
      ],
      "name": "ProposalExecuted",
      "type": "event"
    },
    {
      "anonymous": false,
      "inputs": [
        {
          "indexed": false,
          "internalType": "uint256",
          "name": "id",
          "type": "uint256"
        },
        {
          "indexed": false,
          "internalType": "uint256",
          "name": "eta",
          "type": "uint256"
        }
      ],
      "name": "ProposalQueued",
      "type": "event"
    },
    {
      "anonymous": false,
      "inputs": [
        {
          "indexed": false,
          "internalType": "address",
          "name": "voter",
          "type": "address"
        },
        {
          "indexed": false,
          "internalType": "uint256",
          "name": "proposalId",
          "type": "uint256"
        },
        {
          "indexed": false,
          "internalType": "bool",
          "name": "support",
          "type": "bool"
        },
        {
          "indexed": false,
          "internalType": "uint256",
          "name": "votes",
          "type": "uint256"
        }
      ],
      "name": "VoteCast",
      "type": "event"
    },
    {
      "constant": true,
      "inputs": [],
      "name": "BALLOT_TYPEHASH",
      "outputs": [
        {
          "internalType": "bytes32",
          "name": "",
          "type": "bytes32"
        }
      ],
      "payable": false,
      "stateMutability": "view",
      "type": "function"
    },
    {
      "constant": true,
      "inputs": [],
      "name": "DOMAIN_TYPEHASH",
      "outputs": [
        {
          "internalType": "bytes32",
          "name": "",
          "type": "bytes32"
        }
      ],
      "payable": false,
      "stateMutability": "view",
      "type": "function"
    },
    {
      "constant": false,
      "inputs": [],
      "name": "__abdicate",
      "outputs": [],
      "payable": false,
      "stateMutability": "nonpayable",
      "type": "function"
    },
    {
      "constant": false,
      "inputs": [],
      "name": "__acceptAdmin",
      "outputs": [],
      "payable": false,
      "stateMutability": "nonpayable",
      "type": "function"
    },
    {
      "constant": false,
      "inputs": [
        {
          "internalType": "address",
          "name": "newPendingAdmin",
          "type": "address"
        },
        {
          "internalType": "uint256",
          "name": "eta",
          "type": "uint256"
        }
      ],
      "name": "__executeSetTimelockPendingAdmin",
      "outputs": [],
      "payable": false,
      "stateMutability": "nonpayable",
      "type": "function"
    },
    {
      "constant": false,
      "inputs": [
        {
          "internalType": "address",
          "name": "newPendingAdmin",
          "type": "address"
        },
        {
          "internalType": "uint256",
          "name": "eta",
          "type": "uint256"
        }
      ],
      "name": "__queueSetTimelockPendingAdmin",
      "outputs": [],
      "payable": false,
      "stateMutability": "nonpayable",
      "type": "function"
    },
    {
      "constant": false,
      "inputs": [
        {
          "internalType": "uint256",
          "name": "proposalId",
          "type": "uint256"
        }
      ],
      "name": "cancel",
      "outputs": [],
      "payable": false,
      "stateMutability": "nonpayable",
      "type": "function"
    },
    {
      "constant": false,
      "inputs": [
        {
          "internalType": "uint256",
          "name": "proposalId",
          "type": "uint256"
        },
        {
          "internalType": "bool",
          "name": "support",
          "type": "bool"
        }
      ],
      "name": "castVote",
      "outputs": [],
      "payable": false,
      "stateMutability": "nonpayable",
      "type": "function"
    },
    {
      "constant": false,
      "inputs": [
        {
          "internalType": "uint256",
          "name": "proposalId",
          "type": "uint256"
        },
        {
          "internalType": "bool",
          "name": "support",
          "type": "bool"
        },
        {
          "internalType": "uint8",
          "name": "v",
          "type": "uint8"
        },
        {
          "internalType": "bytes32",
          "name": "r",
          "type": "bytes32"
        },
        {
          "internalType": "bytes32",
          "name": "s",
          "type": "bytes32"
        }
      ],
      "name": "castVoteBySig",
      "outputs": [],
      "payable": false,
      "stateMutability": "nonpayable",
      "type": "function"
    },
    {
      "constant": false,
      "inputs": [
        {
          "internalType": "uint256",
          "name": "proposalId",
          "type": "uint256"
        }
      ],
      "name": "execute",
      "outputs": [],
      "payable": true,
      "stateMutability": "payable",
      "type": "function"
    },
    {
      "constant": true,
      "inputs": [
        {
          "internalType": "uint256",
          "name": "proposalId",
          "type": "uint256"
        }
      ],
      "name": "getActions",
      "outputs": [
        {
          "internalType": "address[]",
          "name": "targets",
          "type": "address[]"
        },
        {
          "internalType": "uint256[]",
          "name": "values",
          "type": "uint256[]"
        },
        {
          "internalType": "string[]",
          "name": "signatures",
          "type": "string[]"
        },
        {
          "internalType": "bytes[]",
          "name": "calldatas",
          "type": "bytes[]"
        }
      ],
      "payable": false,
      "stateMutability": "view",
      "type": "function"
    },
    {
      "constant": true,
      "inputs": [
        {
          "internalType": "uint256",
          "name": "proposalId",
          "type": "uint256"
        },
        {
          "internalType": "address",
          "name": "voter",
          "type": "address"
        }
      ],
      "name": "getReceipt",
      "outputs": [
        {
          "components": [
            {
              "internalType": "bool",
              "name": "hasVoted",
              "type": "bool"
            },
            {
              "internalType": "bool",
              "name": "support",
              "type": "bool"
            },
            {
              "internalType": "uint96",
              "name": "votes",
              "type": "uint96"
            }
          ],
          "internalType": "struct GovernorAlpha.Receipt",
          "name": "",
          "type": "tuple"
        }
      ],
      "payable": false,
      "stateMutability": "view",
      "type": "function"
    },
    {
      "constant": true,
      "inputs": [],
      "name": "guardian",
      "outputs": [
        {
          "internalType": "address",
          "name": "",
          "type": "address"
        }
      ],
      "payable": false,
      "stateMutability": "view",
      "type": "function"
    },
    {
      "constant": true,
      "inputs": [
        {
          "internalType": "address",
          "name": "",
          "type": "address"
        }
      ],
      "name": "latestProposalIds",
      "outputs": [
        {
          "internalType": "uint256",
          "name": "",
          "type": "uint256"
        }
      ],
      "payable": false,
      "stateMutability": "view",
      "type": "function"
    },
    {
      "constant": true,
      "inputs": [],
      "name": "name",
      "outputs": [
        {
          "internalType": "string",
          "name": "",
          "type": "string"
        }
      ],
      "payable": false,
      "stateMutability": "view",
      "type": "function"
    },
    {
      "constant": true,
      "inputs": [],
      "name": "nwl",
      "outputs": [
        {
          "internalType": "contract NWLInterface",
          "name": "",
          "type": "address"
        }
      ],
      "payable": false,
      "stateMutability": "view",
      "type": "function"
    },
    {
      "constant": true,
      "inputs": [],
      "name": "proposalCount",
      "outputs": [
        {
          "internalType": "uint256",
          "name": "",
          "type": "uint256"
        }
      ],
      "payable": false,
      "stateMutability": "view",
      "type": "function"
    },
    {
      "constant": true,
      "inputs": [],
      "name": "proposalMaxOperations",
      "outputs": [
        {
          "internalType": "uint256",
          "name": "",
          "type": "uint256"
        }
      ],
      "payable": false,
      "stateMutability": "pure",
      "type": "function"
    },
    {
      "constant": true,
      "inputs": [],
      "name": "proposalThreshold",
      "outputs": [
        {
          "internalType": "uint256",
          "name": "",
          "type": "uint256"
        }
      ],
      "payable": false,
      "stateMutability": "pure",
      "type": "function"
    },
    {
      "constant": true,
      "inputs": [
        {
          "internalType": "uint256",
          "name": "",
          "type": "uint256"
        }
      ],
      "name": "proposals",
      "outputs": [
        {
          "internalType": "uint256",
          "name": "id",
          "type": "uint256"
        },
        {
          "internalType": "address",
          "name": "proposer",
          "type": "address"
        },
        {
          "internalType": "uint256",
          "name": "eta",
          "type": "uint256"
        },
        {
          "internalType": "uint256",
          "name": "startBlock",
          "type": "uint256"
        },
        {
          "internalType": "uint256",
          "name": "endBlock",
          "type": "uint256"
        },
        {
          "internalType": "uint256",
          "name": "forVotes",
          "type": "uint256"
        },
        {
          "internalType": "uint256",
          "name": "againstVotes",
          "type": "uint256"
        },
        {
          "internalType": "bool",
          "name": "canceled",
          "type": "bool"
        },
        {
          "internalType": "bool",
          "name": "executed",
          "type": "bool"
        }
      ],
      "payable": false,
      "stateMutability": "view",
      "type": "function"
    },
    {
      "constant": false,
      "inputs": [
        {
          "internalType": "address[]",
          "name": "targets",
          "type": "address[]"
        },
        {
          "internalType": "uint256[]",
          "name": "values",
          "type": "uint256[]"
        },
        {
          "internalType": "string[]",
          "name": "signatures",
          "type": "string[]"
        },
        {
          "internalType": "bytes[]",
          "name": "calldatas",
          "type": "bytes[]"
        },
        {
          "internalType": "string",
          "name": "description",
          "type": "string"
        }
      ],
      "name": "propose",
      "outputs": [
        {
          "internalType": "uint256",
          "name": "",
          "type": "uint256"
        }
      ],
      "payable": false,
      "stateMutability": "nonpayable",
      "type": "function"
    },
    {
      "constant": false,
      "inputs": [
        {
          "internalType": "uint256",
          "name": "proposalId",
          "type": "uint256"
        }
      ],
      "name": "queue",
      "outputs": [],
      "payable": false,
      "stateMutability": "nonpayable",
      "type": "function"
    },
    {
      "constant": true,
      "inputs": [],
      "name": "quorumVotes",
      "outputs": [
        {
          "internalType": "uint256",
          "name": "",
          "type": "uint256"
        }
      ],
      "payable": false,
      "stateMutability": "pure",
      "type": "function"
    },
    {
      "constant": true,
      "inputs": [
        {
          "internalType": "uint256",
          "name": "proposalId",
          "type": "uint256"
        }
      ],
      "name": "state",
      "outputs": [
        {
          "internalType": "enum GovernorAlpha.ProposalState",
          "name": "",
          "type": "uint8"
        }
      ],
      "payable": false,
      "stateMutability": "view",
      "type": "function"
    },
    {
      "constant": true,
      "inputs": [],
      "name": "timelock",
      "outputs": [
        {
          "internalType": "contract TimelockInterface",
          "name": "",
          "type": "address"
        }
      ],
      "payable": false,
      "stateMutability": "view",
      "type": "function"
    },
    {
      "constant": true,
      "inputs": [],
      "name": "votingDelay",
      "outputs": [
        {
          "internalType": "uint256",
          "name": "",
          "type": "uint256"
        }
      ],
      "payable": false,
      "stateMutability": "pure",
      "type": "function"
    },
    {
      "constant": true,
      "inputs": [],
      "name": "votingPeriod",
      "outputs": [
        {
          "internalType": "uint256",
          "name": "",
          "type": "uint256"
        }
      ],
      "payable": false,
      "stateMutability": "pure",
      "type": "function"
    }
  ],
  "bytecode": "0x60806040523480156200001157600080fd5b50604051620038d0380380620038d083398101604081905262000034916200008a565b600080546001600160a01b039485166001600160a01b0319918216179091556001805493851693821693909317909255600280549190931691161790556200010a565b80516200008481620000f0565b92915050565b600080600060608486031215620000a057600080fd5b6000620000ae868662000077565b9350506020620000c18682870162000077565b9250506040620000d48682870162000077565b9150509250925092565b60006001600160a01b03821662000084565b620000fb81620000de565b81146200010757600080fd5b50565b6137b6806200011a6000396000f3fe60806040526004361061019c5760003560e01c80634634c61f116100ec578063da35c6641161008a578063deaaa7cc11610064578063deaaa7cc1461046e578063e23a9a5214610483578063f30f7c05146104b0578063fe0d94c1146104c55761019c565b8063da35c66414610419578063da95691a1461042e578063ddf0b0091461044e5761019c565b806391500671116100c657806391500671146103ad578063b58131b0146103cd578063b9a61961146103e2578063d33219b4146103f75761019c565b80634634c61f14610363578063760fbc13146103835780637bdbe4d0146103985761019c565b806321f43e42116101595780633932abb1116101335780633932abb1146102df5780633e4f49e6146102f457806340e58ee514610321578063452a9320146103415761019c565b806321f43e421461027a57806324bc1a641461029a578063328dd982146102af5761019c565b8063013cf08b146101a157806302a251a3146101df57806306fdde031461020157806315373e3d1461022357806317977c611461024557806320606b7014610265575b600080fd5b3480156101ad57600080fd5b506101c16101bc366004612448565b6104d8565b6040516101d699989796959493929190613561565b60405180910390f35b3480156101eb57600080fd5b506101f4610531565b6040516101d6919061328e565b34801561020d57600080fd5b50610216610539565b6040516101d6919061334a565b34801561022f57600080fd5b5061024361023e366004612496565b61056b565b005b34801561025157600080fd5b506101f461026036600461228b565b61057a565b34801561027157600080fd5b506101f461058c565b34801561028657600080fd5b506102436102953660046122b1565b6105a3565b3480156102a657600080fd5b506101f461068a565b3480156102bb57600080fd5b506102cf6102ca366004612448565b610698565b6040516101d69493929190613241565b3480156102eb57600080fd5b506101f4610927565b34801561030057600080fd5b5061031461030f366004612448565b61092c565b6040516101d6919061333c565b34801561032d57600080fd5b5061024361033c366004612448565b610aae565b34801561034d57600080fd5b50610356610d17565b6040516101d691906130eb565b34801561036f57600080fd5b5061024361037e3660046124c6565b610d26565b34801561038f57600080fd5b50610243610ebc565b3480156103a457600080fd5b506101f4610ef8565b3480156103b957600080fd5b506102436103c83660046122b1565b610efd565b3480156103d957600080fd5b506101f4610fd2565b3480156103ee57600080fd5b50610243610fe0565b34801561040357600080fd5b5061040c611065565b6040516101d6919061332e565b34801561042557600080fd5b506101f4611074565b34801561043a57600080fd5b506101f46104493660046122eb565b61107a565b34801561045a57600080fd5b50610243610469366004612448565b61149c565b34801561047a57600080fd5b506101f4611706565b34801561048f57600080fd5b506104a361049e366004612466565b611712565b6040516101d691906134ab565b3480156104bc57600080fd5b5061040c611781565b6102436104d3366004612448565b611790565b6004602052600090815260409020805460018201546002830154600784015460088501546009860154600a870154600b9097015495966001600160a01b0390951695939492939192909160ff8082169161010090041689565b620151805b90565b604051806040016040528060168152602001754e61727768616c20476f7665726e6f7220416c70686160501b81525081565b610576338383611955565b5050565b60056020526000908152604090205481565b604051610598906130d5565b604051809103902081565b6002546001600160a01b031633146105d65760405162461bcd60e51b81526004016105cd9061338b565b60405180910390fd5b600080546040516001600160a01b0390911691630825f38f918391906106009087906020016130eb565b604051602081830303815290604052856040518563ffffffff1660e01b815260040161062f9493929190613114565b600060405180830381600087803b15801561064957600080fd5b505af115801561065d573d6000803e3d6000fd5b505050506040513d6000823e601f3d908101601f191682016040526106859190810190612413565b505050565b697f0e10af47c1c700000090565b6060806060806000600460008781526020019081526020016000209050806003018160040182600501836006018380548060200260200160405190810160405280929190818152602001828054801561071a57602002820191906000526020600020905b81546001600160a01b031681526001909101906020018083116106fc575b505050505093508280548060200260200160405190810160405280929190818152602001828054801561076c57602002820191906000526020600020905b815481526020019060010190808311610758575b5050505050925081805480602002602001604051908101604052809291908181526020016000905b8282101561083f5760008481526020908190208301805460408051601f600260001961010060018716150201909416939093049283018590048502810185019091528181529283018282801561082b5780601f106108005761010080835404028352916020019161082b565b820191906000526020600020905b81548152906001019060200180831161080e57829003601f168201915b505050505081526020019060010190610794565b50505050915080805480602002602001604051908101604052809291908181526020016000905b828210156109115760008481526020908190208301805460408051601f60026000196101006001871615020190941693909304928301859004850281018501909152818152928301828280156108fd5780601f106108d2576101008083540402835291602001916108fd565b820191906000526020600020905b8154815290600101906020018083116108e057829003601f168201915b505050505081526020019060010190610866565b5050505090509450945094509450509193509193565b600190565b600081600354101580156109405750600082115b61095c5760405162461bcd60e51b81526004016105cd9061339b565b6000828152600460205260409020600b81015460ff1615610981576002915050610aa9565b80600701544311610996576000915050610aa9565b806008015443116109ab576001915050610aa9565b80600a015481600901541115806109cc57506109c561068a565b8160090154105b156109db576003915050610aa9565b60028101546109ee576004915050610aa9565b600b810154610100900460ff1615610a0a576007915050610aa9565b6002810154600054604080516360d143f160e11b81529051610a9393926001600160a01b03169163c1a287e2916004808301926020929190829003018186803b158015610a5657600080fd5b505afa158015610a6a573d6000803e3d6000fd5b505050506040513d601f19601f82011682018060405250610a8e91908101906123f5565b611b1e565b4210610aa3576006915050610aa9565b60059150505b919050565b6000610ab98261092c565b90506007816007811115610ac957fe5b1415610ae75760405162461bcd60e51b81526004016105cd9061346b565b60008281526004602052604090206002546001600160a01b0316331480610bb25750610b11610fd2565b60018054838201546001600160a01b039182169263782d6fe19290911690610b3a904390611b4a565b6040518363ffffffff1660e01b8152600401610b57929190613163565b60206040518083038186803b158015610b6f57600080fd5b505afa158015610b83573d6000803e3d6000fd5b505050506040513d601f19601f82011682018060405250610ba7919081019061252e565b6001600160601b0316105b610bce5760405162461bcd60e51b81526004016105cd906133fb565b600b8101805460ff1916600117905560005b6003820154811015610cda576000546003830180546001600160a01b039092169163591fcdfe919084908110610c1257fe5b6000918252602090912001546004850180546001600160a01b039092169185908110610c3a57fe5b9060005260206000200154856005018581548110610c5457fe5b90600052602060002001866006018681548110610c6d57fe5b9060005260206000200187600201546040518663ffffffff1660e01b8152600401610c9c959493929190613200565b600060405180830381600087803b158015610cb657600080fd5b505af1158015610cca573d6000803e3d6000fd5b505060019092019150610be09050565b507f789cf55be980739dad1d0699b93b58e806b51c9d96619bfa8fe0a28abaa7b30c83604051610d0a919061328e565b60405180910390a1505050565b6002546001600160a01b031681565b6000604051610d34906130d5565b6040805191829003822082820190915260168252754e61727768616c20476f7665726e6f7220416c70686160501b6020909201919091527fc35ed69ce4874e56af00d10e549144b16d8248d4c2aab86f0dd59c5375b3c120610d94611b72565b30604051602001610da8949392919061329c565b6040516020818303038152906040528051906020012090506000604051610dce906130e0565b604051908190038120610de791899089906020016132d1565b60405160208183030381529060405280519060200120905060008282604051602001610e149291906130a4565b604051602081830303815290604052805190602001209050600060018288888860405160008152602001604052604051610e5194939291906132f9565b6020604051602081039080840390855afa158015610e73573d6000803e3d6000fd5b5050604051601f1901519150506001600160a01b038116610ea65760405162461bcd60e51b81526004016105cd9061345b565b610eb1818a8a611955565b505050505050505050565b6002546001600160a01b03163314610ee65760405162461bcd60e51b81526004016105cd9061349b565b600280546001600160a01b0319169055565b600a90565b6002546001600160a01b03163314610f275760405162461bcd60e51b81526004016105cd906133bb565b600080546040516001600160a01b0390911691633a66f90191839190610f519087906020016130eb565b604051602081830303815290604052856040518563ffffffff1660e01b8152600401610f809493929190613114565b602060405180830381600087803b158015610f9a57600080fd5b505af1158015610fae573d6000803e3d6000fd5b505050506040513d601f19601f8201168201806040525061068591908101906123f5565b693f870857a3e0e380000090565b6002546001600160a01b0316331461100a5760405162461bcd60e51b81526004016105cd9061335b565b6000805460408051630e18b68160e01b815290516001600160a01b0390921692630e18b6819260048084019382900301818387803b15801561104b57600080fd5b505af115801561105f573d6000803e3d6000fd5b50505050565b6000546001600160a01b031681565b60035481565b6000611084610fd2565b600180546001600160a01b03169063782d6fe19033906110a5904390611b4a565b6040518363ffffffff1660e01b81526004016110c29291906130f9565b60206040518083038186803b1580156110da57600080fd5b505afa1580156110ee573d6000803e3d6000fd5b505050506040513d601f19601f82011682018060405250611112919081019061252e565b6001600160601b0316116111385760405162461bcd60e51b81526004016105cd9061344b565b8451865114801561114a575083518651145b8015611157575082518651145b6111735760405162461bcd60e51b81526004016105cd906133eb565b85516111915760405162461bcd60e51b81526004016105cd9061343b565b611199610ef8565b865111156111b95760405162461bcd60e51b81526004016105cd906133cb565b3360009081526005602052604090205480156112365760006111da8261092c565b905060018160078111156111ea57fe5b14156112085760405162461bcd60e51b81526004016105cd9061340b565b600081600781111561121657fe5b14156112345760405162461bcd60e51b81526004016105cd9061342b565b505b600061124443610a8e610927565b9050600061125482610a8e610531565b6003805460010190559050611267611cd5565b604051806101a001604052806003548152602001336001600160a01b03168152602001600081526020018b81526020018a815260200189815260200188815260200184815260200183815260200160008152602001600081526020016000151581526020016000151581525090508060046000836000015181526020019081526020016000206000820151816000015560208201518160010160006101000a8154816001600160a01b0302191690836001600160a01b0316021790555060408201518160020155606082015181600301908051906020019061134a929190611d4a565b5060808201518051611366916004840191602090910190611daf565b5060a08201518051611382916005840191602090910190611df6565b5060c0820151805161139e916006840191602090910190611e4f565b5060e082015181600701556101008201518160080155610120820151816009015561014082015181600a015561016082015181600b0160006101000a81548160ff02191690831515021790555061018082015181600b0160016101000a81548160ff02191690831515021790555090505080600001516005600083602001516001600160a01b03166001600160a01b03168152602001908152602001600020819055507f7d84a6263ae0d98d3329bd7b46bb4e8d6f98cd35a7adb45c274c8b7fd5ebd5e08160000151338c8c8c8c89898e604051611484999897969594939291906134b9565b60405180910390a15193505050505b95945050505050565b60046114a78261092c565b60078111156114b257fe5b146114cf5760405162461bcd60e51b81526004016105cd9061336b565b600081815260046020818152604080842084548251630d48571f60e31b815292519195946115249442946001600160a01b0390931693636a42b8f8938084019390829003018186803b158015610a5657600080fd5b905060005b60038301548110156116cc576116c483600301828154811061154757fe5b6000918252602090912001546004850180546001600160a01b03909216918490811061156f57fe5b906000526020600020015485600501848154811061158957fe5b600091825260209182902001805460408051601f60026000196101006001871615020190941693909304928301859004850281018501909152818152928301828280156116175780601f106115ec57610100808354040283529160200191611617565b820191906000526020600020905b8154815290600101906020018083116115fa57829003601f168201915b505050505086600601858154811061162b57fe5b600091825260209182902001805460408051601f60026000196101006001871615020190941693909304928301859004850281018501909152818152928301828280156116b95780601f1061168e576101008083540402835291602001916116b9565b820191906000526020600020905b81548152906001019060200180831161169c57829003601f168201915b505050505086611b76565b600101611529565b50600282018190556040517f9a2e42fd6722813d69113e7d0079d3d940171428df7373df9c7f7617cfda289290610d0a90859084906135e7565b604051610598906130e0565b61171a611ea8565b5060008281526004602090815260408083206001600160a01b0385168452600c018252918290208251606081018452905460ff80821615158352610100820416151592820192909252620100009091046001600160601b0316918101919091525b92915050565b6001546001600160a01b031681565b600561179b8261092c565b60078111156117a657fe5b146117c35760405162461bcd60e51b81526004016105cd9061337b565b6000818152600460205260408120600b8101805461ff001916610100179055905b6003820154811015611919576000546004830180546001600160a01b0390921691630825f38f91908490811061181657fe5b906000526020600020015484600301848154811061183057fe5b6000918252602090912001546004860180546001600160a01b03909216918690811061185857fe5b906000526020600020015486600501868154811061187257fe5b9060005260206000200187600601878154811061188b57fe5b9060005260206000200188600201546040518763ffffffff1660e01b81526004016118ba959493929190613200565b6000604051808303818588803b1580156118d357600080fd5b505af11580156118e7573d6000803e3d6000fd5b50505050506040513d6000823e601f3d908101601f191682016040526119109190810190612413565b506001016117e4565b507f712ae1383f79ac853f8d882153778e0260ef8f03b504e2866e0593e04d2b291f82604051611949919061328e565b60405180910390a15050565b60016119608361092c565b600781111561196b57fe5b146119885760405162461bcd60e51b81526004016105cd9061347b565b60008281526004602090815260408083206001600160a01b0387168452600c8101909252909120805460ff16156119d15760405162461bcd60e51b81526004016105cd906133ab565b600154600783015460405163782d6fe160e01b81526000926001600160a01b03169163782d6fe191611a07918a91600401613163565b60206040518083038186803b158015611a1f57600080fd5b505afa158015611a33573d6000803e3d6000fd5b505050506040513d601f19601f82011682018060405250611a57919081019061252e565b90508315611a8057611a768360090154826001600160601b0316611b1e565b6009840155611a9d565b611a9783600a0154826001600160601b0316611b1e565b600a8401555b8154600160ff199091161761ff00191661010085151502176dffffffffffffffffffffffff00001916620100006001600160601b038316021782556040517f877856338e13f63d0c36822ff0ef736b80934cd90574a3a5bc9262c39d217c4690611b0e908890889088908690613171565b60405180910390a1505050505050565b600082820183811015611b435760405162461bcd60e51b81526004016105cd906133db565b9392505050565b600082821115611b6c5760405162461bcd60e51b81526004016105cd9061348b565b50900390565b4690565b6000546040516001600160a01b039091169063f2b0653790611ba490889088908890889088906020016131a6565b604051602081830303815290604052805190602001206040518263ffffffff1660e01b8152600401611bd6919061328e565b60206040518083038186803b158015611bee57600080fd5b505afa158015611c02573d6000803e3d6000fd5b505050506040513d601f19601f82011682018060405250611c2691908101906123d7565b15611c435760405162461bcd60e51b81526004016105cd9061341b565b600054604051633a66f90160e01b81526001600160a01b0390911690633a66f90190611c7b90889088908890889088906004016131a6565b602060405180830381600087803b158015611c9557600080fd5b505af1158015611ca9573d6000803e3d6000fd5b505050506040513d601f19601f82011682018060405250611ccd91908101906123f5565b505050505050565b604051806101a001604052806000815260200160006001600160a01b031681526020016000815260200160608152602001606081526020016060815260200160608152602001600081526020016000815260200160008152602001600081526020016000151581526020016000151581525090565b828054828255906000526020600020908101928215611d9f579160200282015b82811115611d9f57825182546001600160a01b0319166001600160a01b03909116178255602090920191600190910190611d6a565b50611dab929150611ec8565b5090565b828054828255906000526020600020908101928215611dea579160200282015b82811115611dea578251825591602001919060010190611dcf565b50611dab929150611eec565b828054828255906000526020600020908101928215611e43579160200282015b82811115611e435782518051611e33918491602090910190611f06565b5091602001919060010190611e16565b50611dab929150611f73565b828054828255906000526020600020908101928215611e9c579160200282015b82811115611e9c5782518051611e8c918491602090910190611f06565b5091602001919060010190611e6f565b50611dab929150611f96565b604080516060810182526000808252602082018190529181019190915290565b61053691905b80821115611dab5780546001600160a01b0319168155600101611ece565b61053691905b80821115611dab5760008155600101611ef2565b828054600181600116156101000203166002900490600052602060002090601f016020900481019282601f10611f4757805160ff1916838001178555611dea565b82800160010185558215611dea5791820182811115611dea578251825591602001919060010190611dcf565b61053691905b80821115611dab576000611f8d8282611fb9565b50600101611f79565b61053691905b80821115611dab576000611fb08282611fb9565b50600101611f9c565b50805460018160011615610100020316600290046000825580601f10611fdf5750611ffd565b601f016020900490600052602060002090810190611ffd9190611eec565b50565b803561177b8161373b565b600082601f83011261201c57600080fd5b813561202f61202a8261361c565b6135f5565b9150818183526020840193506020810190508385602084028201111561205457600080fd5b60005b83811015612080578161206a8882612000565b8452506020928301929190910190600101612057565b5050505092915050565b600082601f83011261209b57600080fd5b81356120a961202a8261361c565b81815260209384019390925082018360005b8381101561208057813586016120d188826121e0565b84525060209283019291909101906001016120bb565b600082601f8301126120f857600080fd5b813561210661202a8261361c565b81815260209384019390925082018360005b83811015612080578135860161212e88826121e0565b8452506020928301929190910190600101612118565b600082601f83011261215557600080fd5b813561216361202a8261361c565b9150818183526020840193506020810190508385602084028201111561218857600080fd5b60005b83811015612080578161219e88826121ca565b845250602092830192919091019060010161218b565b803561177b8161374f565b805161177b8161374f565b803561177b81613758565b805161177b81613758565b600082601f8301126121f157600080fd5b81356121ff61202a8261363d565b9150808252602083016020830185838301111561221b57600080fd5b6122268382846136ef565b50505092915050565b600082601f83011261224057600080fd5b815161224e61202a8261363d565b9150808252602083016020830185838301111561226a57600080fd5b6122268382846136fb565b803561177b81613761565b805161177b8161376a565b60006020828403121561229d57600080fd5b60006122a98484612000565b949350505050565b600080604083850312156122c457600080fd5b60006122d08585612000565b92505060206122e1858286016121ca565b9150509250929050565b600080600080600060a0868803121561230357600080fd5b853567ffffffffffffffff81111561231a57600080fd5b6123268882890161200b565b955050602086013567ffffffffffffffff81111561234357600080fd5b61234f88828901612144565b945050604086013567ffffffffffffffff81111561236c57600080fd5b612378888289016120e7565b935050606086013567ffffffffffffffff81111561239557600080fd5b6123a18882890161208a565b925050608086013567ffffffffffffffff8111156123be57600080fd5b6123ca888289016121e0565b9150509295509295909350565b6000602082840312156123e957600080fd5b60006122a984846121bf565b60006020828403121561240757600080fd5b60006122a984846121d5565b60006020828403121561242557600080fd5b815167ffffffffffffffff81111561243c57600080fd5b6122a98482850161222f565b60006020828403121561245a57600080fd5b60006122a984846121ca565b6000806040838503121561247957600080fd5b600061248585856121ca565b92505060206122e185828601612000565b600080604083850312156124a957600080fd5b60006124b585856121ca565b92505060206122e1858286016121b4565b600080600080600060a086880312156124de57600080fd5b60006124ea88886121ca565b95505060206124fb888289016121b4565b945050604061250c88828901612275565b935050606061251d888289016121ca565b92505060806123ca888289016121ca565b60006020828403121561254057600080fd5b60006122a98484612280565b60006125588383612587565b505060200190565b6000611b438383612729565b6000612558838361270f565b612581816136bc565b82525050565b61258181613684565b600061259b82613677565b6125a5818561367b565b93506125b083613665565b8060005b838110156125de5781516125c8888261254c565b97506125d383613665565b9250506001016125b4565b509495945050505050565b60006125f482613677565b6125fe818561367b565b93508360208202850161261085613665565b8060005b8581101561264a578484038952815161262d8582612560565b945061263883613665565b60209a909a0199925050600101612614565b5091979650505050505050565b600061266282613677565b61266c818561367b565b93508360208202850161267e85613665565b8060005b8581101561264a578484038952815161269b8582612560565b94506126a683613665565b60209a909a0199925050600101612682565b60006126c382613677565b6126cd818561367b565b93506126d883613665565b8060005b838110156125de5781516126f0888261256c565b97506126fb83613665565b9250506001016126dc565b6125818161368f565b61258181610536565b61258161272482610536565b610536565b600061273482613677565b61273e818561367b565b935061274e8185602086016136fb565b61275781613727565b9093019392505050565b60008154600181166000811461277e57600181146127a4576127e3565b607f600283041661278f818761367b565b60ff19841681529550506020850192506127e3565b600282046127b2818761367b565b95506127bd8561366b565b60005b828110156127dc578154888201526001909101906020016127c0565b8701945050505b505092915050565b612581816136c3565b612581816136ce565b612581816136d9565b600061281360398361367b565b7f476f7665726e6f72416c7068613a3a5f5f61636365707441646d696e3a20736581527f6e646572206d75737420626520676f7620677561726469616e00000000000000602082015260400192915050565b600061287260448361367b565b7f476f7665726e6f72416c7068613a3a71756575653a2070726f706f73616c206381527f616e206f6e6c79206265207175657565642069662069742069732073756363656020820152631959195960e21b604082015260600192915050565b60006128de60458361367b565b7f476f7665726e6f72416c7068613a3a657865637574653a2070726f706f73616c81527f2063616e206f6e6c7920626520657865637574656420696620697420697320716020820152641d595d595960da1b604082015260600192915050565b600061294b600283610aa9565b61190160f01b815260020192915050565b6000612969604c8361367b565b7f476f7665726e6f72416c7068613a3a5f5f6578656375746553657454696d656c81527f6f636b50656e64696e6741646d696e3a2073656e646572206d7573742062652060208201526b33b7bb1033bab0b93234b0b760a11b604082015260600192915050565b60006129dd60188361367b565b7f73657450656e64696e6741646d696e2861646472657373290000000000000000815260200192915050565b6000612a1660298361367b565b7f476f7665726e6f72416c7068613a3a73746174653a20696e76616c69642070728152681bdc1bdcd85b081a5960ba1b602082015260400192915050565b6000612a61602d8361367b565b7f476f7665726e6f72416c7068613a3a5f63617374566f74653a20766f7465722081526c185b1c9958591e481d9bdd1959609a1b602082015260400192915050565b6000612ab0604a8361367b565b7f476f7665726e6f72416c7068613a3a5f5f717565756553657454696d656c6f6381527f6b50656e64696e6741646d696e3a2073656e646572206d75737420626520676f6020820152693b1033bab0b93234b0b760b11b604082015260600192915050565b6000612b2260288361367b565b7f476f7665726e6f72416c7068613a3a70726f706f73653a20746f6f206d616e7981526720616374696f6e7360c01b602082015260400192915050565b6000612b6c60118361367b565b706164646974696f6e206f766572666c6f7760781b815260200192915050565b6000612b99604383610aa9565b7f454950373132446f6d61696e28737472696e67206e616d652c75696e7432353681527f20636861696e49642c6164647265737320766572696679696e67436f6e74726160208201526263742960e81b604082015260430192915050565b6000612c04602783610aa9565b7f42616c6c6f742875696e743235362070726f706f73616c49642c626f6f6c20738152667570706f72742960c81b602082015260270192915050565b6000612c4d60448361367b565b7f476f7665726e6f72416c7068613a3a70726f706f73653a2070726f706f73616c81527f2066756e6374696f6e20696e666f726d6174696f6e206172697479206d69736d6020820152630c2e8c6d60e31b604082015260600192915050565b6000612cb9602f8361367b565b7f476f7665726e6f72416c7068613a3a63616e63656c3a2070726f706f7365722081526e18589bdd99481d1a1c995cda1bdb19608a1b602082015260400192915050565b6000612d0a60388361367b565b7f476f7665726e6f72416c7068613a3a70726f706f73653a20666f756e6420616e81527f20616c7265616479206163746976652070726f706f73616c0000000000000000602082015260400192915050565b6000612d6960448361367b565b7f476f7665726e6f72416c7068613a3a5f71756575654f725265766572743a207081527f726f706f73616c20616374696f6e20616c7265616479207175657565642061746020820152632065746160e01b604082015260600192915050565b6000612dd560398361367b565b7f476f7665726e6f72416c7068613a3a70726f706f73653a20666f756e6420616e81527f20616c72656164792070656e64696e672070726f706f73616c00000000000000602082015260400192915050565b6000612e34602c8361367b565b7f476f7665726e6f72416c7068613a3a70726f706f73653a206d7573742070726f81526b7669646520616374696f6e7360a01b602082015260400192915050565b6000612e82603f8361367b565b7f476f7665726e6f72416c7068613a3a70726f706f73653a2070726f706f73657281527f20766f7465732062656c6f772070726f706f73616c207468726573686f6c6400602082015260400192915050565b6000612ee1602f8361367b565b7f476f7665726e6f72416c7068613a3a63617374566f746542795369673a20696e81526e76616c6964207369676e617475726560881b602082015260400192915050565b6000612f3260368361367b565b7f476f7665726e6f72416c7068613a3a63616e63656c3a2063616e6e6f742063618152751b98d95b08195e1958dd5d1959081c1c9bdc1bdcd85b60521b602082015260400192915050565b6000612f8a602a8361367b565b7f476f7665726e6f72416c7068613a3a5f63617374566f74653a20766f74696e67815269081a5cc818db1bdcd95960b21b602082015260400192915050565b6000612fd660158361367b565b747375627472616374696f6e20756e646572666c6f7760581b815260200192915050565b600061300760368361367b565b7f476f7665726e6f72416c7068613a3a5f5f61626469636174653a2073656e6465815275391036bab9ba1031329033b7bb1033bab0b93234b0b760511b602082015260400192915050565b805160608301906130638482612706565b5060208201516130766020850182612706565b50604082015161105f604085018261309b565b612581816136aa565b612581816136e4565b612581816136b0565b60006130af8261293e565b91506130bb8285612718565b6020820191506130cb8284612718565b5060200192915050565b600061177b82612b8c565b600061177b82612bf7565b6020810161177b8284612587565b604081016131078285612578565b611b43602083018461270f565b60a081016131228287612587565b61312f60208301866127fd565b8181036040830152613140816129d0565b905081810360608301526131548185612729565b9050611493608083018461270f565b604081016131078285612587565b6080810161317f8287612587565b61318c602083018661270f565b6131996040830185612706565b6114936060830184613092565b60a081016131b48288612587565b6131c1602083018761270f565b81810360408301526131d38186612729565b905081810360608301526131e78185612729565b90506131f6608083018461270f565b9695505050505050565b60a0810161320e8288612587565b61321b602083018761270f565b818103604083015261322d8186612761565b905081810360608301526131e78185612761565b608080825281016132528187612590565b9050818103602083015261326681866126b8565b9050818103604083015261327a8185612657565b905081810360608301526131f681846125e9565b6020810161177b828461270f565b608081016132aa828761270f565b6132b7602083018661270f565b6132c4604083018561270f565b6114936060830184612587565b606081016132df828661270f565b6132ec602083018561270f565b6122a96040830184612706565b60808101613307828761270f565b6133146020830186613089565b613321604083018561270f565b611493606083018461270f565b6020810161177b82846127eb565b6020810161177b82846127f4565b60208082528101611b438184612729565b6020808252810161177b81612806565b6020808252810161177b81612865565b6020808252810161177b816128d1565b6020808252810161177b8161295c565b6020808252810161177b81612a09565b6020808252810161177b81612a54565b6020808252810161177b81612aa3565b6020808252810161177b81612b15565b6020808252810161177b81612b5f565b6020808252810161177b81612c40565b6020808252810161177b81612cac565b6020808252810161177b81612cfd565b6020808252810161177b81612d5c565b6020808252810161177b81612dc8565b6020808252810161177b81612e27565b6020808252810161177b81612e75565b6020808252810161177b81612ed4565b6020808252810161177b81612f25565b6020808252810161177b81612f7d565b6020808252810161177b81612fc9565b6020808252810161177b81612ffa565b6060810161177b8284613052565b61012081016134c8828c61270f565b6134d5602083018b612578565b81810360408301526134e7818a612590565b905081810360608301526134fb81896126b8565b9050818103608083015261350f8188612657565b905081810360a083015261352381876125e9565b905061353260c083018661270f565b61353f60e083018561270f565b8181036101008301526135528184612729565b9b9a5050505050505050505050565b6101208101613570828c61270f565b61357d602083018b612587565b61358a604083018a61270f565b613597606083018961270f565b6135a4608083018861270f565b6135b160a083018761270f565b6135be60c083018661270f565b6135cb60e0830185612706565b6135d9610100830184612706565b9a9950505050505050505050565b60408101613107828561270f565b60405181810167ffffffffffffffff8111828210171561361457600080fd5b604052919050565b600067ffffffffffffffff82111561363357600080fd5b5060209081020190565b600067ffffffffffffffff82111561365457600080fd5b506020601f91909101601f19160190565b60200190565b60009081526020902090565b5190565b90815260200190565b600061177b8261369e565b151590565b80610aa981613731565b6001600160a01b031690565b60ff1690565b6001600160601b031690565b600061177b825b600061177b82613684565b600061177b82613694565b600061177b82610536565b600061177b826136b0565b82818337506000910152565b60005b838110156137165781810151838201526020016136fe565b8381111561105f5750506000910152565b601f01601f191690565b60088110611ffd57fe5b61374481613684565b8114611ffd57600080fd5b6137448161368f565b61374481610536565b613744816136aa565b613744816136b056fea365627a7a72315820c2a0b74b2bd4770aa197694af227df397b87c8ee0de18cb26b41e1464f92c4676c6578706572696d656e74616cf564736f6c63430005100040",
  "linkReferences": {},
  "deployedLinkReferences": {}
}