{
  "_format": "hh-sol-artifact-1",
  "contractName": "NarwhalLens",
  "sourceName": "contracts/Lens/NarwhalLens.sol",
  "abi": [
    {
      "constant": true,
      "inputs": [],
      "name": "BLOCKS_PER_DAY",
      "outputs": [
        {
          "internalType": "uint256",
          "name": "",
          "type": "uint256"
        }
      ],
      "payable": false,
      "stateMutability": "view",
      "type": "function"
    },
    {
      "constant": true,
      "inputs": [
        {
          "internalType": "contract ComptrollerInterface",
          "name": "comptroller",
          "type": "address"
        },
        {
          "internalType": "address",
          "name": "account",
          "type": "address"
        }
      ],
      "name": "getAccountLimits",
      "outputs": [
        {
          "components": [
            {
              "internalType": "contract NToken[]",
              "name": "markets",
              "type": "address[]"
            },
            {
              "internalType": "uint256",
              "name": "liquidity",
              "type": "uint256"
            },
            {
              "internalType": "uint256",
              "name": "shortfall",
              "type": "uint256"
            }
          ],
          "internalType": "struct NarwhalLens.AccountLimits",
          "name": "",
          "type": "tuple"
        }
      ],
      "payable": false,
      "stateMutability": "view",
      "type": "function"
    },
    {
      "constant": false,
      "inputs": [
        {
          "internalType": "address payable",
          "name": "account",
          "type": "address"
        },
        {
          "internalType": "address",
          "name": "comptrollerAddress",
          "type": "address"
        }
      ],
      "name": "getDailyNWL",
      "outputs": [
        {
          "internalType": "uint256",
          "name": "",
          "type": "uint256"
        }
      ],
      "payable": false,
      "stateMutability": "nonpayable",
      "type": "function"
    },
    {
      "constant": true,
      "inputs": [
        {
          "internalType": "contract GovernorAlpha",
          "name": "governor",
          "type": "address"
        },
        {
          "internalType": "uint256[]",
          "name": "proposalIds",
          "type": "uint256[]"
        }
      ],
      "name": "getGovProposals",
      "outputs": [
        {
          "components": [
            {
              "internalType": "uint256",
              "name": "proposalId",
              "type": "uint256"
            },
            {
              "internalType": "address",
              "name": "proposer",
              "type": "address"
            },
            {
              "internalType": "uint256",
              "name": "eta",
              "type": "uint256"
            },
            {
              "internalType": "address[]",
              "name": "targets",
              "type": "address[]"
            },
            {
              "internalType": "uint256[]",
              "name": "values",
              "type": "uint256[]"
            },
            {
              "internalType": "string[]",
              "name": "signatures",
              "type": "string[]"
            },
            {
              "internalType": "bytes[]",
              "name": "calldatas",
              "type": "bytes[]"
            },
            {
              "internalType": "uint256",
              "name": "startBlock",
              "type": "uint256"
            },
            {
              "internalType": "uint256",
              "name": "endBlock",
              "type": "uint256"
            },
            {
              "internalType": "uint256",
              "name": "forVotes",
              "type": "uint256"
            },
            {
              "internalType": "uint256",
              "name": "againstVotes",
              "type": "uint256"
            },
            {
              "internalType": "bool",
              "name": "canceled",
              "type": "bool"
            },
            {
              "internalType": "bool",
              "name": "executed",
              "type": "bool"
            }
          ],
          "internalType": "struct NarwhalLens.GovProposal[]",
          "name": "",
          "type": "tuple[]"
        }
      ],
      "payable": false,
      "stateMutability": "view",
      "type": "function"
    },
    {
      "constant": true,
      "inputs": [
        {
          "internalType": "contract GovernorAlpha",
          "name": "governor",
          "type": "address"
        },
        {
          "internalType": "address",
          "name": "voter",
          "type": "address"
        },
        {
          "internalType": "uint256[]",
          "name": "proposalIds",
          "type": "uint256[]"
        }
      ],
      "name": "getGovReceipts",
      "outputs": [
        {
          "components": [
            {
              "internalType": "uint256",
              "name": "proposalId",
              "type": "uint256"
            },
            {
              "internalType": "bool",
              "name": "hasVoted",
              "type": "bool"
            },
            {
              "internalType": "bool",
              "name": "support",
              "type": "bool"
            },
            {
              "internalType": "uint96",
              "name": "votes",
              "type": "uint96"
            }
          ],
          "internalType": "struct NarwhalLens.GovReceipt[]",
          "name": "",
          "type": "tuple[]"
        }
      ],
      "payable": false,
      "stateMutability": "view",
      "type": "function"
    },
    {
      "constant": true,
      "inputs": [
        {
          "internalType": "contract NWL",
          "name": "nwl",
          "type": "address"
        },
        {
          "internalType": "address",
          "name": "account",
          "type": "address"
        }
      ],
      "name": "getNWLBalanceMetadata",
      "outputs": [
        {
          "components": [
            {
              "internalType": "uint256",
              "name": "balance",
              "type": "uint256"
            },
            {
              "internalType": "uint256",
              "name": "votes",
              "type": "uint256"
            },
            {
              "internalType": "address",
              "name": "delegate",
              "type": "address"
            }
          ],
          "internalType": "struct NarwhalLens.NWLBalanceMetadata",
          "name": "",
          "type": "tuple"
        }
      ],
      "payable": false,
      "stateMutability": "view",
      "type": "function"
    },
    {
      "constant": false,
      "inputs": [
        {
          "internalType": "contract NWL",
          "name": "nwl",
          "type": "address"
        },
        {
          "internalType": "contract ComptrollerInterface",
          "name": "comptroller",
          "type": "address"
        },
        {
          "internalType": "address",
          "name": "account",
          "type": "address"
        }
      ],
      "name": "getNWLBalanceMetadataExt",
      "outputs": [
        {
          "components": [
            {
              "internalType": "uint256",
              "name": "balance",
              "type": "uint256"
            },
            {
              "internalType": "uint256",
              "name": "votes",
              "type": "uint256"
            },
            {
              "internalType": "address",
              "name": "delegate",
              "type": "address"
            },
            {
              "internalType": "uint256",
              "name": "allocated",
              "type": "uint256"
            }
          ],
          "internalType": "struct NarwhalLens.NWLBalanceMetadataExt",
          "name": "",
          "type": "tuple"
        }
      ],
      "payable": false,
      "stateMutability": "nonpayable",
      "type": "function"
    },
    {
      "constant": true,
      "inputs": [
        {
          "internalType": "contract NWL",
          "name": "nwl",
          "type": "address"
        },
        {
          "internalType": "address",
          "name": "account",
          "type": "address"
        },
        {
          "internalType": "uint32[]",
          "name": "blockNumbers",
          "type": "uint32[]"
        }
      ],
      "name": "getNarwhalVotes",
      "outputs": [
        {
          "components": [
            {
              "internalType": "uint256",
              "name": "blockNumber",
              "type": "uint256"
            },
            {
              "internalType": "uint256",
              "name": "votes",
              "type": "uint256"
            }
          ],
          "internalType": "struct NarwhalLens.NarwhalVotes[]",
          "name": "",
          "type": "tuple[]"
        }
      ],
      "payable": false,
      "stateMutability": "view",
      "type": "function"
    },
    {
      "constant": false,
      "inputs": [
        {
          "internalType": "contract NToken",
          "name": "nToken",
          "type": "address"
        },
        {
          "internalType": "address payable",
          "name": "account",
          "type": "address"
        }
      ],
      "name": "nTokenBalances",
      "outputs": [
        {
          "components": [
            {
              "internalType": "address",
              "name": "nToken",
              "type": "address"
            },
            {
              "internalType": "uint256",
              "name": "balanceOf",
              "type": "uint256"
            },
            {
              "internalType": "uint256",
              "name": "borrowBalanceCurrent",
              "type": "uint256"
            },
            {
              "internalType": "uint256",
              "name": "balanceOfUnderlying",
              "type": "uint256"
            },
            {
              "internalType": "uint256",
              "name": "tokenBalance",
              "type": "uint256"
            },
            {
              "internalType": "uint256",
              "name": "tokenAllowance",
              "type": "uint256"
            }
          ],
          "internalType": "struct NarwhalLens.NTokenBalances",
          "name": "",
          "type": "tuple"
        }
      ],
      "payable": false,
      "stateMutability": "nonpayable",
      "type": "function"
    },
    {
      "constant": false,
      "inputs": [
        {
          "internalType": "contract NToken[]",
          "name": "nTokens",
          "type": "address[]"
        },
        {
          "internalType": "address payable",
          "name": "account",
          "type": "address"
        }
      ],
      "name": "nTokenBalancesAll",
      "outputs": [
        {
          "components": [
            {
              "internalType": "address",
              "name": "nToken",
              "type": "address"
            },
            {
              "internalType": "uint256",
              "name": "balanceOf",
              "type": "uint256"
            },
            {
              "internalType": "uint256",
              "name": "borrowBalanceCurrent",
              "type": "uint256"
            },
            {
              "internalType": "uint256",
              "name": "balanceOfUnderlying",
              "type": "uint256"
            },
            {
              "internalType": "uint256",
              "name": "tokenBalance",
              "type": "uint256"
            },
            {
              "internalType": "uint256",
              "name": "tokenAllowance",
              "type": "uint256"
            }
          ],
          "internalType": "struct NarwhalLens.NTokenBalances[]",
          "name": "",
          "type": "tuple[]"
        }
      ],
      "payable": false,
      "stateMutability": "nonpayable",
      "type": "function"
    },
    {
      "constant": false,
      "inputs": [
        {
          "internalType": "contract NToken",
          "name": "nToken",
          "type": "address"
        },
        {
          "internalType": "address payable",
          "name": "account",
          "type": "address"
        }
      ],
      "name": "nTokenLiquidateMetadata",
      "outputs": [
        {
          "components": [
            {
              "internalType": "address",
              "name": "NToken",
              "type": "address"
            },
            {
              "internalType": "uint256",
              "name": "balanceOf",
              "type": "uint256"
            },
            {
              "internalType": "uint256",
              "name": "borrowBalanceCurrent",
              "type": "uint256"
            },
            {
              "internalType": "uint256",
              "name": "balanceOfUnderlying",
              "type": "uint256"
            },
            {
              "internalType": "uint256",
              "name": "sourcePrice",
              "type": "uint256"
            },
            {
              "internalType": "uint256",
              "name": "collateralFactorMantissa",
              "type": "uint256"
            },
            {
              "internalType": "bool",
              "name": "collateral",
              "type": "bool"
            }
          ],
          "internalType": "struct NarwhalLens.NTokenLiquidateMetadata",
          "name": "",
          "type": "tuple"
        }
      ],
      "payable": false,
      "stateMutability": "nonpayable",
      "type": "function"
    },
    {
      "constant": false,
      "inputs": [
        {
          "internalType": "contract NToken[]",
          "name": "nTokens",
          "type": "address[]"
        },
        {
          "internalType": "address payable",
          "name": "account",
          "type": "address"
        }
      ],
      "name": "nTokenLiquidateMetadataAll",
      "outputs": [
        {
          "components": [
            {
              "internalType": "address",
              "name": "NToken",
              "type": "address"
            },
            {
              "internalType": "uint256",
              "name": "balanceOf",
              "type": "uint256"
            },
            {
              "internalType": "uint256",
              "name": "borrowBalanceCurrent",
              "type": "uint256"
            },
            {
              "internalType": "uint256",
              "name": "balanceOfUnderlying",
              "type": "uint256"
            },
            {
              "internalType": "uint256",
              "name": "sourcePrice",
              "type": "uint256"
            },
            {
              "internalType": "uint256",
              "name": "collateralFactorMantissa",
              "type": "uint256"
            },
            {
              "internalType": "bool",
              "name": "collateral",
              "type": "bool"
            }
          ],
          "internalType": "struct NarwhalLens.NTokenLiquidateMetadata[]",
          "name": "",
          "type": "tuple[]"
        }
      ],
      "payable": false,
      "stateMutability": "nonpayable",
      "type": "function"
    },
    {
      "constant": false,
      "inputs": [
        {
          "internalType": "contract NToken",
          "name": "nToken",
          "type": "address"
        }
      ],
      "name": "nTokenMetadata",
      "outputs": [
        {
          "components": [
            {
              "internalType": "address",
              "name": "nToken",
              "type": "address"
            },
            {
              "internalType": "uint256",
              "name": "exchangeRateCurrent",
              "type": "uint256"
            },
            {
              "internalType": "uint256",
              "name": "supplyRatePerBlock",
              "type": "uint256"
            },
            {
              "internalType": "uint256",
              "name": "borrowRatePerBlock",
              "type": "uint256"
            },
            {
              "internalType": "uint256",
              "name": "reserveFactorMantissa",
              "type": "uint256"
            },
            {
              "internalType": "uint256",
              "name": "totalBorrows",
              "type": "uint256"
            },
            {
              "internalType": "uint256",
              "name": "totalReserves",
              "type": "uint256"
            },
            {
              "internalType": "uint256",
              "name": "totalSupply",
              "type": "uint256"
            },
            {
              "internalType": "uint256",
              "name": "totalCash",
              "type": "uint256"
            },
            {
              "internalType": "bool",
              "name": "isListed",
              "type": "bool"
            },
            {
              "internalType": "uint256",
              "name": "collateralFactorMantissa",
              "type": "uint256"
            },
            {
              "internalType": "address",
              "name": "underlyingAssetAddress",
              "type": "address"
            },
            {
              "internalType": "uint256",
              "name": "nTokenDecimals",
              "type": "uint256"
            },
            {
              "internalType": "uint256",
              "name": "underlyingDecimals",
              "type": "uint256"
            },
            {
              "internalType": "uint256",
              "name": "narwhalSupplySpeed",
              "type": "uint256"
            },
            {
              "internalType": "uint256",
              "name": "narwhalBorrowSpeed",
              "type": "uint256"
            },
            {
              "internalType": "uint256",
              "name": "dailySupplyNwl",
              "type": "uint256"
            },
            {
              "internalType": "uint256",
              "name": "dailyBorrowNwl",
              "type": "uint256"
            }
          ],
          "internalType": "struct NarwhalLens.NTokenMetadata",
          "name": "",
          "type": "tuple"
        }
      ],
      "payable": false,
      "stateMutability": "nonpayable",
      "type": "function"
    },
    {
      "constant": false,
      "inputs": [
        {
          "internalType": "contract NToken[]",
          "name": "nTokens",
          "type": "address[]"
        }
      ],
      "name": "nTokenMetadataAll",
      "outputs": [
        {
          "components": [
            {
              "internalType": "address",
              "name": "nToken",
              "type": "address"
            },
            {
              "internalType": "uint256",
              "name": "exchangeRateCurrent",
              "type": "uint256"
            },
            {
              "internalType": "uint256",
              "name": "supplyRatePerBlock",
              "type": "uint256"
            },
            {
              "internalType": "uint256",
              "name": "borrowRatePerBlock",
              "type": "uint256"
            },
            {
              "internalType": "uint256",
              "name": "reserveFactorMantissa",
              "type": "uint256"
            },
            {
              "internalType": "uint256",
              "name": "totalBorrows",
              "type": "uint256"
            },
            {
              "internalType": "uint256",
              "name": "totalReserves",
              "type": "uint256"
            },
            {
              "internalType": "uint256",
              "name": "totalSupply",
              "type": "uint256"
            },
            {
              "internalType": "uint256",
              "name": "totalCash",
              "type": "uint256"
            },
            {
              "internalType": "bool",
              "name": "isListed",
              "type": "bool"
            },
            {
              "internalType": "uint256",
              "name": "collateralFactorMantissa",
              "type": "uint256"
            },
            {
              "internalType": "address",
              "name": "underlyingAssetAddress",
              "type": "address"
            },
            {
              "internalType": "uint256",
              "name": "nTokenDecimals",
              "type": "uint256"
            },
            {
              "internalType": "uint256",
              "name": "underlyingDecimals",
              "type": "uint256"
            },
            {
              "internalType": "uint256",
              "name": "narwhalSupplySpeed",
              "type": "uint256"
            },
            {
              "internalType": "uint256",
              "name": "narwhalBorrowSpeed",
              "type": "uint256"
            },
            {
              "internalType": "uint256",
              "name": "dailySupplyNwl",
              "type": "uint256"
            },
            {
              "internalType": "uint256",
              "name": "dailyBorrowNwl",
              "type": "uint256"
            }
          ],
          "internalType": "struct NarwhalLens.NTokenMetadata[]",
          "name": "",
          "type": "tuple[]"
        }
      ],
      "payable": false,
      "stateMutability": "nonpayable",
      "type": "function"
    },
    {
      "constant": true,
      "inputs": [
        {
          "internalType": "contract NToken",
          "name": "nToken",
          "type": "address"
        }
      ],
      "name": "nTokenUnderlyingPrice",
      "outputs": [
        {
          "components": [
            {
              "internalType": "address",
              "name": "nToken",
              "type": "address"
            },
            {
              "internalType": "uint256",
              "name": "underlyingPrice",
              "type": "uint256"
            }
          ],
          "internalType": "struct NarwhalLens.NTokenUnderlyingPrice",
          "name": "",
          "type": "tuple"
        }
      ],
      "payable": false,
      "stateMutability": "view",
      "type": "function"
    },
    {
      "constant": true,
      "inputs": [
        {
          "internalType": "contract NToken[]",
          "name": "nTokens",
          "type": "address[]"
        }
      ],
      "name": "nTokenUnderlyingPriceAll",
      "outputs": [
        {
          "components": [
            {
              "internalType": "address",
              "name": "nToken",
              "type": "address"
            },
            {
              "internalType": "uint256",
              "name": "underlyingPrice",
              "type": "uint256"
            }
          ],
          "internalType": "struct NarwhalLens.NTokenUnderlyingPrice[]",
          "name": "",
          "type": "tuple[]"
        }
      ],
      "payable": false,
      "stateMutability": "view",
      "type": "function"
    },
    {
      "constant": true,
      "inputs": [
        {
          "internalType": "address",
          "name": "holder",
          "type": "address"
        },
        {
          "internalType": "contract ComptrollerInterface",
          "name": "comptroller",
          "type": "address"
        }
      ],
      "name": "pendingNarwhal",
      "outputs": [
        {
          "internalType": "uint256",
          "name": "",
          "type": "uint256"
        }
      ],
      "payable": false,
      "stateMutability": "view",
      "type": "function"
    }
  ],
  "bytecode": "0x608060405234801561001057600080fd5b5061528a806100206000396000f3fe608060405234801561001057600080fd5b506004361061010b5760003560e01c80637dd8f6d9116100a25780639fbd7e04116100715780639fbd7e0414610274578063a6957f1f14610294578063a6e0f2cf146102b4578063cb6dfa35146102d4578063f73c837a146102f45761010b565b80637dd8f6d9146101f45780639699486914610214578063995ed99f146102345780639a928bd3146102545761010b565b80634013b942116100de5780634013b942146101995780636bb987fe146101b957806373dcdb1a146101c15780637a21dcfc146101d45761010b565b80630df126c2146101105780631343cedd146101395780631e38b28414610159578063276ca33b14610179575b600080fd5b61012361011e366004613e9e565b610314565b60405161013091906150b3565b60405180910390f35b61014c6101473660046141a9565b61064d565b604051610130919061507a565b61016c6101673660046140db565b610e96565b60405161013091906150a5565b61018c610187366004614005565b61103f565b6040516101309190614fb9565b6101ac6101a7366004613fc4565b6110e2565b6040516101309190614fec565b61012361117c565b6101236101cf366004613ed8565b611182565b6101e76101e23660046141c7565b6115ab565b6040516101309190614ffd565b6102076102023660046140db565b611703565b604051610130919061504d565b610227610222366004614154565b61185b565b6040516101309190614f97565b6102476102423660046140fa565b611a0e565b6040516101309190614fa8565b610267610262366004613fc4565b611b68565b6040516101309190614fdb565b61028761028236600461422e565b611bf9565b6040516101309190615097565b6102a76102a23660046140db565b611f7f565b604051610130919061505e565b6102c76102c23660046141a9565b61231f565b6040516101309190615089565b6102e76102e23660046140db565b6124b1565b604051610130919061506c565b610307610302366004614005565b612947565b6040516101309190614fca565b6000808290506060816001600160a01b031663b0772d0b6040518163ffffffff1660e01b815260040160006040518083038186803b15801561035557600080fd5b505afa158015610369573d6000803e3d6000fd5b505050506040513d6000823e601f3d908101601f191682016040526103919190810190614059565b90506000805b82518110156106415760008382815181106103ae57fe5b60200260200101519050610452816001600160a01b03166395d89b416040518163ffffffff1660e01b815260040160006040518083038186803b1580156103f457600080fd5b505afa158015610408573d6000803e3d6000fd5b505050506040513d6000823e601f3d908101601f191682016040526104309190810190614271565b604051806040016040528060048152602001631d9554d560e21b8152506129de565b1580156104f757506104f5816001600160a01b03166395d89b416040518163ffffffff1660e01b815260040160006040518083038186803b15801561049657600080fd5b505afa1580156104aa573d6000803e3d6000fd5b505050506040513d6000823e601f3d908101601f191682016040526104d29190810190614271565b60405180604001604052806005815260200164764c554e4160d81b8152506129de565b155b15610638576105046137b1565b61050d8261064d565b9050610517613850565b610521838b611f7f565b905061052b61388f565b6105348461231f565b60208101519091506105446138a6565b60405180602001604052808381525090506000809050600061056a838760600151612a37565b905060006105a1670de0b6b3a76400006105958a602001518b60e00151612a5e90919063ffffffff16565b9063ffffffff612a9816565b905060006105af8583612a37565b905080156105d6576105d381610595858c6102000151612a5e90919063ffffffff16565b93505b600080905060006105eb878b60400151612a37565b905060006105fd888d60a00151612a37565b905080156106245761062181610595848f6102200151612a5e90919063ffffffff16565b92505b8287018f019e505050505050505050505050505b50600101610397565b50925050505b92915050565b6106556137b1565b6000826001600160a01b031663bd6d894d6040518163ffffffff1660e01b8152600401602060405180830381600087803b15801561069257600080fd5b505af11580156106a6573d6000803e3d6000fd5b505050506040513d601f19601f820116820180604052506106ca9190810190614311565b90506000836001600160a01b0316635fe3b5676040518163ffffffff1660e01b815260040160206040518083038186803b15801561070757600080fd5b505afa15801561071b573d6000803e3d6000fd5b505050506040513d601f19601f8201168201806040525061073f91908101906140bd565b604051638e8f294b60e01b8152909150819060009081906001600160a01b03841690638e8f294b90610775908a90600401614f37565b604080518083038186803b15801561078c57600080fd5b505afa1580156107a0573d6000803e3d6000fd5b505050506040513d601f19601f820116820180604052506107c4919081019061408d565b91509150600080610865896001600160a01b03166395d89b416040518163ffffffff1660e01b815260040160006040518083038186803b15801561080757600080fd5b505afa15801561081b573d6000803e3d6000fd5b505050506040513d6000823e601f3d908101601f191682016040526108439190810190614271565b604051806040016040528060048152602001631b91925360e21b8152506129de565b1561087657506000905060126109d6565b6000899050806001600160a01b0316636f307dc36040518163ffffffff1660e01b815260040160206040518083038186803b1580156108b457600080fd5b505afa1580156108c8573d6000803e3d6000fd5b505050506040513d601f19601f820116820180604052506108ec9190810190613e80565b9250806001600160a01b0316636f307dc36040518163ffffffff1660e01b815260040160206040518083038186803b15801561092757600080fd5b505afa15801561093b573d6000803e3d6000fd5b505050506040513d601f19601f8201168201806040525061095f9190810190613e80565b6001600160a01b031663313ce5676040518163ffffffff1660e01b815260040160206040518083038186803b15801561099757600080fd5b505afa1580156109ab573d6000803e3d6000fd5b505050506040513d601f19601f820116820180604052506109cf9190810190614454565b60ff169150505b6040516329ee1bd160e01b81526000906001600160a01b038716906329ee1bd190610a05908d90600401614f37565b60206040518083038186803b158015610a1d57600080fd5b505afa158015610a31573d6000803e3d6000fd5b505050506040513d601f19601f82011682018060405250610a559190810190614311565b90506040518061024001604052808b6001600160a01b031681526020018981526020018b6001600160a01b031663ae9d70b06040518163ffffffff1660e01b815260040160206040518083038186803b158015610ab157600080fd5b505afa158015610ac5573d6000803e3d6000fd5b505050506040513d601f19601f82011682018060405250610ae99190810190614311565b81526020018b6001600160a01b031663f8f9da286040518163ffffffff1660e01b815260040160206040518083038186803b158015610b2757600080fd5b505afa158015610b3b573d6000803e3d6000fd5b505050506040513d601f19601f82011682018060405250610b5f9190810190614311565b81526020018b6001600160a01b031663173b99046040518163ffffffff1660e01b815260040160206040518083038186803b158015610b9d57600080fd5b505afa158015610bb1573d6000803e3d6000fd5b505050506040513d601f19601f82011682018060405250610bd59190810190614311565b81526020018b6001600160a01b03166347bd37186040518163ffffffff1660e01b815260040160206040518083038186803b158015610c1357600080fd5b505afa158015610c27573d6000803e3d6000fd5b505050506040513d601f19601f82011682018060405250610c4b9190810190614311565b81526020018b6001600160a01b0316638f840ddd6040518163ffffffff1660e01b815260040160206040518083038186803b158015610c8957600080fd5b505afa158015610c9d573d6000803e3d6000fd5b505050506040513d601f19601f82011682018060405250610cc19190810190614311565b81526020018b6001600160a01b03166318160ddd6040518163ffffffff1660e01b815260040160206040518083038186803b158015610cff57600080fd5b505afa158015610d13573d6000803e3d6000fd5b505050506040513d601f19601f82011682018060405250610d379190810190614311565b81526020018b6001600160a01b0316633b1d21a26040518163ffffffff1660e01b815260040160206040518083038186803b158015610d7557600080fd5b505afa158015610d89573d6000803e3d6000fd5b505050506040513d601f19601f82011682018060405250610dad9190810190614311565b81526020018615158152602001858152602001846001600160a01b031681526020018b6001600160a01b031663313ce5676040518163ffffffff1660e01b815260040160206040518083038186803b158015610e0857600080fd5b505afa158015610e1c573d6000803e3d6000fd5b505050506040513d601f19601f82011682018060405250610e409190810190614454565b60ff168152602001838152602001828152602001828152602001610e6f61708084612a5e90919063ffffffff16565b8152602001610e868361708063ffffffff612a5e16565b90529a9950505050505050505050565b610e9e6138b9565b6040805160608101918290526370a0823160e01b909152806001600160a01b0385166370a08231610ed28660648501614f37565b60206040518083038186803b158015610eea57600080fd5b505afa158015610efe573d6000803e3d6000fd5b505050506040513d601f19601f82011682018060405250610f229190810190614311565b8152602001846001600160a01b031663b4b5ea57856040518263ffffffff1660e01b8152600401610f539190614f37565b60206040518083038186803b158015610f6b57600080fd5b505afa158015610f7f573d6000803e3d6000fd5b505050506040513d601f19601f82011682018060405250610fa39190810190614472565b6001600160601b03168152602001846001600160a01b031663587cde1e856040518263ffffffff1660e01b8152600401610fdd9190614f37565b60206040518083038186803b158015610ff557600080fd5b505afa158015611009573d6000803e3d6000fd5b505050506040513d601f19601f8201168201806040525061102d9190810190613e80565b6001600160a01b031690529392505050565b6040805183815260208085028201019091526060908390829082801561107f57816020015b61106c613850565b8152602001906001900390816110645790505b50905060005b828110156110d6576110b787878381811061109c57fe5b90506020020160206110b191908101906141a9565b86611f7f565b8282815181106110c357fe5b6020908102919091010152600101611085565b509150505b9392505050565b6040805182815260208084028201019091526060908290829082801561112257816020015b61110f61388f565b8152602001906001900390816111075790505b50905060005b828110156111735761115486868381811061113f57fe5b90506020020160206102c291908101906141a9565b82828151811061116057fe5b6020908102919091010152600101611128565b50949350505050565b61708081565b60006060826001600160a01b031663b0772d0b6040518163ffffffff1660e01b815260040160006040518083038186803b1580156111bf57600080fd5b505afa1580156111d3573d6000803e3d6000fd5b505050506040513d6000823e601f3d908101601f191682016040526111fb9190810190614059565b90506112056138e3565b60005b825181101561151a57846001600160a01b0316632e70baa384838151811061122c57fe5b60200260200101516040518263ffffffff1660e01b81526004016112509190614f37565b604080518083038186803b15801561126757600080fd5b505afa15801561127b573d6000803e3d6000fd5b505050506040513d601f19601f8201168201806040525061129f91908101906142e1565b63ffffffff1660408401526001600160e01b031660208301526112c061388f565b604051806040016040528084602001516001600160e01b03168152602001846040015163ffffffff168152509050856001600160a01b031663c89c35ec85848151811061130957fe5b60200260200101516040518263ffffffff1660e01b815260040161132d9190614f37565b604080518083038186803b15801561134457600080fd5b505afa158015611358573d6000803e3d6000fd5b505050506040513d601f19601f8201168201806040525061137c91908101906142e1565b63ffffffff1660808501526001600160e01b0316606084015261139d61388f565b506040805180820190915260608401516001600160e01b03168152608084015163ffffffff1660208201526113d06138a6565b60405180602001604052808786815181106113e757fe5b60200260200101516001600160a01b031663aa5af0fd6040518163ffffffff1660e01b815260040160206040518083038186803b15801561142757600080fd5b505afa15801561143b573d6000803e3d6000fd5b505050506040513d601f19601f8201168201806040525061145f9190810190614311565b81525090506114838387868151811061147457fe5b6020026020010151838b612ada565b60006114a58488878151811061149557fe5b60200260200101518c858d612d5a565b90506114b5866000015182612eda565b865286516114d99084908990889081106114cb57fe5b60200260200101518b612f10565b6114f8838887815181106114e957fe5b60200260200101518c8c613186565b9050611508866000015182612eda565b86525050600190920191506112089050565b50604051630b30841160e11b81526115a2906001600160a01b0386169063166108229061154b908990600401614f37565b60206040518083038186803b15801561156357600080fd5b505afa158015611577573d6000803e3d6000fd5b505050506040513d601f19601f8201168201806040525061159b9190810190614311565b8251612eda565b95945050505050565b606080838390506040519080825280602002602001820160405280156115eb57816020015b6115d8613911565b8152602001906001900390816115d05790505b50905060005b838110156116f957604051806040016040528086868481811061161057fe5b90506020020160206116259190810190614436565b63ffffffff168152602001886001600160a01b031663782d6fe18989898781811061164c57fe5b90506020020160206116619190810190614436565b6040518363ffffffff1660e01b815260040161167e929190614f7c565b60206040518083038186803b15801561169657600080fd5b505afa1580156116aa573d6000803e3d6000fd5b505050506040513d601f19601f820116820180604052506116ce9190810190614472565b6001600160601b03168152508282815181106116e657fe5b60209081029190910101526001016115f1565b5095945050505050565b61170b61392b565b6000806000856001600160a01b0316635ec88c79866040518263ffffffff1660e01b815260040161173c9190614f37565b60606040518083038186803b15801561175457600080fd5b505afa158015611768573d6000803e3d6000fd5b505050506040513d601f19601f8201168201806040525061178c91908101906143f3565b925092509250826000146117bb5760405162461bcd60e51b81526004016117b29061502d565b60405180910390fd5b604080516060810191829052632aff3bff60e21b909152806001600160a01b03881663abfceffc6117ef8960648501614f37565b60006040518083038186803b15801561180757600080fd5b505afa15801561181b573d6000803e3d6000fd5b505050506040513d6000823e601f3d908101601f191682016040526118439190810190614059565b81526020810193909352604090920152949350505050565b6060808383905060405190808252806020026020018201604052801561189b57816020015b61188861394c565b8152602001906001900390816118805790505b50905060005b8381101561117357606080606080896001600160a01b031663328dd9828a8a888181106118ca57fe5b905060200201356040518263ffffffff1660e01b81526004016118ed91906150b3565b60006040518083038186803b15801561190557600080fd5b505afa158015611919573d6000803e3d6000fd5b505050506040513d6000823e601f3d908101601f191682016040526119419190810190613f08565b9350935093509350604051806101a001604052806000815260200160006001600160a01b031681526020016000815260200185815260200184815260200183815260200182815260200160008152602001600081526020016000815260200160008152602001600015158152602001600015158152508686815181106119c357fe5b60200260200101819052506119fe8686815181106119dd57fe5b60200260200101518b8b8b898181106119f257fe5b9050602002013561337a565b5050600190920191506118a19050565b6060600082519050606081604051908082528060200260200182016040528015611a5257816020015b611a3f6139c1565b815260200190600190039081611a375790505b50905060005b828110156110d657611a686139e8565b876001600160a01b031663e23a9a52878481518110611a8357fe5b6020026020010151896040518363ffffffff1660e01b8152600401611aa99291906150c1565b60606040518083038186803b158015611ac157600080fd5b505afa158015611ad5573d6000803e3d6000fd5b505050506040513d601f19601f82011682018060405250611af991908101906142a5565b90506040518060800160405280878481518110611b1257fe5b6020026020010151815260200182600001511515815260200182602001511515815260200182604001516001600160601b0316815250838381518110611b5457fe5b602090810291909101015250600101611a58565b60408051828152602080840282010190915260609082908290828015611ba857816020015b611b956137b1565b815260200190600190039081611b8d5790505b50905060005b8281101561117357611bda868683818110611bc557fe5b905060200201602061014791908101906141a9565b828281518110611be657fe5b6020908102919091010152600101611bae565b611c01613a08565b6040516370a0823160e01b81526000906001600160a01b038616906370a0823190611c30908690600401614f37565b60206040518083038186803b158015611c4857600080fd5b505afa158015611c5c573d6000803e3d6000fd5b505050506040513d601f19601f82011682018060405250611c809190810190614311565b604051635082375160e01b81529091506001600160a01b03851690635082375190611caf908690600401614f37565b600060405180830381600087803b158015611cc957600080fd5b505af1158015611cdd573d6000803e3d6000fd5b50506040516370a0823160e01b8152600092506001600160a01b03881691506370a0823190611d10908790600401614f37565b60206040518083038186803b158015611d2857600080fd5b505afa158015611d3c573d6000803e3d6000fd5b505050506040513d601f19601f82011682018060405250611d609190810190614311565b90506000856001600160a01b03166316610822866040518263ffffffff1660e01b8152600401611d909190614f37565b60206040518083038186803b158015611da857600080fd5b505afa158015611dbc573d6000803e3d6000fd5b505050506040513d601f19601f82011682018060405250611de09190810190614311565b90506000611e1482846040518060400160405280600d81526020016c1cdd5b481b9ddb081d1bdd185b609a1b8152506134a0565b90506000611e4882866040518060400160405280600d81526020016c1cdd5888185b1b1bd8d85d1959609a1b8152506134c7565b905060405180608001604052808681526020018a6001600160a01b031663b4b5ea578a6040518263ffffffff1660e01b8152600401611e879190614f37565b60206040518083038186803b158015611e9f57600080fd5b505afa158015611eb3573d6000803e3d6000fd5b505050506040513d601f19601f82011682018060405250611ed79190810190614472565b6001600160601b031681526020018a6001600160a01b031663587cde1e8a6040518263ffffffff1660e01b8152600401611f119190614f37565b60206040518083038186803b158015611f2957600080fd5b505afa158015611f3d573d6000803e3d6000fd5b505050506040513d601f19601f82011682018060405250611f619190810190613e80565b6001600160a01b031681526020019190915298975050505050505050565b611f87613850565b6040516370a0823160e01b81526000906001600160a01b038516906370a0823190611fb6908690600401614f45565b60206040518083038186803b158015611fce57600080fd5b505afa158015611fe2573d6000803e3d6000fd5b505050506040513d601f19601f820116820180604052506120069190810190614311565b90506000846001600160a01b03166317bfdfbc856040518263ffffffff1660e01b81526004016120369190614f45565b602060405180830381600087803b15801561205057600080fd5b505af1158015612064573d6000803e3d6000fd5b505050506040513d601f19601f820116820180604052506120889190810190614311565b90506000856001600160a01b0316633af9e669866040518263ffffffff1660e01b81526004016120b89190614f45565b602060405180830381600087803b1580156120d257600080fd5b505af11580156120e6573d6000803e3d6000fd5b505050506040513d601f19601f8201168201806040525061210a9190810190614311565b905060008061214b886001600160a01b03166395d89b416040518163ffffffff1660e01b815260040160006040518083038186803b15801561080757600080fd5b156121655750506001600160a01b038516803190316122e2565b60008890506000816001600160a01b0316636f307dc36040518163ffffffff1660e01b815260040160206040518083038186803b1580156121a557600080fd5b505afa1580156121b9573d6000803e3d6000fd5b505050506040513d601f19601f820116820180604052506121dd9190810190613e80565b6040516370a0823160e01b81529091506001600160a01b038216906370a082319061220c908c90600401614f45565b60206040518083038186803b15801561222457600080fd5b505afa158015612238573d6000803e3d6000fd5b505050506040513d601f19601f8201168201806040525061225c9190810190614311565b604051636eb1769f60e11b81529094506001600160a01b0382169063dd62ed3e9061228d908c908e90600401614f53565b60206040518083038186803b1580156122a557600080fd5b505afa1580156122b9573d6000803e3d6000fd5b505050506040513d601f19601f820116820180604052506122dd9190810190614311565b925050505b6040805160c0810182526001600160a01b039990991689526020890195909552938701929092526060860152608085015260a08401525090919050565b61232761388f565b6000826001600160a01b0316635fe3b5676040518163ffffffff1660e01b815260040160206040518083038186803b15801561236257600080fd5b505afa158015612376573d6000803e3d6000fd5b505050506040513d601f19601f8201168201806040525061239a91908101906140bd565b90506000816001600160a01b0316637dc0d1d06040518163ffffffff1660e01b815260040160206040518083038186803b1580156123d757600080fd5b505afa1580156123eb573d6000803e3d6000fd5b505050506040513d601f19601f8201168201806040525061240f91908101906140bd565b90506040518060400160405280856001600160a01b03168152602001826001600160a01b031663fc57d4df876040518263ffffffff1660e01b8152600401612457919061500e565b60206040518083038186803b15801561246f57600080fd5b505afa158015612483573d6000803e3d6000fd5b505050506040513d601f19601f820116820180604052506124a79190810190614311565b9052949350505050565b6124b9613a39565b6040516370a0823160e01b81526000906001600160a01b038516906370a08231906124e8908690600401614f45565b60206040518083038186803b15801561250057600080fd5b505afa158015612514573d6000803e3d6000fd5b505050506040513d601f19601f820116820180604052506125389190810190614311565b90506000846001600160a01b03166317bfdfbc856040518263ffffffff1660e01b81526004016125689190614f45565b602060405180830381600087803b15801561258257600080fd5b505af1158015612596573d6000803e3d6000fd5b505050506040513d601f19601f820116820180604052506125ba9190810190614311565b90506000856001600160a01b0316633af9e669866040518263ffffffff1660e01b81526004016125ea9190614f45565b602060405180830381600087803b15801561260457600080fd5b505af1158015612618573d6000803e3d6000fd5b505050506040513d601f19601f8201168201806040525061263c9190810190614311565b90506000866001600160a01b0316635fe3b5676040518163ffffffff1660e01b815260040160206040518083038186803b15801561267957600080fd5b505afa15801561268d573d6000803e3d6000fd5b505050506040513d601f19601f820116820180604052506126b191908101906140bd565b90506000816001600160a01b0316637dc0d1d06040518163ffffffff1660e01b815260040160206040518083038186803b1580156126ee57600080fd5b505afa158015612702573d6000803e3d6000fd5b505050506040513d601f19601f8201168201806040525061272691908101906140bd565b90506000826001600160a01b0316638e8f294b8a6040518263ffffffff1660e01b81526004016127569190614f37565b604080518083038186803b15801561276d57600080fd5b505afa158015612781573d6000803e3d6000fd5b505050506040513d601f19601f820116820180604052506127a5919081019061408d565b9150506000826001600160a01b031663fc57d4df8b6040518263ffffffff1660e01b81526004016127d6919061500e565b60206040518083038186803b1580156127ee57600080fd5b505afa158015612802573d6000803e3d6000fd5b505050506040513d601f19601f820116820180604052506128269190810190614311565b604051632aff3bff60e21b81529091506000906060906001600160a01b0387169063abfceffc9061285b908e90600401614f45565b60006040518083038186803b15801561287357600080fd5b505afa158015612887573d6000803e3d6000fd5b505050506040513d6000823e601f3d908101601f191682016040526128af9190810190614059565b905060005b81518110156128fb578181815181106128c957fe5b60200260200101516001600160a01b03168d6001600160a01b031614156128f357600192506128fb565b6001016128b4565b50506040805160e0810182526001600160a01b038d168152602081019990995288019690965260608701949094526080860193909352505060a0830152151560c0820152905092915050565b6040805183815260208085028201019091526060908390829082801561298757816020015b612974613a39565b81526020019060019003908161296c5790505b50905060005b828110156110d6576129bf8787838181106129a457fe5b90506020020160206129b991908101906141a9565b866124b1565b8282815181106129cb57fe5b602090810291909101015260010161298d565b6000816040516020016129f19190614f2b565b6040516020818303038152906040528051906020012083604051602001612a189190614f2b565b6040516020818303038152906040528051906020012014905092915050565b6000612a416138a6565b612a4b84846134f3565b9050612a568161351d565b949350505050565b600082612a6d57506000610647565b82820282848281612a7a57fe5b04146110db5760405162461bcd60e51b81526004016117b29061503d565b60006110db83836040518060400160405280601a81526020017f536166654d6174683a206469766973696f6e206279207a65726f00000000000081525061352c565b6040516329ee1bd160e01b81526000906001600160a01b038316906329ee1bd190612b09908790600401614f37565b60206040518083038186803b158015612b2157600080fd5b505afa158015612b35573d6000803e3d6000fd5b505050506040513d601f19601f82011682018060405250612b599190810190614311565b905060004390506000612b7682886020015163ffffffff16613563565b9050600081118015612b885750600083115b15612d07576000612c09876001600160a01b03166347bd37186040518163ffffffff1660e01b815260040160206040518083038186803b158015612bcb57600080fd5b505afa158015612bdf573d6000803e3d6000fd5b505050506040513d601f19601f82011682018060405250612c039190810190614311565b8761359d565b90506000612c1783866135bb565b9050612c216138a6565b60008311612c3e5760405180602001604052806000815250612c48565b612c4882846135fd565b9050612c526138a6565b60408051602081019091528b516001600160e01b03168152612c749083613632565b9050612caf8160000151604051806040016040528060138152602001726e657720696e646578206f766572666c6f777360681b815250613657565b6001600160e01b03168b52604080518082019091526016815275626c6f636b206e756d626572206f766572666c6f777360501b6020820152612cf2908790613686565b63ffffffff1660208c015250612d5192505050565b8015612d5157612d458260405180604001604052806016815260200175626c6f636b206e756d626572206f766572666c6f777360501b815250613686565b63ffffffff1660208801525b50505050505050565b6000612d646138a6565b50604080516020810190915286516001600160e01b03168152612d856138a6565b6040805160208101918290526318520f4360e01b909152806001600160a01b0386166318520f43612dba8b8b60248601614f6e565b60206040518083038186803b158015612dd257600080fd5b505afa158015612de6573d6000803e3d6000fd5b505050506040513d601f19601f82011682018060405250612e0a9190810190614311565b9052805190915015612ecc57612e1e6138a6565b612e2883836136ae565b90506000612eb1896001600160a01b03166395dd91938a6040518263ffffffff1660e01b8152600401612e5b9190614f37565b60206040518083038186803b158015612e7357600080fd5b505afa158015612e87573d6000803e3d6000fd5b505050506040513d601f19601f82011682018060405250612eab9190810190614311565b8861359d565b90506000612ebf82846136d3565b95506115a2945050505050565b506000979650505050505050565b60006110db8383604051806040016040528060118152602001706164646974696f6e206f766572666c6f7760781b8152506134a0565b6040516329ee1bd160e01b81526000906001600160a01b038316906329ee1bd190612f3f908690600401614f37565b60206040518083038186803b158015612f5757600080fd5b505afa158015612f6b573d6000803e3d6000fd5b505050506040513d601f19601f82011682018060405250612f8f9190810190614311565b905060004390506000612fac82876020015163ffffffff16613563565b9050600081118015612fbe5750600083115b15613134576000856001600160a01b03166318160ddd6040518163ffffffff1660e01b815260040160206040518083038186803b158015612ffe57600080fd5b505afa158015613012573d6000803e3d6000fd5b505050506040513d601f19601f820116820180604052506130369190810190614311565b9050600061304483866135bb565b905061304e6138a6565b6000831161306b5760405180602001604052806000815250613075565b61307582846135fd565b905061307f6138a6565b60408051602081019091528a516001600160e01b031681526130a19083613632565b90506130dc8160000151604051806040016040528060138152602001726e657720696e646578206f766572666c6f777360681b815250613657565b6001600160e01b03168a52604080518082019091526016815275626c6f636b206e756d626572206f766572666c6f777360501b602082015261311f908790613686565b63ffffffff1660208b01525061317e92505050565b801561317e576131728260405180604001604052806016815260200175626c6f636b206e756d626572206f766572666c6f777360501b815250613686565b63ffffffff1660208701525b505050505050565b60006131906138a6565b50604080516020810190915285516001600160e01b031681526131b16138a6565b604080516020810191829052637818ad9160e11b909152806001600160a01b03861663f0315b226131e68a8a60248601614f6e565b60206040518083038186803b1580156131fe57600080fd5b505afa158015613212573d6000803e3d6000fd5b505050506040513d601f19601f820116820180604052506132369190810190614311565b9052805190915015801561324a5750815115155b156132cc57836001600160a01b031663ce01089f6040518163ffffffff1660e01b815260040160206040518083038186803b15801561328857600080fd5b505afa15801561329c573d6000803e3d6000fd5b505050506040513d601f19601f820116820180604052506132c091908101906142c3565b6001600160e01b031681525b6132d46138a6565b6132de83836136ae565b90506000876001600160a01b03166370a08231886040518263ffffffff1660e01b815260040161330e9190614f37565b60206040518083038186803b15801561332657600080fd5b505afa15801561333a573d6000803e3d6000fd5b505050506040513d601f19601f8201168201806040525061335e9190810190614311565b9050600061336c82846136d3565b9a9950505050505050505050565b600080600080600080600080896001600160a01b031663013cf08b8a6040518263ffffffff1660e01b81526004016133b291906150b3565b6101206040518083038186803b1580156133cb57600080fd5b505afa1580156133df573d6000803e3d6000fd5b505050506040513d601f19601f82011682018060405250613403919081019061432f565b9850985098509850985098509850985050888b6000018181525050878b602001906001600160a01b031690816001600160a01b031681525050868b6040018181525050858b60e0018181525050848b610100018181525050838b610120018181525050828b610140018181525050818b610160019015159081151581525050808b6101800190151590811515815250505050505050505050505050565b600083830182858210156111735760405162461bcd60e51b81526004016117b2919061501c565b600081848411156134eb5760405162461bcd60e51b81526004016117b2919061501c565b505050900390565b6134fb6138a6565b60405180602001604052806135148560000151856135bb565b90529392505050565b51670de0b6b3a7640000900490565b6000818361354d5760405162461bcd60e51b81526004016117b2919061501c565b50600083858161355957fe5b0495945050505050565b60006110db8383604051806040016040528060158152602001747375627472616374696f6e20756e646572666c6f7760581b8152506134c7565b60006110db6135b484670de0b6b3a76400006135bb565b8351613702565b60006110db83836040518060400160405280601781526020017f6d756c7469706c69636174696f6e206f766572666c6f77000000000000000000815250613735565b6136056138a6565b604051806020016040528061351461362c866ec097ce7bc90715b34b9f10000000006135bb565b85613702565b61363a6138a6565b604051806020016040528061351485600001518560000151612eda565b600081600160e01b841061367e5760405162461bcd60e51b81526004016117b2919061501c565b509192915050565b600081640100000000841061367e5760405162461bcd60e51b81526004016117b2919061501c565b6136b66138a6565b604051806020016040528061351485600001518560000151613563565b60006ec097ce7bc90715b34b9f10000000006136f38484600001516135bb565b816136fa57fe5b049392505050565b60006110db83836040518060400160405280600e81526020016d646976696465206279207a65726f60901b81525061377d565b6000831580613742575082155b1561374f575060006110db565b8383028385828161375c57fe5b041483906111735760405162461bcd60e51b81526004016117b2919061501c565b6000818361379e5760405162461bcd60e51b81526004016117b2919061501c565b508284816137a857fe5b04949350505050565b60405180610240016040528060006001600160a01b0316815260200160008152602001600081526020016000815260200160008152602001600081526020016000815260200160008152602001600081526020016000151581526020016000815260200160006001600160a01b031681526020016000815260200160008152602001600081526020016000815260200160008152602001600081525090565b6040518060c0016040528060006001600160a01b0316815260200160008152602001600081526020016000815260200160008152602001600081525090565b604080518082019091526000808252602082015290565b6040518060200160405280600081525090565b6040518060600160405280600081526020016000815260200160006001600160a01b031681525090565b6040805160a08101825260008082526020820181905291810182905260608101829052608081019190915290565b604051806040016040528060008152602001600081525090565b60405180606001604052806060815260200160008152602001600081525090565b604051806101a001604052806000815260200160006001600160a01b031681526020016000815260200160608152602001606081526020016060815260200160608152602001600081526020016000815260200160008152602001600081526020016000151581526020016000151581525090565b60408051608081018252600080825260208201819052918101829052606081019190915290565b604080516060810182526000808252602082018190529181019190915290565b6040518060800160405280600081526020016000815260200160006001600160a01b03168152602001600081525090565b6040518060e0016040528060006001600160a01b0316815260200160008152602001600081526020016000815260200160008152602001600081526020016000151581525090565b8035610647816151f1565b8051610647816151f1565b600082601f830112613aa857600080fd5b8151613abb613ab6826150f5565b6150cf565b91508181835260208401935060208101905083856020840282011115613ae057600080fd5b60005b83811015613b0c5781613af68882613a8c565b8452506020928301929190910190600101613ae3565b5050505092915050565b600082601f830112613b2757600080fd5b8151613b35613ab6826150f5565b81815260209384019390925082018360005b83811015613b0c5781518601613b5d8882613d73565b8452506020928301929190910190600101613b47565b60008083601f840112613b8557600080fd5b5081356001600160401b03811115613b9c57600080fd5b602083019150836020820283011115613bb457600080fd5b9250929050565b600082601f830112613bcc57600080fd5b8151613bda613ab6826150f5565b91508181835260208401935060208101905083856020840282011115613bff57600080fd5b60005b83811015613b0c5781613c158882613dcd565b8452506020928301929190910190600101613c02565b600082601f830112613c3c57600080fd5b8151613c4a613ab6826150f5565b81815260209384019390925082018360005b83811015613b0c5781518601613c728882613d73565b8452506020928301929190910190600101613c5c565b600082601f830112613c9957600080fd5b8135613ca7613ab6826150f5565b91508181835260208401935060208101905083856020840282011115613ccc57600080fd5b60005b83811015613b0c5781613ce28882613e3e565b8452506020928301929190910190600101613ccf565b600082601f830112613d0957600080fd5b8151613d17613ab6826150f5565b91508181835260208401935060208101905083856020840282011115613d3c57600080fd5b60005b83811015613b0c5781613d528882613e49565b8452506020928301929190910190600101613d3f565b805161064781615208565b600082601f830112613d8457600080fd5b8151613d92613ab682615115565b91508082526020830160208301858383011115613dae57600080fd5b613db98382846151bb565b50505092915050565b803561064781615211565b805161064781615211565b600060608284031215613dea57600080fd5b613df460606150cf565b90506000613e028484613d68565b8252506020613e1384848301613d68565b6020830152506040613e2784828501613e75565b60408301525092915050565b80516106478161521a565b803561064781615223565b805161064781615223565b80356106478161522c565b80516106478161522c565b805161064781615235565b80516106478161523e565b600060208284031215613e9257600080fd5b6000612a568484613a8c565b60008060408385031215613eb157600080fd5b6000613ebd8585613a81565b9250506020613ece85828601613a81565b9150509250929050565b60008060408385031215613eeb57600080fd5b6000613ef78585613a81565b9250506020613ece85828601613dc2565b60008060008060808587031215613f1e57600080fd5b84516001600160401b03811115613f3457600080fd5b613f4087828801613a97565b94505060208501516001600160401b03811115613f5c57600080fd5b613f6887828801613cf8565b93505060408501516001600160401b03811115613f8457600080fd5b613f9087828801613c2b565b92505060608501516001600160401b03811115613fac57600080fd5b613fb887828801613b16565b91505092959194509250565b60008060208385031215613fd757600080fd5b82356001600160401b03811115613fed57600080fd5b613ff985828601613b73565b92509250509250929050565b60008060006040848603121561401a57600080fd5b83356001600160401b0381111561403057600080fd5b61403c86828701613b73565b9350935050602061404f86828701613a81565b9150509250925092565b60006020828403121561406b57600080fd5b81516001600160401b0381111561408157600080fd5b612a5684828501613bbb565b600080604083850312156140a057600080fd5b60006140ac8585613d68565b9250506020613ece85828601613e49565b6000602082840312156140cf57600080fd5b6000612a568484613dcd565b600080604083850312156140ee57600080fd5b6000613ebd8585613dc2565b60008060006060848603121561410f57600080fd5b600061411b8686613dc2565b935050602061412c86828701613a81565b92505060408401356001600160401b0381111561414857600080fd5b61404f86828701613c88565b60008060006040848603121561416957600080fd5b60006141758686613dc2565b93505060208401356001600160401b0381111561419157600080fd5b61419d86828701613b73565b92509250509250925092565b6000602082840312156141bb57600080fd5b6000612a568484613dc2565b600080600080606085870312156141dd57600080fd5b60006141e98787613dc2565b94505060206141fa87828801613a81565b93505060408501356001600160401b0381111561421657600080fd5b61422287828801613b73565b95989497509550505050565b60008060006060848603121561424357600080fd5b600061424f8686613dc2565b935050602061426086828701613dc2565b925050604061404f86828701613a81565b60006020828403121561428357600080fd5b81516001600160401b0381111561429957600080fd5b612a5684828501613d73565b6000606082840312156142b757600080fd5b6000612a568484613dd8565b6000602082840312156142d557600080fd5b6000612a568484613e33565b600080604083850312156142f457600080fd5b60006143008585613e33565b9250506020613ece85828601613e5f565b60006020828403121561432357600080fd5b6000612a568484613e49565b60008060008060008060008060006101208a8c03121561434e57600080fd5b600061435a8c8c613e49565b995050602061436b8c828d01613a8c565b985050604061437c8c828d01613e49565b975050606061438d8c828d01613e49565b965050608061439e8c828d01613e49565b95505060a06143af8c828d01613e49565b94505060c06143c08c828d01613e49565b93505060e06143d18c828d01613d68565b9250506101006143e38c828d01613d68565b9150509295985092959850929598565b60008060006060848603121561440857600080fd5b60006144148686613e49565b935050602061442586828701613e49565b925050604061404f86828701613e49565b60006020828403121561444857600080fd5b6000612a568484613e54565b60006020828403121561446657600080fd5b6000612a568484613e6a565b60006020828403121561448457600080fd5b6000612a568484613e75565b600061449c8383614554565b505060200190565b60006110db838361495f565b600061449c8383614997565b60006110db8383614a93565b60006144d48383614bb2565b505060800190565b60006144e88383614c02565b505060c00190565b60006144fc8383614c72565b505060e00190565b60006145108383614cf5565b50506102400190565b60006145258383614e5e565b505060400190565b60006145258383614f03565b600061449c8383614f10565b61454e816151a5565b82525050565b61454e81615154565b600061456882615142565b6145728185615146565b935061457d8361513c565b8060005b838110156145ab5781516145958882614490565b97506145a08361513c565b925050600101614581565b509495945050505050565b60006145c182615142565b6145cb8185615146565b9350836020820285016145dd8561513c565b8060005b8581101561461757848403895281516145fa85826144a4565b94506146058361513c565b60209a909a01999250506001016145e1565b5091979650505050505050565b600061462f82615142565b6146398185615146565b93506146448361513c565b8060005b838110156145ab57815161465c88826144b0565b97506146678361513c565b925050600101614648565b600061467d82615142565b6146878185615146565b9350836020820285016146998561513c565b8060005b8581101561461757848403895281516146b685826144a4565b94506146c18361513c565b60209a909a019992505060010161469d565b60006146de82615142565b6146e88185615146565b9350836020820285016146fa8561513c565b8060005b85811015614617578484038952815161471785826144bc565b94506147228361513c565b60209a909a01999250506001016146fe565b600061473f82615142565b6147498185615146565b93506147548361513c565b8060005b838110156145ab57815161476c88826144c8565b97506147778361513c565b925050600101614758565b600061478d82615142565b6147978185615146565b93506147a28361513c565b8060005b838110156145ab5781516147ba88826144dc565b97506147c58361513c565b9250506001016147a6565b60006147db82615142565b6147e58185615146565b93506147f08361513c565b8060005b838110156145ab57815161480888826144f0565b97506148138361513c565b9250506001016147f4565b600061482982615142565b6148338185615146565b935061483e8361513c565b8060005b838110156145ab5781516148568882614504565b97506148618361513c565b925050600101614842565b600061487782615142565b6148818185615146565b935061488c8361513c565b8060005b838110156145ab5781516148a48882614519565b97506148af8361513c565b925050600101614890565b60006148c582615142565b6148cf8185615146565b93506148da8361513c565b8060005b838110156145ab5781516148f2888261452d565b97506148fd8361513c565b9250506001016148de565b600061491382615142565b61491d8185615146565b93506149288361513c565b8060005b838110156145ab5781516149408882614539565b975061494b8361513c565b92505060010161492c565b61454e8161515f565b600061496a82615142565b6149748185615146565b93506149848185602086016151bb565b61498d816151e7565b9093019392505050565b61454e81615164565b60006149ab82615142565b6149b5818561514f565b93506149c58185602086016151bb565b9290920192915050565b60006149dc601783615146565b7f6163636f756e74206c6971756964697479206572726f72000000000000000000815260200192915050565b6000614a15602183615146565b7f536166654d6174683a206d756c7469706c69636174696f6e206f766572666c6f8152607760f81b602082015260400192915050565b8051606080845260009190840190614a638282614624565b9150506020830151614a786020860182614f10565b506040830151614a8b6040860182614f10565b509392505050565b80516000906101a0840190614aa88582614f10565b506020830151614abb6020860182614554565b506040830151614ace6040860182614f10565b5060608301518482036060860152614ae6828261455d565b91505060808301518482036080860152614b008282614908565b91505060a083015184820360a0860152614b1a8282614672565b91505060c083015184820360c0860152614b3482826145b6565b91505060e0830151614b4960e0860182614f10565b50610100830151614b5e610100860182614f10565b50610120830151614b73610120860182614f10565b50610140830151614b88610140860182614f10565b50610160830151614b9d610160860182614956565b50610180830151614a8b610180860182614956565b80516080830190614bc38482614f10565b506020820151614bd66020850182614956565b506040820151614be96040850182614956565b506060820151614bfc6060850182614f22565b50505050565b805160c0830190614c138482614554565b506020820151614c266020850182614f10565b506040820151614c396040850182614f10565b506060820151614c4c6060850182614f10565b506080820151614c5f6080850182614f10565b5060a0820151614bfc60a0850182614f10565b805160e0830190614c838482614554565b506020820151614c966020850182614f10565b506040820151614ca96040850182614f10565b506060820151614cbc6060850182614f10565b506080820151614ccf6080850182614f10565b5060a0820151614ce260a0850182614f10565b5060c0820151614bfc60c0850182614956565b8051610240830190614d078482614554565b506020820151614d1a6020850182614f10565b506040820151614d2d6040850182614f10565b506060820151614d406060850182614f10565b506080820151614d536080850182614f10565b5060a0820151614d6660a0850182614f10565b5060c0820151614d7960c0850182614f10565b5060e0820151614d8c60e0850182614f10565b50610100820151614da1610100850182614f10565b50610120820151614db6610120850182614956565b50610140820151614dcb610140850182614f10565b50610160820151614de0610160850182614554565b50610180820151614df5610180850182614f10565b506101a0820151614e0a6101a0850182614f10565b506101c0820151614e1f6101c0850182614f10565b506101e0820151614e346101e0850182614f10565b50610200820151614e49610200850182614f10565b50610220820151614bfc610220850182614f10565b80516040830190614e6f8482614554565b506020820151614bfc6020850182614f10565b80516080830190614e938482614f10565b506020820151614ea66020850182614f10565b506040820151614eb96040850182614554565b506060820151614bfc6060850182614f10565b80516060830190614edd8482614f10565b506020820151614ef06020850182614f10565b506040820151614bfc6040850182614554565b80516040830190614e6f84825b61454e81615187565b61454e816151b0565b61454e81615199565b60006110db82846149a0565b602081016106478284614554565b602081016106478284614545565b60408101614f618285614545565b6110db6020830184614554565b60408101614f618285614554565b60408101614f8a8285614554565b6110db6020830184614f19565b602080825281016110db81846146d3565b602080825281016110db8184614734565b602080825281016110db8184614782565b602080825281016110db81846147d0565b602080825281016110db818461481e565b602080825281016110db818461486c565b602080825281016110db81846148ba565b602081016106478284614997565b602080825281016110db818461495f565b60208082528101610647816149cf565b6020808252810161064781614a08565b602080825281016110db8184614a4b565b60c081016106478284614c02565b60e081016106478284614c72565b61024081016106478284614cf5565b604081016106478284614e5e565b608081016106478284614e82565b606081016106478284614ecc565b602081016106478284614f10565b60408101614f618285614f10565b6040518181016001600160401b03811182821017156150ed57600080fd5b604052919050565b60006001600160401b0382111561510b57600080fd5b5060209081020190565b60006001600160401b0382111561512b57600080fd5b506020601f91909101601f19160190565b60200190565b5190565b90815260200190565b919050565b60006106478261516f565b151590565b600061064782615154565b6001600160a01b031690565b6001600160e01b031690565b90565b63ffffffff1690565b60ff1690565b6001600160601b031690565b600061064782615164565b60006106478261518a565b60005b838110156151d65781810151838201526020016151be565b83811115614bfc5750506000910152565b601f01601f191690565b6151fa81615154565b811461520557600080fd5b50565b6151fa8161515f565b6151fa81615164565b6151fa8161517b565b6151fa81615187565b6151fa8161518a565b6151fa81615193565b6151fa8161519956fea365627a7a723158207806d40619a843e92e1aa916b324bf41fe0ef20a6cad11ac8e753defb918c1916c6578706572696d656e74616cf564736f6c63430005100040",
  "linkReferences": {},
  "deployedLinkReferences": {}
}